:020000022000DC
:106000000000012019620200016202000362020026
:10601000056202000762020009620200000000003F
:106020000000000000000000000000000B62020001
:106030000D620200000000000F6202001162020007
:1060400065DC020013620200E9E30200D9FB0200F2
:106050006DEF020013620200E5E2020075E5020046
:106060001362020013620200136202001362020054
:106070001362020013620200136202001362020044
:106080001362020025230300136202001362020060
:106090001362020013620200794F030013620200D0
:1060A0001362020013620200136202001362020014
:1060B00013620200136202000000000000000000F2
:1060C00013620200136202001362020081EF0200F9
:1060D000136202001362020013620200000000005B
:1060E00000000000000000000000000000000000B0
:1060F00000000000000000000000000000000000A0
:10610000000000000000000000000000000000008F
:10611000000000000000000000000000000000007F
:10612000000000000000000000000000000000006F
:10613000000000000000000000000000000000005F
:10614000000000000000000000000000000000004F
:10615000000000000000000000000000000000003F
:10616000000000000000000000000000000000002F
:10617000000000000000000000000000000000001F
:10618000000000000000000000000000000000000F
:1061900000000000000000000000000000000000FF
:1061A00000000000000000000000000000000000EF
:1061B00000000000000000000000000000000000DF
:1061C00000000000000000000000000000000000CF
:1061D00000000000000000000000000000000000BF
:1061E00000000000000000000000000000000000AF
:1061F000000000000000000000000000000000009F
:10620000FEE7FEE7FEE7FEE7FEE7FEE7FEE7FEE766
:10621000FEE7FEE700F002B8FFF7FCBF0F484FF0C3
:106220000701884385460E4880470E48016841F4BF
:1062300070010160BFF34F8FBFF36F8F00F01AB88A
:1062400009480A490A4A884207D0521A05D00378F9
:1062500001300B700131013AF9D170470000012083
:10626000FD9B020088ED00E044870300D82A00204F
:10627000D82A0020344935480A1A02D0072291430F
:106280008D46334933480A1A06D00722914381F3D9
:106290000988022282F314882F483049304A00F0DE
:1062A00041F830483049314A00F03CF83048314933
:1062B000314A00F037F831483149324A00F032F8BB
:1062C00031483249324A00F02DF832483249334AD7
:1062D00000F028F832483349334A00F023F83348B5
:1062E0003349002200F029F832483349002200F0F7
:1062F00024F832483249091A12F068F9314A9047B5
:106300001F482049884205D00268043003B49047F2
:1063100003BCF7E700208646EC46002000212A4A0D
:106320009047FEE7884207D0521A05D00378013023
:106330000B700131013AF9D17047884202D00270E6
:106340000130FAE7704700000000012000E0002063
:1063500000000120000001200CAB0300D82A00201F
:10636000382C0020CC630200CC630200E0850300DF
:106370000CAB0300D82A0020D82A00204487030051
:1063800044870300448703004487030044870300D5
:1063900044870300448703004487030009AB0300DC
:1063A0006CAC0300382C0020382C0020382C002046
:1063B00018510020185100201851002018510020B9
:0C63C00018710020416202007D74020090
:1063CC00A8DF704700BF1846AEDF704700BF184605
:1063DC0062DF704700BF184610B58CB00190009179
:1063EC00304B02AC0FCB84E80F00019B002B01D18A
:1063FC000E2353E0009B002B01D10E234EE0009B9B
:10640C001A68019B5A60009B1A79019B83F824201F
:10641C00019A02AB11461846FFF7DAFF0B900B9B63
:10642C000A930A9B002B01D00A9B37E0019B1B7837
:10643C008DF81A3041F23423ADF81830019B03F17A
:10644C00080206AB19460120FFF7BAFF0B900B9B15
:10645C000993099B002B01D0099B1FE00022009996
:10646C00019800F0B3F80B900B9B0893089B002B42
:10647C0001D0089B12E001220099019800F0A6F8C7
:10648C000B900B9B0793079B002B01D0079B05E000
:10649C0002220099019800F099F8034618460CB0B6
:1064AC0010BD00BF4C87030000B597B003900846A1
:1064BC0011461A460346ADF80A300B46ADF80830C3
:1064CC0013468DF80730BDF808304FF6FF72934233
:1064DC0053D00223ADF83E3010AB102200211846E9
:1064EC0012F03EF89DF80730039A0133DB00134499
:1064FC005B88ADF8403001238DF842300023ADF8B5
:10650C0044300DF13E0312930DF10A031393BDF8C1
:10651C0008304FF6FE72934226D104AB184605F0B4
:10652C00E5FB002314931AE0149B5B0058336B4477
:10653C0033F8443C184605F0AFFB0346022B0BD155
:10654C00149B5B0058336B4433F8442C10AB11464E
:10655C00184600F081F81590149B01331493049B9A
:10656C00149A9A42E0D30AE0BDF8082010AB114609
:10657C00184600F071F8159001E008231593159B4F
:10658C00184617B05DF804FB00B585B0019000917A
:10659C00009B002B15D0019B002B12D0009B03936A
:1065AC00019B1B88102B02D0502B05D00AE00199BF
:1065BC00039800F079F805E00199039800F07AF857
:1065CC0000E000BF05B05DF804FB000000B58DB025
:1065DC000390029113468DF8073004AB2022002162
:1065EC00184611F0BDFF9DF807301A4A32F81330E7
:1065FC00ADF810300223ADF814300223ADF816308C
:10660C00039B93F824209DF81D3062F304138DF83E
:10661C001D309DF81D3043F002038DF81D30029B98
:10662C005B7B8DF82330029B1B7B8DF82130039B09
:10663C0018899DF807300133DB00039A13449A1C28
:10664C0004AB194605F046FC034618460DB05DF840
:10665C0004FB00BF4487030000B585B001900B46D6
:10666C00ADF80230BDF8023001991846FFF7ACFEC8
:10667C000390039B002B0CD1084A094BD31ADB085F
:10668C001B0443F00303BDF80220064918460DF025
:10669C008FFC039B184605B05DF804FBBC86030019
:1066AC007C8603005C87030082B00190009100BFE0
:1066BC0002B0704782B00190009100BF02B07047E9
:1066CC00A8DF704700BF184662DF704700BF18464E
:1066DC0010B58CB001900091304B02AC0FCB84E81C
:1066EC000F00019B002B01D10E2353E0009B002BCC
:1066FC0001D10E234EE0009B1A68019B5A60009B4F
:10670C001A79019B83F82420019A02AB1146184692
:10671C00FFF7DAFF0B900B9B0A930A9B002B01D01F
:10672C000A9B37E0019B1B788DF81A3044F2342316
:10673C00ADF81830019B03F1080206AB1946012095
:10674C00FFF7BEFF0B900B9B0993099B002B01D00D
:10675C00099B1FE000220099019800F043F80B9070
:10676C000B9B0893089B002B01D0089B12E0012285
:10677C000099019800F036F80B900B9B0793079B40
:10678C00002B01D0079B05E002220099019800F034
:10679C0029F8034618460CB010BD00BFA8870300AB
:1067AC0000B585B001900091009B002B15D0019B8A
:1067BC00002B12D0009B0393019B1B88102B02D043
:1067CC00502B05D00AE00199039800F051F805E030
:1067DC000199039800F052F800E000BF05B05DF895
:1067EC0004FB000000B58DB00390029113468DF8A8
:1067FC00073004AB20220021184611F0B1FE9DF8A1
:10680C0007301A4A32F81330ADF810300223ADF8C5
:10681C0014300223ADF81630039B93F824209DF816
:10682C001D3062F304138DF81D309DF81D3043F0BC
:10683C0002038DF81D30029B5B7B8DF82330029B8D
:10684C001B7B8DF82130039B18899DF80730013391
:10685C00DB00039A13449A1C04AB194605F03AFB6F
:10686C00034618460DB05DF804FB00BFA08703007B
:10687C0082B00190009100BF02B0704782B00190CD
:10688C00009100BF02B07047A8DF704700BF1846E8
:10689C00AEDF704700BF184662DF704700BF184676
:1068AC0010B58CB001900091304B02AC0FCB84E84A
:1068BC000F00019B002B01D10E2353E0009B002BFA
:1068CC0001D10E234EE0009B1A68019B5A60009B7D
:1068DC001A79019B83F82420019A02AB11461846C1
:1068EC00FFF7DAFF0B900B9B0A930A9B002B01D04E
:1068FC000A9B37E0019B1B788DF81A3043F2342346
:10690C00ADF81830019B03F1080206AB19460120C3
:10691C00FFF7BAFF0B900B9B0993099B002B01D03F
:10692C00099B1FE000220099019800F0B3F80B902E
:10693C000B9B0893089B002B01D0089B12E00122B3
:10694C000099019800F0A6F80B900B9B0793079BFE
:10695C00002B01D0079B05E002220099019800F062
:10696C0099F8034618460CB010BD00BFC087030051
:10697C0000B597B00390084611461A460346ADF889
:10698C000A300B46ADF8083013468DF80730BDF8C9
:10699C0008304FF6FF72934253D00223ADF83E30CD
:1069AC0010AB10220021184611F0DAFD9DF80730CB
:1069BC00039A0133DB0013445B88ADF840300123AC
:1069CC008DF842300023ADF844300DF13E031293A4
:1069DC000DF10A031393BDF808304FF6FE72934283
:1069EC0026D104AB184605F081F9002314931AE064
:1069FC00149B5B0058336B4433F8443C184605F049
:106A0C004BF90346022B0BD1149B5B0058336B44A0
:106A1C0033F8442C10AB1146184600F081F8159051
:106A2C00149B01331493049B149A9A42E0D30AE00A
:106A3C00BDF8082010AB1146184600F071F81590FF
:106A4C0001E008231593159B184617B05DF804FB5D
:106A5C0000B585B001900091009B002B15D0019BD7
:106A6C00002B12D0009B0393019B1B88102B02D090
:106A7C00502B05D00AE00199039800F079F805E055
:106A8C000199039800F07AF800E000BF05B05DF8BA
:106A9C0004FB000000B58DB00390029113468DF8F5
:106AAC00073004AB20220021184611F059FD9DF847
:106ABC0007301A4A32F81330ADF810300223ADF813
:106ACC0014300223ADF81630039B93F824209DF864
:106ADC001D3062F304138DF81D309DF81D3043F00A
:106AEC0002038DF81D30029B5B7B8DF82330029BDB
:106AFC001B7B8DF82130039B18899DF807300133DF
:106B0C00DB00039A13449A1C04AB194605F0E2F916
:106B1C00034618460DB05DF804FB00BFB8870300B0
:106B2C0000B585B001900B46ADF80230BDF80230CF
:106B3C0001991846FFF7ACFE0390039B002B0CD178
:106B4C00084A094BD31ADB081B0443F00303BDF8B6
:106B5C000220064918460DF02BFA039B184605B087
:106B6C005DF804FBBC8603007C860300D087030021
:106B7C0082B00190009100BF02B0704782B00190CA
:106B8C00009100BF02B07047A8DF704700BF1846E5
:106B9C00AEDF704700BF184662DF704700BF184673
:106BAC0010B58CB001900091304B02AC0FCB84E847
:106BBC000F00019B002B01D10E2353E0009B002BF7
:106BCC0001D10E234EE0009B1A68019B5A60009B7A
:106BDC001A79019B83F82420019A02AB11461846BE
:106BEC00FFF7DAFF0B900B9B0A930A9B002B01D04B
:106BFC000A9B37E0019B1B788DF81A3042F2342344
:106C0C00ADF81830019B03F1080206AB19460120C0
:106C1C00FFF7BAFF0B900B9B0993099B002B01D03C
:106C2C00099B1FE000220099019800F0B3F80B902B
:106C3C000B9B0893089B002B01D0089B12E00122B0
:106C4C000099019800F0A6F80B900B9B0793079BFB
:106C5C00002B01D0079B05E002220099019800F05F
:106C6C0099F8034618460CB010BD00BF18880300F5
:106C7C0000B597B00390084611461A460346ADF886
:106C8C000A300B46ADF8083013468DF80730BDF8C6
:106C9C0008304FF6FF72934253D00223ADF83E30CA
:106CAC0010AB10220021184611F05AFC9DF8073049
:106CBC00039A0133DB0013445B88ADF840300123A9
:106CCC008DF842300023ADF844300DF13E031293A1
:106CDC000DF10A031393BDF808304FF6FE72934280
:106CEC0026D104AB184605F001F8002314931AE0E2
:106CFC00149B5B0058336B4433F8443C184604F047
:106D0C00CBFF0346022B0BD1149B5B0058336B4417
:106D1C0033F8442C10AB1146184600F081F815904E
:106D2C00149B01331493049B149A9A42E0D30AE007
:106D3C00BDF8082010AB1146184600F071F81590FC
:106D4C0001E008231593159B184617B05DF804FB5A
:106D5C0000B585B001900091009B002B15D0019BD4
:106D6C00002B12D0009B0393019B1B88102B02D08D
:106D7C00502B05D00AE00199039800F079F805E052
:106D8C000199039800F07AF800E000BF05B05DF8B7
:106D9C0004FB000000B58DB00390029113468DF8F2
:106DAC00073004AB20220021184611F0D9FB9DF8C6
:106DBC0007301A4A32F81330ADF810300223ADF810
:106DCC0014300223ADF81630039B93F824209DF861
:106DDC001D3062F304138DF81D309DF81D3043F007
:106DEC0002038DF81D30029B5B7B8DF82330029BD8
:106DFC001B7B8DF82130039B18899DF807300133DC
:106E0C00DB00039A13449A1C04AB194605F062F894
:106E1C00034618460DB05DF804FB00BF1088030054
:106E2C0000B585B001900B46ADF80230BDF80230CC
:106E3C0001991846FFF7ACFE0390039B002B0CD175
:106E4C00084A094BD31ADB081B0443F00303BDF8B3
:106E5C000220064918460DF0ABF8039B184605B006
:106E6C005DF804FBBC8603007C86030028880300C5
:106E7C0082B00190009100BF02B0704782B00190C7
:106E8C00009100BF02B0704700B585B00190019B26
:106E9C00002B0AD0074B43F001030393019B9B018A
:106EAC000293039B0298984700E000BF05B05DF881
:106EBC0004FB00BFA088030000B583B00190019BC8
:106ECC000433184608F084FA00BF03B05DF804FBE5
:106EDC0000B589B0059003921A460B468DF8133015
:106EEC0013468DF8123000230793059B181D9DF84F
:106EFC0012209DF813109DF8283000931346039A26
:106F0C0008F084FD0790079B184609B05DF804FB58
:106F1C0000B587B0039001921A460B468DF80B30E2
:106F2C0013468DF80A3000230593039B181D9DF81A
:106F3C000A309DF80B10019A08F090FD0590059B06
:106F4C00184607B05DF804FB82B001904FF0A043E7
:106F5C00184602B0704700B585B00190084611463E
:106F6C001A4603468DF803300B468DF80230134653
:106F7C008DF8013001AB1846FFF7E6FF03909DF842
:106F8C0003209DF802305B001A439DF801309B00F2
:106F9C001A439DF818301B0242EA03019DF81C307D
:106FAC001B04019A1943039B02F5E07243F822106B
:106FBC0000BF05B05DF804FB00B585B0039000235D
:106FCC000193002300930023012201210398FFF772
:106FDC00C2FF00BF05B05DF804FB00B585B003909F
:106FEC000B468DF80B309DF80B30002201920022DD
:106FFC000092002200210398FFF7ADFF00BF05B0FF
:10700C005DF804FB00B585B0019001AB1846FFF7A5
:10701C009BFF0390019B012202FA03F3194603988C
:10702C0000F02AF800BF05B05DF804FB00B585B090
:10703C00019001AB1846FFF787FF0390019B0122DB
:10704C0002FA03F31946039800F020F800BF05B0CC
:10705C005DF804FB00B583B001900091009B002B00
:10706C0003D10198FFF7E2FF02E00198FFF7CAFF96
:10707C0000BF03B05DF804FB82B001900091019B4E
:10708C00009AC3F8082500BF02B0704782B0019087
:10709C000091019B009AC3F80C2500BF02B0704709
:1070AC0000B583B00190019B002B0AD04FF47A708D
:1070BC00FFF7EAFE019B013B0193019B002BF5D1ED
:1070CC0000E000BF03B05DF804FB08B500F06AF8FF
:1070DC0000F0EAF800F090F800F0BAF800BF08BD34
:1070EC0000B587B00346049103928DF81730039BCB
:1070FC00DBB29DF8171000220092049A0648FFF7A5
:10710C00E7FE0346002B01D0002300E001231846C4
:10711C0007B05DF804FB00BFD82A002000B587B08B
:10712C000346049103928DF817309DF81710012334
:10713C000093002300220A48FFF7CAFE039BDBB230
:10714C009DF81710049A0648FFF7E2FE0346002B41
:10715C0001D0002300E00123184607B05DF804FBC2
:10716C00D82A002000B583B001900198FFF798FF52
:10717C0000BF03B05DF804FB00B583B003460A46BC
:10718C008DF8073013468DF806309DF807309DF8C2
:10719C00062011461846FFF75DFF00BF03B05DF8EF
:1071AC0004FB000000B587B06B4600221A605A60E1
:1071BC009A60DA6005230093042301934FF0CD63AA
:1071CC00029302238DF80C306946002300220948F3
:1071DC0006F014FB0590059B0493049B002B02D036
:1071EC0004980AF09FF80348FFF766FE00BF07B04B
:1071FC005DF804FBD82A002010B586B0124B6C4603
:10720C000FCB84E80F0019238DF801301C238DF867
:10721C0002301D238DF8003001238DF80C304FF017
:10722C0080530293694600230022084806F09AF91D
:10723C000590059B0493049B002B02D004980AF044
:10724C0071F800BF06B010BD90880300E82A00203A
:10725C0010B586B0124B6C460FCB84E80F0005239B
:10726C008DF801300C238DF8023002238DF800309C
:10727C0000238DF80C304FF0004302936946002335
:10728C000022084806F06EF90590059B0493049BB8
:10729C00002B02D004980AF045F800BF06B010BDD0
:1072AC0090880300F82A002000B583B006F01EFF7A
:1072BC000190019B0093009B002B02D000980AF0D8
:1072CC0031F803211420FFF788FE00210D20FFF771
:1072DC0084FE0420FFF770FE1F20FFF76DFE1320C5
:1072EC00FFF76AFE1E20FFF767FE1720FFF764FE0C
:1072FC001220FFF761FE1820FFF75EFE012104202B
:10730C00FFF73AFF01211F20FFF736FF0121132061
:10731C00FFF732FF00211E20FFF72EFF0121122064
:10732C00FFF72AFF00211720FFF726FF0021182066
:10733C00FFF722FF00BF03B05DF804FB00B583B07C
:10734C00019000910A4800F0B9FE094800F090FF46
:10735C000C220849019811F0CDF80C22064900982E
:10736C0011F0C8F80023184603B05DF804FB00BF09
:10737C003C2C0020642C0020A02C002000B585B0F3
:10738C000190019B002B0AD0074B43F001030393A0
:10739C00019B9B010293039B0298984700E000BF5E
:1073AC0005B05DF804FB00BFB088030000B583B0E6
:1073BC000190019B002B0AD04FF47A70FFF7DEFF8F
:1073CC00019B013B0193019B002BF5D100E000BF19
:1073DC0003B05DF804FB000000B583B00190019987
:1073EC00044801F0A3F80120FFF7E0FF00BF03B051
:1073FC005DF804FBC42C002000B585B0039002910D
:10740C001346ADF80630039B99B2BDF80630029ACC
:10741C00084801F0E9F80120FFF7C8FF0399054877
:10742C0001F06EF90120FFF7C1FF00BF05B05DF858
:10743C0004FB00BFC42C002076DF704700BF184649
:10744C007ADF704700BF18467CDF704700BF1846D4
:10745C007FDF704700BF18468FDF704700BF1846AC
:10746C00B1DF704700BF184633DF704700BF1846C6
:10747C0008B50F4B00221A7400F058FC00F01AF8F3
:10748C0000F06CFC00F0A0FB00F05CF800F0EEFBF0
:10749C0000F0D8F900F00EFC00F024FA00F056FDD4
:1074AC00FFF713FE00F052FD01F0C6F9FEE700BF36
:1074BC00D02C002000B587B00AF05EFA0590059B31
:1074CC000493049B002B02D0049809F02BFF174A5D
:1074DC00012117480AF08EFA0590059B0393039B34
:1074EC00002B02D0039809F01DFF124A012112480B
:1074FC000AF080FA0590059B0293029B002B02D0A8
:10750C00029809F00FFF0D4A01210D480AF072FA9A
:10751C000590059B0193019B002B02D0019809F06B
:10752C0001FF00BF07B05DF804FB00BFB57D020092
:10753C00B88803008B7D0200BC8803009D7D02008F
:10754C00C088030000B587B09DF80030012262F3BB
:10755C0003038DF800309DF80030012262F307130D
:10756C008DF800306B460A2218491846FFF76CFF5D
:10757C000590059B0493049B002B02D0049809F002
:10758C00D1FE01AB08220021184610F0E9FF1023B0
:10759C00ADF804303C23ADF806300023ADF80830CC
:1075AC004FF4C873ADF80A3001AB1846FFF748FF2B
:1075BC000590059B0393039B002B02D0039809F0C5
:1075CC00B1FE00BF07B05DF804FB00BFC488030028
:1075DC0000B583B00190019809F0A4FE00BF03B080
:1075EC005DF804FB00B587B06B46102200211846ED
:1075FC0010F0B6FF0023009301238DF80430002314
:10760C00029301238DF80C3001238DF80D300123EA
:10761C008DF80E306B4619460748FEF7DDFE0590D7
:10762C00059B0493049B002B02D0049809F07AFE6E
:10763C0000BF07B05DF804FBE82C002000B587B054
:10764C006B4610220021184610F08AFF002300938D
:10765C0001238DF804300023029301238DF80C30A4
:10766C0001238DF80D3001238DF80E306B46194631
:10767C000748FFF72DF80590059B0493049B002BFE
:10768C0002D0049809F04EFE00BF07B05DF804FB71
:10769C00602D002000B587B06B46102200211846E3
:1076AC0010F05EFF0023009301238DF804300023BB
:1076BC00029301238DF80C3001238DF80D3001233A
:1076CC008DF80E306B46194607480DF095FE059067
:1076DC00059B0493049B002B02D0049809F022FE16
:1076EC0000BF07B05DF804FB882D002000B587B003
:1076FC006B4610220021184610F032FF0023009335
:10770C0001238DF804300023029301238DF80C30F3
:10771C0001238DF80D3001238DF80E306B46194680
:10772C000748FFF7BDF80590059B0493049B002BBD
:10773C0002D0049809F0F6FD00BF07B05DF804FB19
:10774C00382D002000B587B06B461022002118465A
:10775C0010F006FF0023009301238DF80430002362
:10776C00029301238DF80C3001238DF80D30012389
:10777C008DF80E306B4619460748FFF711FA059045
:10778C00059B0493049B002B02D0049809F0CAFDBE
:10779C0000BF07B05DF804FB102D002000B587B0CA
:1077AC006B4610220021184610F0DAFE00230093DD
:1077BC0001238DF804300023029364238DF80C30E0
:1077CC0001238DF80D3001238DF80E3001238DF837
:1077DC000F306B461946084805F0E0F90590059BFB
:1077EC000493049B002B02D0049809F09BFD00BF6E
:1077FC0007B05DF804FB00BFB02D002000B593B0BE
:10780C006B4640220021184610F0AAFE6B460C492C
:10781C00184604F0DAFA01238DF83C306B46184612
:10782C0005F022FC1190119B1093109B002B02D0A1
:10783C00109809F077FD00BF13B05DF804FB00BF92
:10784C00D088030000B585B000230193104B019341
:10785C0001AB19460F4804F0B1FF0390039B029350
:10786C00029B002B02D0029809F05CFDFFF7BAFED8
:10787C00FFF768FFFFF73AFFFFF7E0FEFFF70AFF9D
:10788C00FFF78CFFFFF7BAFF00BF05B05DF804FBF4
:10789C00DD750200D82D002000B585B00190019B4C
:1078AC001B78002B0ED1094B1B883B211846FFF788
:1078BC00C3FD0390039B0293029B002B02D0029802
:1078CC0009F030FD00BF05B05DF804FB682B00200B
:1078DC0000B583B00190019809F024FD00BF03B0FE
:1078EC005DF804FB00B58BB001AB1C2200211846DF
:1078FC0010F036FE002301934FF4A03302934FF4A3
:10790C00F023039303238DF810300023ADF81230CD
:10791C0000238DF814300A4B06930A4B079301ABE6
:10792C00184603F08BFE0990099B0893089B002BCB
:10793C0002D0089809F0F6FC00BF0BB05DF804FB10
:10794C00A5780200DD78020000B585B0002001F0BA
:10795C00DDFC0390039B0293029B002B02D0029848
:10796C0009F0E0FC01F0CFFD0390039B0193019B18
:10797C00002B02D0019809F0D5FCFFF775FD0390A0
:10798C00039B0093009B002B02D0009809F0CAFCCB
:10799C0000BF05B05DF804FB00B585B003468DF85B
:1079AC0007309DF80730002B0ED0032B0FD102208F
:1079BC0001F0ACFC0390039B0293029B002B08D0BC
:1079CC00029809F0AFFC04E0FFF7BEFF02E000BF35
:1079DC0000E000BF00BF05B05DF804FB00B58DB042
:1079EC0001900091019B1B88562B00F0C080562BF8
:1079FC0000F3CD80522B00F09980522B00F3C780FE
:107A0C00212B2DDC102BC0F2C280103B112B00F26D
:107A1C00BE8001A252F823F0737A0200C97A0200E8
:107A2C009B7B0200177B02009B7B02009B7B02006E
:107A3C009B7B02009B7B02009B7B02009B7B0200DA
:107A4C009B7B02009B7B02009B7B02009B7B0200CA
:107A5C009B7B02009B7B02009B7B0200E97A02006D
:107A6C003B2B74D093E0524A524BD31ADB081B04C5
:107A7C0043F00303504918460CF08CFA072001F030
:107A8C0045FC0B900B9B0593059B002B02D0059896
:107A9C0009F048FC019B9A88484B1A80474B1B887D
:107AAC001946474804F0ACFE0B900B9B0493049BC7
:107ABC00002B6ED0049809F035FC6AE03C4A3D4B33
:107ACC00D31ADB081B0443F003033E4918460CF0A1
:107ADC0061FA3A4B4FF6FF721A8065E000238DF87D
:107AEC000C3000238DF80D30019B9B8803AA1146A6
:107AFC001846FFF7B1FC0B900B9B0793079B002BD1
:107B0C0049D0079809F00EFC45E02C4B188800234F
:107B1C0000228521FFF79CFC0B900B9B0693069B88
:107B2C00002B3AD0069809F0FDFB36E0234B188861
:107B3C00002300220021FFF793FC0B900B9B099371
:107B4C00099B002B2BD0099809F0ECFB27E0019B3B
:107B5C009B8813211846FFF76FFC0B900B9B089327
:107B6C00089B002B1DD0089809F0DCFB19E0019B49
:107B7C009B8813211846FFF75FFC0B900B9B0A9315
:107B8C000A9B002B0FD00A9809F0CCFB0BE000BF2E
:107B9C000AE000BF08E000BF06E000BF04E000BF41
:107BAC0002E000BF00E000BF00BF0DB05DF804FBB9
:107BBC00BC8603007C860300DC880300682B002055
:107BCC00D82D0020E888030000B587B00DF04CF9E3
:107BDC000590059B0493049B002B02D0049809F09C
:107BEC00A1FB0023019301AB194601200DF0E8F92C
:107BFC000590059B0393039B002B02D0039809F07F
:107C0C0091FB01AB18460DF0F9FA0590059B029318
:107C1C00029B002B02D0029809F084FB00BF07B036
:107C2C005DF804FB00B583B001900091009B1B88AC
:107C3C0040F6772293420ED1094A0A4BD31ADB083D
:107C4C001B0443F00300009B5B881A46009B9B8837
:107C5C0005490CF0BEF900BF03B05DF804FB00BF92
:107C6C00BC8603007C860300F888030000B585B051
:107C7C000E490F4804F0A2FC0390039B0293029B55
:107C8C00002B02D0029809F04DFBF721084804F0B4
:107C9C00C0FC0390039B0193019B002B02D0019825
:107CAC0009F040FB00BF05B05DF804FB317C02001D
:107CBC00C42D002000B5AFB001ABAC22002118469A
:107CCC0010F04EFC02238DF8043000238DF80630A2
:107CDC0005238DF807300223ADF85030104B159367
:107CEC0001238DF880304023239344F25063249376
:107CFC000C4B2A9301AB19460B4803F03DF92D9020
:107D0C002D9B2C932C9B002B02D02C9809F00AFB5A
:107D1C000121054803F023F900BF2FB05DF804FBE7
:107D2C006C2B0020A5790200E42D002000B583B057
:107D3C004FF4804108480BF051FE0190019B0093D9
:107D4C00009B002B02D0009809F0ECFA0BF0D8FD48
:107D5C0000BF03B05DF804FB5D1B030000B583B0EE
:107D6C000BF07AFA0190019B0093009B002B02D040
:107D7C00009809F0D7FA00BF03B05DF804FB00B51A
:107D8C0083B0019000F01AF800BF03B05DF804FB5B
:107D9C0082B00190034B1B680133024A136000BF91
:107DAC0002B07047382C002000B583B0019000F071
:107DBC0045F800BF03B05DF804FB000000B583B0CC
:107DCC0000238DF807300DF10703184600F0D4FAA4
:107DDC009DF807309AB2164B1B8813449AB2144B79
:107DEC001A80144B1B780133DAB2124B1A70114BF8
:107DFC001B78092B17D90E4B1B881A460D4B1B7879
:107E0C0092FBF3F3DBB28DF807300A4B00221A70A9
:107E1C00074B00221A809DF807304FF6FE72194668
:107E2C00054804F01BFF00BF03B05DF804FB00BF66
:107E3C00183200201A320020B02D002000B587B077
:107E4C006A4603AB11461846FFF778FADDED037A64
:107E5C00FCEEE77A17EE903A99B200234FF6FE72D9
:107E6C003748FEF721FBDDED047AFCEEE77A17EEDE
:107E7C00903A99B201234FF6FE723148FEF714FB8B
:107E8C00DDED057AFCEEE77A17EE903A99B2022313
:107E9C004FF6FE722A48FEF707FBDDED007AFCEE8A
:107EAC00E77A17EE903A99B200234FF6FE72254806
:107EBC00FEF7DEFEDDED017AFCEEE77A17EE903A86
:107ECC0099B201234FF6FE721E48FEF7D1FEDDED8E
:107EDC00027AFCEEE77A17EE903A99B202234FF64B
:107EEC00FE721848FEF7C4FEDDED007AFCEEE77A70
:107EFC0017EE903A99B200234FF6FE721248FEF735
:107F0C0037FDDDED017AFCEEE77A17EE903A99B287
:107F1C0001234FF6FE720C48FEF72AFDDDED027AC6
:107F2C00FCEEE77A17EE903A99B202234FF6FE7206
:107F3C000548FEF71DFD00BF07B05DF804FB00BF50
:107F4C00E82C0020102D0020382D002000B585B025
:107F5C00194B00224FF40041184609F071FD0390B3
:107F6C00039B0293029B002B02D0029809F0DAF9D2
:107F7C00124B00224FF4A021184609F061FD03902A
:107F8C00039B0193019B002B02D0019809F0CAF9C5
:107F9C000B4B00221021184609F052FD0390039B55
:107FAC000093009B002B02D0009809F0BBF900BF96
:107FBC0005B05DF804FB00BF082B0020282B002027
:107FCC00482B002000B587B001900DF1150201235C
:107FDC003A21019800F0A2F903468DF817309DF86C
:107FEC001730002B0ED0304A304BD31ADB081B0451
:107FFC0043F001032E4A2F4918460BF0D9FF9DF888
:10800C0017304CE09DF81530002B47D003AA0623FF
:10801C003B21019800F082F903468DF816309DF84B
:10802C001630002B0ED0204A204BD31ADB081B0431
:10803C0043F00103204A1F4918460BF0B9FF9DF885
:10804C0016302CE09DF80C309BB21B029AB29DF8B6
:10805C000D309BB213449BB21AB2019BA3F8402083
:10806C009DF80E309BB21B029AB29DF80F309BB25A
:10807C0013449BB21AB2019BA3F842209DF8103016
:10808C009BB21B029AB29DF811309BB213449BB267
:10809C001AB2019BA3F84420002300E002231846E7
:1080AC0007B05DF804FB00BFBC8603007C860300B0
:1080BC00AC8B030068890300E88B030000B585B026
:1080CC0001900198FFF77EFF03468DF80F309DF865
:1080DC000F30002B0ED0264A264BD31ADB081B047C
:1080EC0043F00103244A254918460BF061FF9DF823
:1080FC000F3039E0019BB3F9403007EE903AF8EEBF
:10810C00E77A9FED1F7A37EE877A019BD3ED127ACF
:10811C0067EE277A019BC3ED0A7A019BB3F94230D3
:10812C0007EE903AF8EEE77A9FED157A37EE877AFC
:10813C00019BD3ED127A67EE277A019BC3ED0B7A84
:10814C00019BB3F9443007EE903AF8EEE77A9FEDD5
:10815C000C7A37EE877A019BD3ED127A67EE277A89
:10816C00019BC3ED0C7A0023184605B05DF804FBA7
:10817C00BC8603007C860300248C03006889030002
:10818C000000000000B587B001900DF1150201232D
:10819C003A21019800F0C2F803468DF817309DF88B
:1081AC001730002B0ED02D4A2D4BD31ADB081B0495
:1081BC0043F001032B4A2C4918460BF0F9FE9DF8AD
:1081CC00173046E003AA06234321019800F0A6F8D5
:1081DC0003468DF816309DF81630002B0ED01F4A32
:1081EC001F4BD31ADB081B0443F001031F4A1E4923
:1081FC0018460BF0DDFE9DF816302AE09DF80C3089
:10820C009BB21B029AB29DF80D309BB213449BB2E9
:10821C001AB2019BA3F870209DF80E309BB21B0282
:10822C009AB29DF80F309BB213449BB21AB2019BC9
:10823C00A3F872209DF810309BB21B029AB29DF8E5
:10824C0011309BB213449BB21AB2019BA3F8742059
:10825C000023184607B05DF804FB00BFBC86030082
:10826C007C860300AC8B030068890300688C0300D8
:10827C0000B585B001900198FFF784FF03468DF897
:10828C000F309DF80F30002B0ED0204A204BD31A04
:10829C00DB081B0443F001031E4A1F4918460BF070
:1082AC0087FE9DF80F302DE0019BB3F9703007EE7F
:1082BC00903AB8EEE77A019BD3ED1E7A67EE277AF7
:1082CC00019BC3ED197A019BB3F9723007EE903A1A
:1082DC00B8EEE77A019BD3ED1E7A67EE277A019B05
:1082EC00C3ED1A7A019BB3F9743007EE903AB8EEED
:1082FC00E77A019BD3ED1E7A67EE277A019BC3EDDB
:10830C001B7A0023184605B05DF804FBBC860300FD
:10831C007C860300A48C03006889030010B584B02C
:10832C000390019200930B468DF80B30039BDC6F8E
:10833C00039B18789DF80B10009B019AA0470346ED
:10834C00002B0DD0084A094BD31ADB081B0443F051
:10835C000103074A074918460BF02AFE022300E0E6
:10836C000023184604B010BDBC8603007C860300B5
:10837C00C48C03006889030000B587B00190019B91
:10838C00002B4DD0284B1B8840F24B42934203D913
:10839C00019B64221A7023E0234B1B88B3F5257FC5
:1083AC0003D8019B00221A701AE01F4B1B8807EEA2
:1083BC00903AF8EE677A9FED1D7A37EEC77ADFEDCB
:1083CC001C6AC7EE267A9FED1B7A67EE877AFCEE65
:1083DC00E77ACDED007A9DF80030DAB2019B1A7085
:1083EC0006F09AFA034683F00103DBB2002B17D098
:1083FC000121114806F0E8F90590059B0493049BB4
:10840C00002B02D0049808F08DFF06F065FA059059
:10841C00059B0393039B002B02D0039808F082FF6B
:10842C0007B05DF804FB00BF1E320020000025449D
:10843C000000DC430000C8421C32002008B5144A7E
:10844C00144BD31ADB081B0443F0020312491846E1
:10845C000BF0A0FD114BDB78002B03D10F4B9B785D
:10846C00002B0BD00A4A0B4BD31ADB081B0443F02E
:10847C0002030B4918460BF08DFD07E040F2D47255
:10848C000021084810F06CF800F040F808BD00BF5F
:10849C00BC8603007C860300AC8F0300D02C00202C
:1084AC00C08F030020320020054B01229A70044B30
:1084BC000022DA70024B01221A7100BF704700BF14
:1084CC00D02C002082B003468DF80730074A9DF867
:1084DC0007305370054B0122DA70044B00229A705E
:1084EC00024B01221A7100BF02B07047D02C002041
:1084FC00054B0022DA70044B00229A70024B0022CA
:10850C001A7100BF704700BFD02C002008B540F294
:10851C00FF30FEF761FF40F2D472034940F2FF30A6
:10852C00FEF76AFF00BF08BD2032002000B585B001
:10853C0001900091009B1B0A8DF80F30009B8DF869
:10854C000E30D8238DF8083000238DF809309DF8B3
:10855C000F308DF80A309DF80E308DF80B3001215C
:10856C00019800F04CF903468DF80D309DF80D3054
:10857C00002B0ED0174A184BD31ADB081B0443F000
:10858C000103164A164918460BF012FD9DF80D30E2
:10859C001CE002A904230022019800F00FF9034605
:1085AC008DF80C309DF80C30002B0ED0094A0A4B7C
:1085BC00D31ADB081B0443F001030A4A0849184686
:1085CC000BF0F6FC9DF80C3000E00023184605B0CB
:1085DC005DF804FBBC8603007C86030080900300DE
:1085EC003C900300A090030000B587B0039001926B
:1085FC0000930B46ADF80A30BDF80A301B0A9BB24B
:10860C008DF81730BDF80A308DF8163002238DF82E
:10861C0010309DF817308DF811309DF816308DF80C
:10862C0012300121039800F0EAF803468DF815305A
:10863C009DF81530002B0ED02B4A2C4BD31ADB088F
:10864C001B0443F001032A4A2A4918460BF0B0FCDC
:10865C009DF8153043E0039B1B68002104209847CC
:10866C00039B5B6804A803220021984703468DF8FE
:10867C0014309DF81430002B0ED01B4A1B4BD31A10
:10868C00DB081B0443F001031B4A1A4918460BF084
:10869C008FFC9DF8143022E0039B5B68009A92B229
:1086AC0000210198984703468DF813309DF813303C
:1086BC00002B0ED00C4A0D4BD31ADB081B0443F0D5
:1086CC0001030E4A0B4918460BF072FC9DF813304F
:1086DC0005E0039B1B6801210420984700231846E2
:1086EC0007B05DF804FB00BFBC8603007C8603006A
:1086FC00809003003C900300D89003000C91030081
:10870C0000B585B001900091009B1B0A8DF80F30CD
:10871C00009B8DF80E3010238DF8083000238DF857
:10872C0009309DF80F308DF80A309DF80E308DF819
:10873C000B300121019800F062F803468DF80D30E2
:10874C009DF80D30002B0ED0174A184BD31ADB08AE
:10875C001B0443F00103164A164918460BF028FC7B
:10876C009DF80D301CE002A904230022019800F0B2
:10877C0025F803468DF80C309DF80C30002B0ED0EC
:10878C00094A0A4BD31ADB081B0443F001030A4ABB
:10879C00084918460BF00CFC9DF80C3000E0002347
:1087AC00184605B05DF804FBBC8603007C8603000C
:1087BC00809003003C900300A090030000B587B0AC
:1087CC00039002910192ADF80230039B1B680021CB
:1087DC0004209847039B5B68BDF80220019902981E
:1087EC00984703468DF81730039B1B680121042022
:1087FC0098479DF81730184607B05DF804FB00B594
:10880C0085B001900B468DF803309DF80330002B9A
:10881C0003D006238DF80F3002E004238DF80F30BF
:10882C000DF10F01012300220198FFF7C7FF03464A
:10883C00184605B05DF804FB00B583B000F02AF8CB
:10884C000022104910480DF005FC0190019B002BF3
:10885C0001D0002312E0542200210C480FF080FEBE
:10886C000A480DF0D1FC0190019B002B01D0002394
:10887C0004E0002106480DF0B3FC0123184603B0B8
:10888C005DF804FB0D8B0200483A0020F4390020FF
:10889C002D8B0200084B094A1A60074B084A5A6094
:1088AC00054B084A9A60044B074ADA60024B074AA8
:1088BC001A61012318467047483A0020DD880200EF
:1088CC005D89020067890200B18A0200ED8A02000C
:1088DC0000B585B001901D4A02AB92E80300186008
:1088EC000433197000238DF80F3000238DF80E30EF
:1088FC0014E002AB052219464A20FEF7F1FB0346B1
:10890C00002B03D001238DF80F300BE01E20FEF757
:10891C0029FC9DF80E3001338DF80E309DF80E3089
:10892C00042BE6D99DF80F3083F00103DBB2002B4A
:10893C0002D04FF0FF3304E04FF49670FEF712FCB8
:10894C000023184605B05DF804FB00BF94910300AA
:10895C0082B0019000BF02B070472DE9F0438DB09A
:10896C0000AFF860B9607A603B606B461E4607F159
:10897C001403042219464A20FEF7D0FB034683F069
:10898C000103DBB2002B01D0002385E03B7D1AB242
:10899C007B7D1B021BB213431BB2FB84FB8CC3F30A
:1089AC000E03FB84FF233B62FB8C7A689A4201D254
:1089BC00002371E0FB8CFB85396A0B46013BFB61A4
:1089CC000023884699464FF000024FF000034FEA0F
:1089DC00C90343EA58734FEAC80200230C461D46EC
:1089EC004FF000024FF00003EB0043EA5473E20037
:1089FC00CB1DDB08DB00ADEB030D6B460033BB611D
:108A0C0000237B85012387F8293041E097F8293032
:108A1C00002B06D0FA8D3B6A934228BF1346BB85C8
:108A2C0006E0FB8D1A1D3B6A934228BF1346BB859B
:108A3C00BB8D1A46B9694A20FEF770FB034683F0DA
:108A4C000103DBB2002B01D0002325E097F829307D
:108A5C00002B0BD0BB8D7B857B8D1A46B969B86812
:108A6C000FF048FD002387F8293009E0BB8D043B4B
:108A7C007B85BB6904337A8D1946B8680FF03AFDD3
:108A8C007B8DBA681344BB60FA8D7B8DD31AFB8542
:108A9C00FB8D002BBAD1FB8CB54618463437BD463E
:108AAC00BDE8F08300B587B0039002910192FF23DB
:108ABC000593019A059B934228BF1346ADF81230DB
:108ACC00019A02994A20FEF70BFB0346002B01D0BA
:108ADC00002301E0BDF81230184607B05DF804FB26
:108AEC0084B00190054B1B684FF47A7202FB03F3C0
:108AFC000393039B184604B0704700BF382C00202A
:108B0C0082B001900091009B1B68002B02D1034B9B
:108B1C0001221A7000BF02B0704700BF603A0020FB
:108B2C0000B585B0019000910A4B1B68009918465E
:108B3C000DF088FB0390039B002B08D0054B1968A4
:108B4C004FF000024FF00003C1E9022300BF05B053
:108B5C005DF804FB5C3A002082B001904FF0A0431A
:108B6C00184602B0704700B585B0019001AB1846AD
:108B7C00FFF7F2FF0390019B012202FA03F319465F
:108B8C00039800F069F800BF05B05DF804FB00B570
:108B9C0085B0019001AB1846FFF7DEFF0390019BF7
:108BAC00012202FA03F31946039800F05FF800BFA4
:108BBC0005B05DF804FB00B585B0019001AB18461B
:108BCC00FFF7CAFF0390039BD3F804350293029B73
:108BDC00DA43019B012101FA03F31A40039BC3F80A
:108BEC000825019B01229A40029B1A40039BC3F863
:108BFC000C2500BF05B05DF804FB00B583B00190F7
:108C0C000091009B002B03D10198FFF7C0FF02E0FD
:108C1C000198FFF7A8FF00BF03B05DF804FB00B597
:108C2C0085B0019001AB1846FFF796FF03900398AF
:108C3C0000F00AF80246019B22FA03F303F0010349
:108C4C00184605B05DF804FB82B00190019BD3F887
:108C5C000435184602B0704782B001900091019B18
:108C6C00009AC3F8082500BF02B0704782B001908B
:108C7C000091019B009AC3F80C2500BF02B070470D
:108C8C0000B585B001900F4A019B13441B78184620
:108C9C00FFF7C5FF0346002B14BF012300238DF8FB
:108CAC000F309DF80F30002B14BF01230023DBB2D3
:108CBC0083F00103DBB203F00103DBB2184605B00D
:108CCC005DF804FB9C91030000B583B00190064A4B
:108CDC00019B13441B7800211846FFF78EFF00BF41
:108CEC0003B05DF804FB00BF9C91030000B583B09A
:108CFC000190064A019B13441B7801211846FFF78B
:108D0C007CFF00BF03B05DF804FB00BF9C91030027
:108D1C0000B583B00023019305E00198FFF7E6FF4F
:108D2C00019B01330193019B032BF6D900BF00BFBC
:108D3C0003B05DF804FB00B583B00023019305E09C
:108D4C000198FFF7C1FF019B01330193019B032B9A
:108D5C00F6D900BF00BF03B05DF804FB00B583B0CB
:108D6C000190054A019B13441B781846FFF723FF1B
:108D7C0000BF03B05DF804FB9C91030082B001902E
:108D8C00034A019B13441B78184602B0704700BF7E
:108D9C00A091030082B001904FF0A043184602B09E
:108DAC00704700B585B001900B468DF8033001ABD0
:108DBC001846FFF7EFFF0390019A039B02F5E07250
:108DCC0053F82230019A23F44031039B02F5E072F0
:108DDC0043F82210019A039B02F5E07253F82230FB
:108DEC009DF8032012041146019A1943039B02F5C6
:108DFC00E07243F8221000BF05B05DF804FB0000E0
:108E0C0000B583B00C4B1B78002B0FD000230193C3
:108E1C0008E0019B022B02D00198FFF767FF019B32
:108E2C0001330193019B032BF3D901E0FFF770FF92
:108E3C0000BF03B05DF804FB683A00202DE9D04F69
:108E4C0092B003468DF83F3000231193002310930A
:108E5C00CC4B1B78002B04D0CA4A00231370FFF7AD
:108E6C00CFFF9DF83F30172B00F23F8201A252F842
:108E7C0023F000BFE18E0200F98E0200F98E020091
:108E8C00958F020031900200AD90020041910200DA
:108E9C0061910200719102009D910200BB91020050
:108EAC00D9910200F791020005920200059202008E
:108EBC0005920200059202000592020099920200AE
:108ECC00A7920200BB920200CF920200E99202002C
:108EDC00E9920200FFF794FFAB4B184608F0FDFD3A
:108EEC001190AA4A9DF83F301370FFE10020FFF764
:108EFC00C7FE0346002B0DD00020FFF7F7FE9DF8B0
:108F0C003F30022B02D14FF4E16301E04FF47A635E
:108F1C0010930BE00020FFF7D7FE9DF83F30022B9B
:108F2C0001D1C82301E04FF4C8731093974A9DF800
:108F3C003F301370944C109B0022009301924FF021
:108F4C0000024FF00003DDE900673946CB033146E0
:108F5C0043EA51433146CA0312F57A71029143F147
:108F6C00000303934FF4FA624FF00003DDE90201B2
:108F7C000FF042F902460B461346002219462046D2
:108F8C0008F05EFD1190B1E10020FFF779FE034679
:108F9C00002B0DD00020FFF7A9FE9DF83F30032BCE
:108FAC0002D14FF4487301E04FF47A6310930BE055
:108FBC000020FFF789FE9DF83F30032B01D1C82319
:108FCC0001E04FF4C8731093704A9DF83F30137052
:108FDC006D4C109B0022049305924FF000024FF051
:108FEC000003DDE904673946CB03314643EA5143BC
:108FFC003146CA0312F57A71069143F100030793C7
:10900C004FF4FA624FF00003DDE906010FF0F4F8BB
:10901C0002460B46134600221946204608F010FD66
:10902C00119063E10020FFF72BFE0346002B06D0C6
:10903C000020FFF75BFE4FF47A63109305E00020ED
:10904C00FFF742FE4FF4C8731093504A9DF83F301F
:10905C0013704D4C109B00229A4693464FF0000221
:10906C004FF000034FEACB3343EA5A434FEACA327C
:10907C0012F57A71089143F1000309934FF4FA62E7
:10908C004FF00003DDE908010FF0B6F802460B467D
:10909C00134600221946204608F0D2FC119025E117
:1090AC000020FFF7EDFD0346002B0CD00020FFF74E
:1090BC001DFE9DF83F30052B01D1C82301E04FF474
:1090CC007A6310930BE00020FFF7FEFD9DF83F3014
:1090DC00052B01D1C82301E04FF4C87310932B4A20
:1090EC009DF83F301370284C109B002298469146F7
:1090FC004FF000024FF000034FEAC93343EA5843E4
:10910C004FEAC83212F57A710A9143F100030B93BE
:10911C004FF4FA624FF00003DDE90A010FF06CF82E
:10912C0002460B46134600221946204608F088FCDE
:10913C001190DBE00020FFF711FE144A9DF83F3040
:10914C001370114B002240F26661184608F078FC4F
:10915C001190CBE00020FFF7B7FD0C4A9DF83F3093
:10916C001370C3E0074B01221A700120FFF7F6FDC4
:10917C00054B002240F26661184608F061FC119024
:10918C00B4E000BF623A0020782B0020613A002046
:10919C00594B01221A700120FFF7E0FD574B0022BA
:1091AC004FF40051184608F04BFC11909EE0524BC6
:1091BC0001221A700120FFF7D1FD504B002240F222
:1091CC006661184608F03CFC11908FE04A4B012276
:1091DC001A700120FFF7C2FD484B00224FF40051DA
:1091EC00184608F02DFC119080E0FFF7A4FD444ACE
:1091FC009DF83F30137079E0424B184608F06DFC37
:10920C0011909DF83F30C3F111031093109B002B6C
:10921C0035D0119B002B32D1109B012B28D9394C06
:10922C00109B9BB21A46C82302FB03F3DA171E46A7
:10923C0017464FF000024FF00003FB0343EA56437E
:10924C00F20312F57A710C9143F100030D934FF474
:10925C00FA624FF00003DDE90C010EF0CDFF02467F
:10926C000B46134600221946204608F0E9FB1190E4
:10927C000220FFF729FD244B01221A7036E0022050
:10928C00FFF734FD204B00221A702FE0FFF7B8FDDA
:10929C001B4A9DF83F30137028E0FFF7B1FD00200A
:1092AC00FFF712FD164A9DF83F3013701EE0FFF7D2
:1092BC00A7FD0120FFF708FD114A9DF83F30137000
:1092CC0014E0FFF79DFD0020FFF7FEFC0120FFF7E7
:1092DC00FBFC0B4A9DF83F30137007E0FFF72BFDAA
:1092EC00074A9DF83F30137000E000BF119B1846F1
:1092FC0012B0BDE8D08F00BF623A0020782B00205E
:10930C00613A0020982B0020683A002000B585B007
:10931C0003468DF8073000230393084B1B6803F0BA
:10932C000103002B05D09DF807301846FFF786FD8A
:10933C000390039B184605B05DF804FB643A0020CB
:10934C0084B001900B468DF8033013468DF8023033
:10935C0000230393019B032B3CD89DF80230012B77
:10936C000BD19DF80330012B04D1019BDBB20E33E2
:10937C00DBB200E000238DF802309DF80330022BA5
:10938C000FD0022B23DC002B16D0012B1FD114493C
:10939C00019A13465B0013440B449DF802201A708B
:1093AC001AE00F49019A13465B0013440B44013336
:1093BC009DF802201A700FE00949019A13465B00D0
:1093CC0013440B4402339DF802201A7004E0072367
:1093DC00039301E007230393039B184604B07047E3
:1093EC006C3A002000B585B001900B468DF8033027
:1093FC00019B032B14D89DF80330002B01D00323C1
:10940C0000E000238DF80F300198FFF7B7FC0246FF
:10941C009DF80F3019461046FFF7C3FC002300E0FF
:10942C000623184605B05DF804FB00B583B0019027
:10943C0001210198FFF7D6FF0346184603B05DF8EB
:10944C0004FB00B583B0012200210020FFF778FF58
:10945C000190019B002B04D0019B072B01D0019B99
:10946C001CE0072202210120FFF76AFF0190019BFB
:10947C00002B04D0019B072B01D0019B0EE0042292
:10948C0002210020FFF75CFF0190019B002B04D010
:10949C00019B072B01D0019B00E00023184603B071
:1094AC005DF804FB00B583B0012202210020FFF718
:1094BC0047FF0190019B002B04D0019B072B01D08F
:1094CC00019B1CE0072202210120FFF739FF0190CC
:1094DC00019B002B04D0019B072B01D0019B0EE0BC
:1094EC000A2200210020FFF72BFF0190019B002B8B
:1094FC0004D0019B072B01D0019B00E000231846F0
:10950C0003B05DF804FB00B583B00020FFF78DFFBE
:10951C000190019B002B04D0019B062B01D0019BD9
:10952C000CE00120FFF781FF0190019B002B04D080
:10953C00019B062B01D0019B00E00023184603B0D1
:10954C005DF804FB00B585B001900091019B1B8870
:10955C00102B02D0112B18D02FE01A4B1B68002BAC
:10956C000DD1FFF76EFF0390039B002B07D0164B1A
:10957C001B68002B03D0144B1B6803989847114BA6
:10958C001B6801330F4A136017E00E4B1B68013B3D
:10959C000C4A13600B4B1B68002B0DD1FFF782FF9D
:1095AC000390039B002B07D0074B1B68002B03D0A9
:1095BC00054B1B680398984700BF00BF05B05DF8CA
:1095CC0004FB00BF7C3A0020783A0020BFF34F8F99
:1095DC0000BF064BDB6803F4E0620449044B134301
:1095EC00CB60BFF34F8F00BF00BFFDE700ED00E085
:1095FC000400FA0582B01D4B1B68B3F1FF3F0AD182
:10960C001B4B1B68DBB201931A4B1B681B0903F045
:10961C000F03009305E0154B1B680193164B1B6859
:10962C000093019B062B1DD1009B033B042B17D8E9
:10963C0001A252F823F000BF599602005D96020079
:10964C0061960200659602006996020001230AE009
:10965C00012308E0012306E0012304E0012302E0DA
:10966C00012300E00023184602B0704730010010BF
:10967C00E00F00F0E80F00F03401001082B0174B3F
:10968C001B68DBB20193164B1B681B0903F00F031D
:10969C000093019B062B1DD1009B033B042B17D879
:1096AC0001A252F823F000BFC9960200CD96020029
:1096BC00D1960200D5960200D996020001230AE049
:1096CC00002308E0002306E0002304E0002302E06E
:1096DC00002300E00023184602B07047E00F00F0B2
:1096EC00E80F00F082B01D4B1B68B3F1FF3F0AD1AD
:1096FC001B4B1B68DBB201931A4B1B681B0903F055
:10970C000F03009305E0154B1B680193164B1B6868
:10971C000093019B062B1DD1009B033B042B17D8F8
:10972C0001A252F823F000BF499702004D970200A6
:10973C0051970200559702005997020001230AE045
:10974C00012308E0012306E0012304E0012302E0E9
:10975C00012300E00023184602B0704730010010CE
:10976C00E00F00F0E80F00F03401001082B0174B4E
:10977C001B68DBB20193164B1B681B0903F00F032C
:10978C000093019B062B1DD1009B033B042B17D888
:10979C0001A252F823F000BFB9970200BD97020056
:1097AC00C1970200C5970200C997020001230AE085
:1097BC00002308E0002306E0002304E0002302E07D
:1097CC00002300E00023184602B07047E00F00F0C1
:1097DC00E80F00F082B01D4B1B68B3F1FF3F0AD1BC
:1097EC001B4B1B68DBB201931A4B1B681B0903F064
:1097FC000F03009305E0154B1B680193164B1B6878
:10980C000093019B062B1DD1009B033B042B17D807
:10981C0001A252F823F000BF399802003D980200D3
:10982C0041980200459802004998020001230AE081
:10983C00012308E0012306E0012304E0012302E0F8
:10984C00012300E00023184602B0704730010010DD
:10985C00E00F00F0E80F00F03401001082B0174B5D
:10986C001B68DBB20193164B1B681B0903F00F033B
:10987C000093019B062B1DD1009B033B042B17D897
:10988C0001A252F823F000BFA9980200AD98020083
:10989C00B1980200B5980200B998020001230AE0C1
:1098AC00002308E0002306E0002304E0002302E08C
:1098BC00002300E00023184602B07047E00F00F0D0
:1098CC00E80F00F082B0174B1B68DBB20193164B0C
:1098DC001B681B0903F00F030093019B062B1DD182
:1098EC00009B033B042B17D801A252F823F000BFB6
:1098FC001199020015990200199902001D99020094
:10990C002199020001230AE0002308E0002306E06D
:10991C00002304E0002302E0002300E000231846AB
:10992C0002B07047E00F00F0E80F00F082B01D4B62
:10993C001B68B3F1FF3F0AD11B4B1B68DBB20193D1
:10994C001A4B1B681B0903F00F03009305E0154B22
:10995C001B680193164B1B680093019B062B1DD1B2
:10996C00009B033B042B17D801A252F823F000BF35
:10997C009199020095990200999902009D99020013
:10998C00A199020000230AE0002308E0012306E06D
:10999C00012304E0012302E0012300E00023184628
:1099AC0002B0704730010010E00F00F0E80F00F03B
:1099BC003401001082B01D4B1B68B3F1FF3F0AD17C
:1099CC001B4B1B68DBB201931A4B1B681B0903F082
:1099DC000F03009305E0154B1B680193164B1B6896
:1099EC000093019B062B1DD1009B033B042B17D826
:1099FC0001A252F823F000BF199A02001D9A02002E
:109A0C00219A0200259A0200299A020001230AE0F9
:109A1C00012308E0012306E0012304E0012302E016
:109A2C00012300E00023184602B0704730010010FB
:109A3C00E00F00F0E80F00F03401001082B01D4B75
:109A4C001B68B3F1FF3F0AD11B4B1B68DBB20193C0
:109A5C001A4B1B681B0903F00F03009305E0154B11
:109A6C001B680193164B1B680093019B062B1DD1A1
:109A7C00009B033B042B17D801A252F823F000BF24
:109A8C00A19A0200A59A0200A99A0200AD9A0200BE
:109A9C00B19A020001230AE0012308E0012306E049
:109AAC00012304E0012302E0012300E00023184617
:109ABC0002B0704730010010E00F00F0E80F00F02A
:109ACC003401001082B0154B1B680193144B1B68BA
:109ADC000093019B062B1DD1009B033B042B17D835
:109AEC0001A252F823F000BF099B02000D9B02005B
:109AFC00119B0200159B0200199B020000230AE037
:109B0C00002308E0002306E0012304E0012302E027
:109B1C00012300E00023184602B07047300100100A
:109B2C003401001082B0154B1B680193144B1B6859
:109B3C000093019B062B1DD1009B033B042B17D8D4
:109B4C0001A252F823F000BF699B02006D9B02003A
:109B5C00719B0200759B0200799B020000230AE0B6
:109B6C00002308E0002306E0002304E0012302E0C8
:109B7C00012300E00023184602B0704730010010AA
:109B8C003401001008B5FFF7CDFF0346002B07D0BA
:109B9C004FF010234FF08042D3F80832C2F85835FA
:109BAC0000BF08BD00BF044BD3F80034002BFAD023
:109BBC0000BF00BF704700BF00E0014000B583B09C
:109BCC000190054A019BC2F80435FFF7EBFF00BF7B
:109BDC0003B05DF804FB00BF00E00140024B034AF8
:109BEC001A6000BF704700BFB82B00200090D00354
:109BFC0008B5FFF7FFFC0346002B06D0A44B1B68EF
:109C0C001B0AA44A03F01F031360FFF737FD03463A
:109C1C00002B02D0A04BA14A1A60FFF763FD03464C
:109C2C00002B06D09E4B1B685B0B9E4A03F0070370
:109C3C001360FFF79BFD0346002B05D09A4BDB68A6
:109C4C00994A23F08073D360FFF7C4FD0346002BC1
:109C5C000ED04FF080430022C3F80C214FF080430C
:109C6C000022C3F810214FF080430022C3F838259E
:109C7C00FFF7F4FD0346002B02D08C4B03221A6035
:109C8C00FFF720FE0346002B0BD0894B05221A60F0
:109C9C00884B01221A60884B00221A60874B3F22A6
:109CAC001A60FFF743FE0346002B76D04FF080532B
:109CBC00834AD3F80434C2F820354FF08053804ADD
:109CCC00D3F80834C2F824354FF080537C4AD3F8CB
:109CDC000C34C2F828354FF08053794AD3F810343D
:109CEC00C2F82C354FF08053754AD3F81434C2F8AF
:109CFC0030354FF08053724AD3F81834C2F83435EB
:109D0C004FF080536E4AD3F81C34C2F840354FF0F4
:109D1C0080536B4AD3F82034C2F844354FF080534B
:109D2C00674AD3F82434C2F848354FF08053644A5C
:109D3C00D3F82834C2F84C354FF08053604AD3F82E
:109D4C002C34C2F850354FF080535D4AD3F8303480
:109D5C00C2F854354FF08053594AD3F83434C2F812
:109D6C0060354FF08053564AD3F83834C2F8643516
:109D7C004FF08053524AD3F83C34C2F868354FF058
:109D8C0080534F4AD3F84034C2F86C354FF08053AF
:109D9C004B4AD3F84434C2F87035FFF70BFE034638
:109DAC00002B05D0474B1B68474A03F04F03136049
:109DBC00FFF744FE0346002B0DD04FF08043D3F841
:109DCC00003403F00103002B05D04FF080436FF0FB
:109DDC000102C3F80024FFF775FE0346002B05D0E3
:109DEC003A4B1B68394A43F480631360384BD3F801
:109DFC008830374A43F47003C2F88830BFF34F8F72
:109E0C0000BFBFF36F8F00BFFFF7BCFE4FF01023F6
:109E1C00D3F80C3203F00103012B13D10120FFF70F
:109E2C00CDFE4FF01023D3F80C324FF0102223F05C
:109E3C000103C2F80C32FFF7B5FE0020FFF7BEFE9F
:109E4C00FFF7C4FB4FF01023D3F80032002B05DBD7
:109E5C004FF01023D3F80432002B15DA0120FFF752
:109E6C00ADFE4FF010231522C3F80022FFF79AFE27
:109E7C004FF010231522C3F80422FFF793FE0020A5
:109E8C00FFF79CFEFFF7A2FBFFF7A8FE00BF08BD83
:109E9C00240300104035014074C007400DF0ADBAEA
:109EAC00440200103C050040F0ED00E0A00500402D
:109EBC00105600408856004018560040145600407A
:109ECC0000C0004058020010E40E00403C17004057
:109EDC0000ED00E06DDF704700BF184679DF70477A
:109EEC0000BF18467DDF704700BF184664DF70471F
:109EFC0000BF184682B003460091ADF80630BDF89D
:109F0C000630DAB2009B1A70BDF806301B0A9AB202
:109F1C00009B0133D2B21A700223184602B070476C
:109F2C0000B589B0039002911346ADF80630029B40
:109F3C001B8803F10902BDF806309A4201D90C23A3
:109F4C0053E004AB1846FFF7C5FF0790079B069339
:109F5C00069B002B01D0069B47E0029B1B881A46F0
:109F6C00039B134408221A70029B1B8801339AB27C
:109F7C00029B1A80029B1B881A46039B13441B22CC
:109F8C001A70029B1B8801339AB2029B1A80029BA7
:109F9C001B881A46039B981804AB013306221946FA
:109FAC000EF0A8FA029B1B8806339AB2029B1A8009
:109FBC009DF8103023F00103DBB2002B07D1029B7C
:109FCC001B881A46039B134400221A7006E0029B5E
:109FDC001B881A46039B134401221A70029B1B8890
:109FEC0001339AB2029B1A800023184609B05DF81F
:109FFC0004FB00B589B0039002910192ADF80230D8
:10A00C00039B1B78012B05D1039B5B78002B01D1A3
:10A01C00072392E0019B1B889A1CBDF802309A42E0
:10A02C000ED8039B1B78012B0CD1019B1B881A4665
:10A03C00039B5B7813449A1CBDF802309A4201D9F9
:10A04C000C237AE0019B1B88BDF80220D31A9BB22B
:10A05C00023BADF81C30BDF81C30ADF81230019B42
:10A06C001B880233029A13440DF112021146184652
:10A07C00FFF738FF0690069B0593059B002B01D03C
:10A08C00059B5AE0039B1B78022B06D0039B5B7845
:10A09C009AB2BDF812309A4209D3BDF81230BDF80D
:10A0AC001C209A4203D309238DF81F3017E0082394
:10A0BC008DF81F30039B1B78012B0CD1039B5B7815
:10A0CC009BB2BDF81C209A4205D3039B5B789BB2D4
:10A0DC00ADF8123003E0BDF81C30ADF81230BDF80D
:10A0EC001230FE2B01D90C2327E0BDF81230DAB266
:10A0FC00019B1B881946029B0B440132D2B21A7089
:10A10C00019B1B8801339AB2019B1A80019B1B880F
:10A11C001A46029B13449DF81F201A70019B1B8842
:10A12C0001339AB2019B1A80019B1A88BDF8123038
:10A13C0013449AB2019B1A800023184609B05DF8AB
:10A14C0004FB00B589B0039002911346ADF80630BC
:10A15C00029B1B881A1DBDF806309A4201D90C23AC
:10A16C003BE00DF116031846FFF7B8FE0790079B6E
:10A17C000693069B002B01D0069B2EE0029B1B88AE
:10A18C001A46039B134403221A70029B1B8801334B
:10A19C009AB2029B1A80029B1B881A46039B13449B
:10A1AC0019221A70029B1B8801339AB2029B1A80E7
:10A1BC00BDF81620029B1B881946039B0B441946BD
:10A1CC001046FFF797FE03461946029B1A888BB27E
:10A1DC0013449AB2029B1A800023184609B05DF80A
:10A1EC0004FB84B0029101921A4603468DF80F309D
:10A1FC001346ADF80C30019B1B88DA1CBDF80C30F3
:10A20C009A4201D90C2328E0019B1B881A46029B19
:10A21C00134402221A70019B1B8801339AB2019BD2
:10A22C001A80019B1B881A46029B134401221A7048
:10A23C00019B1B8801339AB2019B1A80019B1B88DE
:10A24C001A46029B13449DF80F201A70019B1B8821
:10A25C0001339AB2019B1A800023184604B0704750
:10A26C0084B0029101921A4603468DF80F301346C2
:10A27C00ADF80C30019B1B88DA1CBDF80C309A42EF
:10A28C0001D90C2328E0019B1B881A46029B13441E
:10A29C0002221A70019B1B8801339AB2019B1A800F
:10A2AC00019B1B881A46029B13440A221A70019BBD
:10A2BC001B8801339AB2019B1A80019B1B881A469A
:10A2CC00029B13449DF80F201A70019B1B880133CD
:10A2DC009AB2019B1A800023184604B0704700B54F
:10A2EC008FB0039001930B468DF80B3013468DF80D
:10A2FC000A3000238DF83330109B1B88ADF83030BA
:10A30C0000230D9371E0039B5A680D9B9B001A442C
:10A31C0005AB106818600DF11B0105AB0022184647
:10A32C00FFF7E4FD0A900A9B0993099B002B01D0CF
:10A33C00099B7CE09DF81B309DF80A209A4251D174
:10A34C009DF83330002B01D0002300E002238DF860
:10A35C002330109B1B881A469DF81B301A449DF81D
:10A36C0023301A44BDF844309A4201DD0C235EE0E0
:10A37C009DF8333083F00103DBB2002B16D0109B19
:10A38C001B8801339AB2109B1A80109B1B881A46AB
:10A39C00019B13449DF80B201A70109B1B880133F2
:10A3AC009AB2109B1A8001238DF83330109B1B88B6
:10A3BC001A46019B1A440DF11B0105AB1846FFF719
:10A3CC0095FD0A900A9B0793079B002B01D0079BD6
:10A3DC002DE0109B1A889DF81B309BB213449AB247
:10A3EC00109B1A800D9B01330D93039B1B881A46FF
:10A3FC000D9B934287DB9DF83330002B16D0109BBE
:10A40C001A88BDF83030D31A9BB2013BADF82E3010
:10A41C00BDF82E30FF2B01D90C2308E0BDF83030ED
:10A42C00019A1344BDF82E20D2B21A70002318469C
:10A43C000FB05DF804FB00B58BB0059003930B4691
:10A44C008DF8133013468DF812309DF81310BDF8AB
:10A45C00343001930C9B0093039B02220598FFF769
:10A46C003EFF0990099B0893089B002B01D0089B89
:10A47C0014E09DF81210BDF8343001930C9B00933E
:10A48C00039B10220598FFF72AFF0990099B07935D
:10A49C00079B002B01D0079B00E0002318460BB054
:10A4AC005DF804FB82B00190019B1B88052B0AD937
:10A4BC00019B1B88B3F5486F07D9019B1B884FF68E
:10A4CC00FF72934201D0072325E0019B5B88052B8B
:10A4DC000AD9019B5B88B3F5486F07D9019B5B8850
:10A4EC004FF6FF72934201D0072314E0019B1B88A7
:10A4FC004FF6FF7293420DD0019B5B884FF6FF72B3
:10A50C00934207D0019B1A88019B5B889A4201D920
:10A51C00072300E00023184602B0704700B587B04F
:10A52C00039002910192ADF80230019B1B889A1D99
:10A53C00BDF802309A4201D90C234DE00398FFF785
:10A54C00B1FF0590059B0493049B002B01D0049B49
:10A55C0042E0019B1B881A46029B134405221A7089
:10A56C00019B1B8801339AB2019B1A80019B1B88AB
:10A57C001A46029B134412221A70019B1B8801334A
:10A58C009AB2019B1A80039B1A88019B1B8819465F
:10A59C00029B0B4419461046FFF7ACFC03461946C8
:10A5AC00019B1A888BB213449AB2019B1A80039BAD
:10A5BC005A88019B1B881946029B0B44194610466E
:10A5CC00FFF798FC03461946019B1A888BB213447B
:10A5DC009AB2019B1A800023184607B05DF804FB61
:10A5EC0000B587B0039002910192ADF80230039B45
:10A5FC009B8802330593019B1B881A46059B1344C9
:10A60C009A1CBDF802309A4201D90C2354E0059BE8
:10A61C00FE2B01D90C234FE0059BDAB2019B1B8862
:10A62C001946029B0B440132D2B21A70019B1B8853
:10A63C0001339AB2019B1A80019B1B881A46029B1C
:10A64C001344FF221A70019B1B8801339AB2019BA1
:10A65C001A80039B1A88019B1B881946029B0B448A
:10A66C0019461046FFF746FC03461946019B1A880B
:10A67C008BB213449AB2019B1A80039B9B88002BCC
:10A68C0019D0039B9B68002B01D1072314E0019B7D
:10A69C001B881A46029B9818039B9968039B9B88FE
:10A6AC001A460DF027FF019B1A88039B9B881344C5
:10A6BC009AB2019B1A800023184607B05DF804FB80
:10A6CC0000B589B0039002910192ADF80230039B62
:10A6DC009B6A002B01D1072372E000238DF81F30F9
:10A6EC0066E0039B996A9DF81F2013465B00134498
:10A6FC009B000B440693069B9B8802330593059B9A
:10A70C00FE2B01D90C235BE0059BDAB2019B1B8865
:10A71C001946029B0B440132D2B21A70019B1B8862
:10A72C0001339AB2019B1A80019B1B881A46029B2B
:10A73C00134416221A70019B1B8801339AB2019B99
:10A74C001A80069B1A88019B1B881946029B0B4496
:10A75C0019461046FFF7CEFB03461946019B1A8893
:10A76C008BB213449AB2019B1A80069B9B88002BD8
:10A77C0019D0069B9B68002B01D1072320E0019B7D
:10A78C001B881A46029B9818069B9968069B9B8807
:10A79C001A460DF0AFFE019B1A88069B9B8813444A
:10A7AC009AB2019B1A809DF81F3001338DF81F302F
:10A7BC00039B93F82C309DF81F209A4291D30023D1
:10A7CC00184609B05DF804FB00B595B005900491EE
:10A7DC00039200231393039B1B88ADF84A30039B11
:10A7EC0000221A80059B93F82D30002B0ED0BDF85B
:10A7FC004A301A4603990498FFF792FB1390139B67
:10A80C001193119B002B01D0119BD8E0059B9B78D9
:10A81C00002B0ED0BDF84A301A4603990498FFF766
:10A82C0090FC1390139B1093109B002B01D0109B4A
:10A83C00C5E0059BDB78002B10D0059BDB7858B26C
:10A84C00BDF84A30039A0499FFF7CBFC1390139B85
:10A85C000F930F9B002B01D00F9BB0E0059B5B6807
:10A86C00002B11D0059B5B6893F90000BDF84A30B2
:10A87C00039A0499FFF7F4FC1390139B0E930E9B11
:10A88C00002B01D00E9B9AE0059B1B89002B14D04A
:10A89C00059B03F10800BDF84A300193039B00931C
:10A8AC00049B06220221FFF7C6FD1390139B0D9308
:10A8BC000D9B002B01D00D9B81E0059B1B8A002B6F
:10A8CC0014D0059B03F11000BDF84A300193039B93
:10A8DC000093049B07220321FFF7ADFD1390139BFC
:10A8EC000C930C9B002B01D00C9B68E0059B1B8BE5
:10A8FC00002B14D0059B03F11800BDF84A300193CE
:10A90C00039B0093049B15221421FFF794FD1390D5
:10A91C00139B0B930B9B002B01D00B9B4FE0059BC8
:10A92C001B6A002B0FD0059B186ABDF84A30039A9E
:10A93C000499FFF7F3FD1390139B0A930A9B002BCA
:10A94C0001D00A9B3BE0059B5B6A002B0FD0059B5B
:10A95C00586ABDF84A30039A0499FFF741FE1390E8
:10A96C00139B0993099B002B01D0099B27E0059BA6
:10A97C0093F82C30002B0ED0BDF84A30039A049972
:10A98C000598FFF79DFE1390139B0893089B002BD3
:10A99C0001D0089B13E0059B1B78002B0ED0BDF853
:10A9AC004A30039A04990598FFF723FB1390139BE5
:10A9BC000793079B002B01D0079B00E0139B1846C5
:10A9CC0015B05DF804FB86B0039001921A460B4655
:10A9DC00ADF80A3013468DF80930039B002B02D0DA
:10A9EC00019B002B01D100235CE00023ADF8163055
:10A9FC000CE0BDF81630039A13441B789AB2BDF8DC
:10AA0C00163013449BB20133ADF81630BDF8163036
:10AA1C005A1CBDF80A309A420FDA019B1B88BDF80C
:10AA2C0016209A42E5D3BDF816300133039A13442D
:10AA3C001B789DF809209A42DBD1BDF81620BDF891
:10AA4C000A309A4201D300232CE0BDF816300233B1
:10AA5C00ADF81430BDF81630039A13441B78002B54
:10AA6C0008D0BDF81630039A13441B789BB2013BF7
:10AA7C009BB200E00023ADF81230BDF81230002B71
:10AA8C0008D0BDF81420BDF812301A44BDF80A30B5
:10AA9C009A4201DD002305E0019BBDF814201A80C9
:10AAAC00BDF81230184606B0704700B585B001905D
:10AABC000B46ADF8023013468DF801300023ADF88B
:10AACC000C309DF8013003AABDF802100198FFF775
:10AADC007AFF0346ADF80E30BDF80E30002B01D1D5
:10AAEC00002304E0BDF80C301A46019B13441846B1
:10AAFC0005B05DF804FB72DF704700BF184673DFCA
:10AB0C00704700BF184682B00190019B93F8303417
:10AB1C00184602B0704784B00190002303930AE0FA
:10AB2C00019A039B13441B78002B01D0012306E0F0
:10AB3C00039B01330393039B052BF1D90023184688
:10AB4C0004B0704782B003468DF807309DF807308B
:10AB5C005A1C074B83FB02135910D317C91A0B4607
:10AB6C009B000B44D11ACBB2184602B0704700BF01
:10AB7C006766666682B001900091009BDB7B012BBF
:10AB8C0004D1009B9A88019BA3F8242400BF02B037
:10AB9C00704700B585B001900091019B002283F8AD
:10ABAC002E24009B9A88019BB3F824349A4216D128
:10ABBC00019B1B7983F00103DBB2002B0FD0012129
:10ABCC00019800F0B1FA0390039B002B07D0019B76
:10ABDC009B6B002B03D0019B9B6B0398984700BF8A
:10ABEC0005B05DF804FB00B585B001900091009BA9
:10ABFC001B88262B1ED1009B1B7A012B03D0009B9C
:10AC0C001B7A022B17D1019B9B781846FFF79AFFF2
:10AC1C0003461946019800F087FA0390039B002B1A
:10AC2C0009D0019B9B6B002B05D0019B9B6B039860
:10AC3C00984700E000BF05B05DF804FB00B585B097
:10AC4C0001900B468DF80330019B03F22743184605
:10AC5C00FFF761FF03468DF80F309DF80330013B81
:10AC6C00032B33D801A252F823F000BF89AC0200A9
:10AC7C00ADAC0200C1AC0200CDAC0200019B9B79D3
:10AC8C00002B0DD0019B93F8243083F00103DBB231
:10AC9C00002B05D09DF80F30002B01D0012316E0BE
:10ACAC00019BDB79002B05D09DF80F30002B01D0D8
:10ACBC0002230CE0019B1B7A002B01D0032306E03E
:10ACCC00019B5B7A002B01D0042300E00023184683
:10ACDC0005B05DF804FB00BF82B001900091019BB0
:10ACEC00012283F83120019B0022C3F82024019B10
:10ACFC0003F22642009B5A60009B00229A60009B44
:10AD0C0002221A70009B80229A810023184602B0FE
:10AD1C00704782B001900091019B022283F8312090
:10AD2C00019B93F82430002B03D0009B07221A7050
:10AD3C0002E0009B03221A70019B1B699AB2009BD4
:10AD4C009A81019B0022C3F82024019B03F2264226
:10AD5C00009B5A60019BDA68009B9A60002318469E
:10AD6C0002B0704700B583B00190019B5B79002B5A
:10AD7C000FD0019B93F82E3483F00103DBB2002B30
:10AD8C0007D00198FFF7BFFE0346002B01D001232B
:10AD9C0000E0002303F00103DBB2184603B05DF8BA
:10ADAC0004FB00B585B001900B468DF80330019B78
:10ADBC00D3F81004019BB3F8143401221946FFF7A1
:10ADCC0074FE0390039B002B03D0039B9DF8032080
:10ADDC001A70019B03F15400019B03F58261019BE6
:10ADEC003C331A46FFF787FE0346184605B05DF85C
:10ADFC0004FB00B585B001900091019B5A69009B42
:10AE0C009A60019B9B699AB2009B9A81019B93F873
:10AE1C002430002B04D0019B062283F83C2003E055
:10AE2C00019B012283F83C200198FFF79BFF03460E
:10AE3C00002B13D0009B02221A7504210198FFF7F6
:10AE4C00B0FF0390039B0293029B002B01D0029B4B
:10AE5C000FE0019B052283F8312003E0019B0322C4
:10AE6C0083F83120019B03F58262019BC3F82024F7
:10AE7C000023184605B05DF804FB00B585B00190C1
:10AE8C000091019BDA69009B9A60019B1B6A9AB244
:10AE9C00009B9A81019B93F82430002B04D0019BDA
:10AEAC00062283F83C2003E0019B012283F83C201E
:10AEBC000198FFF757FF0346002B13D0009B02228B
:10AECC001A7504210198FFF76CFF0390039B029302
:10AEDC00029B002B01D0029B0FE0019B062283F802
:10AEEC00312003E0019B042283F83120019B03F500
:10AEFC008262019BC3F820240023184605B05DF83C
:10AF0C0004FB82B00190019B9B78002B06D0019B27
:10AF1C0093F82030002B01D000230AE0019B9B6AA0
:10AF2C00042B03D0019B5B6A042B01D1002300E0AE
:10AF3C000123184602B0704784B00190019B93F82E
:10AF4C002430002B03D0EE23ADF80E3002E01F238B
:10AF5C00ADF80E30BDF80E30184604B0704782B014
:10AF6C0001900B468DF80330019B9DF8032083F86C
:10AF7C00302000BF02B0704730B587B0019000910F
:10AF8C00009B002B02D0019B002B01D10E23B8E0BB
:10AF9C00009B78331846FFF7B4FF034683F0010398
:10AFAC00DBB2002B01D00723ABE0019B00229A708F
:10AFBC00019A009B141D03F178050FCD0FC40FCD22
:10AFCC000FC495E8070084E80700019B002283F872
:10AFDC003020009BD3F8A420019B5A63009BD3F82C
:10AFEC00A820019B9A63019B4FF6FF72A3F82424BF
:10AFFC00019B03F58262019BC3F82024019B03F2A1
:10B00C0026430722002118460DF0AAFA019B1B7853
:10B01C0083F00103DBB2002B03D0019BFF2283F8EA
:10B02C005420019B03F15502019BC3F81024019895
:10B03C00FFF782FF03461A46019BA3F814240098DD
:10B04C00019B03F15501019B03F214431A46FFF7D0
:10B05C00BBFB0590059B0493049B002B01D0049B28
:10B06C004FE0019B03F23122019BC3F81824019895
:10B07C00FFF762FF03461A46019BA3F81C24009BB2
:10B08C0003F13C00019BD3F81814019B03F21C4301
:10B09C001A46FFF799FB0590059B0393039B002B26
:10B0AC0001D0039B2DE0019B012283F85120019BD1
:10B0BC009B699AB2019BA3F84820019B012283F85B
:10B0CC003C20019B00221A64019B002283F8502033
:10B0DC00019B5A69019B5A64019B03F15400019B2B
:10B0EC003C331A460021FFF706FD0590059B0293A1
:10B0FC00029B002B01D0029B03E0019B01221A70E2
:10B10C00059B184607B030BD82B00190019B1B68AF
:10B11C00012B03D0019B1B68022B01D1012300E002
:10B12C000023184602B0704700B585B001900B465D
:10B13C008DF80330019B1B7883F00103DBB2002BED
:10B14C0001D0082309E1019B9DF803209A70019B13
:10B15C0003F226430722002118460DF001FA019B49
:10B16C009B79002B03D0019B9B78012B0FD0019B6B
:10B17C00DB79002B03D0019B9B78012B07D0019B23
:10B18C00DB79002B14D0019B9B78022B10D1019BF7
:10B19C005B6B002B08D0019B012283F82D24019BB3
:10B1AC005B6B0820984703E0019B002283F82D2459
:10B1BC009DF8033019460198FFF740FD03461A46E7
:10B1CC00019B9A70019B5B6B002B20D0019B9B78A1
:10B1DC00032B03D0019B9B78042B18D1019B5B792B
:10B1EC00002B14D0019B93F82E3483F00103DBB2B7
:10B1FC00002B0CD0019B002283F83024019B0122F0
:10B20C0083F82F24019B5B6B0720984703E0019B7D
:10B21C00002283F82F24019B3C331822002118466E
:10B22C000DF09EF9019B012283F83C20019B2C33ED
:10B23C001846FFF769FF0346002B06D0019BDB6A1B
:10B24C00DAB2019B83F8512003E0019B012283F8C1
:10B25C005120019B93F82430002B12D0019B2833F2
:10B26C001846FFF751FF0346002B06D0019B9B6A43
:10B27C00DAB2019B83F8522003E0019B012283F890
:10B28C005220019B002283F85020019B9B78042BB9
:10B29C0031D801A252F823F0F9B20200B9B202007F
:10B2AC00C9B20200D9B20200E9B20200019B3C33E0
:10B2BC0019460198FFF710FD03901DE0019B3C33EC
:10B2CC0019460198FFF725FD039015E0019B3C33CF
:10B2DC0019460198FFF78DFD03900DE0019B3C335F
:10B2EC0019460198FFF7C9FD039005E0019B002268
:10B2FC0083F8312000E000BF019B9B78002B20D00D
:10B30C00019B03F15400019BD3F82014019B3C33A7
:10B31C001A46FFF7F0FB0390039B002B01D0039B15
:10B32C001BE0019B93F85420019B93F83030194695
:10B33C001046FFF7E4FB0390039B002B01D0039B0B
:10B34C000BE0019B5B6B002B06D0019B5B6B019AA6
:10B35C0092F83120104698470023184605B05DF846
:10B36C0004FB00BF00B585B001900091009B0393D6
:10B37C00019B1B88262B10D0262B13DC102B02D004
:10B38C00112B05D00EE001990398FFF7F3FB0AE0AF
:10B39C0001990398FFF7FDFB05E001990398FFF76E
:10B3AC0022FC00E000BF00BF05B05DF804FB75DFB8
:10B3BC00704700BF184676DF704700BF18467ADF2B
:10B3CC00704700BF18467BDF704700BF184600006F
:10B3DC0084B00346ADF806300023039316E00F4902
:10B3EC00039A13469B0013449B000B441B88BDF827
:10B3FC0006209A4207D1039A13469B0013449B00E4
:10B40C00064A134406E0039B01330393039B002B72
:10B41C00E5D00023184604B0704700BFA03A0020C6
:10B42C0082B001900B46ADF80230019BBDF80220B2
:10B43C001A80019B00221A72019B054903F10A0232
:10B44C000B4603CB1060516000BF02B0704700BFC9
:10B45C00D03A002082B00190019B4FF6FF721A8007
:10B46C0000BF02B0704788B00390029111461A4693
:10B47C000B46ADF806301346ADF80430039B9B88A1
:10B48C001A46BDF8063013440793039B9B88194654
:10B49C00039B9B88BDF80620934228BF13469BB2A2
:10B4AC00CB1A0693039BDB881A46BDF80430134471
:10B4BC000593039BDB881946039BDB88BDF80420AE
:10B4CC00934228BF13469BB2CB1A0493029B5A8813
:10B4DC00039B1B889A4205D3029B5A88039B5B886B
:10B4EC009A4201D900231CE0029B9B881A46069BBA
:10B4FC00934205D8029B9B881A46079B934201D224
:10B50C0000230EE0029BDB881A46049B934205D86D
:10B51C00029BDB881A46059B934201D2002300E074
:10B52C000123184608B0704700B583B00190064B54
:10B53C009B69002B03D0044B9B690198984700BF73
:10B54C0003B05DF804FB00BFB43A002000B585B031
:10B55C0003460091ADF80630BDF806300099184648
:10B56C00FFF725FF0390039B002B05D0039B112BAA
:10B57C0002D00398FFF7D8FF039B002B0CBF0123CD
:10B58C000023DBB2184605B05DF804FB00B589B0AA
:10B59C000190019B0793079B9BB21846FFF718FF7E
:10B5AC000690069B002B42D0069B1A7A224B1B7BE3
:10B5BC009A4215D2079B9AB2069B0A33194610463B
:10B5CC00FFF7C4FF03468DF813309DF81330002BA2
:10B5DC002DD0069B1B7A0133DAB2069B1A7226E039
:10B5EC00069B00221A72144B1B7C002B0FD0079B5E
:10B5FC009BB23B211846FFF7DEFE0590059B002B06
:10B60C0005D0059B082B02D00598FFF78DFF0A4B40
:10B61C005B69002B0BD000238DF80C30079B9BB281
:10B62C00ADF80E30044B5B6903AA1046984700BF77
:10B63C0009B05DF804FB00BFB43A002030B587B008
:10B64C000190019B002B01D10E2353E02B4A019B4F
:10B65C0014461D460FCD0FC495E8070084E807007B
:10B66C00264B274A1A60019B1B68002B11D0019BAB
:10B67C001B681846FFF7A3FE0490049B002B01D017
:10B68C00049B37E0019B1A681D4B1068516803C37B
:10B69C0008E01B48FFF797FE0490049B002B01D099
:10B6AC00049B27E00023059320E0059A13469B009A
:10B6BC0013449B00134A134403930398FFF7CAFEE9
:10B6CC00059B5B01104A1A44039B5A60039B04338D
:10B6DC000E4A0021184606F08DF90490049B002BAD
:10B6EC0001D0032306E0059B01330593059B002B3A
:10B6FC00DBD00023184607B030BD00BFB43A0020A1
:10B70C00D03A0020A03A0020803A002099B50200DF
:10B71C0000B587B003460091ADF80630009B5B7A0C
:10B72C00002B1AD1009B1B7A002B03D1164B5B68A4
:10B73C00059302E0144B9B680593009B5B68BDF876
:10B74C0006200599184606F07BF90490049B002B03
:10B75C0016D00498FFF7E8FE12E0009B00221A7244
:10B76C00094B5B69002B0BD001238DF80C30BDF815
:10B77C000630ADF80E30044B5B6903AA10469847AF
:10B78C0000BF07B05DF804FBB43A002000B585B0EB
:10B79C000190019BDB7B8DF80F30019B9B88ADF8F2
:10B7AC000C309DF80F30012B2CD14FF6FF70FFF7AA
:10B7BC000FFE0290029B002B03D10420FFF7B4FE76
:10B7CC0021E0BDF80C3019460298FFF729FE029BC8
:10B7DC0003F10A00019B03F110014FF6FF7340F2D5
:10B7EC00F312FFF740FE03461A46029B5A72074BB0
:10B7FC00DB89002B07D1BDF80C3002991846FFF7F6
:10B80C0087FF00E000BF05B05DF804FBB43A0020F0
:10B81C0000B587B00190019B9B88ADF81630BDF840
:10B82C0016301846FFF7D4FD0490049B002B0ED065
:10B83C00049B5B68184606F050F90390039B002BA1
:10B84C0002D00398FFF770FE0498FFF703FE00BFC9
:10B85C0007B05DF804FB000000B587B00190019BB8
:10B86C0006330593059B1A88194BDB899A422BD119
:10B87C00059B5B89022B27D1019B9B88ADF812306D
:10B88C00BDF812301846FFF7A3FD0390039B002B65
:10B89C001AD0059B0C33184600F050FA0346002BC7
:10B8AC0006D0BDF8123003991846FFF731FF0BE0B4
:10B8BC00039B5B68184606F010F90290029B002B64
:10B8CC0002D00298FFF730FE00BF07B05DF804FB12
:10B8DC00B43A002000B585B00190019B9B88ADF86F
:10B8EC000E30BDF80E301846FFF772FD0290029B29
:10B8FC00002B15D0029B03F10A00019B03F10801F8
:10B90C004FF6FF7340F2F312FFF7ADFD03461A46F4
:10B91C00029B5A72BDF80E3002991846FFF7F8FEDA
:10B92C0000BF05B05DF804FB00B583B00190009139
:10B93C00019B1B88502B12D0502B18DC122B12D0D1
:10B94C00122B14DC102B02D0112B04D00FE0019819
:10B95C00FFF71CFF0CE00198FFF75AFF08E0019875
:10B96C00FFF77AFF04E00198FFF7B4FF00E000BF97
:10B97C0000BF03B05DF804FB30B58FB001900091AF
:10B98C0000230293009B002B1AD000230D9314E08C
:10B99C006B460D99184606F000FE0346002B09D0A5
:10B9AC00029B5A1C02920D9A92B25B0038336B4484
:10B9BC0023F82C2C0D9B01330D930D9B132BE7D9E6
:10B9CC00019B1D4602AC0FCC0FC50FCC0FC594E8E4
:10B9DC00070085E8070001980FB030BD00B583B0B3
:10B9EC000346ADF80630BDF80630132B01D9002301
:10B9FC000CE0BDF806301946064806F09DFDBDF872
:10BA0C0006301946044806F097FD0123184603B08A
:10BA1C005DF804FBE03A0020DC3A002000B585B06C
:10BA2C000346ADF80630002303930DE0039B9B0007
:10BA3C00094A13440433BDF806201146184606F093
:10BA4C0093FD039B01330393039B1D2BEED900BF86
:10BA5C0000BF05B05DF804FBD83A002000B583B0F8
:10BA6C000346ADF80630BDF806301946034806F01B
:10BA7C007BFD00BF03B05DF804FB00BFE03A002083
:10BA8C0030B59BB0184B9B68DB431893164B5A6828
:10BA9C0018AB1146184606F0DFFD189A6B46114696
:10BAAC001846FFF769FF0DAC6D460FCD0FC40FCDD7
:10BABC000FC495E8070084E80700002319930BE0F6
:10BACC00199B5B0068336B4433F8303C1846FFF726
