:020000022000DC
:106000000000012019620200016202000362020026
:10601000056202000762020009620200000000003F
:106020000000000000000000000000000B62020001
:106030000D620200000000000F6202001162020007
:10604000A5FE02001362020029060300191E0300C8
:10605000AD1103001362020025050300B50703001C
:106060001362020013620200136202001362020054
:106070001362020013620200136202001362020044
:1060800013620200654503001362020013620200FE
:106090001362020013620200B9710300136202006E
:1060A0001362020013620200136202001362020014
:1060B00013620200136202000000000000000000F2
:1060C000136202001362020013620200C111030096
:1060D000136202001362020013620200000000005B
:1060E00000000000000000000000000000000000B0
:1060F00000000000000000000000000000000000A0
:10610000000000000000000000000000000000008F
:10611000000000000000000000000000000000007F
:10612000000000000000000000000000000000006F
:10613000000000000000000000000000000000005F
:10614000000000000000000000000000000000004F
:10615000000000000000000000000000000000003F
:10616000000000000000000000000000000000002F
:10617000000000000000000000000000000000001F
:10618000000000000000000000000000000000000F
:1061900000000000000000000000000000000000FF
:1061A00000000000000000000000000000000000EF
:1061B00000000000000000000000000000000000DF
:1061C00000000000000000000000000000000000CF
:1061D00000000000000000000000000000000000BF
:1061E00000000000000000000000000000000000AF
:1061F000000000000000000000000000000000009F
:10620000FEE7FEE7FEE7FEE7FEE7FEE7FEE7FEE766
:10621000FEE7FEE700F002B8FFF7FCBF0F484FF0C3
:106220000701884385460E4880470E48016841F4BF
:1062300070010160BFF34F8FBFF36F8F00F01AB88A
:1062400009480A490A4A884207D0521A05D00378F9
:1062500001300B700131013AF9D170470000012083
:106260003DBE020088ED00E08C7E0300D82A0020AD
:10627000D82A0020344935480A1A02D0072291430F
:106280008D46334933480A1A06D00722914381F3D9
:106290000988022282F314882F483049304A00F0DE
:1062A00041F830483049314A00F03CF83048314933
:1062B000314A00F037F831483149324A00F032F8BB
:1062C00031483249324A00F02DF832483249334AD7
:1062D00000F028F832483349334A00F023F83348B5
:1062E0003349002200F029F832483349002200F0F7
:1062F00024F832483249091A11F00CFD314A90470E
:106300001F482049884205D00268043003B49047F2
:1063100003BCF7E700208646EC46002000212A4A0D
:106320009047FEE7884207D0521A05D00378013023
:106330000B700131013AF9D17047884202D00270E6
:106340000130FAE7704700000000012000E0002063
:106350000000012000000120489E0300D82A0020F0
:10636000382C0020CC630200CC630200287D03009F
:10637000489E0300D82A0020D82A00208C7E0300E3
:106380008C7E03008C7E03008C7E03008C7E0300D9
:106390008C7E03008C7E03008C7E0300459E0300F0
:1063A000A89F0300382C0020382C0020382C002017
:1063B00098500020985000209850002098500020BD
:0C63C0009870002041620200757302001A
:1063CC00A8DF704700BF184662DF704700BF184651
:1063DC0010B58CB001900091304B02AC0FCB84E81F
:1063EC000F00019B002B01D10E2353E0009B002BCF
:1063FC0001D10E234EE0009B1A68019B5A60009B52
:10640C001A79019B83F82420019A02AB1146184695
:10641C00FFF7DAFF0B900B9B0A930A9B002B01D022
:10642C000A9B37E0019B1B788DF81A3041F234231C
:10643C00ADF81830019B03F1080206AB1946012098
:10644C00FFF7BEFF0B900B9B0993099B002B01D010
:10645C00099B1FE000220099019800F043F80B9073
:10646C000B9B0893089B002B01D0089B12E0012288
:10647C000099019800F036F80B900B9B0793079B43
:10648C00002B01D0079B05E002220099019800F037
:10649C0029F8034618460CB010BD00BF947E0300CB
:1064AC0000B585B001900091009B002B15D0019B8D
:1064BC00002B12D0009B0393019B1B88102B02D046
:1064CC00502B05D00AE00199039800F051F805E033
:1064DC000199039800F052F800E000BF05B05DF898
:1064EC0004FB000000B58DB00390029113468DF8AB
:1064FC00073004AB20220021184611F0D5FB9DF883
:10650C0007301A4A32F81330ADF810300223ADF8C8
:10651C0014300223ADF81630039B93F824209DF819
:10652C001D3062F304138DF81D309DF81D3043F0BF
:10653C0002038DF81D30029B5B7B8DF82330029B90
:10654C001B7B8DF82130039B18899DF80730013394
:10655C00DB00039A13449A1C04AB194607F0DAFDCE
:10656C00034618460DB05DF804FB00BF8C7E03009B
:10657C0082B00190009100BF02B0704782B00190D0
:10658C00009100BF02B07047A8DF704700BF1846EB
:10659C0062DF704700BF184610B58CB001900091B7
:1065AC00304B02AC0FCB84E80F00019B002B01D1C8
:1065BC000E2353E0009B002B01D10E234EE0009BD9
:1065CC001A68019B5A60009B1A79019B83F824205E
:1065DC00019A02AB11461846FFF7DAFF0B900B9BA2
:1065EC000A930A9B002B01D00A9B37E0019B1B7876
:1065FC008DF81A3044F23423ADF81830019B03F1B6
:10660C00080206AB19460120FFF7BEFF0B900B9B4F
:10661C000993099B002B01D0099B1FE000220099D4
:10662C00019800F043F80B900B9B0893089B002BF0
:10663C0001D0089B12E001220099019800F036F875
:10664C000B900B9B0793079B002B01D0079B05E03E
:10665C0002220099019800F029F8034618460CB064
:10666C0010BD00BFF07E030000B585B00190009115
:10667C00009B002B15D0019B002B12D0009B039389
:10668C00019B1B88102B02D0502B05D00AE00199DE
:10669C00039800F051F805E00199039800F052F8C6
:1066AC0000E000BF05B05DF804FB000000B58DB044
:1066BC000390029113468DF8073004AB2022002181
:1066CC00184611F0F1FA9DF807301A4A32F81330D7
:1066DC00ADF810300223ADF814300223ADF81630AB
:1066EC00039B93F824209DF81D3062F304138DF85E
:1066FC001D309DF81D3043F002038DF81D30029BB8
:10670C005B7B8DF82330029B1B7B8DF82130039B28
:10671C0018899DF807300133DB00039A13449A1C47
:10672C0004AB194607F0F6FC034618460DB05DF8AD
:10673C0004FB00BFE87E030082B00190009100BF13
:10674C0002B0704782B00190009100BF02B0704758
:10675C00A8DF704700BF184662DF704700BF1846BD
:10676C0010B58CB001900091304B02AC0FCB84E88B
:10677C000F00019B002B01D10E2353E0009B002B3B
:10678C0001D10E234EE0009B1A68019B5A60009BBE
:10679C001A79019B83F82420019A02AB1146184602
:1067AC00FFF7DAFF0B900B9B0A930A9B002B01D08F
:1067BC000A9B37E0019B1B788DF81A3043F2342387
:1067CC00ADF81830019B03F1080206AB1946012005
:1067DC00FFF7BEFF0B900B9B0993099B002B01D07D
:1067EC00099B1FE000220099019800F043F80B90E0
:1067FC000B9B0893089B002B01D0089B12E00122F5
:10680C000099019800F036F80B900B9B0793079BAF
:10681C00002B01D0079B05E002220099019800F0A3
:10682C0029F8034618460CB010BD00BF087F0300C2
:10683C0000B585B001900091009B002B15D0019BF9
:10684C00002B12D0009B0393019B1B88102B02D0B2
:10685C00502B05D00AE00199039800F051F805E09F
:10686C000199039800F052F800E000BF05B05DF804
:10687C0004FB000000B58DB00390029113468DF817
:10688C00073004AB20220021184611F00DFA9DF8B8
:10689C0007301A4A32F81330ADF810300223ADF835
:1068AC0014300223ADF81630039B93F824209DF886
:1068BC001D3062F304138DF81D309DF81D3043F02C
:1068CC0002038DF81D30029B5B7B8DF82330029BFD
:1068DC001B7B8DF82130039B18899DF80730013301
:1068EC00DB00039A13449A1C04AB194607F012FC04
:1068FC00034618460DB05DF804FB00BF007F030093
:10690C0082B00190009100BF02B0704782B001903C
:10691C00009100BF02B07047A8DF704700BF184657
:10692C0062DF704700BF184610B58CB00190009123
:10693C00304B02AC0FCB84E80F00019B002B01D134
:10694C000E2353E0009B002B01D10E234EE0009B45
:10695C001A68019B5A60009B1A79019B83F82420CA
:10696C00019A02AB11461846FFF7DAFF0B900B9B0E
:10697C000A930A9B002B01D00A9B37E0019B1B78E2
:10698C008DF81A3042F23423ADF81830019B03F124
:10699C00080206AB19460120FFF7BEFF0B900B9BBC
:1069AC000993099B002B01D0099B1FE00022009941
:1069BC00019800F043F80B900B9B0893089B002B5D
:1069CC0001D0089B12E001220099019800F036F8E2
:1069DC000B900B9B0793079B002B01D0079B05E0AB
:1069EC0002220099019800F029F8034618460CB0D1
:1069FC0010BD00BF607F030000B585B00190009111
:106A0C00009B002B15D0019B002B12D0009B0393F5
:106A1C00019B1B88102B02D0502B05D00AE001994A
:106A2C00039800F051F805E00199039800F052F832
:106A3C0000E000BF05B05DF804FB000000B58DB0B0
:106A4C000390029113468DF8073004AB20220021ED
:106A5C00184611F029F99DF807301A4A32F813300C
:106A6C00ADF810300223ADF814300223ADF8163017
:106A7C00039B93F824209DF81D3062F304138DF8CA
:106A8C001D309DF81D3043F002038DF81D30029B24
:106A9C005B7B8DF82330029B1B7B8DF82130039B95
:106AAC0018899DF807300133DB00039A13449A1CB4
:106ABC0004AB194607F02EFB034618460DB05DF8E3
:106ACC0004FB00BF587F030082B00190009100BF0F
:106ADC0002B0704782B00190009100BF02B07047C5
:106AEC0000B583B000F02AF800221049104801F0DC
:106AFC0025FE0190019B002B01D0002312E05422B3
:106B0C0000210C4811F0D0F80A4801F0F1FE019078
:106B1C00019B002B01D0002304E00021064801F06A
:106B2C00D3FE0123184603B05DF804FB856D02000B
:106B3C008C2C0020382C0020A56D0200084B094A33
:106B4C001A60074B084A5A60054B084A9A60044B76
:106B5C00074ADA60024B074A1A610123184670474C
:106B6C008C2C0020856B0200056C02000F6C02005F
:106B7C002F6D0200656D020000B585B001901D4AB5
:106B8C0002AB92E8030018600433197000238DF8EF
:106B9C000F3000238DF80E3014E002AB052219469D
:106BAC004A2000F041FA0346002B03D001238DF854
:106BBC000F300BE01E2000F071FA9DF80E300133FF
:106BCC008DF80E309DF80E30042BE6D99DF80F3061
:106BDC0083F00103DBB2002B02D04FF0FF3304E053
:106BEC004FF4967000F05AFA0023184605B05DF881
:106BFC0004FB00BFB47F030082B0019000BF02B061
:106C0C00704700B5A9B0039002910192009324AB98
:106C1C00042219464A2000F025FA034683F00103AA
:106C2C00DBB2002B01D0002377E09DF890301AB234
:106C3C009DF891301B021BB213431BB2ADF896307A
:106C4C00BDF89630C3F30E03ADF89630BDF8963010
:106C5C00019A9A4201D200235FE0BDF89630ADF85C
:106C6C009E300023ADF89A3001238DF899304EE018
:106C7C009DF89930002B07D0BDF89E30802B28BF93
:106C8C008023ADF89C3007E0BDF89E300433802B98
:106C9C0028BF8023ADF89C30BDF89C2004AB19466E
:106CAC004A2000F0DFF9034683F00103DBB2002B2E
:106CBC0001D0002331E09DF89930002B0ED0BDF8A7
:106CCC009C30ADF89A30BDF89A2004AB1946029866
:106CDC0010F0B4FF00238DF899300CE0BDF89C3017
:106CEC00043BADF89A3004AB0433BDF89A20194636
:106CFC00029810F0A3FFBDF89A30029A1344029345
:106D0C00BDF89E20BDF89A30D31AADF89E30BDF870
:106D1C009E30002BACD1BDF89630184629B05DF8EA
:106D2C0004FB00B587B0039002910192019BFF2BED
:106D3C0028BFFF23ADF81630019A02994A2000F0C3
:106D4C0073F90346002B01D0002301E0BDF8163087
:106D5C00184607B05DF804FB84B00190054BD3E9ED
:106D6C0000234FF47A7302FB03F30393039B18463F
:106D7C0004B07047A82C002082B001900091009BB9
:106D8C001B68002B02D1034B01221A7000BF02B00A
:106D9C00704700BFA42C002000B585B00190009175
:106DAC000A4B1B680099184601F0C0FD0390039B29
:106DBC00002B08D0054B19684FF000024FF0000370
:106DCC00C1E9022300BF05B05DF804FBA02C002034
:106DDC0000B585B00190019B002B0AD0074B43F006
:106DEC0001030393019B9B010293039B0298984719
:106DFC0000E000BF05B05DF804FB00BFF07F0300AE
:106E0C0000B583B00190019B043318460AF000FCD6
:106E1C0000BF03B05DF804FB00B589B00590039288
:106E2C001A460B468DF8133013468DF8123000239A
:106E3C000793059B181D9DF812209DF813109DF8C3
:106E4C00283000931346039A0AF000FF0790079B23
:106E5C00184609B05DF804FB00B587B003900192A9
:106E6C001A460B468DF80B3013468DF80A3000236A
:106E7C000593039B181D9DF80A309DF80B10019A81
:106E8C000AF00CFF0590059B184607B05DF804FB53
:106E9C0082B001904FF0A043184602B0704700B585
:106EAC0085B00190084611461A4603468DF803300A
:106EBC000B468DF8023013468DF8013001AB1846A5
:106ECC00FFF7E6FF03909DF803209DF802305B006E
:106EDC001A439DF801309B001A439DF818301B0291
:106EEC0042EA03019DF81C301B04019A1943039BD1
:106EFC0002F5E07243F8221000BF05B05DF804FB08
:106F0C0000B585B003900023019300230093002368
:106F1C00012201210398FFF7C2FF00BF05B05DF805
:106F2C0004FB00B585B003900B468DF80B309DF833
:106F3C000B300022019200220092002200210398C3
:106F4C00FFF7ADFF00BF05B05DF804FB00B585B0E1
:106F5C00019001AB1846FFF79BFF0390019B0122A8
:106F6C0002FA03F31946039800F02AF800BF05B0A3
:106F7C005DF804FB00B585B0019001AB1846FFF736
:106F8C0087FF0390019B012202FA03F31946039831
:106F9C0000F020F800BF05B05DF804FB00B583B02D
:106FAC0001900091009B002B03D10198FFF7E2FFA9
:106FBC0002E00198FFF7CAFF00BF03B05DF804FBC5
:106FCC0082B001900091019B009AC3F8082500BF84
:106FDC0002B0704782B001900091019B009AC3F8F7
:106FEC000C2500BF02B0704700B583B00190019B27
:106FFC00002B0AD04FF47A70FFF7EAFE019B013B9D
:10700C000193019B002BF5D100E000BF03B05DF8AC
:10701C0004FB08B500F062F800F0E2F800F088F824
:10702C0000F0B2F800BF08BD00B587B0034604916C
:10703C0003928DF81730039BDBB29DF817100022DA
:10704C000092049A0648FFF7E7FE0346002B01D096
:10705C00002300E00123184607B05DF804FB00BFD5
:10706C00D82A002000B585B00346029101928DF814
:10707C000F30019BDBB29DF80F10029A0648FFF708
:10708C00EBFE0346002B01D0002300E00123184641
:10709C0005B05DF804FB00BFD82A002000B583B012
:1070AC0001900198FFF7A0FF00BF03B05DF804FB4F
:1070BC0000B583B003460A468DF8073013468DF8A9
:1070CC0006309DF807309DF8062011461846FFF74C
:1070DC0065FF00BF03B05DF804FB000000B587B08E
:1070EC006B4600221A605A609A60DA60052300939E
:1070FC00042301934FF0CD63029302238DF80C30DF
:10710C00694600230022094808F098FC0590059B6D
:10711C000493049B002B02D004980CF023FA034830
:10712C00FFF76EFE00BF07B05DF804FBD82A002005
:10713C0010B586B0124B6C460FCB84E80F001923A8
:10714C008DF801301C238DF802301D238DF8003092
:10715C0001238DF80C304FF08053029369460023C5
:10716C000022084808F01EFB0590059B0493049B25
:10717C00002B02D004980CF0F5F900BF06B010BD3E
:10718C00E07F0300E82A002010B586B0124B6C4655
:10719C000FCB84E80F0005238DF801300C238DF8FC
:1071AC00023002238DF8003000238DF80C304FF0A4
:1071BC0000430293694600230022084808F0F2FAC3
:1071CC000590059B0493049B002B02D004980CF0B3
:1071DC00C9F900BF06B010BDE07F0300F82A0020FB
:1071EC0000B583B009F0A2F80190019B0093009BBD
:1071FC00002B02D000980CF0B5F903211420FFF7F6
:10720C0090FE00210D20FFF78CFE0420FFF778FE86
:10721C001F20FFF775FE1320FFF772FE1E20FFF7ED
:10722C006FFE1720FFF76CFE1220FFF769FE182087
:10723C00FFF766FE01210420FFF73AFF01211F2012
:10724C00FFF736FF01211320FFF732FF00211E202C
:10725C00FFF72EFF01211220FFF72AFF0021172034
:10726C00FFF726FF00211820FFF722FF00BF03B015
:10727C005DF804FB00B585B00190019B002B0AD092
:10728C00074B43F001030393019B9B010293039B68
:10729C000298984700E000BF05B05DF804FB00BF02
:1072AC000080030000B583B00190019B002B0AD035
:1072BC004FF47A70FFF7DEFF019B013B0193019BBA
:1072CC00002BF5D100E000BF03B05DF804FB00001B
:1072DC0000B583B001900199044803F0D7FB01205D
:1072EC00FFF7E0FF00BF03B05DF804FBB02C0020FB
:1072FC0000B585B0039002911346ADF80630039BA0
:10730C0099B2BDF80630029A084803F01DFC012022
:10731C00FFF7C8FF0399054803F0A2FC0120FFF713
:10732C00C1FF00BF05B05DF804FB00BFB02C00200E
:10733C0076DF704700BF18467ADF704700BF1846EB
:10734C007CDF704700BF18467FDF704700BF1846D0
:10735C008FDF704700BF1846B1DF704700BF18467B
:10736C0033DF704700BF184608B5114B00221A7462
:10737C0000F05CFC00F01EF800F070FC00F0A4FBC8
:10738C0000F060F800F0F2FB00F0DCF900F012FC09
:10739C0000F028FAFFF73DFE00F0EAFC00F070FC6C
:1073AC00FFF79EFB024B01221A700EF055FFFCE713
:1073BC00B82C002000B587B00CF0FEFB0590059BA7
:1073CC000493049B002B02D004980CF0CBF8174AC2
:1073DC00012117480CF02EFC0590059B0393039B91
:1073EC00002B02D003980CF0BDF8124A0121124870
:1073FC000CF020FC0590059B0293029B002B02D005
:10740C0002980CF0AFF80D4A01210D480CF012FC5B
:10741C000590059B0193019B002B02D001980CF069
:10742C00A1F800BF07B05DF804FB00BFF17C0200BF
:10743C0008800300B97C02000C800300CD7C0200A4
:10744C001080030000B587B09DF80030012262F374
:10745C0003038DF800309DF80030012262F307130E
:10746C008DF800306B460A2218491846FFF768FF62
:10747C000590059B0493049B002B02D004980CF000
:10748C0071F801AB08220021184610F00DFC1023F6
:10749C00ADF804303C23ADF806300023ADF80830CD
:1074AC004FF4C873ADF80A3001AB1846FFF744FF30
:1074BC000590059B0393039B002B02D003980CF0C3
:1074CC0051F800BF07B05DF804FB00BF1480030047
:1074DC0000B583B0019001980CF044F800BF03B0E4
:1074EC005DF804FB00B587B06B46102200211846EE
:1074FC0010F0DAFB0023009301238DF804300023F5
:10750C00029301238DF80C3001238DF80D300123EB
:10751C008DF80E306B4619460748FEF759FF05905B
:10752C00059B0493049B002B02D004980CF01AF8D2
:10753C0000BF07B05DF804FBD02C002000B587B06D
:10754C006B4610220021184610F0AEFB002300936E
:10755C0001238DF804300023029301238DF80C30A5
:10756C0001238DF80D3001238DF80E306B46194632
:10757C000748FFF711F80590059B0493049B002B1B
:10758C0002D004980BF0EEFF00BF07B05DF804FBCF
:10759C00482D002000B587B06B46102200211846FC
:1075AC0010F082FB0023009301238DF8043000239C
:1075BC00029301238DF80C3001238DF80D3001233B
:1075CC008DF80E306B461946074810F035F80590CB
:1075DC00059B0493049B002B02D004980BF0C2FF74
:1075EC0000BF07B05DF804FB702D002000B587B01C
:1075FC006B4610220021184610F056FB0023009316
:10760C0001238DF804300023029301238DF80C30F4
:10761C0001238DF80D3001238DF80E306B46194681
:10762C000748FFF79DF80590059B0493049B002BDE
:10763C0002D004980BF096FF00BF07B05DF804FB76
:10764C00202D002000B587B06B4610220021184673
:10765C0010F02AFB0023009301238DF80430002343
:10766C00029301238DF80C3001238DF80D3001238A
:10767C008DF80E306B4619460748FFF755F9059003
:10768C00059B0493049B002B02D004980BF06AFF1B
:10769C0000BF07B05DF804FBF82C002000B587B0E4
:1076AC006B4610220021184610F0FEFA00230093BE
:1076BC0001238DF804300023029364238DF80C30E1
:1076CC0001238DF80D3001238DF80E3001238DF838
:1076DC000F306B461946084807F080FB0590059B58
:1076EC000493049B002B02D004980BF03BFF00BFCB
:1076FC0007B05DF804FB00BF982D002000B593B0D7
:10770C006B4640220021184610F0CEFA6B460C490D
:10771C00184606F07AFC01238DF83C306B4618466F
:10772C0007F0C2FD1190119B1093109B002B02D0FF
:10773C0010980BF017FF00BF13B05DF804FB00BFEF
:10774C002080030000B585B000230193104B0193FA
:10775C0001AB19460F4807F051F90390039B0293B4
:10776C00029B002B02D002980BF0FCFEFFF7BAFE36
:10777C00FFF768FFFFF73AFFFFF7E0FEFFF70AFF9E
:10778C00FFF78CFFFFF7BAFF00BF05B05DF804FBF5
:10779C00DD740200C02D002000B585B00190019B66
:1077AC001B78002B0ED1094B1B883B211846FFF789
:1077BC00BFFD0390039B0293029B002B02D0029807
:1077CC000BF0D0FE00BF05B05DF804FB682B002069
:1077DC0000B583B0019001980BF0C4FE00BF03B05C
:1077EC005DF804FB00B58BB001AB1C2200211846E0
:1077FC0010F05AFA002301934FF4A03302934FF484
:10780C00F023039303238DF810300023ADF81230CE
:10781C0000238DF814300A4B06930A4B079301ABE7
:10782C00184606F02BF80990099B0893089B002B2F
:10783C0002D008980BF096FE00BF0BB05DF804FB6D
:10784C00A5770200DD77020000B585B0002003F0BB
:10785C007DFE0390039B0293029B002B02D00298A7
:10786C000BF080FE03F06FFF0390039B0193019BD1
:10787C00002B02D001980BF075FEFFF771FD039001
:10788C00039B0093009B002B02D000980BF06AFE28
:10789C0000BF05B05DF804FB00B585B003468DF85C
:1078AC0007309DF80730002B0ED0032B0FD1022090
:1078BC0003F04CFE0390039B0293029B002B08D019
:1078CC0002980BF04FFE04E0FFF7BEFF02E000BF92
:1078DC0000E000BF00BF05B05DF804FB00B58DB043
:1078EC0001900091019B1B88562B00F0C080562BF9
:1078FC0000F3CD80522B00F09980522B00F3C780FF
:10790C00212B2DDC102BC0F2C280103B112B00F26E
:10791C00BE8001A252F823F073790200C9790200EB
:10792C009B7A0200177A02009B7A02009B7A020073
:10793C009B7A02009B7A02009B7A02009B7A0200DF
:10794C009B7A02009B7A02009B7A02009B7A0200CF
:10795C009B7A02009B7A02009B7A0200E979020072
:10796C003B2B74D093E0524A524BD31ADB081B04C6
:10797C0043F00303504918460EF02CFC072003F08B
:10798C00E5FD0B900B9B0593059B002B02D00598F6
:10799C000BF0E8FD019B9A88484B1A80474B1B88DB
:1079AC001946474807F04CF80B900B9B0493049B2B
:1079BC00002B6ED004980BF0D5FD6AE03C4A3D4B91
:1079CC00D31ADB081B0443F003033E4918460EF0A0
:1079DC0001FC3A4B4FF6FF721A8065E000238DF8DC
:1079EC000C3000238DF80D30019B9B8803AA1146A7
:1079FC001846FFF7ADFC0B900B9B0793079B002BD6
:107A0C0049D007980BF0AEFD45E02C4B18880023AD
:107A1C0000228521FFF798FC0B900B9B0693069B8D
:107A2C00002B3AD006980BF09DFD36E0234B1888BE
:107A3C00002300220021FFF78FFC0B900B9B099376
:107A4C00099B002B2BD009980BF08CFD27E0019B98
:107A5C009B8813211846FFF76BFC0B900B9B08932C
:107A6C00089B002B1DD008980BF07CFD19E0019BA6
:107A7C009B8813211846FFF75BFC0B900B9B0A931A
:107A8C000A9B002B0FD00A980BF06CFD0BE000BF8B
:107A9C000AE000BF08E000BF06E000BF04E000BF42
:107AAC0002E000BF00E000BF00BF0DB05DF804FBBA
:107ABC00047E0300C47D03002C800300682B00208F
:107ACC00C02D00203880030000B587B00FF0ECFA11
:107ADC000590059B0493049B002B02D004980BF09B
:107AEC0041FD0023019301AB194601200FF088FBE7
:107AFC000590059B0393039B002B02D003980BF07E
:107B0C0031FD01AB18460FF099FC0590059B0293D3
:107B1C00029B002B02D002980BF024FD00BF07B093
:107B2C005DF804FB00B583B001900091009B1B88AD
:107B3C0040F6772293420ED1094A0A4BD31ADB083E
:107B4C001B0443F00300009B5B881A46009B9B8838
:107B5C0005490EF05EFB00BF03B05DF804FB00BFEF
:107B6C00047E0300C47D03004880030000B585B08B
:107B7C000E490F4806F042FE0390039B0293029BB2
:107B8C00002B02D002980BF0EDFCF721084806F010
:107B9C0060FE0390039B0193019B002B02D0019884
:107BAC000BF0E0FC00BF05B05DF804FB317B02007C
:107BBC00AC2D002000B5AFB001ABAC2200211846B3
:107BCC0010F072F802238DF8043000238DF8063083
:107BDC0005238DF807300223ADF85030104B159368
:107BEC0001238DF880304023239344F25063249377
:107BFC000C4B2A9301AB19460B4805F0DDFA2D907E
:107C0C002D9B2C932C9B002B02D02C980BF0AAFCB8
:107C1C000121054805F0C3FA00BF2FB05DF804FB45
:107C2C006C2B0020A5780200CC2D002000B583B071
:107C3C004FF4804108480DF0F1FF0190019B009337
:107C4C00009B002B02D000980BF08CFC0DF078FF01
:107C5C0000BF03B05DF804FB9D3D030000B583B08D
:107C6C000DF01AFC0190019B0093009B002B02D09D
:107C7C0000980BF077FC00BF03B05DF804FB00002C
:107C8C0000B583B00321084805F06EFB0190019B01
:107C9C000093009B002B02D000980BF063FC00BFFC
:107CAC0003B05DF804FB00BFCC2D002000B583B001
:107CBC00019000F01DF800BF03B05DF804FB00005C
:107CCC0030B482B00190064BD3E90023541C43F12D
:107CDC000005034BC3E9004500BF02B030BC704740
:107CEC00A82C002082B0019000BF02B070470000A9
:107CFC0000B583B000238DF807300DF1070318464B
:107D0C0002F0EAFD9DF807309AB2164B1B8813441B
:107D1C009AB2144B1A80144B1B780133DAB2124B03
:107D2C001A70114B1B78092B17D90E4B1B881A464E
:107D3C000D4B1B7892FBF3F3DBB28DF807300A4B3B
:107D4C0000221A70074B00221A809DF807304FF65C
:107D5C00FE721946054807F0A1F800BF03B05DF8A4
:107D6C0004FB00BF0032002002320020982D0020BE
:107D7C0000B585B0194B00224FF4004118460BF0AA
:107D8C007FFF0390039B0293029B002B02D002986F
:107D9C000BF0E8FB124B00224FF4A02118460BF01D
:107DAC006FFF0390039B0193019B002B02D0019862
:107DBC000BF0D8FB0B4B0022102118460BF060FF88
:107DCC000390039B0093009B002B02D000980BF0B8
:107DDC00C9FB00BF05B05DF804FB00BF082B0020F9
:107DEC00282B0020482B002000B585B00190009175
:107DFC00019BD3F8A030002B02D06FF0020318E0E7
:107E0C00019B009AC3F8A020019B0022C3F8A42078
:107E1C00009B5B68019898470390039B002B07D04D
:107E2C00019B039AC3F8A420019B0022C3F8A02055
:107E3C00039B184605B05DF804FB00B585B00390B4
:107E4C0002911346ADF80630039BD3F8A030002BFB
:107E5C000ED0039BD3F8A0309B68002B08D0039B5B
:107E6C00D3F8A0309B68BDF8062002990398984778
:107E7C0000BF05B05DF804FB00B589B00390019319
:107E8C000B468DF80B3013468DF80A30039B059387
:107E9C009DF80B30812B0CD0812B56DC002B3AD06B
:107EAC00802B52D1059B0C33019918460FF07EFEA6
:107EBC004CE09DF80A305B088DF81F309DF81F30A0
:107ECC00402B02D940238DF81F30002306931CE071
:107EDC00069B5B001A46019B13441978059A069B76
:107EEC000C335B0013440A465A71069B5B0001334A
:107EFC00019A13441978059A069B0C335B001344C2
:107F0C000A469A71069B013306939DF81F30069A18
:107F1C009A42DDDB1AE0059B5B680E4A0E49184657
:107F2C0002F004FC03461A46059B9A72059B5B689B
:107F3C000A4A0B49184602F0F9FB03461A46059B00
:107F4C00DA72059B01225A7200E000BF00BF09B033
:107F5C005DF804FB78800300808003008C800300B4
:107F6C009480030000B58DB00390029100931346EA
:107F7C00ADF80630039B07930023ADF82E30002399
:107F8C000A9300230693BDF80630002B40F0BC800A
:107F9C00079BD3F8F4315A1C079BC3F8F421BAE0C1
:107FAC000A9B01330A93BDF82E30029A13441B78B6
:107FBC008DF8173000238DF827300023089315E037
:107FCC00079A089B0C335B0013445B799DF81720D0
:107FDC009A4208D1079A089B0C335B0013449B7997
:107FEC008DF8273005E0089B01330893089B3F2B45
:107FFC00E6DD9DF82730002B07D1079BD3F8F8312D
:10800C005A1C079BC3F8F82185E09DF81730F12B1B
:10801C0008D1BDF82E30029A13440693069B9B7828
:10802C00842B5EE09DF81730FC2B5AD1079BD3F8BC
:10803C00BC30002B55D0BDF82E30029A134404935B
:10804C00364B02221A60049B5A78344B1A71049BEB
:10805C009B7803F00203002B14BF01230023DAB238
:10806C002E4B1A72049B9B7803F00103002B14BF58
:10807C0001230023DAB2294B5A72049B9B7803F03C
:10808C000403002B14BF01230023DAB2234B9A7292
:10809C00049B9B7803F00803002B14BF01230023DF
:1080AC00DAB21E4BDA72049BB3F803309AB21B4B54
:1080BC009A81049BD3F80530184A1361049BD3F8BA
:1080CC000930164A5361049BD3F80D30134A93615F
:1080DC00079BD3F8BC30079AD2F8C0200F49104642
:1080EC009847BDF82E30029A13449DF8272092B27F
:1080FC0019460798FFF7A1FE9DF827309AB2BDF8F4
:10810C002E301344ADF82E30BDF82E20BDF80630BD
:10811C009A42FFF445AF0DB05DF804FB003400202B
:10812C0082B001900091019B009AC3F8A420019B9E
:10813C000022C3F8A0200023184602B070470000AC
:10814C0000B587B0019000910023049300230393A2
:10815C00019B1B681B69019A126810469847039093
:10816C0000991F48FFF740FE0490049B002B01D0A0
:10817C00049B30E0039B05930CE0019B5B68184665
:10818C0002F06EFB019B1B681B69019A126810467A
:10819C0098470590019BD3F8A030002B0AD0009B88
:1081AC001B68002BE9D0059A039BD21A009B1B6815
:1081BC009A42E2D3019BD3F8A030002B08D0019B4C
:1081CC000022C3F8A020019B6FF00502C3F8A42085
:1081DC00019BD3F8A430184607B05DF804FB00BF30
:1081EC000432002084B001900B468DF8033000233C
:1081FC00039313E0019A039B0C335B0013445B79EC
:10820C009DF803209A4206D1019A039B0C335B0024
:10821C0013449B7906E0039B01330393039B3F2B91
:10822C00E8DD0023184604B0704700002DE9F00388
:10823C0086B0039002911346ADF806301A4B1B68BA
:10824C00039A9A4204D2194B1B680133174A1360E4
:10825C00154A039B1360154B1B68002298469146E8
:10826C004FF000024FF0000343460022CDE90423F7
:10827C00BDF80620029B1344642202FB03F31A464A
:10828C00039B134400221C461546DDE904231619F2
:10829C0043EB0507CDE90467DDE9042310461946D5
:1082AC0006B0BDE8F00370471C34002020340020D9
:1082BC0000B595B00390029100931346ADF80630CB
:1082CC000023ADF84E300023129390E0BDF84E30F1
:1082DC00029A13441B788DF847309DF847301946A5
:1082EC000398FFF77FFF03468DF846309DF8463024
:1082FC00002B07D1039BD3F8F8315A1C039BC3F80E
:10830C00F8217BE09DF84730FB2B0AD1BDF84E30AD
:10831C00029A13440D930D9BD3F801305B421293D8
:10832C005DE09DF84730FA2B0CD1BDF84E30029A27
:10833C0013440E930E9BD3F801301A46129B134430
:10834C0012934CE09DF84730EF2B0BD1BDF84E301B
:10835C00029A13449DF8462092B219460398FFF7EF
:10836C006CFD3CE0BDF84E30029A13441093109B08
:10837C0002331B789B019BB203F47C539AB2109B83
:10838C0003331B789BB21344ADF83E30129BBDF8FF
:10839C003E2019460098FFF749FF02460B46CDE9EF
:1083AC0004239DF847308DF819309DF8462004AB16
:1083BC000A33109918460FF041FC9DF846308DF8A1
:1083CC001830039BD3F8C430002B08D0039BD3F890
:1083DC00C430039AD2F8C82004A9104698479DF8D7
:1083EC0046309AB2BDF84E301344ADF84E30BDF85D
:1083FC004E20BDF806309A42FFF468AF15B05DF818
:10840C0004FB00B587B00390029100931346ADF8BE
:10841C000630039B0593BDF80620009B0299059836
:10842C00FFF746FF00BF07B05DF804FB00B587B04F
:10843C000390029100931346ADF80630039B05930D
:10844C00BDF80620009B02990598FFF731FF00BF8D
:10845C0007B05DF804FB30B591B003900291009326
:10846C001346ADF80630039B0E930023ADF83E3057
:10847C002A238DF837309DF8373019460E98FFF7C0
:10848C00B1FE03468DF836302EE0009B00221C46D0
:10849C001546CDE904459DF837308DF81930BDF8F7
:1084AC003E30029AD1189DF8362004AB0A33184698
:1084BC000FF0C4FB9DF836308DF818300E9BD3F8B6
:1084CC00C430002B08D00E9BD3F8C4300E9AD2F8CF
:1084DC00C82004A9104698479DF836309AB2BDF8CA
:1084EC003E301344ADF83E30BDF83E20BDF80630AA
:1084FC009A42CAD300BF00BF11B030BD84B0039004
:10850C0001930B468DF80B3013468DF80A3000BFE3
:10851C0004B0704700B587B00390029100931346E6
:10852C00ADF80630039B0593BDF80630012B07D040
:10853C00059BD3F8F0315A1C059BC3F8F02121E0C0
:10854C00029B1B78012B14D1059B01221A720F4B35
:10855C0000221A60059BD3F8BC30002B11D0059B70
:10856C00D3F8BC30059AD2F8C02008491046984779
:10857C0007E0059BD3F8F0315A1C059BC3F8F0219A
:10858C0000E000BF07B05DF804FB00BF0034002022
:10859C0000B585B0039002911346ADF80630039BED
:1085AC005868039BD97ABDF80630029A02F023F979
:1085BC000346184605B05DF804FB00B585B0019084
:1085CC0000230393019B002283F8AC20019B04221F
:1085DC0083F8AD2002AB0222002118460FF064FB99
:1085EC00F9238DF8083002AB022219460198FFF7E7
:1085FC00CFFF0390039B184605B05DF804FB000009
:10860C0000B589B0039002911346ADF80630029B79
:10861C000793079B1B78F82B61D1039BD3F8A830E9
:10862C000693069B002B40D0039B93F8AC20039B36
:10863C0093F8AD309A4238D2039B93F8AC301B01BF
:10864C00069A13440593079B5A78059B1A70079B4F
:10865C009A78059B5A70079BDA78059B9A70079B52
:10866C005A68059B5A60079B9A68059B9A60079B02
:10867C009B899AB2059B9A81079B9A7B059B9A735F
:10868C00079BDA7B059BDA73059B5B68174A934261
:10869C0003D1039B052283F8AD20039B93F8AC30E8
:1086AC000133DAB2039B83F8AC20039BD3F8A830D8
:1086BC00002B07D0039B93F8AC20039B93F8AD30B1
:1086CC009A420ED3039BD3F8A830039A92F8AC20AD
:1086DC0083F8502000210398FFF722FD01E000BF32
:1086EC0000E000BF09B05DF804FB00BF7FA6980056
:1086FC0000B585B001900B468DF803300D4B0393FC
:10870C000D4B01221A600C4A9DF803301371039B28
:10871C00D3F8BC30002B08D0039BD3F8BC30039AA1
:10872C00D2F8C02004491046984700BF05B05DF848
:10873C0004FB00BF043200200034002000B58BB0D5
:10874C00059004910392514B0893059B002B02D189
:10875C006FF0010396E04FF4FE7200214B480FF0CE
:10876C00A3FA089B00221A72089BFF22DA72089B5C
:10877C00059A1A60089B049AC3F8BC20089B039ABC
:10878C00C3F8C020089B0022C3F8C420089B002219
:10879C00C3F8C820089B1B68184601F017FF024657
:1087AC00089B5A60089B5B68002B02D14FF0FF338B
:1087BC0068E0089B5B68354A3549184601F066FF4E
:1087CC00089B5868314B334A022101F090FF089BFB
:1087DC0058682E4B0093304B304A022101F065FF54
:1087EC00089B5868294B00932D4B2E4A022101F00F
:1087FC005CFF089B5868254B00932B4B2B4A02219E
:10880C0001F053FF089B5868204B0093284B294AD2
:10881C00022101F04AFF089B58681C4B264A012193
:10882C0001F065FF089B5868184B0093234B244AB2
:10883C00012101F03AFF089B1B681B69089A12681A
:10884C00104698470790079B09930CE0089B5B68C0
:10885C00184602F005F8089B1B681B69089A1268F9
:10886C00104698470990099A079BD31A154A9342C8
:10887C0007D8089B1B7ADBB283F00103DBB2002B19
:10888C00E4D1002318460BB05DF804FB0432002041
:10889C00FD860200857E0200717F02008C80030041
:1088AC000F840200A080030039840200AC80030016
:1088BC0063840200B8800300098502002185020050
:1088CC00788003003F0D030084B001900091074BAA
:1088DC000393039B019AC3F8C420039B009AC3F82B
:1088EC00C8200023184604B0704700BF0432002093
:1088FC0000B585B001900B4B0393039BA83310225A
:10890C00002118460FF0D0F9039B019AC3F8A82058
:10891C0005490398FFF714FC0346184605B05DF8AB
:10892C0004FB00BF04320020C480030000B585B0F6
:10893C000190009100230393009B5A7A019B1A70BB
:10894C00009BD3E900230199C1E90223019B1B7809
:10895C002A2B0BD0009BDA7A019B5A70009B1B7B55
:10896C0003F00303DAB2019B9A7005E0019B00222D
:10897C005A70019B00229A70019B1B78013B2A2B99
:10898C0000F23E8101A252F823F000BF518A02008E
:10899C00818A0200A58A02005D8A0200BD8A02005B
:1089AC00698A02008D8A0200C98A0200D58A0200F7
:1089BC00E18A0200ED8A0200F98A0200058B0200AE
:1089CC00118B0200B18A0200298B0200418B02003C
:1089DC004D8B0200598B0200458A0200758A0200F9
:1089EC00998A02001D8B0200358B0200658B0200F8
:1089FC00718B02007D8B0200898B02000D8C0200B2
:108A0C00958B0200A18B0200AD8B0200B98B02008A
:108A1C00C58B0200D18B02000D8C02000D8C020064
:108A2C000D8C02000D8C0200DD8B0200E98B020024
:108A3C00F58B0200018C02000099019800F0EAF815
:108A4C000390E1E00099019800F012F90390DBE04B
:108A5C000099019800F04AF90390D5E0009901982B
:108A6C0000F082F90390CFE00099019800F0BAF978
:108A7C000390C9E00099019800F0EAF90390C3E073
:108A8C000099019800F022FA0390BDE0009901983A
:108A9C0000F08EFA0390B7E00099019800F0B6FA56
:108AAC000390B1E00099019800F0EEFA0390ABE06E
:108ABC000099019800F05AFB0390A5E000990198E9
:108ACC0000F0B6FB03909FE00099019800F000FCC9
:108ADC00039099E00099019800F05CFC039093E0FE
:108AEC000099019800F072FC03908DE000990198B8
:108AFC0000F088FC039087E00099019800F09EFC40
:108B0C00039081E00099019800F0B4FC03907BE0A5
:108B1C000099019800F0CAFC039075E00099019847
:108B2C0000F0E0FC03906FE00099019800F0E5FC88
:108B3C00039069E00099019800F0F0FC039063E069
:108B4C000099019800F004FD03905DE000990198F4
:108B5C0000F010FD039057E00099019800F015FD0E
:108B6C00039051E00099019800F021FD03904BE037
:108B7C000099019800F02DFD039045E000990198B3
:108B8C0000F039FD03903FE00099019800F045FD9D
:108B9C00039039E00099019800F06DFD039033E0EB
:108BAC000099019800F072FD03902DE00099019856
:108BBC0000F07EFD039027E00099019800F08AFDFB
:108BCC00039021E00099019800F096FD03901BE0C2
:108BDC000099019800F0A2FD039015E0009901980E
:108BEC0000F0FEFD03900FE00099019800F048FEA4
:108BFC00039009E00099019800F0C6FE039003E091
:108C0C004FF0FF33039300BF039B184605B05DF88C
:108C1C0004FB00BF00B583B001900091009B0E33A4
:108C2C00184600F0F7FE03461A46019B9A82009BF9
:108C3C001033184600F0EEFE03461A46019BDA820A
:108C4C00009B1233184600F0E5FE03461A46019BC2
:108C5C001A83009B1633184600F0EEFE03461A46A4
:108C6C00019BDA610023184603B05DF804FB000099
:108C7C0000B583B001900091009B0E33184600F0B4
:108C8C00C9FE034607EE903AF8EEE77A9FED167AA6
:108C9C0067EE877A019BC3ED057A009B103318466B
:108CAC0000F0B8FE034607EE903AF8EEE77A9FED37
:108CBC000E7A67EE877A019BC3ED067A009B12331E
:108CCC00184600F0A7FE034607EE903AF8EEE77A56
:108CDC009FED057A67EE877A019BC3ED077A002337
:108CEC00184603B05DF804FB0000803B00B583B070
:108CFC0001900091009B0E33184600F08BFE03464A
:108D0C0007EE903AF8EEE77A9FED167A67EE877ADF
:108D1C00019BC3ED057A009B1033184600F07AFED8
:108D2C00034607EE903AF8EEE77A9FED0E7A67EE7F
:108D3C00877A019BC3ED067A009B1233184600F02C
:108D4C0069FE034607EE903AF8EEE77A9FED057A56
:108D5C0067EE877A019BC3ED077A0023184603B0B0
:108D6C005DF804FB0000803B00B583B001900091DE
:108D7C00009B0E33184600F04DFE034607EE903A6A
:108D8C00F8EEE77A9FED167A67EE877A019BC3EDD2
:108D9C00057A009B1033184600F03CFE034607EEA4
:108DAC00903AF8EEE77A9FED0E7A67EE877A019BA0
:108DBC00C3ED067A009B1233184600F02BFE0346D7
:108DCC0007EE903AF8EEE77A9FED057A67EE877A30
:108DDC00019BC3ED077A0023184603B05DF804FB32
:108DEC000000803B00B583B001900091009B0E33D6
:108DFC00184600F00FFE03461A46019B9A82009B10
:108E0C001033184600F006FE03461A46019BDA8220
:108E1C00009B1233184600F0FDFD03461A46019BD9
:108E2C001A83009B1433184600F0F4FD03461A46CF
:108E3C00019B5A83009B1633184600F0FDFD034638
:108E4C001A46019BDA610023184603B05DF804FB57
:108E5C0000B583B001900091009B0E33184600F0D2
:108E6C00D9FD034607EE903AF8EEE77A9FED167AB5
:108E7C0067EE877A019BC3ED057A009B1033184689
:108E8C0000F0C8FD034607EE903AF8EEE77A9FED46
:108E9C000E7A67EE877A019BC3ED067A009B12333C
:108EAC00184600F0B7FD034607EE903AF8EEE77A65
:108EBC009FED057A67EE877A019BC3ED077A002355
:108ECC00184603B05DF804FB0000003B00B583B00E
:108EDC0001900091009B0E33184600F09BFD034659
:108EEC0007EE903AF8EEE77A9FED307A67EE877AE4
:108EFC00019BC3ED057A009B1033184600F08AFDE8
:108F0C00034607EE903AF8EEE77A9FED287A67EE83
:108F1C00877A019BC3ED067A009B1233184600F04A
:108F2C0079FD034607EE903AF8EEE77A9FED1F7A4B
:108F3C0067EE877A019BC3ED077A009B14331846C2
:108F4C0000F068FD034607EE903AF8EEE77A9FEDE5
:108F5C00177A67EE877A019BC3ED087A009B16336C
:108F6C00184600F057FD034607EE903AF8EEE77A04
:108F7C009FED0E7A67EE877A019BC3ED097A009B11
:108F8C001833184600F046FD034607EE903AF8EE0B
:108F9C00E77A9FED067A67EE877A019BC3ED0A7A32
:108FAC000023184603B05DF804FB00BF0000003B33
:108FBC0000B583B001900091009B0E33184600F071
:108FCC0029FD03461A46019B9A82009B10331846D2
:108FDC0000F020FD03461A46019BDA82009B1233F7
:108FEC00184600F017FD03461A46019B1A83009B96
:108FFC001633184600F020FD03461A46019BDA6131
:10900C000023184603B05DF804FB000000B583B0E4
:10901C0001900091009B0E33184600F0FBFC0346B8
:10902C0007EE903AF8EEE77A9FED167A67EE877ABC
:10903C00019BC3ED057A009B1033184600F0EAFC47
:10904C00034607EE903AF8EEE77A9FED0E7A67EE5C
:10905C00877A019BC3ED067A009B1233184600F009
:10906C00D9FC034607EE903AF8EEE77A9FED057AC5
:10907C0067EE877A019BC3ED077A0023184603B08D
:10908C005DF804FB0000803D00B583B001900091B9
:10909C00009B0E33184600F0BDFC034607EE903AD9
:1090AC00F8EEE77A9FED307A67EE877A019BC3ED95
:1090BC00057A009B1033184600F0ACFC034607EE13
:1090CC00903AF8EEE77A9FED287A67EE877A019B63
:1090DC00C3ED067A009B1233184600F09BFC034646
:1090EC0007EE903AF8EEE77A9FED1F7A67EE877AF3
:1090FC00019BC3ED077A009B1433184600F08AFCE1
:10910C00034607EE903AF8EEE77A9FED177A67EE92
:10911C00877A019BC3ED087A009B1633184600F042
:10912C0079FC034607EE903AF8EEE77A9FED0E7A5B
:10913C0067EE877A019BC3ED097A009B18331846BA
:10914C0000F068FC034607EE903AF8EEE77A9FEDE4
:10915C00067A67EE877A019BC3ED0A7A00231846DC
:10916C0003B05DF804FB00BF0000803D00B583B088
:10917C0001900091009B0E33184600F04BFC034607
:10918C0007EE903AF8EEE77A9FED277A67EE877A4A
:10919C00019BC3ED057A009B1033184600F03AFC96
:1091AC00034607EE903AF8EEE77A9FED1F7A67EEEA
:1091BC00877A019BC3ED067A009B1233184600F0A8
:1091CC0029FC034607EE903AF8EEE77A9FED167A03
:1091DC0067EE877A019BC3ED077A009B1433184620
:1091EC0000F018FC034607EE903AF8EEE77A9FED94
:1091FC000E7A67EE877A019BC3ED087A009B1633D3
:10920C00184600F007FC034607EE903AF8EEE77AB2
:10921C009FED067A67EE877A019BC3ED097A0023EE
:10922C00184603B05DF804FB00008038000080395C
:10923C0000B583B001900091009B0E33184600F0EE
:10924C00E9FB034607EE903AF8EEE77A9FED1F7ABA
:10925C0067EE877A019BC3ED057A009B10331846A5
:10926C0000F0D8FB034607EE903AF8EEE77A9FED54
:10927C00177A67EE877A019BC3ED067A009B12334F
:10928C00184600F0C7FB034607EE903AF8EEE77A73
:10929C009FED0E7A67EE877A019BC3ED077A009BF0
:1092AC001433184600F0B6FB034607EE903AF8EE7E
:1092BC00E77A9FED067A67EE877A019BC3ED087A11
:1092CC000023184603B05DF804FB00BF0000803893
:1092DC0000B583B001900091009B0E33184600F04E
:1092EC0099FB034607EE903AF8EEE77A9FED277A62
:1092FC0067EE877A019BC3ED057A009B1033184605
:10930C0000F088FB034607EE903AF8EEE77A9FED03
:10931C001F7A67EE877A019BC3ED067A009B1233A6
:10932C00184600F077FB034607EE903AF8EEE77A22
:10933C009FED167A67EE877A019BC3ED077A009B47
:10934C001433184600F066FB034607EE903AF8EE2D
:10935C00E77A9FED0E7A67EE877A019BC3ED087A68
:10936C00009B1633184600F055FB034607EE903A67
:10937C00F8EEE77A9FED067A67EE877A019BC3EDEC
:10938C00097A0023184603B05DF804FB000080380E
:10939C000000803900B583B001900091009B0E3322
:1093AC00184600F049FB07EE900AF8EEE77A9FEDBD
:1093BC00067A67EE877A019BC3ED057A002318467F
:1093CC0003B05DF804FB00BF0000803500B583B02E
:1093DC0001900091009B0E33184600F02DFB07EE18
:1093EC00900AF8EEE77A9FED067A67EE877A019B92
:1093FC00C3ED057A0023184603B05DF804FB00BFEB
:10940C000000803B00B583B001900091009B0E33AF
:10941C00184600F0FFFA034607EE903AF8EEE77AAA
:10942C009FED057A67EE877A019BC3ED057A0023E1
:10943C00184603B05DF804FB0000803B00B583B018
:10944C0001900091009B0E33184600F0E3FA03469E
:10945C0007EE903AF8EEE77A9FED057A67EE877A99
:10946C00019BC3ED057A0023184603B05DF804FB9D
:10947C000000803D00B583B001900091009B0E333D
:10948C00184600F0C7FA034607EE903AF8EEE77A72
:10949C009FED057A67EE877A019BC3ED057A002371
:1094AC00184603B05DF804FB0000003C00B583B027
:1094BC0001900091009B0E33184600F0ABFA034666
:1094CC0007EE903AF8EEE77A9FED057A67EE877A29
:1094DC00019BC3ED057A0023184603B05DF804FB2D
:1094EC000000003C82B001900091009B9A7B019B94
:1094FC001A750023184602B0704700B583B001906E
:10950C000091009B0E33184600F06BFA0246019B4B
:10951C005A610023184603B05DF804FB00B583B014
:10952C0001900091009B0E33184600F05AFA024647
:10953C00019B5A61009B1233184600F052FA034605
:10954C009AB2019B1A830023184603B05DF804FB02
:10955C0000B583B001900091009B0E33184600F0CB
:10956C002DFA03461A46019B9A820023184603B033
:10957C005DF804FB82B001900091009B9A7B019BEB
:10958C001A750023184602B0704700B583B00190DD
:10959C000091009B0E33184600F010FA03461A4651
:1095AC00019B9A820023184603B05DF804FB00B5BA
:1095BC0083B001900091009B0E33184600F0FEF929
:1095CC0003461A46019B9A820023184603B05DF8A5
:1095DC0004FB00B583B001900091009B0E3318463C
:1095EC0000F0ECF903461A46019B9A8200231846B8
:1095FC0003B05DF804FB00B583B001900091009BB3
:10960C000E33184600F0DAF903461A46019B9A828B
:10961C000023184603B05DF804FB84B00190009160
:10962C00009B9B7B03F07F03DAB2019B1A75009BB6
:10963C009B7B5BB2DBB2DB09DAB2019B5A75009BF8
:10964C00DA7B019B9A75002303930DE0039B063391
:10965C00009A1344997A019A039B134417330A46D0
:10966C001A70039B01330393039B092BEEDD00233C
:10967C00184604B0704782B001900091009B9A7B11
:10968C00019B1A750023184602B0704700B583B0D1
:10969C0001900091009B0E33184600F08FF90346A1
:1096AC001A46019B9A820023184603B05DF804FB0E
:1096BC0000B583B001900091009B0E33184600F06A
:1096CC007DF903461A46019B9A820023184603B083
:1096DC005DF804FB00B583B001900091009B0E3344
:1096EC00184600F06BF903461A46019B9A82002338
:1096FC00184603B05DF804FB00B583B001900091EF
:10970C00009B0E33184600F059F903461A46019B8C
:10971C009A820023184603B05DF804FB00B583B0B1
:10972C0001900091009B0E33184600F073F903462C
:10973C0007EE903AF8EEE77A9FED277A67EE877A94
:10974C00019BC3ED057A009B1033184600F062F9BB
:10975C00034607EE903AF8EEE77A9FED1F7A67EE34
:10976C00877A019BC3ED067A009B1233184600F0F2
:10977C0051F9034607EE903AF8EEE77A9FED167A28
:10978C0067EE877A019BC3ED077A009B143318466A
:10979C0000F040F9034607EE903AF8EEE77A9FEDB9
:1097AC000E7A67EE877A019BC3ED087A009B16331D
:1097BC00184600F02FF9034607EE903AF8EEE77AD8
:1097CC009FED067A67EE877A019BC3ED097A002339
:1097DC00184603B05DF804FB0000803800008039A7
:1097EC0000B583B001900091009B0E33184600F039
:1097FC0011F9034607EE903AF8EEE77A9FED1F7ADF
:10980C0067EE877A019BC3ED057A009B10331846EF
:10981C0000F000F9034607EE903AF8EEE77A9FED78
:10982C00177A67EE877A019BC3ED067A009B123399
:10983C00184600F0EFF8034607EE903AF8EEE77A98
:10984C009FED0E7A67EE877A019BC3ED077A009B3A
:10985C001433184600F0DEF8034607EE903AF8EEA3
:10986C00E77A9FED067A67EE877A019BC3ED087A5B
:10987C000023184603B05DF804FB00BF00008038DD
:10988C0000B583B001900091009B0A33184600F09C
:10989C00C1F8034607EE903AF8EEE77A9FED387A76
:1098AC0067EE877A019BC3ED057A009B0C33184653
:1098BC0000F0B0F8034607EE903AF8EEE77A9FED29
:1098CC00307A67EE877A019BC3ED067A009B0E33E4
:1098DC00184600F09FF8034607EE903AF8EEE77A48
:1098EC009FED277A67EE877A019BC3ED077A009B81
:1098FC001033184600F08EF8034607EE903AF8EE57
:10990C00E77A9FED1F7A67EE877A019BC3ED087AA1
:10991C00009B1233184600F07DF8034607EE903A90
:10992C00F8EEE77A9FED177A67EE877A019BC3ED25
:10993C00097A009B1433184600F06CF8034607EEC6
:10994C00903AF8EEE77A9FED0F7A67EE877A019BF3
:10995C00C3ED0A7A009B1633184600F05BF80346F9
:10996C0007EE903AF8EEE77A9FED067A67EE877A83
:10997C00019BC3ED0B7A0023184603B05DF804FB82
:10998C00000080380000803A82B001900091009B6A
:10999C009A7B019B1A75009BDA7B019B5A750023FD
:1099AC00184602B0704784B00190019B1B788DF86B
:1099BC000F309DF80F30184604B0704784B00190FA
:1099CC00019B1B781AB2019B01331B781B021BB243
:1099DC0013431BB2ADF80E30BDF80E30184604B070
:1099EC00704784B00190019B1B781A46019B013390
:1099FC001B781B021A43019B02331B781B041A436E
:109A0C00019B03331B781B0613430393039B1846DC
:109A1C0004B0704784B00190019B1B781AB2019B73
:109A2C0001331B781B021BB21343ADF80E30BDF98A
:109A3C000E30184604B0704784B00190019B1B781F
:109A4C001A46019B01331B781B021A43019B0233FC
:109A5C001B781B041A43019B03331B781B0613430F
:109A6C000393039B184604B07047000008B540F6FA
:109A7C003402002103480EF017F9034B01221A702F
:109A8C0000BF08BD24340020583C002082B00023C5
:109A9C00019314E00D4A019B40F6340101FB03F3E2
:109AAC0013441B68002B07D1019B40F6340202FBC8
:109ABC0003F3064A134406E0019B01330193019B17
:109ACC00002BE7DD0023184602B070472434002039
:109ADC0086B00390019200930B46ADF80A30002338
:109AEC000593039B93F8DD34042B1FD8039B93F849
:109AFC00DD341A4613465B0013449B0003F59C634C
:109B0C00039A13440593039B93F8DD340133DAB2C3
:109B1C00039B83F8DD24059BBDF80A201A80059B66
:109B2C00019A5A60059B009A9A6000E000BF06B04B
:109B3C00704700B587B00190002303930023059371
:109B4C0084E0019A059B342101FB03F3134403F5D4
:109B5C00A96300221A60019A059B342101FB03F3CF
:109B6C00134403F5A4631B68B3F1FF3F6AD0019A59
:109B7C00059B342101FB03F3134403F5A4631B6819
:109B8C000293059B342202FB03F303F5A463019AB1
:109B9C00134404330393002304934FE0019A049B72
:109BAC002C2101FB03F3134403F5DC631B68002B2E
:109BBC0041D0019A049B2C2101FB03F3134403F2C3
:109BCC00BC631B881A46029B934234D1049B2C2203
:109BDC0002FB03F303F5D763019A134406331946CA
:109BEC0003980DF0AFFF0346002B24D1019A049B80
:109BFC002C2101FB03F3134403F5DC631A68019970
:109C0C00059B342000FB03F30B4403F5A9631A6096
:109C1C00019A049B2C2101FB03F3134403F2E4632C
:109C2C001A680199059B342000FB03F30B4403F2E3
:109C3C004C531A6007E0049B01330493049B072BDD
:109C4C00ACDD00E000BF059B01330593059B072BA2
:109C5C007FF777AF00BF00BF07B05DF804FB00B51E
:109C6C0087B00390019200930B46ADF80A300023A5
:109C7C000593039B93F81C38072B02D94FF0FF3345
:109C8C0028E0039B93F81C381A462C2302FB03F3A1
:109C9C0003F5D763039A134404330593039B93F89A
:109CAC001C380133DAB2039B83F81C28059BBDF8E2
:109CBC000A201A80059B0233019918460DF076FF95
:109CCC00059B009A5A62059B089A9A620398FFF7C3
:109CDC0030FF0023184607B05DF804FB82B0034642
:109CEC000A46ADF806301346ADF80430BDF8062030
:109CFC00BDF804309A4202D2BDF8063001E0BDF83E
:109D0C000430184602B0704710B588B00390019229
:109D1C0000930B468DF80B300023059300238DF830
:109D2C001F300023ADF81C300023ADF81C30009B15
:109D3C00ADF81A3087E0039BDB8A043B9AB2BDF87E
:109D4C001A3011461846FFF7C9FF0346ADF812301A
:109D5C00BDF812300433ADF81030BDF81030DAB263
:109D6C00039B1A76BDF810301B0A9BB2DAB2039B28
:109D7C005A769DF81F30002B06D0039B5B7E63F058
:109D8C007F03DAB2039B5A76039B9DF80B209A76DD
:109D9C009DF80B300399342203FB02F20A4402F2C1
:109DAC001C521278511CCCB20399342000FB03F3E3
:109DBC000B4403F21C5321461970039BDA76039B68
:109DCC001833181DBDF81C30019A1344BDF812202D
:109DDC0019460DF033FFBDF81A20BDF81230D31A16
:109DEC00ADF81A30BDF81C20BDF812301344ADF894
:109DFC001C30039B1B68DB68039A1068039A02F102
:109E0C001801BDF8102098470590039800F028FD24
:109E1C00039B1B68DB68039A1068039A02F1180114
:109E2C00BDF8102098470590059B002B08DA039B82
:109E3C00D3F820385A1C039BC3F82028059B08E054
:109E4C0001238DF81F30BDF81A30002B7FF473AF4F
:109E5C000023184608B010BD00B587B003900193DD
:109E6C000B468DF80B3013468DF80A30039B059387
:109E7C009DF80B30802B0CD101980DF0AFFE0346F2
:109E8C00072B08D8059B0C33019918460DF08EFE54
:109E9C0001E000BF00E000BF00BF07B05DF804FBAD
:109EAC0000B585B001900091002302930023039329
:109EBC000FE00199039A1346DB0013449B000B44FB
:109ECC0003F585631B68009A9A422ED0039B0133DD
:109EDC000393019B93F8DC341A46039B9342E8DB13
:109EEC00019B93F8DC34042B21D8019B93F8DC34D0
:109EFC001A461346DB0013449B0003F58563019A55
:109F0C0013440293019B93F8DC340133DAB2019BC6
:109F1C0083F8DC24029B009A1A60029B0433002213
:109F2C001A700198FFF705FE02E000BF00E000BFC9
:109F3C0005B05DF804FB00B587B003900291019267
:109F4C00002304930023059320E00399059A1346FC
:109F5C00DB0013449B000B4403F585631B68029ADA
:109F6C009A4210D1059A1346DB0013449B0003F56B
:109F7C008563039A13440493049B04330199184694
:109F8C000DF014FE09E0059B01330593039B93F838
:109F9C00DC341A46059B9342D7D307B05DF804FB1B
:109FAC0000B587B00390019200930B468DF80B30EF
:109FBC009DF80B30072B28D89DF80B30342202FB70
:109FCC0003F303F5A363039A134404330593059B2E
:109FDC00019A5A60059B0833009918460DF0E6FD6E
:109FEC00059B9DF8202083F82820059B00221A70E1
:109FFC00059B00225A70059B0022DA62059B002209
:10A00C001A630398FFF795FD00E000BF07B05DF8F9
:10A01C0004FB10B586B00390029111461A460B460C
:10A02C008DF8073013468DF806300023059337E082
:10A03C000399059A13465B0013449B000B4403F5EC
:10A04C009C631B881A46029B934226D10399059A5E
:10A05C0013465B0013449B000B4403F2E4431B6860
:10A06C00002B1AD00399059A13465B0013449B00EE
:10A07C000B4403F2E4431C680399059A13465B00F6
:10A08C0013449B000B4403F59D6318689DF8062050
:10A09C009DF80710089BA04705E0059B013305932D
:10A0AC00059B042BC4DD06B010BD000000B59DB0AF
:10A0BC00059004911346ADF80E300123ADF86E30C7
:10A0CC0000231A9300238DF8673000238DF8663037
:10A0DC0000238DF83C3000238DF81C30059B0222A8
:10A0EC0083F8242403E1BDF86E305A1CADF86E20C1
:10A0FC001A46049B13441B788DF86530BDF86E30FE
:10A10C005A1CADF86E201A46049B13441B788DF82C
:10A11C006430BDF86E30049A134418939DF8643083
:10A12C009AB2BDF86E301344ADF86E309DF86530C0
:10A13C000A2B00F2CA8001A252F823F0D7A2020027
:10A14C0075A10200A3A10200C5A10200D5A10200C5
:10A15C00FFA1020023A2020037A202004BA20200C0
:10A16C0063A20200D7A20200002300930023002266
:10A17C001A990598FFF74DFF1898FFF732FC1A90C3
:10A18C001A990598FFF78CFE00238DF83C300023BC
:10A19C008DF81C30A0E01898FFF710FC0346043B28
:10A1AC00ADF85E30BDF85E30FF2B00F29080059B61
:10A1BC00BDF85E209A828AE01898FFF7FFFB0346F1
:10A1CC00043BADF85E3087E01898FFF7F7FB0346C9
:10A1DC00043BADF85E30BDF85E30FF2B04D8059B18
:10A1EC00BDF85E20DA8277E0059B4FF48072DA824C
:10A1FC0072E01898FFF7E2FB0346043BADF85E30C3
:10A20C00BDF85E30B3F5C07F63D2059BBDF85E2010
:10A21C00A3F818215DE01898FFF7C5FB03468DF8ED
:10A22C00673000238DF8663056E01898FFF7BBFBBB
:10A23C0003468DF8673001238DF866304CE00FAB88
:10A24C00189918460DF0B2FC0FAB1A461A990598DE
:10A25C00FFF771FE40E007AB189918460DF0A6FC0D
:10A26C009DF867109DF866300093189B1A9A059814
:10A27C00FFF796FE9DF86730072B2CD89DF86730BA
:10A28C00059A342101FB03F3134403F5A4631A9AD2
:10A29C001A609DF86730342202FB03F303F5A463C4
:10A2AC00059A1344043307AA114618460DF07EFC98
:10A2BC009DF86730059A342101FB03F3134403F234
:10A2CC0044539DF866201A7005E000BF04E000BFFF
:10A2DC0002E000BF00E000BF9DF864109DF865200F
:10A2EC00189B00930B461A990598FFF792FEBDF840
:10A2FC006E20BDF80E309A42FFF4F5AE00230093A9
:10A30C00002300221A990598FFF783FE00BF1DB0A9
:10A31C005DF804FB00B587B00390029100931346DF
:10A32C00ADF80630039B0593029B002B13D0BDF8B0
:10A33C000630002B0FD0029B1B788DF813309DF844
:10A34C001330002B09D1BDF806301A460299059836
:10A35C00FFF7ACFE02E000BF00E000BF07B05DF805
:10A36C0004FB10B586B00390029100931346ADF830
:10A37C00063000238DF8173000238DF81630BDF809
:10A38C000630032B07D8039BD3F824385A1C039BA5
:10A39C00C3F8242817E1029B1B789AB2029B013365
:10A3AC001B789BB21B029BB213449BB2C3F30E03EC
:10A3BC00ADF81430029B01331B785BB2DBB2DB09C6
:10A3CC008DF81330029B9B788DF81730029BDB784D
:10A3DC008DF81630BDF81430032B13D8039BD3F82B
:10A3EC0024385A1C039BC3F82428039B5B68002B5E
:10A3FC0000F0E480039B5B68039A9268012110468D
:10A40C009847DBE09DF81730072B06D8039B93F891
:10A41C001C389DF817209A4213D3039BD3F82C3881
:10A42C005A1C039BC3F82C28039B5B68002B00F081
:10A43C00C780039B5B68039A926803211046984778
:10A44C00BEE0039BB3F81A31002B1FD09DF81330DC
:10A45C0083F00103DBB2002B14D1039B93F81C3166
:10A46C009DF817209A420DD19DF81730039A34218C
:10A47C0001FB03F3134403F21D531B789DF81620C4
:10A48C009A4203D0039B0022A3F81A21039BB3F832
:10A49C001A31002B25D1BDF81430B3F5C07F13D978
:10A4AC00039BD3F828385A1C039BC3F82828039B1A
:10A4BC005B68002B00F08680039B5B68039A9268B4
:10A4CC000221104698477DE0039B009AC3F8A02216
:10A4DC00039B0022A3F89E22039B9DF8172083F870
:10A4EC001C21BDF80620BDF814309A4203D9BDF8E2
:10A4FC001430ADF80630039B03F21D13039AB2F827
:10A50C009E229818029B191DBDF80630043B1A4672
:10A51C000DF094FB039BB3F89E22BDF80630134458
:10A52C009BB2043B9AB2039BA3F89E22BDF8142065
:10A53C00BDF80630D31A9AB2039BA3F81A21039BD9
:10A54C00B3F81A31002B29D19DF81730039A342116
:10A55C0001FB03F3134403F5A9631B68002B1DD007
:10A56C009DF81730039A342101FB03F3134403F5D0
:10A57C00A9631C689DF81730039A342101FB03F37F
:10A58C00134403F24C531868039B03F21D11039BF5
:10A59C00B3F89E22039BD3F8A032A0479DF8173046
:10A5AC009DF816200132D0B2039A342101FB03F33B
:10A5BC00134403F21D5302461A7004E000BF02E07C
:10A5CC0000BF00E000BF06B010BD000000B587B0B2
:10A5DC0003902A4B1B7883F00103DBB2002B01D0D4
:10A5EC00FFF744FA039B002B01D1002341E0FFF756
:10A5FC004DFA0590059B002B01D1002339E040F664
:10A60C003402002105980DF04FFB059B039A1A604C
:10A61C00059B00225A60059B00229A60059B4FF413
:10A62C0080729A82059B4FF48072DA820021059821
:10A63C00FFF736FC00230093114B002200210598F4
:10A64C00FFF7AEFC059B0F4A0021059800F04FF870
:10A65C00059B00930C4B0A4A0021059800F025F845
:10A66C00059B012283F82424039B1B6803989847BD
:10A67C00059B184607B05DF804FB00BF583C002052
:10A68C00D4800300659E020021A3020086B00390D3
:10A69C0002910192039B0593059B029A5A60059BBC
:10A6AC00019A9A6000BF06B0704700B589B005905A
:10A6BC00039202930B46ADF81230059B0793039B54
:10A6CC00002B03D0039B1B78002B02D16FF00103EE
:10A6DC0009E0BDF812100A9B0093029B039A07989D
:10A6EC00FFF7BDFA0346184609B05DF804FB00B548
:10A6FC0087B00390019200930B46ADF80A30039B90
:10A70C000593BDF80A10009B019A0598FFF7E0F934
:10A71C00059B93F82434022B03D1059B002283F86C
:10A72C0024240023184607B05DF804FB00B589B05B
:10A73C00039002910192039B0493002307934FF023
:10A74C00FF330693002305931FE0059A1346DB00A5
:10A75C0013449B0003F58563049A13440433029954
:10A76C0018460DF0EFF90346002B0BD10499059A0E
:10A77C001346DB0013449B000B4403F585631B68F5
:10A78C00069305E0059B01330593059B042BDCDD4B
:10A79C00069BB3F1FF3F01D1FF2328E00023079371
:10A7AC0021E0079B342202FB03F303F5A463049A14
:10A7BC0013440433019918460DF0C4F90346002BD9
:10A7CC000ED1049A079B342101FB03F3134403F5C8
:10A7DC00A4631B68069A9A4202D1079BDBB206E07F
:10A7EC00079B01330793079B072BDADDFF231846E2
:10A7FC0009B05DF804FB00B587B0039001921A46CE
:10A80C000B468DF80B301346ADF80830039B0593BF
:10A81C0000230493059B9B8ABDF808209A4202D919
:10A82C006FF0010317E09DF80B30072B09D9059B3E
:10A83C00D3F830385A1C059BC3F830286FF001034D
:10A84C0009E0BDF808309DF80B10019A0598FFF748
:10A85C005BFA0490049B184607B05DF804FB0000FB
:10A86C0010B586B00190019B059300230293059BC4
:10A87C0093F82434002B11D1059B012283F8242456
:10A88C000223144A00210598FFF7B5FF0490049B9E
:10A89C00002B03D0059B002283F82424059B1B6806
:10A8AC009C68059B1868059B03F5297102AB4FF456
:10A8BC00C072A0470390039B002B08D0059B03F5A7
:10A8CC002971039B9AB2029B0598FFF74AFD00BFC2
:10A8DC0006B010BDD080030000B587B00190019B7D
:10A8EC00002B4DD0284B1B8840F24B42934203D98E
:10A8FC00019B64221A7023E0234B1B88B3F5257F40
:10A90C0003D8019B00221A701AE01F4B1B8807EE1C
:10A91C00903AF8EE677A9FED1D7A37EEC77ADFED45
:10A92C001C6AC7EE267A9FED1B7A67EE877AFCEEDF
:10A93C00E77ACDED007A9DF80030DAB2019B1A70FF
:10A94C0006F00AF9034683F00103DBB2002B17D0A3
:10A95C000121114806F058F80590059B0493049BBF
:10A96C00002B02D0049808F0FDFD06F0D5F80590F8
:10A97C00059B0393039B002B02D0039808F0F2FD78
:10A98C0007B05DF804FB00BF5C3C002000002544D0
:10A99C000000DC430000C8425A3C002008B5144AB1
:10A9AC00144BD31ADB081B0443F00203124918465C
:10A9BC000BF010FC114BDB78002B03D10F4B9B7869
:10A9CC00002B0BD00A4A0B4BD31ADB081B0443F0A9
:10A9DC0002030B4918460BF0FDFB07E040F2D47262
:10A9EC00002108480DF060F900F040F808BD00BFE8
:10A9FC00047E0300C47D030050830300B82C0020A8
:10AA0C0064830300603C0020054B01229A70044BC8
:10AA1C000022DA70024B01221A7100BF704700BF8E
:10AA2C00B82C002082B003468DF80730074A9DF8F9
:10AA3C0007305370054B0122DA70044B00229A70D8
:10AA4C00024B01221A7100BF02B07047B82C0020D3
:10AA5C00054B0022DA70044B00229A70024B002244
:10AA6C001A7100BF704700BFB82C002008B540F227
:10AA7C00FF30FCF72DFC40F2D472034940F2FF305A
:10AA8C00FCF736FC00BF08BD603C002000B585B06B
:10AA9C0001900091009B1B0A8DF80F30009B8DF8E4
:10AAAC000E30D8238DF8083000238DF809309DF82E
:10AABC000F308DF80A309DF80E308DF80B300121D7
:10AACC00019800F04CF903468DF80D309DF80D30CF
:10AADC00002B0ED0174A184BD31ADB081B0443F07B
:10AAEC000103164A164918460BF082FB9DF80D30EF
:10AAFC001CE002A904230022019800F00FF9034680
:10AB0C008DF80C309DF80C30002B0ED0094A0A4BF6
:10AB1C00D31ADB081B0443F001030A4A0849184600
:10AB2C000BF066FB9DF80C3000E00023184605B0D6
:10AB3C005DF804FB047E0300C47D03002484030041
:10AB4C00E08303004484030000B587B003900192B6
:10AB5C0000930B46ADF80A30BDF80A301B0A9BB2C5
:10AB6C008DF81730BDF80A308DF8163002238DF8A9
:10AB7C0010309DF817308DF811309DF816308DF887
:10AB8C0012300121039800F0EAF803468DF81530D5
:10AB9C009DF81530002B0ED02B4A2C4BD31ADB080A
:10ABAC001B0443F001032A4A2A4918460BF020FBE8
:10ABBC009DF8153043E0039B1B6800210420984747
:10ABCC00039B5B6804A803220021984703468DF879
:10ABDC0014309DF81430002B0ED01B4A1B4BD31A8B
:10ABEC00DB081B0443F001031B4A1A4918460BF0FF
:10ABFC00FFFA9DF8143022E0039B5B68009A92B236
:10AC0C0000210198984703468DF813309DF81330B6
:10AC1C00002B0ED00C4A0D4BD31ADB081B0443F04F
:10AC2C0001030E4A0B4918460BF0E2FA9DF813305B
:10AC3C0005E0039B1B68012104209847002318465C
:10AC4C0007B05DF804FB00BF047E0300C47D030065
:10AC5C0024840300E08303007C840300B08403009D
:10AC6C0000B585B001900091009B1B0A8DF80F3048
:10AC7C00009B8DF80E3010238DF8083000238DF8D2
:10AC8C0009309DF80F308DF80A309DF80E308DF894
:10AC9C000B300121019800F062F803468DF80D305D
:10ACAC009DF80D30002B0ED0174A184BD31ADB0829
:10ACBC001B0443F00103164A164918460BF098FA88
:10ACCC009DF80D301CE002A904230022019800F02D
:10ACDC0025F803468DF80C309DF80C30002B0ED067
:10ACEC00094A0A4BD31ADB081B0443F001030A4A36
:10ACFC00084918460BF07CFA9DF80C3000E0002354
:10AD0C00184605B05DF804FB047E0300C47D030007
:10AD1C0024840300E08303004484030000B587B05F
:10AD2C00039002910192ADF80230039B1B68002145
:10AD3C0004209847039B5B68BDF802200199029898
:10AD4C00984703468DF81730039B1B68012104209C
:10AD5C0098479DF81730184607B05DF804FB00B50E
:10AD6C0085B001900B468DF803309DF80330002B15
:10AD7C0003D006238DF80F3002E004238DF80F303A
:10AD8C000DF10F01012300220198FFF7C7FF0346C5
:10AD9C00184605B05DF804FB82B001904FF0A0435B
:10ADAC00184602B0704700B585B0019001AB18464B
:10ADBC00FFF7F2FF0390019B012202FA03F31946FD
:10ADCC00039800F069F800BF05B05DF804FB00B50E
:10ADDC0085B0019001AB1846FFF7DEFF0390019B95
:10ADEC00012202FA03F31946039800F05FF800BF42
:10ADFC0005B05DF804FB00B585B0019001AB1846B9
:10AE0C00FFF7CAFF0390039BD3F804350293029B10
:10AE1C00DA43019B012101FA03F31A40039BC3F8A7
:10AE2C000825019B01229A40029B1A40039BC3F800
:10AE3C000C2500BF05B05DF804FB00B583B0019094
:10AE4C000091009B002B03D10198FFF7C0FF02E09B
:10AE5C000198FFF7A8FF00BF03B05DF804FB00B535
:10AE6C0085B0019001AB1846FFF796FF039003984D
:10AE7C0000F00AF80246019B22FA03F303F00103E7
:10AE8C00184605B05DF804FB82B00190019BD3F825
:10AE9C000435184602B0704782B001900091019BB6
:10AEAC00009AC3F8082500BF02B0704782B0019029
:10AEBC000091019B009AC3F80C2500BF02B07047AB
:10AECC0000B585B001900F4A019B13441B781846BE
:10AEDC00FFF7C5FF0346002B14BF012300238DF899
:10AEEC000F309DF80F30002B14BF01230023DBB271
:10AEFC0083F00103DBB203F00103DBB2184605B0AB
:10AF0C005DF804FB3885030000B583B00190064A58
:10AF1C00019B13441B7800211846FFF78EFF00BFDE
:10AF2C0003B05DF804FB00BF3885030000B583B0A7
:10AF3C000190064A019B13441B7801211846FFF728
:10AF4C007CFF00BF03B05DF804FB00BF3885030035
:10AF5C0000B583B00023019305E00198FFF7E6FFED
:10AF6C00019B01330193019B032BF6D900BF00BF5A
:10AF7C0003B05DF804FB00B583B00023019305E03A
:10AF8C000198FFF7C1FF019B01330193019B032B38
:10AF9C00F6D900BF00BF03B05DF804FB00B583B069
:10AFAC000190054A019B13441B781846FFF723FFB9
:10AFBC0000BF03B05DF804FB3885030082B001903C
:10AFCC00034A019B13441B78184602B0704700BF1C
:10AFDC003C85030082B001904FF0A043184602B0AC
:10AFEC00704700B585B001900B468DF8033001AB6E
:10AFFC001846FFF7EFFF0390019A039B02F5E072EE
:10B00C0053F82230019A23F44031039B02F5E0728D
:10B01C0043F82210019A039B02F5E07253F8223098
:10B02C009DF8032012041146019A1943039B02F563
:10B03C00E07243F8221000BF05B05DF804FB00007D
:10B04C0000B583B00C4B1B78002B0FD00023019361
:10B05C0008E0019B022B02D00198FFF767FF019BD0
:10B06C0001330193019B032BF3D901E0FFF770FF30
:10B07C0000BF03B05DF804FB3C4400202DE9D04F29
:10B08C0092B003468DF83F300023119300231093A8
:10B09C00CC4B1B78002B04D0CA4A00231370FFF74B
:10B0AC00CFFF9DF83F30172B00F23F8201A252F8E0
:10B0BC0023F000BF21B1020039B1020039B1020006
:10B0CC00D5B1020071B20200EDB2020081B30200F0
:10B0DC00A1B30200B1B30200DDB30200FBB3020066
:10B0EC0019B4020037B4020045B4020045B40200A2
:10B0FC0045B4020045B4020045B40200D9B40200C4
:10B10C00E7B40200FBB402000FB5020029B502003F
:10B11C0029B50200FFF794FFAB4B184608F0FDFD74
:10B12C001190AA4A9DF83F301370FFE10020FFF701
:10B13C00C7FE0346002B0DD00020FFF7F7FE9DF84D
:10B14C003F30022B02D14FF4E16301E04FF47A63FC
:10B15C0010930BE00020FFF7D7FE9DF83F30022B39
:10B16C0001D1C82301E04FF4C8731093974A9DF89E
:10B17C003F301370944C109B0022009301924FF0BF
:10B18C0000024FF00003DDE900673946CB0331467E
:10B19C0043EA51433146CA0312F57A71029143F1E5
:10B1AC00000303934FF4FA624FF00003DDE9020150
:10B1BC000CF0C6FB02460B461346002219462046ED
:10B1CC0008F05EFD1190B1E10020FFF779FE034617
:10B1DC00002B0DD00020FFF7A9FE9DF83F30032B6C
:10B1EC0002D14FF4487301E04FF47A6310930BE0F3
:10B1FC000020FFF789FE9DF83F30032B01D1C823B7
:10B20C0001E04FF4C8731093704A9DF83F301370EF
:10B21C006D4C109B0022049305924FF000024FF0EE
:10B22C000003DDE904673946CB03314643EA514359
:10B23C003146CA0312F57A71069143F10003079364
:10B24C004FF4FA624FF00003DDE906010CF078FBD5
:10B25C0002460B46134600221946204608F010FD04
:10B26C00119063E10020FFF72BFE0346002B06D064
:10B27C000020FFF75BFE4FF47A63109305E000208B
:10B28C00FFF742FE4FF4C8731093504A9DF83F30BD
:10B29C0013704D4C109B00229A4693464FF00002BF
:10B2AC004FF000034FEACB3343EA5A434FEACA321A
:10B2BC0012F57A71089143F1000309934FF4FA6285
:10B2CC004FF00003DDE908010CF03AFB02460B4697
:10B2DC00134600221946204608F0D2FC119025E1B5
:10B2EC000020FFF7EDFD0346002B0CD00020FFF7EC
:10B2FC001DFE9DF83F30052B01D1C82301E04FF412
:10B30C007A6310930BE00020FFF7FEFD9DF83F30B1
:10B31C00052B01D1C82301E04FF4C87310932B4ABD
:10B32C009DF83F301370284C109B00229846914694
:10B33C004FF000024FF000034FEAC93343EA584381
:10B34C004FEAC83212F57A710A9143F100030B935C
:10B35C004FF4FA624FF00003DDE90A010CF0F0FA49
:10B36C0002460B46134600221946204608F088FC7C
:10B37C001190DBE00020FFF711FE144A9DF83F30DE
:10B38C001370114B002240F26661184608F078FCED
:10B39C001190CBE00020FFF7B7FD0C4A9DF83F3031
:10B3AC001370C3E0074B01221A700120FFF7F6FD62
:10B3BC00054B002240F26661184608F061FC1190C2
:10B3CC00B4E000BF35440020782B0020344400202A
:10B3DC00594B01221A700120FFF7E0FD574B002258
:10B3EC004FF40051184608F04BFC11909EE0524B64
:10B3FC0001221A700120FFF7D1FD504B002240F2C0
:10B40C006661184608F03CFC11908FE04A4B012213
:10B41C001A700120FFF7C2FD484B00224FF4005177
:10B42C00184608F02DFC119080E0FFF7A4FD444A6B
:10B43C009DF83F30137079E0424B184608F06DFCD4
:10B44C0011909DF83F30C3F111031093109B002B0A
:10B45C0035D0119B002B32D1109B012B28D9394CA4
:10B46C00109B9BB21A46C82302FB03F3DA171E4645
:10B47C0017464FF000024FF00003FB0343EA56431C
:10B48C00F20312F57A710C9143F100030D934FF412
:10B49C00FA624FF00003DDE90C010CF051FA0246A0
:10B4AC000B46134600221946204608F0E9FB119082
:10B4BC000220FFF729FD244B01221A7036E00220EE
:10B4CC00FFF734FD204B00221A702FE0FFF7B8FD78
:10B4DC001B4A9DF83F30137028E0FFF7B1FD0020A8
:10B4EC00FFF712FD164A9DF83F3013701EE0FFF770
:10B4FC00A7FD0120FFF708FD114A9DF83F3013709E
:10B50C0014E0FFF79DFD0020FFF7FEFC0120FFF784
:10B51C00FBFC0B4A9DF83F30137007E0FFF72BFD47
:10B52C00074A9DF83F30137000E000BF119B18468E
:10B53C0012B0BDE8D08F00BF35440020782B00201E
:10B54C0034440020982B00203C44002000B585B0EA
:10B55C0003468DF8073000230393084B1B6803F058
:10B56C000103002B05D09DF807301846FFF786FD28
:10B57C000390039B184605B05DF804FB384400208B
:10B58C0084B001900B468DF8033013468DF80230D1
:10B59C0000230393019B032B3CD89DF80230012B15
:10B5AC000BD19DF80330012B04D1019BDBB20E3380
:10B5BC00DBB200E000238DF802309DF80330022B43
:10B5CC000FD0022B23DC002B16D0012B1FD11449DA
:10B5DC00019A13465B0013440B449DF802201A7029
:10B5EC001AE00F49019A13465B0013440B440133D4
:10B5FC009DF802201A700FE00949019A13465B006E
:10B60C0013440B4402339DF802201A7004E0072304
:10B61C00039301E007230393039B184604B0704780
:10B62C004044002000B585B001900B468DF80330E6
:10B63C00019B032B14D89DF80330002B01D003235E
:10B64C0000E000238DF80F300198FFF7B7FC02469D
:10B65C009DF80F3019461046FFF7C3FC002300E09D
:10B66C000623184605B05DF804FB00B583B00190C5
:10B67C0001210198FFF7D6FF0346184603B05DF889
:10B68C0004FB00B583B0012200210020FFF778FFF6
:10B69C000190019B002B04D0019B072B01D0019B37
:10B6AC001CE0072202210120FFF76AFF0190019B99
:10B6BC00002B04D0019B072B01D0019B0EE0042230
:10B6CC0002210020FFF75CFF0190019B002B04D0AE
:10B6DC00019B072B01D0019B00E00023184603B00F
:10B6EC005DF804FB00B583B0012202210020FFF7B6
:10B6FC0047FF0190019B002B04D0019B072B01D02D
:10B70C00019B1CE0072202210120FFF739FF019069
:10B71C00019B002B04D0019B072B01D0019B0EE059
:10B72C000A2200210020FFF72BFF0190019B002B28
:10B73C0004D0019B072B01D0019B00E0002318468D
:10B74C0003B05DF804FB00B583B00020FFF78DFF5C
:10B75C000190019B002B04D0019B062B01D0019B77
:10B76C000CE00120FFF781FF0190019B002B04D01E
:10B77C00019B062B01D0019B00E00023184603B06F
:10B78C005DF804FB00B585B001900091019B1B880E
:10B79C00102B02D0112B18D02FE01A4B1B68002B4A
:10B7AC000DD1FFF76EFF0390039B002B07D0164BB8
:10B7BC001B68002B03D0144B1B6803989847114B44
:10B7CC001B6801330F4A136017E00E4B1B68013BDB
:10B7DC000C4A13600B4B1B68002B0DD1FFF782FF3B
:10B7EC000390039B002B07D0074B1B68002B03D047
:10B7FC00054B1B680398984700BF00BF05B05DF868
:10B80C0004FB00BF504400204C440020BFF34F8F7A
:10B81C0000BF064BDB6803F4E0620449044B13439E
:10B82C00CB60BFF34F8F00BF00BFFDE700ED00E022
:10B83C000400FA0582B01D4B1B68B3F1FF3F0AD11F
:10B84C001B4B1B68DBB201931A4B1B681B0903F0E3
:10B85C000F03009305E0154B1B680193164B1B68F7
:10B86C000093019B062B1DD1009B033B042B17D887
:10B87C0001A252F823F000BF99B802009DB8020053
:10B88C00A1B80200A5B80200A9B8020001230AE081
:10B89C00012308E0012306E0012304E0012302E078
:10B8AC00012300E00023184602B07047300100105D
:10B8BC00E00F00F0E80F00F03401001082B0174BDD
:10B8CC001B68DBB20193164B1B681B0903F00F03BB
:10B8DC000093019B062B1DD1009B033B042B17D817
:10B8EC0001A252F823F000BF09B902000DB9020001
:10B8FC0011B9020015B9020019B9020001230AE0BE
:10B90C00002308E0002306E0002304E0002302E00B
:10B91C00002300E00023184602B07047E00F00F04F
:10B92C00E80F00F082B01D4B1B68B3F1FF3F0AD14A
:10B93C001B4B1B68DBB201931A4B1B681B0903F0F2
:10B94C000F03009305E0154B1B680193164B1B6806
:10B95C000093019B062B1DD1009B033B042B17D896
:10B96C0001A252F823F000BF89B902008DB9020080
:10B97C0091B9020095B9020099B9020001230AE0BD
:10B98C00012308E0012306E0012304E0012302E087
:10B99C00012300E00023184602B07047300100106C
:10B9AC00E00F00F0E80F00F03401001082B0174BEC
:10B9BC001B68DBB20193164B1B681B0903F00F03CA
:10B9CC000093019B062B1DD1009B033B042B17D826
:10B9DC0001A252F823F000BFF9B90200FDB9020030
:10B9EC0001BA020005BA020009BA020001230AE0FA
:10B9FC00002308E0002306E0002304E0002302E01B
:10BA0C00002300E00023184602B07047E00F00F05E
:10BA1C00E80F00F082B01D4B1B68B3F1FF3F0AD159
:10BA2C001B4B1B68DBB201931A4B1B681B0903F001
:10BA3C000F03009305E0154B1B680193164B1B6815
:10BA4C000093019B062B1DD1009B033B042B17D8A5
:10BA5C0001A252F823F000BF79BA02007DBA0200AD
:10BA6C0081BA020085BA020089BA020001230AE0F9
:10BA7C00012308E0012306E0012304E0012302E096
:10BA8C00012300E00023184602B07047300100107B
:10BA9C00E00F00F0E80F00F03401001082B0174BFB
:10BAAC001B68DBB20193164B1B681B0903F00F03D9
:10BABC000093019B062B1DD1009B033B042B17D835
:10BACC0001A252F823F000BFE9BA0200EDBA02005D
