:020000022000DC
:1060000000000120756302005D6302005F6302000F
:106010006163020063630200656302000000000028
:1060200000000000000000000000000067630200A4
:1060300069630200000000006B6302006D630200F0
:10604000F58402006F630200618702002194020060
:106050008D9B02006F6302001586020045980200C6
:106060006F6302006F6302006F6302006F630200E0
:106070006F6302006F6302006F6302006F630200D0
:106080006F630200097602006F6302006F63020013
:106090006F6302006F63020071D702006F6302003A
:1060A0006F6302006F6302006F6302006F630200A0
:1060B0006F6302006F630200000000000000000038
:1060C0006F6302006F6302006F6302009D9B02001A
:1060D0006F6302006F6302006F6302000000000044
:1060E00000000000000000000000000000000000B0
:1060F00000000000000000000000000000000000A0
:10610000000000000000000000000000000000008F
:10611000000000000000000000000000000000007F
:10612000000000000000000000000000000000006F
:10613000000000000000000000000000000000005F
:10614000000000000000000000000000000000004F
:10615000000000000000000000000000000000003F
:10616000000000000000000000000000000000002F
:10617000000000000000000000000000000000001F
:10618000000000000000000000000000000000000F
:1061900000000000000000000000000000000000FF
:1061A00000000000000000000000000000000000EF
:1061B00000000000000000000000000000000000DF
:1061C00000000000000000000000000000000000CF
:1061D00000000000000000000000000000000000BF
:1061E00000000000000000000000000000000000AF
:1061F000000000000000000000000000000000009F
:10620000354936480A1A02D0072291438D4634494F
:1062100034480A1A06D00722914381F309880222E2
:1062200082F3148830483149314A00F044F831484B
:106230003149324A00F03FF831483249324A00F0E1
:106240003AF832483249334A00F035F83248334997
:10625000334A00F030F833483349344A00F02BF821
:1062600033483449344A00F026F83448344900228F
:1062700000F02CF833483449002200F027F8334866
:106280003349091A082902DB002202604160314AC1
:1062900090471F481F49884205D00268043003B464
:1062A000904703BCF7E700208646EC46002000211B
:1062B000294A9047FEE7884207D0521A05D0037852
:1062C00001300B700131013AF9D17047884202D098
:1062D00002700130FAE770470000012000E0002062
:1062E000000001200000012080FB0200D82A0020CD
:1062F0002C2D0020D0630200D063020060E3020076
:1063000080FB0200D82A0020D82A0020B4E4020032
:10631000B4E40200B4E40200B4E40200B4E4020015
:10632000B4E40200B4E40200B4E4020080FB020022
:10633000D4FD02002C2D00202C2D00202C2D00201F
:106340005242002054420020544200205442002077
:10635000546200209D6302001DB30200FEE7FEE7C9
:10636000FEE7FEE7FEE7FEE7FEE7FEE7FEE7FEE705
:1063700000F002B8FFF7FCBF0F484FF00701884359
:1063800085460E4880470E48016841F4700101605F
:10639000BFF34F8FBFF36F8FFFF732BF09480A4932
:1063A0000A4A884207D0521A05D0037801300B7090
:1063B0000131013AF9D17047000001200D7F020040
:1063C00088ED00E0B4E40200D82A0020D82A00209A
:1063D0007047000007B5044B0093044A402300F0C7
:1063E00032F803B05DF804FBF16302002D2D0020AC
:1063F0002DE9F84388461446B2B10F4B0F4E0325E2
:10640000002743F00109224608EB0701002005F0B0
:10641000BBFF0744241A48B933782BB14FF47A40B4
:10642000C847013D02D13570BDE8F88301233370C0
:10643000002CE8D1F8E700BFC0E402002C2D0020BA
:10644000704705F0D1BFF0B595B008460C4616462A
:106450001D4601F087FC1A9A0D9200230C2205A913
:1064600020460A938DF82C300C93CDE9086501F095
:1064700095FC079B0293069B039301238DF8113033
:106480009DF8143003F00302012A1DD1BDF8142039
:10649000059DC3F3C203C2F383168DF81030B2001A
:1064A0000C230EA9204601F079FCC5F3952508AB15
:1064B0000093324602AB0EA9284600F003FC2046AA
:1064C00001F054FC15B0F0BD022AF8D1BDF8165009
:1064D000C3F3C203C5F389158DF810300C27082DBE
:1064E0002E4628BF08263B4632460EA9204601F01C
:1064F00055FCAD1B08AB02AA31460EA8374400F08C
:1065000045FC002DEBD1DAE7014B01221A707047F0
:10651000AE2D00207047000070B50F4D06460FCD20
:1065200088B06C460FC495E80F00002E84E80F0079
:106530004FF00603094A009308BF00224FF0EB73A7
:1065400007480693694601F05DFF08B100F092FC30
:10655000044B1E7008B070BDD4E40200096502004F
:10656000D82A00206D2D002007B5044B0093044A63
:106570004023FFF768FF03B05DF804FB8565020068
:106580006E2D002038B50D480D4C0E4D00232370A4
:106590000378EB5CD2B263B1043002F06FFD08B156
:1065A00000F068FC084B1A7812B12378002BFBD05E
:1065B00038BD0C3002F010FBF1E700BFD82A0020F4
:1065C000AE2D0020103400206D2D002008B50848A5
:1065D000084A0378D35C3BB1043002F0B3FCBDE859
:1065E00008400020FFF798BF0C3002F07FFAF6E772
:1065F000D82A0020103400200120FFF78DBF0000B2
:1066000038B50A4DFFF71DFF0421284600F094FA23
:10661000074B01245C71FFF7EFFF042105F1100027
:1066200000F08AFA034B5C7138BD00BF94E40200AD
:10663000EC2A0020F42A0020037813F0040216D07C
:1066400003F00303012B03D0022B09D00120704774
:106650000A6800880332C0F3831002440A60F5E739
:106660000B684288033303EB92130B60EEE710468E
:10667000704700002DE9F04FDFF818A187B00F46F2
:1066800000230446C61C0DF1070015468DF807309F
:1066900000F04CFEDAF804203A60DAF8083003F52E
:1066A00080739B1A0AF21C470AF583690AF21448A0
:1066B000B3421AD30020002D68D004F00F039B01D1
:1066C00043F0050363F30F00DAF80430DAB2033263
:1066D00033444AF822009DF80700CAF8043000F05D
:1066E00049FE012007B0BDE8F08F0121384601F0D6
:1066F00068F8484601F07DF8404601F07AF8DAF88B
:1067000008000290C0B203300AEB800002A9FFF734
:1067100093FF029B08B1D8B2F5E7DAB20AEB820226
:10672000591CD2680392C9B20AEB810102F003023C
:106730000333012AC96802931ED0022A24D1BDF86E
:106740000E20C2F3891203324FEA114B03EB92037E
:106750000293404601F050F810B1029BCAF808308D
:106760005946384601F02DF8DAF80830DAF80420F6
:1067700003F580739B1A9BE7BDF80C20C2F38312CC
:106780004FEA114B1344E3E78346E2E7A40544F0E4
:10679000060099E7802E002038B50446084684B1EB
:1067A000094D00232B7000F04DFB0848C5F80C4440
:1067B00001F091FA044610B9054801F00FFB20469C
:1067C00038BD0724FBE700BF802E0020D8E302007D
:1067D00038E5020030B50A4C71B10A4A0A49121B69
:1067E000D20800239A4201D1002030BD31F8235055
:1067F000854202D00133F5E7034654F83300F4E74D
:10680000ECE3020094E40200D82A0020094B01398D
:1068100003EBC000032909D8DFE801F00A020406EF
:106820000420704700797047407970470020704716
:1068300002207047ECE3020070470000034BD3E9ED
:106840000130C31A58425841704700BF802E0020C3
:106850002DE9F04186B0FFF7F1FF0546002840F032
:10686000F4807B4CC4F81804BFF34F8FA3680293E5
:10687000DBB2033304EB830002A9FFF7DDFE029BCA
:1068800050B1D4F818243AB962689A42F0D8A2609C
:10689000284606B0BDE8F081591CC9B204EB81015D
:1068A000DAB2C968049104EB8202991CD26803929F
:1068B000C9B2033304EB8101029302F00303C968F8
:1068C0000591022B4DD1BDF80E306248C3F38917F4
:1068D000502F3E4628BF502606F10C0166F38F1359
:1068E000C1F30901ADF80E3001F00DFA054600289C
:1068F00000F0968001F036FA0C220DEB02012846DA
:10690000002301F041FA0299C843C0B20130C9B274
:106910000331B6EB800F4FEA800204EB81011DD9F1
:106920005FFA82F80C23A6EB0806284601F02CFA41
:10693000F6B208F10C03484903F0FC03324628463E
:1069400001F022FA029B033703EB97070297D4F872
:106950001834002B3CD1D4F810644CE00C233246A0
:10696000EDE7012B5CD1BDF80C303A48C3F383113D
:10697000062928BF062161F38913033101F00F01B5
:106980008900ADF80C3001F0BEF90546002847D06B
:1069900001F0E8F90C2200230DEB0201284601F07A
:1069A000F3F90026BDF80C20C2F38312B30096421F
:1069B00003F10C03CBD202994A1CC9B203310292F3
:1069C00004EB81010422284601F0DEF90136E9E7F3
:1069D000284601F0CBF9FFF731FF80F00100C5B286
:1069E00056E7F3685B7923B1336829461B68304664
:1069F0009847F3681E68002EF3D1284601F0B6F9D7
:106A00000DF107008DF8076000F090FCD4F8183401
:106A10000BB9029BA3609DF8070000F0ABFCDAE71E
:106A2000D4F8104454B90D4B0D480E49C01AC00893
:106A3000000440F0020000F067F8CCE7236820462D
:106A40009B689847E3681C68ECE7002520E700BFD7
:106A5000802E0020D8E302008C2E0020ECE3020000
:106A60002CE4020021E502002DE9F34704460E461E
:106A7000924601A9012218469946FFF7FBFD204FD7
:106A800050B3019D4FF00008EA1CC84508EB020115
:106A90002DD100211B4800F065FE80F310006B1C17
:106AA000DBB207EB8303000440EA1440D860E40043
:106AB000D7F80C34984704F03804AB1CDBB2EDB2C5
:106AC00044F0010407EB8303033544EA881444EAE5
:106AD0008624D86047F825403B781BB1FFF7B8FE05
:106AE0000028FBD1FFF7A8FE02B0BDE8F087C9B2CD
:106AF00007EB81015AF82830CB6008F10108C4E7A0
:106B0000802E00209C32002000231A46FFF7ACBFE5
:106B100007B50123019201AAFFF7A6FF03B05DF8B4
:106B200004FB07B5CDE9002302236A46FFF79CFF6B
:106B300003B05DF804FB000030B50F4CD4F810240E
:106B400003460020114631B9D96808714AB9C4F822
:106B500010340A6030BDC9680D79854206D00968D5
:106B6000F1E7D26814680C601360F3E701300A287B
:106B7000E8D14FF0FF30EDE7802E002038B5084B0C
:106B80000125D3F810441D7004B938BDE3685D7168
:106B9000236820465B689847E3681C68F4E700BFF9
:106BA000802E0020F0B5C38887B005460E4633B16D
:106BB000294A009229492A4A304600F080FE297A63
:106BC000052946D06B7A4BB1A888FFF71FFE254BED
:106BD000254953F82020304600F071FE234B2C68E5
:106BE0001B68B4FBF3F4224B1868B4FBF0F34FF4CA
:106BF0007A7E00FB13444FF461610EFB04F4B3FB97
:106C0000F1F23C2701FB1231B4FBF0FCB1FBF7F3CE
:106C100000FB1C4407FB13110EFB04F40091B4FBB2
:106C2000F0F41449CDE901C4304600F048FE2A7A58
:106C3000114BA88853F8222005920021FFF7CAFDC6
:106C4000059A0E490346304607B0BDE8F04000F013
:106C500036BE07B0F0BD00BF64E502004CE502009F
:106C600044E50200ECE5020069E502003C33002047
:106C7000383300206CE5020010E6020088E50200CF
:106C800007B503460846197A052911D05B7A2BB15E
:106C9000094A0A49019000F012FE01980849019042
:106CA00000F00DFE019803B05DF804EB00F0FCBDB0
:106CB000002AF8D0F2E700BF64E5020069E50200AF
:106CC00061E502002DE9F04385B01F460C9D0023CD
:106CD00095F80C902B7306460C469046294638468C
:106CE000FFF760FFB8F1060F09D8DFE808F00412DB
:106CF000181F283340003146284600F0E0FD0022EE
:106D000029463846FFF7BCFF85F80C9005B0BDE872
:106D1000F08322683146284600F0D1FDEFE7D4E940
:106D200000233146284600F0CAFDE8E7A368009337
:106D30003146D4E90023284600F0C1FDDFE7E368CF
:106D40000193A36800933146D4E90023284600F05C
:106D5000B6FDD4E723690293E3680193A368009327
:106D60003146D4E90023284600F0A9FDC7E763694E
:106D7000039323690293E3680193A3680093314668
:106D8000D4E90023284600F09AFDB8E708292DE948
:106D9000F74F80460E4617461C463CD8002593F810
:106DA0000C901D7319461046FFF7FCFEDFF888A013
:106DB000DFF888B0AE4231D918F805205946204690
:106DC00000F07DFD0135082DF4D11949194DDFF88A
:106DD00070A0204600F073FD4FF0000B5E4522D9F5
:106DE00018F80B207E2A05D81046019207F004FA05
:106DF000019A00B92E225146204600F060FD0BF1A9
:106E0000010BBBF1080FE9D1012221463846FFF7FB
:106E100037FF84F80C9003B0BDE8F08F5146204650
:106E200000F04DFDCEE72946204600F048FDE6E79C
:106E30009CE502009AE5020098E5020092E5020056
:106E40009EE50200084A10B50123084C136000219A
:106E5000A04204D801B11360054B186010BD400872
:106E60005B000121F4E700BF3C33002040420F00EB
:106E7000383300201FB50021039001AA44F201001D
:106E8000CDE9011100F004F805B05DF804FB000045
:106E900038B572B6FFF772FEFFF7DAFC0028FBD1B7
:106EA000104B114C114D1249E41AE408240444F02B
:106EB0000100FFF729FED5F8F030DB0700D500BE52
:106EC0000C4944F00200FFF71FFEBFF34F8FEA6842
:106ED000094B02F4E0621343EB60BFF34F8F00BF36
:106EE000FDE700BFECE302002CE4020000ED00E04F
:106EF0002FE602003BE602000400FA0510B5D0E9D7
:106F00000243D1E90202A04272EB03032CBF01202D
:106F1000002010BD08B50A4800F05FFB094AD2E91D
:106F20000031C018084BD3E9002341F10001904221
:106F300071EB030303D210F1807041F1000108BD31
:106F4000FC2A002048330020C033002037B5054616
:106F50000C460A4801A900F074FB60B1057044605A
:106F600001A9064800F097FB18B1054800F03AFB6C
:106F7000002003B030BD0420FBE700BFAC3300208D
:106F8000FC2A0020294B73B51E7804461EB9002642
:106F9000304602B070BD0028F9D0FFF7BBFFD4E93E
:106FA00002239042994139D300230DF107008DF857
:106FB000073000F0BBF923692BB94FF0FF324FF0D7
:106FC000FF33C4E902239DF8070000F0D3F9D4E9A8
:106FD0000530984700250DF107008DF8075000F0A7
:106FE000A5F92369C3B1D4E90212B2F1FF3F08BF8A
:106FF000B1F1FF3F05D05B1842F10002C4E9023253
:1070000035469DF8070000F0B5F9002DBFD00848BF
:10701000214600F002FFBBE71D46F2E7B3F1FF3F58
:1070200008BFB2F1FF3FB2D0F1E700BF50330020FC
:1070300058E6020013B5114B114918680190082356
:107040001048582200F0EAFA044698B90E4A0F4850
:1070500001A900F0B3F9044660B90C48012100F021
:107060009FFA01230A4A0948194600F001FA094B20
:1070700001221A70204602B010BD00BF52E6020085
:1070800054330020AC33002075710200FC2A00202C
:10709000FFFF7F005033002030B56AB103684FF026
:1070A000FF344FF0FF355A614A1E5142C3E9024591
:1070B00051411961002030BD0720FCE7F7B50446B7
:1070C00000250DF1070017460E468DF8075000F019
:1070D0002DF9D4E90223B3F1FF3F08BFB2F1FF3F1E
:1070E00007D1FFF717FF301841F10001C4E9020191
:1070F00001259DF8070000F03DF955B12369A7610E
:1071000003B126612146002003B0BDE8F040FFF73F
:107110001DBF284603B0F0BD37B5054600240DF16C
:1071200007008DF8074000F001F9D5E90223B3F11B
:10713000FF3F08BFB2F1FF3F1FBF4FF0FF324FF0DC
:10714000FF33C5E9022301249DF8070000F012F97E
:1071500034B12946012003B0BDE83040FFF7F6BE48
:10716000204603B030BD0000014800F036BA00BF31
:10717000FC2A00202DE9F743064600F019FA40B139
:10718000624AD2E9003113F1807341F10001C2E992
:1071900000310021304600F01AFA38B15C4C236807
:1071A00023B12068FFF7EEFE002323600121304663
:1071B00000F00DFA20B1FFF7ADFE564BC3E9000118
:1071C0005548534C01A900F076FA4FF0FF384FF0C4
:1071D000FF39A0B9DFF844814D4D404600F033FE41
:1071E000002800F08580D0E90223B3F1FF3F08BFFB
:1071F000B2F1FF3F32D1404600F01FFEEDE70378C9
:10720000012B20D0022B08D1444D284600F015FE5A
:10721000002877D0C0E90289F7E75BB94168D1E976
:107220000223B3F1FF3F08BFB2F1FF3F02D03B485A
:1072300000F0F3FD01A9384800F068FA01A93648CA
:1072400000F039FAC5E741682368994202D100236A
:107250002360EFE7314800F0F9FDEBE7296891B1D1
:107260002968D1E9020182428B412FD22B68D3E9F0
:107270000223B3F1FF3F08BFB2F1FF3F03D02968FB
:10728000404600F0CAFD404600F0D7FDD0E9024973
:107290000746FFF73FFE201A69EB0109012879F143
:1072A000000318DBB0F5350F13D3FFF75DFF1C4A61
:1072B00002441C484FF49603002100F0F9F890B9FD
:1072C0002B6813B9304600F0CBF82F6003B0BDE84F
:1072D000F0832246EDE71348002100F06EF93846AE
:1072E000FFF750FE01E00D28F9D000232B6074E772
:1072F000074B1B68002BE9D1304603B0BDE8F043D3
:1073000000F0B2B8084B01221A7093E7483300200E
:10731000C8330020C0330020AC33002058E6020000
:10732000FFFFB400FC2A00205033002070B5EFF3BB
:10733000108672B60C4A946801239CB993600B4B7B
:107340000B4DD3F8801029401160C3F88050D3F85A
:10735000841051604FF0FF32C3F88420047006B9E6
:1073600062B670BD0370FAE7CC33002000E100E0A4
:10737000FC06FFBD084B9A6810B55AB150B9EFF33F
:10738000108172B6054A1C6814605C68546098608D
:1073900001B962B610BD00BFCC33002000E100E0AF
:1073A000435882B03BB10023435043580193019BA3
:1073B000012002B070471846FBE70000F8B5204BEB
:1073C0004479204E43F824201F4A204B06EBC40486
:1073D0009B1A2279DB081B0432B143F002001C49DE
:1073E000FFF792FB0820F8BD02680C88C2F8084538
:1073F00090F904508A7804795201002DD2B219DB39
:1074000014494F1987F8002301226D0904F01F0465
:1074100002FA04F441F82540427906EBC201012446
:1074200046F832000C7143F003000B49FFF76CFB88
:107430000020D8E7094904F00F040A55ECE700BF23
:10744000E0330020D8330020ECE302003CE40200EB
:1074500064E6020000E100E086E6020014ED00E0D0
:10746000036801221A607047036801225A6070475E
:1074700073B501F15005AD000068ADB24FF4803432
:107480008C400026C0F80843C0F84843465101F537
:10749000A8714559019522F07F42019D40F82120B5
:1074A000C0F844430BB1C0F8044302B070BD000003
:1074B0002DE9F74F0D4622F07F4402684FF48037E4
:1074C00005F150068F408046B60002EB8500C2F8F9
:1074D0004873B6B2C2F80873D2F8041599464FF053
:1074E000000BD0F84035C0F8401542F806B05B1AE2
:1074F0009259009223F07F43012B009A4FEA850AAC
:107500000CD1264B4FF4806043F001039847D8F824
:10751000003043F806B09B590193019BD8F8001046
:10752000D1F80465C1F84473A31B23F07F43012BFA
:107530001CD11A4B05F5A875013443F0010341F83D
:1075400025404FF480609847D8F80030D3F80435D0
:107550009E4209D1D8F800300020C3F84473C3F824
:10756000047303B0BDE8F08F0D20FAE78A44C9F137
:10757000FF13CAF84045D1F80405221A013A22F057
:107580007F4203F57F439342EED3002AE2D10134D8
:10759000CAF84045D1F804359842DAE7A0E602007F
:1075A00003680222C3F8442309B1C3F804237047D7
:1075B00000684FF48271FFF7F3BE4FF4803303FA93
:1075C00001F10368C3F84813C3F80813704750313A
:1075D0008900006889B2FFF7E3BE0368D3F80405A9
:1075E0007047000090F90430002B09DB5A09012193
:1075F00003F01F0301FA03F34032024941F822303D
:10760000704700BF00E100E0024B034A1B681068AE
:10761000184700BFE0330020D833002010B561B117
:10762000B2FBF3F403FB1424A4B244B9C0E9001480
:1076300084608281C381204610BD0E20FCE70920B2
:10764000FAE737B550E8013F9DB2C48925448489E3
:10765000A54228BF2D1B0489A54202BFBFF32F8F6F
:10766000002207E0C5EA030540E80154002CE9D1F7
:107670004FF001028DF803200193019A0A609DF8F2
:10768000031001F0FF0321B1006810FA82F003B08B
:1076900030BD1846FBE70A884B889A4209D150E86A
:1076A000012FC2EA024240E80123002BF7D101205A
:1076B00070470020704737B550E8023F1FFAA3F526
:1076C000C488A54202BFBFF32F8F00220DE0C489FA
:1076D00025448489A54228BF2D1BC3EA054540E8FF
:1076E0000254002CE8D14FF001028DF803200193E1
:1076F000019A0A609DF8031001F0FF0321B10068B0
:1077000000EB124003B030BD1846FBE70A884B88F7
:107710009A4209D150E8022FC2EA224240E80223ED
:10772000002BF7D1012070470020704701F01F02A5
:107730004B090121914000EB830000F01EB801F0DD
:107740001F0301229A404B0900EB8300D14300F054
:107750002CB84B0901F01F0150F82300C84000F07D
:107760000100704710B5034653E8000F0A4643E88E
:10777000002494F0000FF7D110BD10B5034653E874
:10778000002F42EA010043E8000494F0000FF6D114
:1077900010BD10B5034653E8000F00EA010243E8AC
:1077A000002494F0000FF6D110BD10B5034653E845
:1077B000002F02EA010043E8000494F0000FF6D124
:1077C00010BD10B5034653E8002F02EB010043E85B
:1077D000000494F0000FF6D110BD10B5034653E835
:1077E000002FA2EB010043E8000494F0000FF6D153
:1077F00010BD0121FFF7C1BF0021FFF7CABF10B5BF
:1078000090B1D0E9012301689B1ADBB20A60013B09
:10781000DBB2FF2B026802D10020107110BD11688D
:107820004C1C14600B70F2E70E20F7E737B50546E5
:1078300000240DF107008DF80740FFF777FD2A6857
:107840006B68116899420ED9481E106011F8013C0E
:10785000EC68298A01FB0344AB6811791B1ADBB27F
:10786000994238BF13719DF80700FFF783FD20464A
:1078700003B030BD37B5054600230DF107000C46B7
:107880008DF80730FFF752FD2A681368591C116004
:10789000E968641A298AB4FBF1F41C709DF80700AA
:1078A000FFF768FD03B030BD826810B504462AB109
:1078B00043690168006998470023A36010BD0EB4B6
:1078C00003B5039921B104AB01AA019300F076F846
:1078D00002B05DF804EB03B070470A2938B50446DE
:1078E0000D4602D10D21FFF7F8FFA3682268591C4D
:1078F000A160D554D4E901329A4204D32046BDE8B0
:107900003840FFF7D1BF38BD2DE9F84F9846DDE983
:107910000A43154682460F460A464FF00109AA421D
:107920000FD2C14538BFC14613F0010B01D16CB96C
:1079300000240126B8F1010F1BD908F1FF386E436E
:10794000F8E709F10109B2FBF5F2E8E79B070ED56C
:10795000B8F1000F0CBF30262026A145E9D2013C2A
:1079600031465046FFF7B9FF002CF6D1E0E720265C
:10797000F3E7B7FBF6F39D42E1D9DFF83C80B7FBB4
:10798000F6F3504618F8031006FB1377FFF7A5FF30
:107990003346AB42B6FBF5F6F1D2BBF1000F02D095
:1079A0000CB1A14501D3BDE8F88F20215046013C20
:1079B000FFF793FFF4E700BFA6E602002DE9F74FBB
:1079C000054617468846002900F03E8118F8011B3D
:1079D00049B92B7B002B00F03781284603B0BDE866
:1079E000F04FFFF761BF252940F0B780002698F8D7
:1079F00000302D2B424608F1010823D0302B24D033
:107A00002B2B25D000242A2B02F1010123D13B6826
:107A10001A1D1B683A601C440A4613782E2B26D187
:107A200001324FF0000A104610F8011BA1F1300C92
:107A3000BCF1090F1DD80A2303FB0A13A3F1300A76
:107A40000246F0E746F00106D1E746F00206CEE72F
:107A500046F00406CBE711F8013CA3F130000928F9
:107A6000DBD80A2202FB0434303C0A46CBE74FF055
:107A7000000A12F8011B01F0FB0068289046F8D0BC
:107A8000782909D86F290CD8632962D022D82529F2
:107A900063D0582900F0888098F80030002B95D1E9
:107AA00097E770390829F7D801A353F821F000BFF0
:107AB000237C0200997A0200997A0200B97B0200C5
:107AC000997A0200977B0200997A0200997A020063
:107AD000A97B0200642901D06929DDD13A68D2F876
:107AE0000090111D89EAE9723960A2EBE9724FF04A
:107AF000010B092A35DCD34538BFD3462CB1B9F187
:107B0000000F01DB720700D5013CB30702D5BAF1C3
:107B1000000F03D0F00701D44CBB0024B9F1000FD3
:107B20002DDAC9F100092D212846FFF7D6FE06F00F
:107B30000302022A04D1BAF1000F01D11CBB0024B8
:107B4000CDE9004653460A2249462846FFF7DCFEA7
:107B5000A2E73B681A1D19783A602846FFF7BDFE78
:107B60009AE70A230BF1010BB2FBF3F2C1E7A3453D
:107B7000D4D220212846013CFFF7AFFECCE77107A5
:107B8000D5D52B21D0E7A345DAD230212846013CB8
:107B9000FFF7A3FED2E73968CDE900460A1D3A6037
:107BA00053460A220968D0E739680A1D3A60CDE9D0
:107BB000004653461022F5E73B681A1D3A6016F05E
:107BC0000106D3F8009024D1B9F1000F03D0484644
:107BD00006F095FB0646B4421DD809F1FF3919F8A5
:107BE000011F00293FF458AF2846FFF776FEF6E75D
:107BF00028460136FFF771FE19F806100029F7D163
:107C0000A642BFF449AF20212846013CFFF765FE9C
:107C1000F6E70026F0E720212846013CFFF75DFE4D
:107C2000D9E73B681A1D3A60302128461C68FFF7E7
:107C300054FE78212846FFF750FE00220823CDE9A4
:107C400000322146102280E703B0BDE8F08F00BF6C
:107C50002DE9F84FB0F806A04579D2F800B09DF8AC
:107C600028900AFB05F5043D88460BEB0301A94269
:107C700003F1040488BFA5EB030BB4FBFAF6074637
:107C80000AFB1644C2F800B04EB9AAEB04055D45E4
:107C900028BF5D46BBF1000F04D1BDE8F88F3F68F7
:107CA000013EF1E7043408EB06003C442A46B9F1F2
:107CB000000F0DD02146ABEB050B06F0A2FADA451A
:107CC0002E443F6855464FF0000428BF5D46E1E76B
:107CD00001462046EFE7FFF792BDF8B54679014629
:107CE000721E0546002393422D6803D30024A6424A
:107CF00002D8F8BD0133F6E70F682846FFF7BAFD52
:107D000001343946F3E72DE9F843068ACD1C0746CE
:107D1000FFF78CFD043E35440446B5FBF6F5F0B1A3
:107D20004FF48073EDB28380C680013D07608146C9
:107D30004FF00008A84512D23846FFF777FD0646F7
:107D400048B163790133637108F10108C9F8000093
:107D500007608146EEE72046FFF7BFFF3446204626
:107D6000BDE8F88301210430FFF72BBD10B50121D8
:107D700004460430FFF731FDC0B220B92046BDE80B
:107D80001040FFF7AABF10BD1FB50392002200925A
:107D900003AAFFF75DFF05B05DF804FB1FB5039272
:107DA0000122009203AAFFF753FF05B05DF804FB20
:107DB000064B10B500241C70054B1C60BFF35F8F91
:107DC0000449054800F013F8204610BDEC330020AC
:107DD000F0330020C0E60200E43300208368002274
:107DE0005A60C3E904229A60DA601A6070470B682F
:107DF0004A684360934208BF0023016008BF4360A4
:107E00007047436843B10268916852680B449342DB
:107E1000436004BF00234360704770B54468064662
:107E20000D46206818B1B3682946984718B92368E9
:107E30002B60256070BD2468F3E74368186808B1BB
:107E400002681A607047436818687047436818688A
:107E500000B97047884203D102681A600120704758
:107E600003460068F4E7000010B50D49A1F59472CF
:107E7000914201D800200FE08C1AE30F03EBE403DA
:107E80005B1002EBC30452F83330834205D802D2B0
:107E900004F10802ECE7606810BD2146E8E700BF86
:107EA000CCEB020008B5FFF7DFFF024B002808BF4C
:107EB000184608BD8FEA02004FF08053D3F8300116
:107EC000421C04BF4FF0704393F8E00F831F5842E9
:107ED000584170474FF0704393F8E02F062A09D1BC
:107EE000D3F8E83FC3F30313033B042B02D8024A41
:107EF000D05C704700207047DBEB0200024AD2F8EA
:107F00000034002BFBD0704700E0014010B5FFF7B4
:107F1000D3FF40B14FF08053944AD3F82433C3F3D6
:107F20000423C2F84035FFF7D5FF10B1904B914ABA
:107F30005A67FFF7C1FF48B14FF080534FF08042BE
:107F4000D3F84432C3F34233C2F83C35FFF7C2FFE3
:107F500030B1894AD2F8FC3023F08073C2F8FC308B
:107F6000FFF7AAFF40B14FF080430022C3F80C2175
:107F7000C3F81021C3F83825FFF7ACFF20B14FF04C
:107F800080430322C3F8A025FFF7A4FF60B17B4B19
:107F90000522C3F810260122C3F888260022C3F860
:107FA00018263F22C3F814264FF08053D3F830210F
:107FB000511C09BF4FF07043D3F8343193F8E02FD0
:107FC000D3F8E83F08BFC3F30313062A4DD1033BA0
:107FD000042B03D86A4AD35C002B46D04FF0805262
:107FE000684BD2F80414C3F82015D2F80814C3F86B
:107FF0002415D2F80C14C3F82815D2F81014C3F8BD
:108000002C15D2F81414C3F83015D2F81814C3F88C
:108010003415D2F81C14C3F84015D2F82014C3F854
:108020004415D2F82414C3F84815D2F82814C3F81C
:108030004C15D2F82C14C3F85015D2F83014C3F8EC
:108040005415D2F83414C3F86015D2F83814C3F8B4
:108050006415D2F83C14C3F86815D2F84014C3F87C
:108060006C15D2F84424C3F87025FFF725FF48B1FA
:108070004FF080534FF08042D3F8583203F04F0353
:10808000C2F8E43EFFF718FF48B14FF08043D3F841
:108090000024D20744BF6FF00102C3F800244FF060
:1080A0008053D3F83021062A0ED1D3F83431033B64
:1080B000042B02D8344AD35C33B1344AD2F83C376B
:1080C00043F48063C2F83C372B4AD2F8883043F43B
:1080D0007003C2F88830BFF34F8FBFF36F8F4FF03C
:1080E0008053D3F83021062A0FD1D3F83431033B23
:1080F000042B02D8264AD35C3BB14FF01023D3F8AF
:1081000008224FF08043C3F858254FF01023D3F8CE
:108110000022002A03DBD3F80432002B22DA1D49A7
:1081200001234FF01020C1F804351524FFF7E6FEB7
:10813000C0F80042FFF7E2FEC0F80442FFF7DEFE9F
:108140000023C1F80435FFF7D9FEBFF34F8F0A496A
:10815000114BCA6802F4E0621343CB60BFF34F8F48
:1081600000BFFDE70D4B0E4A1A6010BD0030014004
:1081700000C007400DF0ADBA00ED00E00050004037
:10818000CCEB020000C00040D1EB02000010004028
:10819000D6EB020000E001400400FA05042B0020A9
:1081A0000090D003054A4FF0A043105CD3F804358B
:1081B00023FA00F0C04300F001007047E4EB020036
:1081C000044B1A5C012393404FF0A042C2F80C35D7
:1081D000704700BFE4EB0200044B1A5C012393409C
:1081E0004FF0A042C2F80835704700BFE4EB020030
:1081F00008B50020FFF7F0FF0120FFF7EDFF022098
:10820000FFF7EAFFBDE808400320FFF7E5BF08B528
:108210000020FFF7D5FF0120FFF7D2FF0220FFF774
:10822000CFFFBDE808400320FFF7CABF074A4FF061
:10823000A041105CD1F804350122824022EA0300FB
:108240001340C1F80805C1F80C357047E4EB020093
:10825000014B185C704700BFE0EB020038B5074CDB
:10826000051E04F1080318BF1C4623682BB11A68C9
:1082700022605B6828469847F7E738BDFC3300204A
:1082800020B9054B01225A70FFF7E8BF012802D13F
:10829000014A9070F8E77047F433002020B9034B8F
:1082A00001225A70FFF7DABF704700BFF433002095
:1082B00038B50E4C2378B3B90D486360A3602361D1
:1082C000E36000F0E7F8054605F038FA08B900F079
:1082D000EDF801232370074BD3F800340BB10123D1
:1082E000A370284638BD8525F5E700BFF43300208C
:1082F000818202000000014037B50D4C00230DF1D2
:1083000007008DF80730FFF711F8E368013BE360E1
:10831000E36833B9074BD3F8005415B900F0D8F827
:10832000A5709DF80700FFF725F803B030BD00BF2A
:10833000F433002000000140012813B50CD00328BD
:1083400020D038B9134B0122C3F88020BFF34F8FE0
:10835000BFF36F8F02B010BD0F4C00230DF107006B
:108360008DF80730FEF7E2FF23780BB9FFF7A0FF87
:10837000E3689DF807000133E3600123A370FEF773
:10838000F9FFE7E700F092F802B0BDE81040FFF710
:10839000B3BF00BF00E100E0F43300201FB5037855
:1083A0008DF800304368019383688DF80830C36806
:1083B000054A0393054B684653F8213052F82110C3
:1083C000984705B05DF804FB083400200C34002009
:1083D0001FB503788DF800304368019383688DF8EA
:1083E0000830C368054A0393054B684653F82130AB
:1083F00052F82110984705B05DF804FB08340020BE
:108400000C340020F0B5194B90F800C091F81DE035
:1084100043F82C20164B16460A6943F82C20154BBE
:1084200003F80CE00C4607460FCC89B06D460FC52B
:1084300094E80F0085E80F00CDF810C0BEF1000FE2
:1084400009D0002E0C4A694608BF3246381D00F09C
:10845000B7FC09B0F0BD002E084A694608BF324695
:1084600007F10C0000F08EFAF3E700BF0C34002097
:1084700008340020103400209D830200D1830200C4
:1084800000F18040002382B0036003680193019BE8
:1084900002B07047044A137923B90121106091801A
:1084A000184670478520704714340020074B1A681F
:1084B000D20704D4C02283F8002301221A604FF0AF
:1084C00080430122C3F81825704700BF00E100E097
:1084D0004FF0804208B50223C2F808334FF482708F
:1084E000FFF7CEFF0123D360D2F81834DB03FBD4AF
:1084F00008BD00004FF0804110B5D1F8003163B1E4
:108500004FF48070FFF7BCFF0D4B58790122C1F882
:10851000082310B95A711B6898474FF08042D2F86F
:10852000043163B14FF48270FFF7AAFF0223C2F84F
:108530000833034BBDE810401B680120184710BDED
:108540001434002000F1804000F5C040002382B0C8
:10855000036003680193019B02B07047800000F143
:10856000A040D0F8002722F44032C0F80027D0F80D
:10857000003743EA0141C0F800177047054B4FF040
:10858000FF32072843F8202084BFC01880F8482015
:10859000704700BF1C34002010B51A4C94F85830B6
:1085A0006BBB4FF0FF3222FA03F1C90748BFE11855
:1085B00003F1010348BF81F83020202BF3D10021C3
:1085C000C8B20131FFF7DAFF0C29F9D104220021EA
:1085D0000D4805F03FFE0D4BC02283F806234022D4
:1085E0001A604FF4BE70FFF7ADFF094B4FF0004229
:1085F000C3F80423012384F85830002010BD08205C
:10860000FCE700BF1C3400207034002000E100E0D3
:10861000006000402DE9F74F00244E4D01944FF4C7
:108620008072012102F1804303F5C04390B21B68C0
:10863000012B06D1D5F804330B4202D0FFF782FF9D
:108640000C430432B2F5907F4FEA4101EAD1414B2D
:10865000D3F87C31012B0CD14FF4BE70FFF772FFC1
:108660004FF0A04344F00044D3F820250192C3F812
:108670002025E3B2D3B1384F00250126344210D073
:10868000AB0003F1804303F5C043D3F81005D3F8E2
:10869000101557F8253023B1C1F30141C0F3042070
:1086A00098470135082D4FEA4606E7D1002C48DAF5
:1086B000294D4FF0A048294E4FF00009012716F927
:1086C000013B5A1C31D0C3F3C20202A90A44DCB2F6
:1086D00012F8042C03F03F0A03F0070307FA03F330
:1086E0001A4222D00AF5E073504658F82330C3F3FB
:1086F000014BBBF1020F0CBF03210221FFF72EFF3C
:1087000007FA0AF3C8F8203505EB0A0393F930306D
:1087100055F823304BB1A109032904D0BBF1020F56
:1087200012D1012901D15046984709F10109B9F147
:10873000040FC4D1D8F820350193C8F82035002B98
:10874000B9D103B0BDE8F08FBBF1030FEDD1022921
:10875000E8E700BF006000401C3400206C340020BB
:10876000014B1B68184700BF783400200E4B98421D
:1087700037B50C4602D0002003B030BD00230DF108
:1087800007008DF80730FEF7D1FD084B1D7915B9AC
:1087900001221C601A719DF80700FEF7EBFD002D09
:1087A000E9D01120E8E700BF002000407834002025
:1087B000034B984201BF034B00221A601A717047A5
:1087C00000200040783400200023435082B04358FA
:1087D0000193019B02B070470A4610B54FF48E71A9
:1087E000FFF7F2FF136A9168C95C136A01331362E1
:1087F000C0F81C1510BD8B690A4610B54FF4847182
:1088000023B9FFF7E1FFD0F8183510BDFFF7DCFF03
:10881000536AD168D0F81805C854536A01335362BB
:10882000F3E700001FB501238DF80030044BCDE9BC
:108830000110D3E900126846904705B05DF804FBCB
:108840008034002030B54D4DD5F804339A0585B0FD
:1088500051D5D5F82431002B4DD04FF492712846D4
:10886000FFF7B2FF4FF40173C5F80833444B93F898
:1088700029200AB901226A60404902228DF80020AD
:10888000D1F88024C1F8802403929A690292DA68B0
:1088900001920022C3E906226846D3E900129047FC
:1088A0003648D0F81C315BB1354A5169136A994298
:1088B0004DD992F82830002B49D11146FFF78CFF93
:1088C0002E48D0F84431002B56D04FF4A271FFF758
:1088D0007BFF2B4B93F829200AB1012202609A6991
:1088E000002A49D0586AD96800229A6105B0BDE8CB
:1088F0003040FFF797BFD5F804335B07D0D5D5F8E4
:108900000831002BCCD01E4C1C482146FFF773FFCA
:10891000636AA2699A42C3D1E369E1684BB1A3617A
:108920002369E3600023606AE3616362FFF77AFF13
:10893000B6E794F829300BB901236B600F4B4FF465
:108940000172C3F808230023606AA361EEE70B48B5
:108950004FF48E71FFF738FF5369002BB0D0516987
:108960000291002391688DF80030019153616846AF
:10897000D2E900139847A3E705B030BD00200040BE
:10898000803400202DE9F843534D90F804802C23C7
:1089900003FB0853064693F82A300C469146002BF9
:1089A00040F096804D490068FFF7E0FE074600283A
:1089B00040F0908022683068511C0BD04FF0A041ED
:1089C00001239340C1F8083502F5E0734FF0030C22
:1089D00041F823C061684B1C1FBF01F5E0734FF0E5
:1089E000A04C4FF0000E4CF823E0A369C0F82435EA
:1089F00094F814C0637DBCF1010F4CEA0303C0F886
:108A00006C35C0F81415C0F80C251DD1A268531C94
:108A10001FBF02F5E0734FF0A0414FF0000C41F88A
:108A200023C0E368591C0BD04FF0A04C01219940A2
:108A3000CCF8081503F5E0714FF0030E4CF821E077
:108A4000C0F80835C0F810252C2202FB08F2AB183C
:108A5000C3F804902369AB50B9F1000F20D04FF454
:108A60008E71247FFFF7B0FE4FF4A2713068FFF7DC
:108A7000ABFE32681A4BC2F80433130B42F30732D1
:108A80006101002AC9B21EDB1648841884F800135D
:108A90000121520903F01F0301FA03F340F82230C9
:108AA00033680422C3F800252C2303FB085300225B
:108AB000C3E9062283F829205A61012283F82A207B
:108AC0003846BDE8F883084A03F00F03D154E7E7BE
:108AD0000827F5E71127F3E78034002045880200D6
:108AE0008000020000E100E014ED00E0F8B503684A
:108AF0000579304C0022C3F800252C2202FB0542E8
:108B00005268A2B12C4AC3F808231A0B43F3073367
:108B1000002B0CDB02F01F015B0901228A4020338D
:108B2000264941F82320BFF34F8FBFF36F8F0068B2
:108B3000D0F80C65D0F81415D0F80835D0F8102509
:108B40004FF0FF37BE42C0F8147518BF06F5E07647
:108B5000C0F80C75C0F80875C0F810751EBF4FF04E
:108B6000A0474FF0020C47F826C04E1C1FBF4FF025
:108B7000A04601F5E071022746F82170511C1FBF85
:108B80004FF0A04102F5E072022641F822605A1C23
:108B90001FBF03F5E0734FF0A042022142F82310FB
:108BA000FFF706FE2C2303FB0544002384F82A303C
:108BB0006360F8BD803400208402020000E100E020
:108BC0000279044B2C2101FB02335869003818BF8D
:108BD00001207047803400202DE9F84F064690F8B8
:108BE000048089469246FFF7EBFF044600283CD1FB
:108BF000204F2C2508FB057B4FF48E71CBF814A079
:108C0000CBF80890CBF820008BF828003068FFF7ED
:108C1000DBFD3068012383605946FFF7DDFDDBF89B
:108C200004305D461BBB3068DBF814402B6A9C4265
:108C300011D83368D3F81C21002AFBD00122DA6056
:108C400000202C2303FB087700237B61BDE8F88F0D
:108C500095F828303BB9D0F81C31002BF8D0594694
:108C6000FFF7BAFDE2E70F20EBE71120EEE7204621
:108C7000ECE700BF803400200023435082B043580B
:108C80000193019B02B070471FB501238DF800309E
:108C9000044BCDE90110D3E900126846904705B0B6
:108CA0005DF804FBAC3400207FB5434AD2F8246160
:108CB000002E60D010464FF49271FFF7DDFF0223C3
:108CC0008DF80030D2F88034C2F880340393D2F8A3
:108CD0003C350293394BDA6801920022C3E906223F
:108CE0006846D3E9001290473348D0F8443173B155
:108CF0004FF4A271FFF7C0FF304B9A693AB10022DE
:108D0000C3E90622D968D0F83C05FFF7BDFF2A4821
:108D1000D0F82031ABB14FF49071FFF7ADFF0123D4
:108D2000C360264B5A6962B1D0F84C1502910022FB
:108D300099688DF8002001915A616846D3E90012C4
:108D400090471D48D0F858319BB14FF4AC71FFF7F4
:108D500093FF1A4B5A6962B1D0F84C150291002268
:108D600099688DF8002001915A616846D3E9001294
:108D7000904704B070BDD2F81031002BB4D04FF43E
:108D800088711046FFF778FF0C4BD2F83C059969C3
:108D90008842A9D1DC69D96864B1D2F8005225F0C3
:108DA0002005C2F800521A699C61DA60DE61FFF7A3
:108DB0006BFF99E79C61FAE700200040AC3400208B
:108DC0002DE9F8435A4E90F80480242303FB0863EE
:108DD000044693F820300D469146002B40F0A380C6
:108DE00054490068FFF7C2FC0746002840F09D8008
:108DF0002A682068511C0BD04FF0A04101239340FA
:108E0000C1F8083502F5E0734FF0030C41F823C0B8
:108E100069684B1C1FBF01F5E0734FF0A04C4FF089
:108E2000000E4CF823E0AB69C0F8243595F814C067
:108E30006B7DBCF1010F4CEA0303C0F86C35C0F840
:108E40000C25C0F814151DD1AA68531C1FBF02F5CC
:108E5000E0734FF0A0414FF0000C41F823C0EB68E5
:108E6000591C0BD04FF0A04C01219940CCF80815AB
:108E700003F5E0714FF0030E4CF821E0C0F808351F
:108E8000C0F81025242202FB08F2B318C3F804909E
:108E90002B69B350B9F1000F2FD04FF488712A7F9E
:108EA000FFF7EAFE20684FF49071FFF7E5FE2068B7
:108EB0004FF49271FFF7E0FE20684FF4A271FFF7C4
:108EC000DBFE4FF4AC712068FFF7D6FE23681A4929
:108ED000C3F80413190B43F307335201002BD2B22A
:108EE0001CDB1648C51885F8002301225B0901F038
:108EF0001F0102FA01F140F8231023680822C3F889
:108F00000025242303FB08660023C6E906337361AA
:108F1000012386F820303846BDE8F883084B01F07D
:108F20000F015A54E9E70827F5E71127F3E700BFD7
:108F3000AC340020A98C02001003420000E100E0E4
:108F400014ED00E0F8B5444C0579242303FB0543F8
:108F500002465B680068ABB1404BC0F8083340F391
:108F60000733002B4FEA10310CDB01F01F065B09C1
:108F70000121B14020333A4E46F82310BFF34F8F02
:108F8000BFF36F8FD0F8003223F02003C0F8003217
:108F9000242303FB05439B692BB14FF4A271FFF718
:108FA0006BFE012343604FF4AC71FFF765FE0123B4
:108FB000C360242303FB0543D0F858110029FBD0DC
:108FC000996919B1D0F844110029F5D00023C0F8EF
:108FD00000351368D3F80C75D3F81465D3F8082559
:108FE000D3F810154FF0FF3C6745C3F80CC518BF08
:108FF00007F5E077C3F814C5C3F808C5C3F810C572
:109000001EBF4FF0A0434FF0020C43F827C0771C5F
:109010001FBF4FF0A04306F5E076022743F8267005
:109020004E1C1FBF01F5E0714FF0A043022643F82C
:109030002160531C1FBF4FF0A04302F5E0720221D4
:1090400043F82210FFF7B4FB242303FB054400235D
:1090500084F820306360F8BDAC3400201003420077
:1090600000E100E00279044B242101FB023358693E
:10907000003818BF01207047AC34002001F0604375
:10908000B3F1005F2DE9F0470646884692463BD192
:1090900090F80490FFF7E6FF0446002836D11D4FF4
:1090A0003068242505FB09754FF49071C5F814A0AC
:1090B000C5F80880FFF7E0FD4FF4AC713068FFF7AA
:1090C000DBFD33686A69A968C3F84415C3F848250D
:1090D00001229A606A68DAB9D3F82021D3F85801DE
:1090E0001AB90028F8D00F2007E00028FBD1012290
:1090F000DA60D3F85821002AFBD0242303FB097738
:1091000000237B61BDE8F0871020FBE71120F9E721
:109110002046F7E7AC3400200023435082B0435888
:109120000193019B02B070478B6A4A6B9A4210B55B
:109130004FF0010305D2496A8A5CC0F81C251A4623
:1091400004E091F82C201AB1C3610022104610BD32
:109150000C6A640603D5C36181F82D30F6E74361DC
:10916000EDE770B5D0F8046105460C4626B14FF422
:109170008271FFF7D1FF012694F82F2022B34FF41C
:1091800092712846FFF7C8FF4FF48E71FFF7C4FFB6
:109190004FF48471FFF7C0FF002E69D094F82F20A0
:1091A000002384F82D3092BBA36A616B99421CBFE7
:1091B0001646052386F001061CBFC5F80025C5F834
:1091C000003584F82F6023E0D5F824314BB14FF4FB
:1091D00092712846FFF7A0FF01236B6184F82F30BE
:1091E000DAE7D5F81C31ABB14FF48E712846FFF7A2
:1091F00093FF636B01336363D5F8243113B14FF4EC
:109200009271E7E72146FFF78FFF0028C4D10022C3
:10921000104670BDD5F80831002BBDD04FF48471D5
:109220002846FFF779FFD5F82431002BE7D1636B8F
:10923000A16A8B42B0D2616AD5F81805C854636B35
:10924000A16A0133481E8342636308D1206A400645
:1092500010D40223C5F8003201232B629CE78B4215
:10926000FAD1236A5B0697D5022384F82D30CFE725
:109270000122CDE78B42EFD1F6E7000037B5314B45
:1092800001930D464FF48271FFF746FF4FF4927140
:10929000FFF742FF4FF48E71FFF73EFF4FF48471EA
:1092A000FFF73AFF0023C0F800326B6385F82F30D8
:1092B0000123036295F82D209A4218BF8360294646
:1092C0000446FFF731FF2B6883B140F28623AB6081
:1092D000AB68C4F80433002003B030BD29462046F3
:1092E000FFF73FFF28B1019B013B0193019B002B3E
:1092F000F4DC95F82F0050B9019B002BECDC002327
:10930000C4F800350523C4F800350320E4E7D4F899
:10931000C434C4F8C43493B113F0010F14BF4FF434
:109320000240032048F2012213F0020F18BF10463A
:1093300013F0040F48F2022318BF1846DCE703209D
:10934000DAE700BFA086010037B5344B01930D4624
:109350004FF48271FFF7E0FE4FF49271FFF7DCFEED
:109360004FF48E71FFF7D8FE4FF48471FFF7D4FEEF
:1093700000236B6385F82F30AB6A012B044617D1AD
:109380002B6A5B0614D40223C4F800320123236243
:1093900095F82D20022A18BF23602B6893B140F264
:1093A0008623AB60AB68C4F80433002003B030BD43
:1093B0000123E9E729462046FFF7D3FE28B1019BA8
:1093C000013B0193019B002BF4DC95F82F0050B971
:1093D000019B002BEADC0023C4F800350523C4F808
:1093E00000350320E2E7D4F8C434C4F8C43493B1A0
:1093F00013F0010F14BF4FF40240032048F2012282
:1094000013F0020F18BF104613F0040F48F20223A6
:1094100018BF1846DCE70320DAE700BFA08601008A
:10942000F0B52B4C2B4887B02146FFF79AFE002859
:1094300040D194F82F70D4F820C0FFB9237B9A1E36
:10944000012A1BD8616AA269914217D1E26962625E
:10945000CCF3401C62691F48A262032B84F82CC025
:1094600084F82D70214604D107B0BDE8F040FFF725
:1094700005BF07B0BDE8F040FFF766BF164E0FCE40
:1094800001AD0FC533682B60FFB1124AD2F8C43466
:10949000C2F8C43499070FD501238DF8003000239A
:1094A0001CF0040F84F8303000D01FB1D4E9003133
:1094B0006846984707B0F0BD5A0701D50223ECE78C
:1094C000DB074CBF03230423E7E78DF80070E6E7D2
:1094D000D034002000300040DC3400202DE9F84F6B
:1094E0000779314E4FF03C0A0AFB07FA06EB0A05F2
:1094F0009B4695F82E3080460C469146002B4FD166
:109500002A490068FFF732F900284BD12168637BB4
:1095100085F8383001F5E0724FF0A043A860C5F837
:1095200004B085F8300085F82D0085F8310040F250
:109530000C6546F80A9043F82250626802F5E07C18
:1095400043F82C50D8F80030C3F80815C3F80C25A0
:10955000A268C3F82425B9F1000F14D0227B43F38D
:10956000073152010029C3F30733D2B213DB104C89
:10957000651885F800230122490903F01F0302FA48
:1095800003F344F821303C2303FB0766012386F8EC
:109590002E30BDE8F88F074903F00F03CA54F2E7F5
:1095A0000820F6E71120F4E7D034002021940200CF
:1095B00000E100E014ED00E0036802790521C3F842
:1095C0000015044B3C2101FB0233022283F82E20BC
:1095D000704700BFD03400202DE9F047314F0479A7
:1095E000D0F800903C2303FB04730D4693F82D3014
:1095F000012B944604D10B78012B06D1082011E0F1
:10960000022B02D10B78012BF8D13C26264BC9F84E
:10961000083306FB047696F830302BB1B368C9F8EE
:1096200004331120BDE8F0878CF00403C3F38003FA
:1096300086F83030C6F820C0A846B8E80F0006F11A
:109640000C0EAEE80F00D8F80030CEF800306B6892
:10965000B362EB6873626B78C9F888352B78C4EB1A
:10966000041A012B07EB8A0A17D09BB9CCF3401CD4
:109670003C2303FB0473514683F82CC04846FFF794
:10968000FDFD3C235C433A193B59002BCAD182F8BB
:109690003030C7E74FF0010CEAE751464846FFF784
:1096A00053FEEEE7D03400208642040010B586B0A9
:1096B0000024CDE902349DF820308DF80510A34236
:1096C000CDE9042401A914BF202222468DF80440CC
:1096D000FFF782FF06B010BD10B586B001240293DB
:1096E0000023CDE903328DF805101A4601A98DF843
:1096F00004400593FFF770FF06B010BD1FB5037857
:109700008DF800308388ADF8043083688DF806301A
:10971000C3688DF80730036902934369054A0393D0
:10972000054B684653F8213052F82110984705B090
:109730005DF804FB0C35002014350020024B4FF47B
:10974000807043F00103184710EC02002DE9F04748
:10975000154690F80090324A42F82950314A42F8B2
:1097600029304B7B07460C466BB30868496882007A
:109770008B0002F1A04203F1A04340F20C66C2F854
:1097800000674FF0010AC3F800674FF0A0460AFADD
:1097900000F00AFA01F1C6F80805C6F8081540F20B
:1097A0000D61C2F80017C3F80017FFF7C7FF4FF0AD
:1097B0000008D6F81025636822FA03F3DB070DD5FD
:1097C000B8F1000F1DD1002D174A4B4608BF2A469D
:1097D0002146381DBDE8F047FFF780BE23680AFA2E
:1097E00003F3C6F80C35FFF7A9FF23680AFA03F361
:1097F000C6F8083508F10108FFF7A0FFB8F1090F16
:10980000D7D1636801264FF0A04806FA03F3C8F8E1
:109810000C35FFF793FF63689E40C8F80865D2E7F0
:10982000143500200C350020FD96020000F1804028
:1098300000F5E040002382B0036003680193019BC0
:1098400002B07047F0B5524B524CD3F8043185B09A
:10985000002B3DD094F82E204FF48270FFF7E6FFE6
:109860002AB394F82F3013BB494AD2F80031002BA9
:1098700032D04FF48070FFF7D9FF638B94F82D003E
:10988000834250D921891B1A9BB289B26383CB1AB8
:10989000616801EB4303C2F82C36C2F830064FF47E
:1098A0008270FFF7C3FF3A4B01225A6014E06368ED
:1098B00002932389ADF80C30E36800218DF8041081
:1098C00033BB2374236801A89847002384F82F3002
:1098D00094F82E30002BC7D12D4BD3F810315BB14B
:1098E0004FF48870FFF7A2FF0023237402238DF842
:1098F000043001A823689847254BD3F81431EBB105
:109900004FF48A70FFF792FF0023237405B0F0BD77
:10991000208B608363602081E160002AD2D11C4BE0
:1099200001221A60CEE7BAD1E368012184F82F1032
:1099300013B100216183AEE76383B0E766694FF03E
:1099400000470125002EE1D0B6FA86F227FA02F38D
:109950004632920026EA030602F1804303F5E04313
:109960001B68002BEED01046A2F58C72FFF75EFF4D
:10997000D30882F00402C2F380028DF808308DF81B
:10998000045023688DF8092001A89847DAE700BF42
:10999000007000401C35002070B5264A264B054655
:1099A0001220C2F808031C7C022C03D1C2F8040365
:1099B000112070BD187C01281CD1D86818B1022371
:1099C000C2F80433F4E7DD60198393F82E305BB9F5
:1099D000D2F80031002BFBD04FF48070FFF726FF48
:1099E000C2F82C56C2F83016124B0222C3F80423D8
:1099F0000020DEE7022093F82E40C2F8040301267F
:109A000000201E745D601981D8603CB1598393F8C1
:109A10002D30C2F82C56C2F83036CAE7C2F82C56A0
:109A20004FF48070C2F83016FFF700FF1660204632
:109A3000BFE700BF007000401C350020074B197CB9
:109A40000129CAB208D193F82E00054B10B11A6053
:109A5000002070475A607047082070471C3500206E
:109A600000700040024B187C003818BF012070477E
:109A70001C3500207FB503788DF8043043680293CD
:109A800083688DF80C30C36804930369064A8DF827
:109A90001430064B01A853F8213052F82110984792
:109AA00007B05DF804FB00BF4C350020583500209E
:109AB00030B4084D10F8044B45F82420064D45F805
:109AC00024302346054C002A18BF224630BC00F043
:109AD0006DB800BF583500204C350020759A020043
:109AE00037B5D0F818358A69DBB28DF807304B6A84
:109AF00093423EBF4A699DF80740D4544A6A91F8A0
:109B00002840531C4B6202323CB10C69A2428C6962
:109B100038BF0A61944288BF8A610D69954205D9B0
:109B2000CB689B5CC0F81C3501200BE08C6994422B
:109B300002D991F82030F5E7AB42F5D3A3422CBF10
:109B40000020012003B030BD13B50022C0F8082169
:109B5000D0F808310193019BFFF7C2FFA0B98A7FBB
:109B6000FF2A1EBF012393404FF0A042084618BFB2
:109B7000C2F8083500230B724B7750F8083B496850
:109B800002B0BDE81040184702B010BD02494FF0C6
:109B90004020FFF7D9BF00BF6435002001490248CB
:109BA000FFF7D2BF90350020003002402DE9F74F7B
:109BB00090F80480614D01924FF02C0909FB08F9DF
:109BC00005EB090B9A469BF81C3006460C46002B09
:109BD00040F0B0805A4B006853F82810FEF7C6FDDD
:109BE000002840F0A980019B45F80930CBF804A07B
:109BF00094F800E0227B4FF0A041012303FA0EF31A
:109C0000012A94BFC1F80C35C1F808350EF5E07390
:109C10004FF0010C41F823C06378FF2B1FBF0CFAF3
:109C200003FCC1F80CC503F5E07C4FF0030918BF35
:109C300041F82C9094F802C008BF4FF0FF33BCF1FC
:109C4000FF0F1FBF0CF5E0714FF0A0494FF0040B60
:109C500049F821B031794FF02C0909FB015918BF9F
:109C6000E24689F81FC094F803C008BF4FF0FF3ADE
:109C7000BCF1FF0F0CD04FF0A04B4FF0010909FAD7
:109C80000CF9CBF808950CF5E07903274BF829700F
:109C90004FF02C0909FB015989F81EC03668C6F837
:109CA00008E5C6F80C35A368C6F810A5C6F8243533
:109CB000637B003B18BF0123022A30D0032A31D036
:109CC000012A01D143F00203C6F854352C2303FBCB
:109CD0000151637981F82030019B0121C6F80015FC
:109CE0009BB1237946F307325B01002AC6F307369E
:109CF000DBB21ADB134CA71887F80033520906F0C1
:109D00001F0601FA06F644F822602C2303FB0855CF
:109D100000236B7701232B7703B0BDE8F08F43F06E
:109D20000403D1E743F00603CEE7074A06F00F0627
:109D30009355EAE70820EFE71120EDE764350020AE
:109D400020EC020000E100E014ED00E02DE9F74313
:109D500090F804803F4D2C2303FB08F31746EA18C4
:109D60000E46517F8446002972D155F80390B9F10F
:109D7000000F01D00123537796E80F002C2404FB39
:109D8000085404F10C0E8EE80F00A27F0023FF2A76
:109D900084F828301FBF012393404FF0A042C2F83F
:109DA0000C352C2347B103FB085500236B7706279E
:109DB000384603B0BDE8F083DCF800400422C4F864
:109DC000082303FB0853C4F80871D4F808215F6224
:109DD0000092009A726882B133681B78C4F81C350F
:109DE000012A0DD933685B78C4F81C35B9F1000F2E
:109DF0000FD00423C4F80433DAE793F82030EDE7FA
:109E0000F368012BF2D92C2303FB085393F820307D
:109E1000EAE72C2108FB0151D4F80831002BFBD0D4
:109E2000C4F80891D4F8083101932046019BFFF74C
:109E300057FE0028F0D12C2303FB0855AA7FFF2AE8
:109E4000B6D0012393404FF0A042C2F80835AFE7E7
:109E50001127ADE76435002008B5094B1B7853B1D5
:109E60000020FEF7B9F90120FEF7B6F9BDE8084079
:109E70000320FEF7B1B9BDE80840FEF7B9B900BF4D
:109E8000BC350020F8B57A4C237805461BB1002379
:109E90002370FFF7E1FF172D00F28780DFE805F060
:109EA0000C1717425364757F878C878C9499999906
:109EB0009999C3C8D0D8E3E3FFF7CEFF6D48FDF70B
:109EC0002BF96D4B002204461A702046F8BD002085
:109ED000FEF768F9F0B10020FEF77EF9022D0CBF05
:109EE0004FF4E1644FF47A64634B1D7000254FF426
:109EF00000464FF47A7029464FF4FA620023E4FBDF
:109F0000060104F0B9F82A460146BDE8F840594870
:109F1000FDF7D4B8FEF754F9022D0CBFC8244FF456
:109F2000C874E1E70020FEF73DF940B10020FEF7DC
:109F300053F94FF44874504B03221A70D6E7FEF7DA
:109F40003FF9C824F7E70020FEF72CF938B10020CC
:109F5000FEF742F94FF47A64474B0422EDE7FEF72F
:109F60002FF94FF4C874F7E70020FEF71BF948B14A
:109F70000020FEF731F9404B05221A7040F6CD4122
:109F80000022C2E7FEF71CF9F5E70020FEF74EF9C4
:109F9000394B06221A70002240F26661B5E70020B4
:109FA000FEF70EF9344B07221A7000248DE70120CA
:109FB0002070FEF73BF9EEE701202070FEF736F93E
:109FC00000224FF40051A0E7FEF721F92A4B0C22A2
:109FD000EAE72A482A4EFDF79FF8D5F11105044615
:109FE0001CD0D8B9012D13D0C820454321464FF4C9
:109FF00000474FF47A704FF4FA620023C5FB070163
:10A0000004F03AF8224601461C48FDF757F804468A
:10A010000220FEF7D5F80123337056E70220FEF741
:10A02000DBF80023F8E7FFF717FF134B1222BBE71B
:10A03000FFF712FF0020FEF7C3F80F4B1322B3E720
:10A04000FFF70AFF0120FEF7BBF80B4B1422ABE72A
:10A05000FFF702FF0020FEF7B3F80120FEF7B0F88B
:10A06000054B1522A0E7FEF7D2F8034B1D709CE7C5
:10A07000D0350020282B0020D1350020082B0020CF
:10A08000BC35002010B5002914BF03240024FEF7BE
:10A09000DFF8800000F1A040D0F8002722F4403221
:10A0A000C0F80027D0F8003743EA0443C0F800376F
:10A0B000002010BD044B1B6813F0010301D0FFF713
:10A0C000E1BE1846704700BFCC350020032811D8E8
:10A0D000012A0AD101290FD100F10E02D2B20D4B93
:10A0E00000EB40001A54002070470129F7D00229E4
:10A0F00004D049B1072070470022F8E7054B00EB78
:10A10000400018444270EEE7024B00EB4000184458
:10A110008270E8E7BD350020032802D80121FFF74F
:10A12000B1BF0620704708B5012202210020FFF7C9
:10A13000CDFF08B1072810D1072202210120FFF727
:10A14000C5FF08B1072808D100210A220846FFF7F9
:10A15000BDFF10B1072808BF002008BD0388102BE1
:10A1600010B502D0112B1ED010BD1A4C2168B1B908
:10A1700001220846FFF7AAFF08B1072824D10722C9
:10A1800002210120FFF7A2FF08B107281CD10422F9
:10A1900002210020FFF79AFF08B1072814D1236895
:10A1A00001332360E0E70B4A1368013B1360002B87
:10A1B000DAD1FFF7B8FF0028D6D0074B1B68002B79
:10A1C000D2D0BDE810401847034B1B68002BE6D0E7
:10A1D0009847E4E7D8350020D435002008B50020A2
:10A1E000FFF79AFF08B1062806D10120FFF794FF78
:10A1F00010B1062808BF002008BDA8DF7047AEDFF9
:10A20000704762DF7047000070B588B005460E46A3
:10A21000144600212022684604F01CF8124B9DF8D9
:10A220000D2033F81430ADF800304FF002130193D5
:10A2300095F8243028891B0143F0020322F0120212
:10A2400003F0120313438DF80D3005EBC402737B4A
:10A250008DF813300A32337B8DF81130694602F0E5
:10A260004BFF08B070BD00BF7CEC0200F0B51F4B87
:10A2700087B002AA04460D4603F1100C1746186871
:10A280005968164603C6083363453246F7D15CB3B6
:10A2900055B32B6863602B7984F824302146384607
:10A2A000FFF7AFFFF0B9224601A912F8083B8DF87D
:10A2B0000630012041F23423ADF80430FFF79DFF52
:10A2C00080B9024629462046FFF79EFF50B9012279
:10A2D00029462046FFF798FF20B90222294620464A
:10A2E000FFF792FF07B0F0BD0E20FBE76BEC02001A
:10A2F0002DE9F0431F4693B04FF6FF739A4206468E
:10A300001546ADF8061058D006EBC70602231022FA
:10A31000002103A8ADF80A3003F09CFF7389ADF863
:10A320000C3001238DF80E300DF10A0305930DF169
:10A33000060306934FF6FE7300269D42ADF81060AB
:10A3400028D107A802F0A2FE1D4D1E4BDFF8789021
:10A35000ED1AED082D0445F003050DF12008079BCB
:10A36000B34203D8204613B0BDE8F08338F8027B2F
:10A37000384602F079FE02280AD103A93846FFF7D1
:10A380003EFF044620B93A4649462846FCF7C0FB42
:10A390000136E4E703A92846FFF731FF0446002809
:10A3A000E0D1084B06480849C01AC00800042A46F4
:10A3B00040F00300FCF7ACFBD4E70824D2E700BF71
:10A3C0002CE40200ECE3020028EC02007047A8DF56
:10A3D0007047AEDF704762DF7047000070B588B02D
:10A3E00005460E46144600212022684603F032FF3F
:10A3F000124B9DF80D2033F81430ADF800304FF0BB
:10A400000213019395F8243028891B0143F00203BD
:10A4100022F0120203F0120313438DF80D3005EB06
:10A42000C402737B8DF813300A32337B8DF8113000
:10A43000694602F061FE08B070BD00BFD2EC0200B8
:10A44000F0B51F4B87B002AA04460D4603F1100C6D
:10A45000174618685968164603C6083363453246DE
:10A46000F7D15CB355B32B6863602B7984F8243043
:10A4700021463846FFF7AFFFF0B9224601A912F88E
:10A48000083B8DF80630012043F23423ADF8043048
:10A49000FFF79DFF80B9024629462046FFF79EFF41
:10A4A00050B9012229462046FFF798FF20B9022221
:10A4B00029462046FFF792FF07B0F0BD0E20FBE7CC
:10A4C000C1EC02002DE9F0431F4693B04FF6FF7335
:10A4D0009A4206461546ADF8061058D006EBC70658
:10A4E00002231022002103A8ADF80A3003F0B2FEC7
:10A4F0007389ADF80C3001238DF80E300DF10A038D
:10A5000005930DF1060306934FF6FE7300269D4258
:10A51000ADF8106028D107A802F0B8FD1D4D1E4B04
:10A52000DFF87890ED1AED082D0445F003050DF1E4
:10A530002008079BB34203D8204613B0BDE8F08340
:10A5400038F8027B384602F08FFD02280AD103A9B1
:10A550003846FFF73EFF044620B93A4649462846AA
:10A56000FCF7D6FA0136E4E703A92846FFF731FFE6
:10A5700004460028E0D1084B06480849C01AC00824
:10A5800000042A4640F00300FCF7C2FAD4E708248E
:10A59000D2E700BF2CE40200ECE3020082EC0200F0
:10A5A0007047A8DF7047AEDF704762DF704700007A
:10A5B00070B588B005460E46144600212022684634
:10A5C00003F048FE124B9DF80D2033F81430ADF81F
:10A5D00000304FF00213019395F8243028891B01B5
:10A5E00043F0020322F0120203F0120313438DF82A
:10A5F0000D3005EBC402737B8DF813300A32337BC8
:10A600008DF81130694602F077FD08B070BD00BFCB
:10A610002AED0200F0B51F4B87B002AA04460D4692
:10A6200003F1100C174618685968164603C608331C
:10A6300063453246F7D15CB355B32B6863602B7921
:10A6400084F8243021463846FFF7AFFFF0B92246A0
:10A6500001A912F8083B8DF80630012042F234239C
:10A66000ADF80430FFF79DFF80B902462946204629
:10A67000FFF79EFF50B9012229462046FFF798FFB9
:10A6800020B9022229462046FFF792FF07B0F0BD0D
:10A690000E20FBE71AED02002DE9F0431F4693B0B0
:10A6A0004FF6FF739A4206461546ADF8061058D08D
:10A6B00006EBC70602231022002103A8ADF80A30DA
:10A6C00003F0C8FD7389ADF80C3001238DF80E300E
:10A6D0000DF10A0305930DF1060306934FF6FE7381
:10A6E00000269D42ADF8106028D107A802F0CEFCEC
:10A6F0001D4D1E4BDFF87890ED1AED082D0445F046
:10A7000003050DF12008079BB34203D8204613B080
:10A71000BDE8F08338F8027B384602F0A5FC022839
:10A720000AD103A93846FFF73EFF044620B93A464E
:10A7300049462846FCF7ECF90136E4E703A9284628
:10A74000FFF731FF04460028E0D1084B06480849CE
:10A75000C01AC00800042A4640F00300FCF7D8F9EC
:10A76000D4E70824D2E700BF2CE40200ECE30200A7
:10A77000D8EC0200704700000748084BC367084B3D
:10A78000C0F88030074BC0F88430074B03600123CA
:10A79000838000F06DBA00BFDC35002091A9020073
:10A7A00051A90200C5A902006800010170B50B4C57
:10A7B000064620460D4600F0F9FA204600F088FBD8
:10A7C00004F128010C22304603F01BFD0C2204F199
:10A7D0006401284603F015FD002070BDDC35002023
:10A7E00008B590B3194B1B8840F24B42934212D9E3
:10A7F00064230370FFF736F938BB15480121FFF7D2
:10A80000CBF808B1FCF736FBFFF718F9E8B1BDE863
:10A810000840FCF72FBBB3F5257F01D80023E8E7FC
:10A8200007EE903A9FED0B7ADFED0B6AF8EE677A50
:10A8300077EEC77A87EEA67ADFED087A67EE277A99
:10A84000FCEEE77A17EE903AD3E708BD66360020B3
:10A8500064360020000025440000DC430000C842AC
:10A8600030B51B2285B01A23CDE900234FF0CD610E
:10A870000223CDE902136C46002330481A462146D4
:10A88000FEF764FF08B1FCF7F5FA2D48FEF794FED9
:10A89000FDF782FE08B1FCF7EDFA4FF0A0430C2261
:10A8A000C3F850270322C3F81027C3F87C27C3F846
:10A8B0004C27C3F878271022C3F808254FF0004230
:10A8C000C3F808251F4D4FF40022C3F808254FF0A8
:10A8D0008042C3F80C2595E80F0084E80F0041F68C
:10A8E0001D13ADF800301C238DF8023001238DF8C4
:10A8F0000C304FF080530293002313481A46214630
:10A90000FFF7D6F808B1FCF7B5FA95E80F0084E830
:10A910000F0040F20253ADF800300C238DF80230E6
:10A920004FF080530293002308481A462146FFF750
:10A93000BFF808B1FCF79EFA05B030BD682B0020C7
:10A940006C2B002030ED0200482B0020582B0020FB
:10A9500070B588B01C46054616468DF80F100122CA
:10A960000DF10F0105A803F04CFC224631460DF114
:10A97000150003F046FC631C00220092DBB205AA1E
:10A9800029460248FEF792FE08B070BD6C2B0020ED
:10A99000F0B50B4F85B01E460123044615468DF8D1
:10A9A0000F1000930DF10F0201463846FEF77EFEB0
:10A9B000F3B22A4621463846FEF78EFE05B0F0BDBA
:10A9C0006C2B002038B5044638B1044D45F0010524
:10A9D0004FF47A40A847013CFAD138BD40ED02005F
:10A9E000012303FA00F04FF0A04311B9C3F80C059E
:10A9F0007047C3F8080570471FB5D2B2CDE90121F1
:10AA000000900392694600220448FFF79FF900284E
:10AA100014BF0220002005B05DF804FB4C2B002081
:10AA20001FB5D2B2CDE90121009003926946002200
:10AA30000448FFF78BF9002814BF0220002005B05E
:10AA40005DF804FB5C2B002010B5C46F0078A047B4
:10AA500058B1064B0648074A0749C01AC008000407
:10AA600040F00100FCF754F8022010BDECE30200B6
:10AA70002CE4020046ED020069E5020010B5012356
:10AA8000D0F880400078A04758B1064B0648074AE6
:10AA90000749C01AC008000440F00100FCF738F86C
:10AAA000022010BDECE302002CE402007EED020067
:10AAB00069E5020013B58DF807100DF107021921A1
:10AAC000FFF7DCFF044650B10648074B074A084928
:10AAD0001B1ADB081B0443F00100FCF719F82046A1
:10AAE00002B010BDECE302002CE40200B7ED02005E
:10AAF00069E5020037B580230DF107026B21054699
:10AB00008DF80730FFF7BAFF044668B149484A4B51
:10AB10004A4AC01AC0080004494940F00100FBF746
:10AB2000F7FF204603B030BDD5F884306420984745
:10AB30006B786A7903F0070343EA82136B210DF106
:10AB4000070228468DF80730FFF798FF04460028D3
:10AB5000DCD1D5F884300A2098472B790DF1070213
:10AB600003F007031A2128468DF80730FFF786FF08
:10AB7000044630B12F48304B324AC01AC008000496
:10AB8000CAE7AB78DB0003F018030DF107021B21C5
:10AB900028468DF80730FFF771FF044630B125488D
:10ABA000254B294AC01AC0080004B5E7EB78DB0042
:10ABB00003F018030DF107021C2128468DF8073019
:10ABC000FFF75CFF044630B11A481B4B1F4AC01AFE
:10ABD000C0080004A0E704212846FFF76BFF0446E5
:10ABE00030B11448144B1A4AC01AC008000493E745
:10ABF000EB78032B05D8DFE803F0020B0D0F154BA4
:10AC0000AB64AB78032B8CD8DFE803F0080C0F1192
:10AC1000114BF5E7114BF3E7114BF1E7114AAA6726
:10AC20001C467EE7104BAB677BE7104BFBE7094BFD
:10AC3000F9E700BF2CE40200ECE30200F2ED0200B1
:10AC400069E502002DEE020064EE0200A0EE0200B3
:10AC5000DDEE020000007A3D0000FA3D00007A3E81
:10AC60000000FA3E0000FA3B00007A3C0000FA3C8B
:10AC700037B5054600283AD0C36F002B37D0D0F83F
:10AC80008030002B33D001230DF107027521FFF72F
:10AC9000DBFE044658B11748174B184AC01AC008C3
:10ACA0000004174940F00100FBF732FF0FE09DF868
:10ACB0000730712B0ED0104B0E48124A1049C01AA3
:10ACC000C008000440F00100FBF722FF02242046E8
:10ACD00003B030BD2846FFF70DFF04460028F6D02C
:10ACE0000448054B084AC01AC0080004D9E70124EB
:10ACF000EDE700BF2CE40200ECE3020007EF0200E6
:10AD000069E5020044EF02006CEF020030B585B047
:10AD100001230DF107023A210546FFF795FE04468F
:10AD200068B11D481D4B1E4AC01AC00800041D49C9
:10AD300040F00100FBF7ECFE204605B030BD9DF869
:10AD400007303BB3062302AA3B212846FFF77CFECF
:10AD5000044630B11048114B134AC01AC008000411
:10AD6000E5E79DF808209DF8093003EB0223A5F8DC
:10AD700040309DF80A209DF80B3003EB0223A5F824
:10AD800042309DF80C209DF80D3003EB0223A5F80E
:10AD90004430D1E70224CFE72CE40200ECE30200C8
:10ADA0007FEF020069E50200BAEF020038B5044601
:10ADB000FFF7ACFF054660B11A481B4B1B4A1C4904
:10ADC0001B1ADB081B0443F00100FBF7A1FE284619
:10ADD00038BDB4F940309FED176AD4ED126A07EE22
:10ADE000103AB8EEC77AB4F9423037EE067A27EE59
:10ADF000267A84ED0A7A07EE103AB4F9443007EE69
:10AE0000903AB8EEC77AF8EEE77A37EE067A77EE40
:10AE1000867A27EE267A67EEA67A84ED0B7AC4ED61
:10AE20000C7AD4E7ECE302002CE40200F6EF020017
:10AE300069E502000000000030B585B001230DF186
:10AE400007023A210546FFF7FFFD044668B11B489B
:10AE50001B4B1C4AC01AC00800041B4940F00100EB
:10AE6000FBF756FE204605B030BD062302AA43215B
:10AE70002846FFF7E9FD044630B11048104B134A4D
:10AE8000C01AC0080004E8E79DF808209DF80930C2
:10AE900003EB0223A5F870309DF80A209DF80B30D3
:10AEA00003EB0223A5F872309DF80C209DF80D30BD
:10AEB00003EB0223A5F87430D4E700BF2CE40200B2
:10AEC000ECE302007FEF020069E5020015F00200EA
:10AED00038B50446FFF7B0FF054660B11648174B7A
:10AEE000174A18491B1ADB081B0443F00100FBF743
:10AEF0000FFE284638BDB4F97030D4ED1E6A07EE57
:10AF0000103AB8EEC77AB4F9723027EE267A84ED9B
:10AF1000197A07EE103AB4F9743007EE903AB8EEA9
:10AF2000C77AF8EEE77A27EE267A67EEA67A84EDFE
:10AF30001A7AC4ED1B7ADCE7ECE302002CE4020091
:10AF400050F0020069E5020076DF70477ADF704753
:10AF50007CDF70477FDF70478FDF7047B1DF70475E
:10AF600033DF7047FBF786BF13B500240DF10700F0
:10AF70008DF80740FFF734FC0D4A0E4813889DF802
:10AF80000710194403780133DBB289B2092B118011
:10AF900003700BD9B1FBF3F10470C9B214800648F9
:10AFA0008DF807104FF6FE7202F016FE02B010BDCB
:10AFB0004C3B002068360020C83A002030B587B0EE
:10AFC00003A96846FFF7F2FB664C6748674D241AF1
:10AFD000E408240444F0030429462046FBF794FDCA
:10AFE000DDED007A6249FCEEE77A204617EE902A02
:10AFF000FBF78EFDDDED017A5E49FCEEE77A204637
:10B0000017EE902AFBF784FDDDED027A5A49FCEE3B
:10B01000E77A204617EE902AFBF77AFD204657493B
:10B02000FBF772FDDDED037A5549FCEEE77A204629
:10B0300017EE902AFBF76CFDDDED047A5149FCEE2A
:10B04000E77A204617EE902AFBF762FDDDED057AE0
:10B050004D49FCEEE77A204617EE902AFBF758FDA3
:10B0600029462046FBF750FD20464849484CFBF74F
:10B070004BFDDDED007AFCEEE77A002317EE901A27
:10B080004FF6FE7289B22046FFF732F9DDED017A04
:10B09000FCEEE77A012317EE901A4FF6FE7289B2A2
:10B0A0002046FFF725F9DDED027AFCEEE77A022370
:10B0B00017EE901A4FF6FE7289B22046FFF718F984
:10B0C000DDED037A334CFCEEE77A002317EE901A9D
:10B0D0004FF6FE7289B22046FFF7DEFADDED047A04
:10B0E000FCEEE77A012317EE901A4FF6FE7289B252
:10B0F0002046FFF7D1FADDED057AFCEEE77A022370
:10B1000017EE901A4FF6FE7289B22046FFF7C4FA86
:10B11000DDED037A204CFCEEE77A002317EE901A5F
:10B120004FF6FE7289B22046FFF7CCF9DDED047AC6
:10B13000FCEEE77A012317EE901A4FF6FE7289B201
:10B140002046FFF7BFF9DDED057AFCEEE77A022332
:10B1500017EE901A4FF6FE7289B22046FFF7B2F949
:10B1600007B030BD2CE40200ECE302006EF00200F8
:10B1700093F00200A2F00200B1F00200C0F0020061
:10B18000E4F00200F3F0020002F1020063E50200C5
:10B190006C360020183B0020F03A00200388212B59
:10B1A00013B504463FD007D8112B2DD0132B48D010
:10B1B000102B0CD002B010BD522B4AD0562B01D010
:10B1C0003B2BF7D1A0881321FFF7BEFE15E0254BDE
:10B1D00025482649C01AC008000440F00300FBF7C8
:10B1E00093FC0720FEF766FF08B1FBF743FE204BF8
:10B1F000A1882048198002F0BBF90028DAD002B0FB
:10B20000BDE81040FBF736BE164B17481A49C01A66
:10B21000C008000440F00300FBF776FC144B4FF627
:10B22000FF721A80C6E7002380888DF8043001A9D8
:10B230008DF80530FFF790FE0028BBD0FBF71AFE13
:10B24000B8E70B4800231A4685210088FFF782FEE5
:10B25000D3E7074800231A4619460088FFF77EFE09
:10B26000CBE700BFECE302002CE4020011F1020086
:10B27000A02B0020403B00201BF1020008B500205D
:10B28000FEF718FF08B1FBF7F5FDFEF7A7FF08B1C1
:10B29000FBF7F0FDFFF764FE18B1BDE80840FBF7CF
:10B2A000E9BD08BD08B503784BB9054B3B211888AB
:10B2B000FFF74AFE18B1BDE80840FBF7DBBD08BD4B
:10B2C000A02B002008B548B103280BD10220FEF7BF
:10B2D000F1FE38B1BDE80840FBF7CCBDBDE8084041
:10B2E000FFF7CCBF08BD00000A8840F677239A42DA
:10B2F0000BD1064B06484A88C01AC00800048B8848
:10B30000044940F00300FBF70CBC7047ECE302007B
:10B310002CE4020028F10200FBF7ACBD00B5AF48F9
:10B32000ADB04FF48041FBF737FA08B1FBF7A2FD4F
:10B33000FBF766F9FBF77EFE08B1FBF79BFDA84A19
:10B34000A8480121FBF7A8FE08B1FBF793FDA64A28
:10B35000A6480121FBF7A0FE08B1FBF78BFDFCF727
:10B3600027FD08B1FBF786FD02F0AAF908B1FBF74B
:10B3700081FD002301A90120019302F055FA08B1D3
:10B38000FBF778FD01A802F01FFB08B1FBF772FD87
:10B39000112397488DF8003002F0B1FF944982B232
:10B3A0006846FFF7D5FD08B1FBF764FD08220021D0
:10B3B00001A802F04FFF1023ADF804303C23ADF894
:10B3C00006300023ADF8083001A84FF4C873ADF87B
:10B3D0000A30FFF7BBFD08B1FBF74CFD85498648F5
:10B3E00001F0C6FF08B1FBF745FD8348F72101F0E6
:10B3F000D3FF08B1FBF73EFD804B814800936946BF
:10B4000002F0A4F808B1FBF735FD1022002101A8D5
:10B4100002F020FF002201230192039279488DF867
:10B42000083040F2011201A9ADF810208DF8123059
:10B43000FEF71CFF08B1FBF71DFD1022002101A83B
:10B4400002F008FF00220123019203926E488DF85A
:10B45000083040F2011201A9ADF810208DF8123029
:10B46000FFF7D8F808B1FBF705FD1022002101A86D
:10B4700002F0F0FE002201230192039263488DF84E
:10B48000083040F2011201A9ADF810208DF81230F9
:10B49000FEF7D6FF08B1FBF7EDFC1022002101A852
:10B4A00002F0D8FE00230193012203935848594B20
:10B4B0008DF8082001A9049302F019FB08B1FBF7ED
:10B4C000D9FC4022002101A802F0C4FE01A8524983
:10B4D00001F009FE012301A88DF8403002F024FCA0
:10B4E00008B1FBF7C7FCAC22002101A802F0B2FEB4
:10B4F00002238DF80430ADF85030484B15934FF4CB
:10B50000A0620123ADF806208DF88030402244F27D
:10B510005063CDE923234248424B2A9301A901F00D
:10B52000F9F908B1FBF7A6FC3D48012101F0EFF95C
:10B530001C22002101A802F08DFE00234FF4A0324E
:10B54000CDE90132ADF812304FF4F0228DF814300D
:10B55000354B039206930322344B8DF8102001A83B
:10B56000079301F099FC08B1FBF784FCFFF778F929
:10B5700000F054FCFFF700F900F012FA2C4800220A
:10B580004FF40041FBF79AFD08B1FBF773FC294823
:10B5900000224FF4A021FBF791FD08B1FBF76AFCF4
:10B5A0001F48032101F035FA08B1FBF763FC224C78
:10B5B000224B234E234DE41AE408240444F00504EE
:10B5C000FBF746F91E4800F0F1F90028F8D1B6F96A
:10B5D000002029462046FBF79BFAF1E7697102003B
:10B5E000BDAF020070F1020069AF02006CF1020011
:10B5F00057F10200E9B20200DC3A002065AF020018
:10B60000403B00206C360020183B0020F03A002020
:10B61000C83A0020640101015FF10200782B00208C
:10B6200094360020C5B20200A5B2020019B3020090
:10B63000A82B0020802B00202CE40200ECE3020069
:10B640006A36002066F1020038B5CCB2054600210A
:10B65000204600F0CEFB022000F0CDFB0121204669
:10B6600000F0C7FB022000F0C6FB0021204600F0DE
:10B67000C0FB022000F0BFFB284600F0BFFB022009
:10B6800000F0B9FB20460121BDE8384000F0B1BB15
:10B69000431E70B506460C46092B08D8DFE803F0B8
:10B6A0000530350707073A3D404304F08704D5B21B
:10B6B0000021284600F09DFB022000F09CFB0121A8
:10B6C000284600F096FB022000F095FB002128465A
:10B6D00000F08FFB022000F08EFB46F0400000F0EF
:10B6E0008DFB002000F08AFB204600F087FB022043
:10B6F00000F081FB28460121BDE8704000F079BBD5
:10B7000004F0FB0444F08004D1E704F0FD0444F0AD
:10B710001004CCE704F03F04C9E704F05F04C6E777
:10B7200044F00204C3E704F0870444F00104BEE7D8
:10B730002DE9FF41C0B20E46144600F051FB05460C
:10B7400000285BD1F6B2014630462D4F00F051FB88
:10B75000B846FF2000F052FB0135092D08F8010B17
:10B76000F7D10121304600F044FB264A002311683E
:10B77000481C1060D85D04AD29440133C0B2092BC8
:10B7800001F8100CF3D19DF803009DF804309DF8EA
:10B7900005101B0243EA00430B4343F317032360E6
:10B7A0009DF806009DF807309DF808101B0243EA3B
:10B7B00000430B4343F3170363609DF802309DF889
:10B7C00001109DF800309DF803501B0443EA01234B
:10B7D0009DF804109DF80500090241EA0541014366
:10B7E00013F478234FEA012118BF0123002061627E
:10B7F00084F82030106004B0BDE8F0810220FAE740
:10B800004F3B00205C3B0020F8B5CEB2044601213E
:10B810003046154600F0EDFA642000F0ECFA002105
:10B82000304600F0E6FA642000F0E5FA01213046E7
:10B8300000F0DFFA642000F0DEFAEDB2642000F0E0
:10B84000DAFA0021284600F0D4FA142000F0D3FAE6
:10B850000121284600F0CDFA142000F0CCFA002196
:10B86000284600F0C6FA642000F0C5FA21460820F8
:10B87000FFF7EAFE21460A20FFF7E6FE322000F03D
:10B88000BAFA21461120FFF7DFFEE6B24FF49670B8
:10B8900000F0B1FA0021304600F0ABFA022000F0CF
:10B8A000AAFA0121304600F0A4FA022000F0A3FA1F
:10B8B0000021304600F09DFA022000F09CFA202082
:10B8C00000F09CFA002000F099FA002000F096FAAF
:10B8D000324F3870022000F08EFA0121304600F01D
:10B8E00088FA3B78732B57D1224600210120FFF7BD
:10B8F000CFFE0A2000F07FFA2246A0210220FFF7A7
:10B90000C7FE0A2000F077FA224610210320FFF735
:10B91000BFFE0A2000F06FFA224640210420FFF704
:10B92000B7FE0A2000F067FA224660210520FFF7E3
:10B93000AFFE0A2000F05FFA22462C210620FFF716
:10B94000A7FE0A2000F057FA224600210720FFF741
:10B950009FFE0A2000F04FFA2246F2210920FFF74D
:10B9600097FE0A2000F047FA224603210A20FFF73B
:10B970008FFE0A2000F03FFA21461020FFF764FEF8
:10B980000A2000F038FA0121284600F032FA14208B
:10B9900000F031FA0020F8BD0220FCE74E3B002009
:10B9A0001E2213211F20FFF72FBF000070B58AB0A1
:10B9B00006466A461F211420FFF7BAFE0446B0B9B6
:10B9C000019B0E480E4A0F4D1B120380099B1B1250
:10B9D00013809DF820306BB9294600F02DF80A49F4
:10B9E000B5F9000000F0CCF9B5F9003033802046FD
:10B9F0000AB070BD054B2C801C80F5E7623B00202F
:10BA0000663B0020603B0020643B0020683B002038
:10BA100070B50023A0F5A17430F8025931F8026B1B
:10BA2000A04216FB0533F7D103F31E03DB1313808B
:10BA300070BD0000000000002DE9F3410E462A49C8
:10BA40002A4D0A880023ADF8063062B12C461A460A
:10BA500001339BB2A12B24F8022BF9D1244B0A808D
:10BA60001A80244B1A80DFF88880B0F90070B8F98A
:10BA7000000002F0EDFA1AA3D3E9002302F026FA3F
:10BA800002F0C0FA1B4B1C491C881F80041B3C445D
:10BA900024B2A8F80040DFF86880B8F80070A4105D
:10BAA0000DF1060205EB470025F81740FFF7B0FF40
:10BAB000124ABDF80610138825F8134001339BB2D3
:10BAC000A02B318007F1010708BF0021A8F8007002
:10BAD00012BF13801180A8F8003002B0BDE8F081D9
