:020000022000DC
:106000000000012019620200016202000362020026
:10601000056202000762020009620200000000003F
:106020000000000000000000000000000B62020001
:106030000D620200000000000F6202001162020007
:10604000B103030013620200350B03002523030094
:10605000B916030013620200310A0300C10C0300E9
:106060001362020013620200136202001362020054
:106070001362020013620200136202001362020044
:1060800013620200714A03001362020013620200ED
:106090001362020013620200F17603001362020031
:1060A0001362020013620200136202001362020014
:1060B00013620200136202000000000000000000F2
:1060C000136202001362020013620200CD16030085
:1060D000136202001362020013620200000000005B
:1060E00000000000000000000000000000000000B0
:1060F00000000000000000000000000000000000A0
:10610000000000000000000000000000000000008F
:10611000000000000000000000000000000000007F
:10612000000000000000000000000000000000006F
:10613000000000000000000000000000000000005F
:10614000000000000000000000000000000000004F
:10615000000000000000000000000000000000003F
:10616000000000000000000000000000000000002F
:10617000000000000000000000000000000000001F
:10618000000000000000000000000000000000000F
:1061900000000000000000000000000000000000FF
:1061A00000000000000000000000000000000000EF
:1061B00000000000000000000000000000000000DF
:1061C00000000000000000000000000000000000CF
:1061D00000000000000000000000000000000000BF
:1061E00000000000000000000000000000000000AF
:1061F000000000000000000000000000000000009F
:10620000FEE7FEE7FEE7FEE7FEE7FEE7FEE7FEE766
:10621000FEE7FEE700F002B8FFF7FCBF0F484FF0C3
:106220000701884385460E4880470E48016841F4BF
:1062300070010160BFF34F8FBFF36F8F00F01AB88A
:1062400009480A490A4A884207D0521A05D00378F9
:1062500001300B700131013AF9D170470000012083
:1062600049C3020088ED00E0C4830300D82A00205F
:10627000D82A0020344935480A1A02D0072291430F
:106280008D46334933480A1A06D00722914381F3D9
:106290000988022282F314882F483049304A00F0DE
:1062A00041F830483049314A00F03CF83048314933
:1062B000314A00F037F831483149324A00F032F8BB
:1062C00031483249324A00F02DF832483249334AD7
:1062D00000F028F832483349334A00F023F83348B5
:1062E0003349002200F029F832483349002200F0F7
:1062F00024F832483249091A11F0A8FF314A904770
:106300001F482049884205D00268043003B49047F2
:1063100003BCF7E700208646EC46002000212A4A0D
:106320009047FEE7884207D0521A05D00378013023
:106330000B700131013AF9D17047884202D00270E6
:106340000130FAE7704700000000012000E0002063
:10635000000001200000012038A40300D82A0020FA
:10636000382C0020CC630200CC6302006082030062
:1063700038A40300D82A0020D82A0020C4830300B0
:10638000C4830300C4830300C4830300C4830300E5
:10639000C4830300C4830300C483030035A4030043
:1063A00098A50300382C0020382C0020382C002021
:1063B000E0500020E0500020E0500020E05000209D
:0C63C000E070002041620200C174020085
:1063CC00A8DF704700BF184662DF704700BF184651
:1063DC0010B58CB001900091304B02AC0FCB84E81F
:1063EC000F00019B002B01D10E2353E0009B002BCF
:1063FC0001D10E234EE0009B1A68019B5A60009B52
:10640C001A79019B83F82420019A02AB1146184695
:10641C00FFF7DAFF0B900B9B0A930A9B002B01D022
:10642C000A9B37E0019B1B788DF81A3041F234231C
:10643C00ADF81830019B03F1080206AB1946012098
:10644C00FFF7BEFF0B900B9B0993099B002B01D010
:10645C00099B1FE000220099019800F043F80B9073
:10646C000B9B0893089B002B01D0089B12E0012288
:10647C000099019800F036F80B900B9B0793079B43
:10648C00002B01D0079B05E002220099019800F037
:10649C0029F8034618460CB010BD00BFCC8303008E
:1064AC0000B585B001900091009B002B15D0019B8D
:1064BC00002B12D0009B0393019B1B88102B02D046
:1064CC00502B05D00AE00199039800F051F805E033
:1064DC000199039800F052F800E000BF05B05DF898
:1064EC0004FB000000B58DB00390029113468DF8AB
:1064FC00073004AB20220021184611F071FE9DF8E4
:10650C0007301A4A32F81330ADF810300223ADF8C8
:10651C0014300223ADF81630039B93F824209DF819
:10652C001D3062F304138DF81D309DF81D3043F0BF
:10653C0002038DF81D30029B5B7B8DF82330029B90
:10654C001B7B8DF82130039B18899DF80730013394
:10655C00DB00039A13449A1C04AB194608F060F84C
:10656C00034618460DB05DF804FB00BFC48303005E
:10657C0082B00190009100BF02B0704782B00190D0
:10658C00009100BF02B07047A8DF704700BF1846EB
:10659C0062DF704700BF184610B58CB001900091B7
:1065AC00304B02AC0FCB84E80F00019B002B01D1C8
:1065BC000E2353E0009B002B01D10E234EE0009BD9
:1065CC001A68019B5A60009B1A79019B83F824205E
:1065DC00019A02AB11461846FFF7DAFF0B900B9BA2
:1065EC000A930A9B002B01D00A9B37E0019B1B7876
:1065FC008DF81A3044F23423ADF81830019B03F1B6
:10660C00080206AB19460120FFF7BEFF0B900B9B4F
:10661C000993099B002B01D0099B1FE000220099D4
:10662C00019800F043F80B900B9B0893089B002BF0
:10663C0001D0089B12E001220099019800F036F875
:10664C000B900B9B0793079B002B01D0079B05E03E
:10665C0002220099019800F029F8034618460CB064
:10666C0010BD00BF2884030000B585B001900091D7
:10667C00009B002B15D0019B002B12D0009B039389
:10668C00019B1B88102B02D0502B05D00AE00199DE
:10669C00039800F051F805E00199039800F052F8C6
:1066AC0000E000BF05B05DF804FB000000B58DB044
:1066BC000390029113468DF8073004AB2022002181
:1066CC00184611F08DFD9DF807301A4A32F8133038
:1066DC00ADF810300223ADF814300223ADF81630AB
:1066EC00039B93F824209DF81D3062F304138DF85E
:1066FC001D309DF81D3043F002038DF81D30029BB8
:10670C005B7B8DF82330029B1B7B8DF82130039B28
:10671C0018899DF807300133DB00039A13449A1C47
:10672C0004AB194607F07CFF034618460DB05DF824
:10673C0004FB00BF2084030082B00190009100BFD5
:10674C0002B0704782B00190009100BF02B0704758
:10675C00A8DF704700BF184662DF704700BF1846BD
:10676C0010B58CB001900091304B02AC0FCB84E88B
:10677C000F00019B002B01D10E2353E0009B002B3B
:10678C0001D10E234EE0009B1A68019B5A60009BBE
:10679C001A79019B83F82420019A02AB1146184602
:1067AC00FFF7DAFF0B900B9B0A930A9B002B01D08F
:1067BC000A9B37E0019B1B788DF81A3043F2342387
:1067CC00ADF81830019B03F1080206AB1946012005
:1067DC00FFF7BEFF0B900B9B0993099B002B01D07D
:1067EC00099B1FE000220099019800F043F80B90E0
:1067FC000B9B0893089B002B01D0089B12E00122F5
:10680C000099019800F036F80B900B9B0793079BAF
:10681C00002B01D0079B05E002220099019800F0A3
:10682C0029F8034618460CB010BD00BF4084030085
:10683C0000B585B001900091009B002B15D0019BF9
:10684C00002B12D0009B0393019B1B88102B02D0B2
:10685C00502B05D00AE00199039800F051F805E09F
:10686C000199039800F052F800E000BF05B05DF804
:10687C0004FB000000B58DB00390029113468DF817
:10688C00073004AB20220021184611F0A9FC9DF81A
:10689C0007301A4A32F81330ADF810300223ADF835
:1068AC0014300223ADF81630039B93F824209DF886
:1068BC001D3062F304138DF81D309DF81D3043F02C
:1068CC0002038DF81D30029B5B7B8DF82330029BFD
:1068DC001B7B8DF82130039B18899DF80730013301
:1068EC00DB00039A13449A1C04AB194607F098FE7C
:1068FC00034618460DB05DF804FB00BF3884030056
:10690C0082B00190009100BF02B0704782B001903C
:10691C00009100BF02B07047A8DF704700BF184657
:10692C0062DF704700BF184610B58CB00190009123
:10693C00304B02AC0FCB84E80F00019B002B01D134
:10694C000E2353E0009B002B01D10E234EE0009B45
:10695C001A68019B5A60009B1A79019B83F82420CA
:10696C00019A02AB11461846FFF7DAFF0B900B9B0E
:10697C000A930A9B002B01D00A9B37E0019B1B78E2
:10698C008DF81A3042F23423ADF81830019B03F124
:10699C00080206AB19460120FFF7BEFF0B900B9BBC
:1069AC000993099B002B01D0099B1FE00022009941
:1069BC00019800F043F80B900B9B0893089B002B5D
:1069CC0001D0089B12E001220099019800F036F8E2
:1069DC000B900B9B0793079B002B01D0079B05E0AB
:1069EC0002220099019800F029F8034618460CB0D1
:1069FC0010BD00BF9884030000B585B001900091D4
:106A0C00009B002B15D0019B002B12D0009B0393F5
:106A1C00019B1B88102B02D0502B05D00AE001994A
:106A2C00039800F051F805E00199039800F052F832
:106A3C0000E000BF05B05DF804FB000000B58DB0B0
:106A4C000390029113468DF8073004AB20220021ED
:106A5C00184611F0C5FB9DF807301A4A32F813306E
:106A6C00ADF810300223ADF814300223ADF8163017
:106A7C00039B93F824209DF81D3062F304138DF8CA
:106A8C001D309DF81D3043F002038DF81D30029B24
:106A9C005B7B8DF82330029B1B7B8DF82130039B95
:106AAC0018899DF807300133DB00039A13449A1CB4
:106ABC0004AB194607F0B4FD034618460DB05DF85B
:106ACC0004FB00BF9084030082B00190009100BFD2
:106ADC0002B0704782B00190009100BF02B07047C5
:106AEC0000B583B000F08EF800221049104802F077
:106AFC0075F80190019B002B01D0002312E0542269
:106B0C0000210C4811F06CFB0A4802F051F901907D
:106B1C00019B002B01D0002304E00021064802F069
:106B2C0033F90123184603B05DF804FB4D6E0200E7
:106B3C008C2C0020382C00206D6E020000B583B028
:106B4C0001900E4A019B136001994FF000024FF027
:106B5C000003C1E9022302F007F9019BD3E90223E8
:106B6C00134305D1019B1B782A2B01D0002300E095
:106B7C000123184603B05DF804FB00BFA02C0020D5
:106B8C0000B585B0034600918DF80730144B0022F8
:106B9C001A70134B00229A70114B00225A70104B32
:106BAC000022DA700E4B00229A800D4B0022DA6024
:106BBC000B4B00221A610A4A009B93609DF8073028
:106BCC000749184602F012F90390039B002B01D0E1
:106BDC00002300E00123184605B05DF804FB00BF5C
:106BEC00A82C002082B0064B1B788DF80730044B84
:106BFC0000221A709DF80730184602B0704700BF8B
:106C0C00A42C0020084B094A1A60074B084A5A600A
:106C1C00054B084A9A60044B074ADA60024B074A54
:106C2C001A610123184670478C2C00204D6C020011
:106C3C00CD6C0200D76C0200F76D02002D6E0200C5
:106C4C0000B585B001901D4A02AB92E803001860B4
:106C5C000433197000238DF80F3000238DF80E309B
:106C6C0014E002AB052219464A2000F041FA034613
:106C7C00002B03D001238DF80F300BE01E2000F009
:106C8C0071FA9DF80E3001338DF80E309DF80E30F0
:106C9C00042BE6D99DF80F3083F00103DBB2002BF7
:106CAC0002D04FF0FF3304E04FF4967000F05AFA24
:106CBC000023184605B05DF804FB00BFEC8403000C
:106CCC0082B0019000BF02B0704700B5A9B003902C
:106CDC0002910192009324AB042219464A2000F041
:106CEC0025FA034683F00103DBB2002B01D000230D
:106CFC0077E09DF890301AB29DF891301B021BB2D0
:106D0C0013431BB2ADF89630BDF89630C3F30E03A7
:106D1C00ADF89630BDF89630019A9A4201D2002314
:106D2C005FE0BDF89630ADF89E300023ADF89A3098
:106D3C0001238DF899304EE09DF89930002B07D047
:106D4C00BDF89E30802B28BF8023ADF89C3007E027
:106D5C00BDF89E300433802B28BF8023ADF89C30C7
:106D6C00BDF89C2004AB19464A2000F0DFF903461D
:106D7C0083F00103DBB2002B01D0002331E09DF83E
:106D8C009930002B0ED0BDF89C30ADF89A30BDF880
:106D9C009A2004AB1946029811F0ECF900238DF8F7
:106DAC0099300CE0BDF89C30043BADF89A3004AB44
:106DBC000433BDF89A201946029811F0DBF9BDF89E
:106DCC009A30029A13440293BDF89E20BDF89A3073
:106DDC00D31AADF89E30BDF89E30002BACD1BDF867
:106DEC009630184629B05DF804FB00B587B00390C7
:106DFC0002910192019BFF2B28BFFF23ADF81630A7
:106E0C00019A02994A2000F073F90346002B01D035
:106E1C00002301E0BDF81630184607B05DF804FBFE
:106E2C0084B00190054BD3E900234FF47A7302FB35
:106E3C0003F30393039B184604B07047C02C002047
:106E4C0082B001900091009B1B68002B02D1034B78
:106E5C0001221A7000BF02B0704700BFA42C0020A2
:106E6C0000B585B0019000910A4B1B68009918463B
:106E7C0001F0E2FF0390039B002B08D0054B19682F
:106E8C004FF000024FF00003C1E9022300BF05B030
:106E9C005DF804FBA02C002000B585B00190019B8F
:106EAC00002B0AD0074B43F001030393019B9B017A
:106EBC000293039B0298984700E000BF05B05DF871
:106ECC0004FB00BF3085030000B583B00190019B2B
:106EDC00043318460AF022FE00BF03B05DF804FB31
:106EEC0000B589B0059003921A460B468DF8133005
:106EFC0013468DF8123000230793059B181D9DF83F
:106F0C0012209DF813109DF8283000931346039A15
:106F1C000BF022F90790079B184609B05DF804FBAB
:106F2C0000B587B0039001921A460B468DF80B30D2
:106F3C0013468DF80A3000230593039B181D9DF80A
:106F4C000A309DF80B10019A0BF02EF90590059B59
:106F5C00184607B05DF804FB82B001904FF0A043D7
:106F6C00184602B0704700B585B00190084611462E
:106F7C001A4603468DF803300B468DF80230134643
:106F8C008DF8013001AB1846FFF7E6FF03909DF832
:106F9C0003209DF802305B001A439DF801309B00E2
:106FAC001A439DF818301B0242EA03019DF81C306D
:106FBC001B04019A1943039B02F5E07243F822105B
:106FCC0000BF05B05DF804FB00B585B0039000234D
:106FDC000193002300930023012201210398FFF762
:106FEC00C2FF00BF05B05DF804FB00B585B003908F
:106FFC000B468DF80B309DF80B30002201920022CD
:10700C000092002200210398FFF7ADFF00BF05B0EE
:10701C005DF804FB00B585B0019001AB1846FFF795
:10702C009BFF0390019B012202FA03F3194603987C
:10703C0000F02AF800BF05B05DF804FB00B585B080
:10704C00019001AB1846FFF787FF0390019B0122CB
:10705C0002FA03F31946039800F020F800BF05B0BC
:10706C005DF804FB00B583B001900091009B002BF0
:10707C0003D10198FFF7E2FF02E00198FFF7CAFF86
:10708C0000BF03B05DF804FB82B001900091019B3E
:10709C00009AC3F8082500BF02B0704782B0019077
:1070AC000091019B009AC3F80C2500BF02B07047F9
:1070BC0000B583B00190019B002B0AD04FF47A707D
:1070CC00FFF7EAFE019B013B0193019B002BF5D1DD
:1070DC0000E000BF03B05DF804FB08B500F062F8F7
:1070EC0000F0E2F800F088F800F0B2F800BF08BD3C
:1070FC0000B587B00346049103928DF81730039BBB
:10710C00DBB29DF8171000220092049A0648FFF794
:10711C00E7FE0346002B01D0002300E001231846B4
:10712C0007B05DF804FB00BFD82A002000B585B07D
:10713C000346029101928DF80F30019BDBB29DF852
:10714C000F10029A0648FFF7EBFE0346002B01D006
:10715C00002300E00123184605B05DF804FB00BFD6
:10716C00D82A002000B583B001900198FFF7A0FF4A
:10717C0000BF03B05DF804FB00B583B003460A46BC
:10718C008DF8073013468DF806309DF807309DF8C2
:10719C00062011461846FFF765FF00BF03B05DF8E7
:1071AC0004FB000000B587B06B4600221A605A60E1
:1071BC009A60DA6005230093042301934FF0CD63AA
:1071CC00029302238DF80C306946002300220948F3
:1071DC0008F0BAFE0590059B0493049B002B02D08B
:1071EC0004980CF045FC0348FFF76EFE00BF07B097
:1071FC005DF804FBD82A002010B586B0124B6C4603
:10720C000FCB84E80F0019238DF801301C238DF867
:10721C0002301D238DF8003001238DF80C304FF017
:10722C0080530293694600230022084808F040FD71
:10723C000590059B0493049B002B02D004980CF042
:10724C0017FC00BF06B010BD18850300E82A00200B
:10725C0010B586B0124B6C460FCB84E80F0005239B
:10726C008DF801300C238DF8023002238DF800309C
:10727C0000238DF80C304FF0004302936946002335
:10728C000022084808F014FD0590059B0493049B0C
:10729C00002B02D004980CF0EBFB00BF06B010BD25
:1072AC0018850300F82A002000B583B009F0C4FA51
:1072BC000190019B0093009B002B02D000980CF0D6
:1072CC00D7FB03211420FFF790FE00210D20FFF7C0
:1072DC008CFE0420FFF778FE1F20FFF775FE1320AD
:1072EC00FFF772FE1E20FFF76FFE1720FFF76CFEF4
:1072FC001220FFF769FE1820FFF766FE012104201B
:10730C00FFF73AFF01211F20FFF736FF0121132061
:10731C00FFF732FF00211E20FFF72EFF0121122064
:10732C00FFF72AFF00211720FFF726FF0021182066
:10733C00FFF722FF00BF03B05DF804FB00B585B07A
:10734C000190019B002B0AD0074B43F001030393E0
:10735C00019B9B010293039B0298984700E000BF9E
:10736C0005B05DF804FB00BF4085030000B583B099
:10737C000190019B002B0AD04FF47A70FFF7DEFFCF
:10738C00019B013B0193019B002BF5D100E000BF59
:10739C0003B05DF804FB000000B583B001900199C7
:1073AC00044803F0F9FD0120FFF7E0FF00BF03B034
:1073BC005DF804FBC82C002000B585B00390029149
:1073CC001346ADF80630039B99B2BDF80630029A0D
:1073DC00084803F03FFE0120FFF7C8FF039905485A
:1073EC0003F0C4FE0120FFF7C1FF00BF05B05DF83C
:1073FC0004FB00BFC82C002076DF704700BF184686
:10740C007ADF704700BF18467CDF704700BF184614
:10741C007FDF704700BF18468FDF704700BF1846EC
:10742C00B1DF704700BF184633DF704700BF184606
:10743C0008B51C4A1C4BD31ADB081B0443F003038E
:10744C001A4918460FF04CF942F210710120FFF75F
:10745C0097FB034683F00103DBB2002B0AD0114AE1
:10746C00114BD31ADB081B0443F0030310491846D5
:10747C000FF036F942F210711420FFF781FB03462E
:10748C0083F00103DBB2002B0AD0064A064BD31A59
:10749C00DB081B0443F00303054918460FF020F9E1
:1074AC0000BF08BD3C830300FC820300548503002D
:1074BC006C85030000B583B0A84B00221A7400F051
:1074CC00A1FD00F063F900F0B5FD00F0E9FC00F05F
:1074DC00A5F900F037FD00F021FB00F057FD00F09E
:1074EC006DFBFFF7FAFD00F02FFE00F0B5FDFFF786
:1074FC00F7FA9A4B01221A70FFF79AFF4FF47A7041
:10750C00FFF730FE0FF044F94FF4FA70FFF72AFE44
:10751C00FFF768FB0346002B01D0FFF789FF90486B
:10752C00FFF70CFB0346002BECD08D4B1B78012B8B
:10753C00E8D18C4A8C4BD31ADB081B0443F00303B1
:10754C008A4918460FF0CCF80FF022F9854A864B81
:10755C00D31ADB081B0443F00300814BD3ED057AEF
:10756C00F5EEC07AF1EE10FA0BD57D4BD3ED057A22
:10757C00BFEE007AF4EEC77AF1EE10FA01DD7C4A28
:10758C0000E07C4A764BD3ED057AFDEEE77A17EEF8
:10759C00901A734BD3ED057AF5EEC07AF1EE10FA32
:1075AC000CDD6F4B93ED057A6D4BD3ED057AFDEE4B
:1075BC00E77AF8EEE77A77EE677A0BE0684BD3ED73
:1075CC00057AFDEEE77AB8EEE77A654BD3ED057AEE
:1075DC0077EE677A9FED687A67EE877AFDEEE77A49
:1075EC0017EE903A00930B4664490FF0ACF80FF08D
:1075FC00CFF85C4A5C4BD31ADB081B0443F0030046
:10760C00574BD3ED067AF5EEC07AF1EE10FA0BD5A6
:10761C00534BD3ED067ABFEE007AF4EEC77AF1EE57
:10762C0010FA01DD524A00E0524A4D4BD3ED067A76
:10763C00FDEEE77A17EE901A494BD3ED067AF5EE8C
:10764C00C07AF1EE10FA0CDD454B93ED067A444B03
:10765C00D3ED067AFDEEE77AF8EEE77A77EE677A05
:10766C000BE03F4BD3ED067AFDEEE77AB8EEE77A06
:10767C003B4BD3ED067A77EE677A9FED3F7A67EE58
:10768C00877AFDEEE77A17EE903A00930B463C4969
:10769C000FF059F80FF07CF8324A334BD31ADB0851
:1076AC001B0443F003002E4BD3ED077AF5EEC07AA2
:1076BC00F1EE10FA0BD52A4BD3ED077ABFEE007A18
:1076CC00F4EEC77AF1EE10FA01DD294A00E0294AFE
:1076DC00234BD3ED077AFDEEE77A17EE901A204B89
:1076EC00D3ED077AF5EEC07AF1EE10FA0CDD1C4BF7
:1076FC0093ED077A1A4BD3ED077AFDEEE77AF8EEA5
:10770C00E77A77EE677A0BE0154BD3ED077AFDEE4F
:10771C00E77AB8EEE77A124BD3ED077A77EE677A11
:10772C009FED157A67EE877AFDEEE77A17EE903AC1
:10773C0000930B4613490FF006F80FF029F8094A8D
:10774C00094BD31ADB081B0443F003030E491846FC
:10775C000EF0C6FF0FF01CF800BFD3E6D02C0020B3
:10776C00183200203C830300FC8203008C8503004C
:10777C009C850300A08503000000C842A48503007B
:10778C00B4850300C4850300D485030000B587B01D
:10779C000CF098FC0590059B0493049B002B02D0E5
:1077AC0004980CF065F9174A012117480CF0C8FC35
:1077BC000590059B0393039B002B02D003980CF0C0
:1077CC0057F9124A012112480CF0BAFC0590059B9E
:1077DC000293029B002B02D002980CF049F90D4A3F
:1077EC0001210D480CF0ACFC0590059B0193019B0D
:1077FC00002B02D001980CF03BF900BF07B05DF8EC
:10780C0004FB00BFC9800200488503009180020080
:10781C004C850300A58002005085030000B587B09D
:10782C009DF80030012262F303038DF800309DF8BF
:10783C000030012262F307138DF800306B460A22E8
:10784C0018491846FFF7E0FD0590059B0493049B2F
:10785C00002B02D004980CF00BF901AB082200218C
:10786C00184610F0BDFC1023ADF804303C23ADF8E5
:10787C0006300023ADF808304FF4C873ADF80A3069
:10788C0001AB1846FFF7BCFD0590059B0393039BCA
:10789C00002B02D003980CF0EBF800BF07B05DF89A
:1078AC0004FB00BFFC85030000B583B00190019878
:1078BC000CF0DEF800BF03B05DF804FB00B587B038
:1078CC006B4610220021184610F08AFC002300930E
:1078DC0001238DF804300023029301238DF80C3022
:1078EC0001238DF80D3001238DF80E306B461946AF
:1078FC000748FEF76DFD0590059B0493049B002B38
:10790C0002D004980CF0B4F800BF07B05DF804FB8B
:10791C00E82C002000B587B06B46102200211846D9
:10792C0010F05EFC0023009301238DF8043000233B
:10793C00029301238DF80C3001238DF80D300123B7
:10794C008DF80E306B4619460748FEF725FE05905C
:10795C00059B0493049B002B02D004980CF088F830
:10796C0000BF07B05DF804FB602D002000B587B0A8
:10797C006B4610220021184610F032FC00230093B5
:10798C0001238DF804300023029301238DF80C3071
:10799C0001238DF80D3001238DF80E306B461946FE
:1079AC00074810F0E5F80590059B0493049B002B09
:1079BC0002D004980CF05CF800BF07B05DF804FB33
:1079CC00882D002000B587B06B4610220021184688
:1079DC0010F006FC0023009301238DF804300023E3
:1079EC00029301238DF80C3001238DF80D30012307
:1079FC008DF80E306B4619460748FEF7B1FE059020
:107A0C00059B0493049B002B02D004980CF030F8D7
:107A1C0000BF07B05DF804FB382D002000B587B01F
:107A2C006B4610220021184610F0DAFB002300935D
:107A3C0001238DF804300023029301238DF80C30C0
:107A4C0001238DF80D3001238DF80E306B4619464D
:107A5C000748FEF769FF0590059B0493049B002BD8
:107A6C0002D004980CF004F800BF07B05DF804FBDA
:107A7C00102D002000B587B06B461022002118464F
:107A8C0010F0AEFB0023009301238DF8043000238B
:107A9C00029364238DF80C3001238DF80D300123F3
:107AAC008DF80E3001238DF80F306B4619460848BF
:107ABC0007F01AFC0590059B0493049B002B02D045
:107ACC0004980BF0D5FF00BF07B05DF804FB00BFB6
:107ADC00B02D002000B593B06B4640220021184613
:107AEC0010F07EFB6B460C49184606F014FD012382
:107AFC008DF83C306B46184607F05CFE1190119BDC
:107B0C001093109B002B02D010980BF0B1FF00BF0C
:107B1C0013B05DF804FB00BF0886030000B585B008
:107B2C0000230193104B019301AB19460F4807F04A
:107B3C00EBF90390039B0293029B002B02D002985B
:107B4C000BF096FFFFF7BAFEFFF768FFFFF73AFF5F
:107B5C00FFF7E0FEFFF70AFFFFF78CFFFFF7BAFF16
:107B6C0000BF05B05DF804FBB5780200D82D0020ED
:107B7C0000B585B00190019B1B78002B0ED1094BF1
:107B8C001B883B211846FFF737FC0390039B02939D
:107B9C00029B002B02D002980BF06AFF00BF05B0CD
:107BAC005DF804FB682B002000B583B001900198B0
:107BBC000BF05EFF00BF03B05DF804FB00B58BB0AB
:107BCC0001AB1C220021184610F00AFB0023019384
:107BDC004FF4A03302934FF4F023039303238DF857
:107BEC0010300023ADF8123000238DF814300A4BFE
:107BFC0006930A4B079301AB184606F0C5F809909B
:107C0C00099B0893089B002B02D008980BF030FFBF
:107C1C0000BF0BB05DF804FB7D7B0200B57B02005E
:107C2C0000B585B0002003F017FF0390039B02936F
:107C3C00029B002B02D002980BF01AFF04F009F8FB
:107C4C000390039B0193019B002B02D001980BF036
:107C5C000FFFFFF7E9FB0390039B0093009B002BA6
:107C6C0002D000980BF004FF00BF05B05DF804FBD8
:107C7C0000B585B003468DF807309DF80730002B12
:107C8C000ED0032B0FD1022003F0E6FE0390039BD2
:107C9C000293029B002B08D002980BF0E9FE04E043
:107CAC00FFF7BEFF02E000BF00E000BF00BF05B061
:107CBC005DF804FB00B58DB001900091019B1B8811
:107CCC00562B00F0C080562B00F3CD80522B00F0C9
:107CDC009980522B00F3C780212B2DDC102BC0F286
:107CEC00C280103B112B00F2BE8001A252F823F08F
:107CFC004B7D0200A17D0200737E0200EF7D02002D
:107D0C00737E0200737E0200737E0200737E02009B
:107D1C00737E0200737E0200737E0200737E02008B
:107D2C00737E0200737E0200737E0200737E02007B
:107D3C00737E0200C17D02003B2B74D093E0524A4B
:107D4C00524BD31ADB081B0443F00303504918466B
:107D5C000EF0C6FC072003F07FFE0B900B9B0593E7
:107D6C00059B002B02D005980BF082FE019B9A8894
:107D7C00484B1A80474B1B881946474807F0E6F8D2
:107D8C000B900B9B0493049B002B6ED004980BF070
:107D9C006FFE6AE03C4A3D4BD31ADB081B0443F0F0
:107DAC0003033E4918460EF09BFC3A4B4FF6FF720C
:107DBC001A8065E000238DF80C3000238DF80D300F
:107DCC00019B9B8803AA11461846FFF725FB0B90D5
:107DDC000B9B0793079B002B49D007980BF048FE91
:107DEC0045E02C4B1888002300228521FFF710FB5F
:107DFC000B900B9B0693069B002B3AD006980BF02E
:107E0C0037FE36E0234B1888002300220021FFF7B1
:107E1C0007FB0B900B9B0993099B002B2BD009980C
:107E2C000BF026FE27E0019B9B8813211846FFF7D9
:107E3C00E3FA0B900B9B0893089B002B1DD0089822
:107E4C000BF016FE19E0019B9B8813211846FFF7D7
:107E5C00D3FA0B900B9B0A930A9B002B0FD00A981A
:107E6C000BF006FE0BE000BF0AE000BF08E000BF0D
:107E7C0006E000BF04E000BF02E000BF00E000BF6E
:107E8C0000BF0DB05DF804FB3C830300FC820300D3
:107E9C0014860300682B0020D82D002020860300B8
:107EAC0000B587B00FF09CFB0590059B0493049BD9
:107EBC00002B02D004980BF0DBFD0023019301ABE7
:107ECC00194601200FF038FC0590059B0393039B8A
:107EDC00002B02D003980BF0CBFD01AB18460FF032
:107EEC0049FD0590059B0293029B002B02D0029842
:107EFC000BF0BEFD00BF07B05DF804FB00B583B00E
:107F0C0001900091009B1B8840F6772293420ED182
:107F1C00094A0A4BD31ADB081B0443F00300009BED
:107F2C005B881A46009B9B8805490EF0F8FB00BF46
:107F3C0003B05DF804FB00BF3C830300FC8203002C
:107F4C003086030000B585B00E490F4806F0DCFE04
:107F5C000390039B0293029B002B02D002980BF020
:107F6C0087FDF721084806F0FAFE0390039B019366
:107F7C00019B002B02D001980BF07AFD00BF05B0DD
:107F8C005DF804FB097F0200C42D002000B5AFB0E2
:107F9C0001ABAC220021184610F022F902238DF817
:107FAC00043000238DF8063005238DF807300223AA
:107FBC00ADF85030104B159301238DF880304023D1
:107FCC00239344F2506324930C4B2A9301AB194630
:107FDC000B4805F077FB2D902D9B2C932C9B002BA5
:107FEC0002D02C980BF044FD0121054805F05DFBF7
:107FFC0000BF2FB05DF804FB6C2B00207D7C0200D1
:10800C00E42D002000B583B04FF4804108480EF0F9
:10801C008BF80190019B0093009B002B02D00098E1
:10802C000BF026FD0EF012F800BF03B05DF804FB58
:10803C00A942030000B583B00DF0B4FC0190019B84
:10804C000093009B002B02D000980BF011FD00BF99
:10805C0003B05DF804FB000000B583B003210848B1
:10806C0005F008FC0190019B0093009B002B02D0B3
:10807C0000980BF0FDFC00BF03B05DF804FB00BFE3
:10808C00E42D002000B583B0019000F01DF800BF76
:10809C0003B05DF804FB000030B482B00190064BD5
:1080AC00D3E90023541C43F10005034BC3E90045FD
:1080BC0000BF02B030BC7047C02C002082B00190D1
:1080CC0000BF02B07047000000B583B000238DF8EC
:1080DC0007300DF10703184602F084FE9DF80730B7
:1080EC009AB2164B1B8813449AB2144B1A80144B39
:1080FC001B780133DAB2124B1A70114B1B78092B17
:10810C0017D90E4B1B881A460D4B1B7892FBF3F3B9
:10811C00DBB28DF807300A4B00221A70074B002295
:10812C001A809DF807304FF6FE721946054807F085
:10813C003BF900BF03B05DF804FB00BF48320020E0
:10814C004A320020B02D002000B585B0194B00221A
:10815C004FF4004118460CF019F80390039B02935E
:10816C00029B002B02D002980BF082FC124B0022D7
:10817C004FF4A02118460CF009F80390039B0193CF
:10818C00019B002B02D001980BF072FC0B4B0022D0
:10819C00102118460BF0FAFF0390039B0093009BF1
:1081AC00002B02D000980BF063FC00BF05B05DF80B
:1081BC0004FB00BF082B0020282B0020482B00209C
:1081CC0000B585B001900091019BD3F8A030002B35
:1081DC0002D06FF0020318E0019B009AC3F8A020B4
:1081EC00019B0022C3F8A420009B5B680198984770
:1081FC000390039B002B07D0019B039AC3F8A42088
:10820C00019B0022C3F8A020039B184605B05DF823
:10821C0004FB00B585B0039002911346ADF806300F
:10822C00039BD3F8A030002B0ED0039BD3F8A030C7
:10823C009B68002B08D0039BD3F8A0309B68BDF83B
:10824C00062002990398984700BF05B05DF804FB1F
:10825C0000B589B0039001930B468DF80B30134693
:10826C008DF80A30039B05939DF80B30812B0CD0B5
:10827C00812B56DC002B3AD0802B52D1059B0C3332
:10828C00019918460FF02EFF4CE09DF80A305B0860
:10829C008DF81F309DF81F30402B02D940238DF8EC
:1082AC001F30002306931CE0069B5B001A46019BC3
:1082BC0013441978059A069B0C335B0013440A4649
:1082CC005A71069B5B000133019A13441978059A85
:1082DC00069B0C335B0013440A469A71069B0133D0
:1082EC0006939DF81F30069A9A42DDDB1AE0059B37
:1082FC005B680E4A0E49184602F09EFC03461A466D
:10830C00059B9A72059B5B680A4A0B49184602F05A
:10831C0093FC03461A46059BDA72059B01225A729E
:10832C0000E000BF00BF09B05DF804FB60860300ED
:10833C0068860300748603007C86030000B58DB04C
:10834C000390029100931346ADF80630039B0793FC
:10835C000023ADF82E3000230A9300230693BDF8BA
:10836C000630002B40F0BC80079BD3F8F4315A1C2C
:10837C00079BC3F8F421BAE00A9B01330A93BDF8BA
:10838C002E30029A13441B788DF8173000238DF889
:10839C0027300023089315E0079A089B0C335B00E9
:1083AC0013445B799DF817209A4208D1079A089BD1
:1083BC000C335B0013449B798DF8273005E0089B48
:1083CC0001330893089B3F2BE6DD9DF82730002BEB
:1083DC0007D1079BD3F8F8315A1C079BC3F8F82137
:1083EC0085E09DF81730F12B08D1BDF82E30029A9C
:1083FC0013440693069B9B78842B5EE09DF8173004
:10840C00FC2B5AD1079BD3F8BC30002B55D0BDF8B0
:10841C002E30029A13440493364B02221A60049BAA
:10842C005A78344B1A71049B9B7803F00203002B8F
:10843C0014BF01230023DAB22E4B1A72049B9B78D3
:10844C0003F00103002B14BF01230023DAB2294BE4
:10845C005A72049B9B7803F00403002B14BF012376
:10846C000023DAB2234B9A72049B9B7803F0080327
:10847C00002B14BF01230023DAB21E4BDA72049BCB
:10848C00B3F803309AB21B4B9A81049BD3F8053096
:10849C00184A1361049BD3F80930164A5361049BA4
:1084AC00D3F80D30134A9361079BD3F8BC30079A6D
:1084BC00D2F8C0200F4910469847BDF82E30029ACA
:1084CC0013449DF8272092B219460798FFF7A1FE96
:1084DC009DF827309AB2BDF82E301344ADF82E30EB
:1084EC00BDF82E20BDF806309A42FFF445AF0DB012
:1084FC005DF804FB4834002082B001900091019B90
:10850C00009AC3F8A420019B0022C3F8A0200023EA
:10851C00184602B07047000000B587B0019000917A
:10852C000023049300230393019B1B681B69019A8E
:10853C00126810469847039000991F48FFF740FEB9
:10854C000490049B002B01D0049B30E0039B05930B
:10855C000CE0019B5B68184602F008FC019B1B6851
:10856C001B69019A1268104698470590019BD3F835
:10857C00A030002B0AD0009B1B68002BE9D0059A79
:10858C00039BD21A009B1B689A42E2D3019BD3F83F
:10859C00A030002B08D0019B0022C3F8A020019B27
:1085AC006FF00502C3F8A420019BD3F8A430184641
:1085BC0007B05DF804FB00BF4C32002084B0019082
:1085CC000B468DF803300023039313E0019A039BB1
:1085DC000C335B0013445B799DF803209A4206D15F
:1085EC00019A039B0C335B0013449B7906E0039BBD
:1085FC0001330393039B3F2BE8DD0023184604B0A3
:10860C00704700002DE9F00386B0039002911346E9
:10861C00ADF806301A4B1B68039A9A4204D2194BD8
:10862C001B680133174A1360154A039B1360154BE3
:10863C001B680022984691464FF000024FF0000351
:10864C0043460022CDE90423BDF80620029B1344C7
:10865C00642202FB03F31A46039B134400221C46BC
:10866C001546DDE90423161943EB0507CDE904672C
:10867C00DDE904231046194606B0BDE8F003704747
:10868C00643400206834002000B595B0039002914A
:10869C0000931346ADF806300023ADF84E3000239E
:1086AC00129390E0BDF84E30029A13441B788DF86B
:1086BC0047309DF8473019460398FFF77FFF034674
:1086CC008DF846309DF84630002B07D1039BD3F82C
:1086DC00F8315A1C039BC3F8F8217BE09DF8473016
:1086EC00FB2B0AD1BDF84E30029A13440D930D9B0F
:1086FC00D3F801305B4212935DE09DF84730FA2BC2
:10870C000CD1BDF84E30029A13440E930E9BD3F845
:10871C0001301A46129B134412934CE09DF84730DB
:10872C00EF2B0BD1BDF84E30029A13449DF8462026
:10873C0092B219460398FFF76CFD3CE0BDF84E3041
:10874C00029A13441093109B02331B789B019BB22B
:10875C0003F47C539AB2109B03331B789BB21344E3
:10876C00ADF83E30129BBDF83E2019460098FFF73D
:10877C0049FF02460B46CDE904239DF847308DF89E
:10878C0019309DF8462004AB0A33109918460FF0A7
:10879C00F1FC9DF846308DF81830039BD3F8C430AB
:1087AC00002B08D0039BD3F8C430039AD2F8C8200E
:1087BC0004A9104698479DF846309AB2BDF84E3041
:1087CC001344ADF84E30BDF84E20BDF806309A4239
:1087DC00FFF468AF15B05DF804FB00B587B00390EB
:1087EC00029100931346ADF80630039B0593BDF838
:1087FC000620009B02990598FFF746FF00BF07B0C3
:10880C005DF804FB00B587B003900291009313460A
:10881C00ADF80630039B0593BDF80620009B02992A
:10882C000598FFF731FF00BF07B05DF804FB30B5CA
:10883C0091B00390029100931346ADF80630039B60
:10884C000E930023ADF83E302A238DF837309DF877
:10885C00373019460E98FFF7B1FE03468DF83630C7
:10886C002EE0009B00221C461546CDE904459DF8E0
:10887C0037308DF81930BDF83E30029AD1189DF87A
:10888C00362004AB0A3318460FF074FC9DF83630D2
:10889C008DF818300E9BD3F8C430002B08D00E9BEB
:1088AC00D3F8C4300E9AD2F8C82004A910469847C1
:1088BC009DF836309AB2BDF83E301344ADF83E30D8
:1088CC00BDF83E20BDF806309A42CAD300BF00BFA7
:1088DC0011B030BD84B0039001930B468DF80B3072
:1088EC0013468DF80A3000BF04B0704700B587B04E
:1088FC000390029100931346ADF80630039B059349
:10890C00BDF80630012B07D0059BD3F8F0315A1C6B
:10891C00059BC3F8F02121E0029B1B78012B14D19D
:10892C00059B01221A720F4B00221A60059BD3F88B
:10893C00BC30002B11D0059BD3F8BC30059AD2F873
:10894C00C02008491046984707E0059BD3F8F03142
:10895C005A1C059BC3F8F02100E000BF07B05DF87E
:10896C0004FB00BF4834002000B585B00390029191
:10897C001346ADF80630039B5868039BD97ABDF8B3
:10898C000630029A02F0BDF90346184605B05DF8B0
:10899C0004FB00B585B0019000230393019B0022DA
:1089AC0083F8AC20019B042283F8AD2002AB022299
:1089BC00002118460FF014FCF9238DF8083002AB97
:1089CC00022219460198FFF7CFFF0390039B18462C
:1089DC0005B05DF804FB000000B589B0039002916E
:1089EC001346ADF80630029B0793079B1B78F82BB8
:1089FC0061D1039BD3F8A8300693069B002B40D083
:108A0C00039B93F8AC20039B93F8AD309A4238D279
:108A1C00039B93F8AC301B01069A13440593079BF8
:108A2C005A78059B1A70079B9A78059B5A70079B7E
:108A3C00DA78059B9A70079B5A68059B5A60079BCE
:108A4C009A68059B9A60079B9B899AB2059B9A81B1
:108A5C00079B9A7B059B9A73079BDA7B059BDA73C2
:108A6C00059B5B68174A934203D1039B052283F84D
:108A7C00AD20039B93F8AC300133DAB2039B83F83F
:108A8C00AC20039BD3F8A830002B07D0039B93F8A2
:108A9C00AC20039B93F8AD309A420ED3039BD3F8D2
:108AAC00A830039A92F8AC2083F850200021039848
:108ABC00FFF722FD01E000BF00E000BF09B05DF848
:108ACC0004FB00BF7FA6980000B58BB0019000237B
:108ADC008DF82730019BD3F8A8300893089B1B789E
:108AEC00002B05D09DF8273043F002038DF827307A
:108AFC00089B5B78002B05D09DF8273043F00103D1
:108B0C008DF82730089B9B78002B05D09DF82730DB
:108B1C0043F004038DF82730089BDB78002B05D03D
:108B2C009DF8273043F008038DF8273002AB112253
:108B3C00002118460FF054FBFD238DF80830019BE3
:108B4C0093F8AC308DF809309DF827308DF80A3049
:108B5C00089B9B88ADF80B30089B9B68CDF80D30BB
:108B6C00089BDB68CDF81130089B1B69CDF81530DC
:108B7C0002AB112219460198FFF7F6FE07900799F0
:108B8C000198FFF7B9FC079B18460BB05DF804FB86
:108B9C0000B585B001900B468DF803300D4B039357
:108BAC000D4B01221A600C4A9DF803301371039B84
:108BBC00D3F8BC30002B08D0039BD3F8BC30039AFD
:108BCC00D2F8C02004491046984700BF05B05DF8A4
:108BDC0004FB00BF4C3200204834002000B58BB0A1
:108BEC00059004910392514B0893059B002B02D1E5
:108BFC006FF0010396E04FF4FE7200214B480FF02A
:108C0C00EFFA089B00221A72089BFF22DA72089B6B
:108C1C00059A1A60089B049AC3F8BC20089B039A17
:108C2C00C3F8C020089B0022C3F8C420089B002274
:108C3C00C3F8C820089B1B68184601F04DFF02467C
:108C4C00089B5A60089B5B68002B02D14FF0FF33E6
:108C5C0068E0089B5B68354A3549184601F09CFF73
:108C6C00089B5868314B334A022101F0C6FF089B20
:108C7C0058682E4B0093304B304A022101F09BFF79
:108C8C00089B5868294B00932D4B2E4A022101F06A
:108C9C0092FF089B5868254B00932B4B2B4A0221C3
:108CAC0001F089FF089B5868204B0093284B294AF8
:108CBC00022101F080FF089B58681C4B264A0121B9
:108CCC0001F09BFF089B5868184B0093234B244AD8
:108CDC00012101F070FF089B1B681B69089A126840
:108CEC00104698470790079B09930CE0089B5B681C
:108CFC00184602F03BF8089B1B681B69089A12681F
:108D0C00104698470990099A079BD31A154A934223
:108D1C0007D8089B1B7ADBB283F00103DBB2002B74
:108D2C00E4D1002318460BB05DF804FB4C32002054
:108D3C009D8B02005D820200498302007486030051
:108D4C00E7870200888603001188020094860300DE
:108D5C003B880200A0860300E1880200F98802002B
:108D6C00608603003F0D030000B583B0054B0193F3
:108D7C00019B5B68184601F0F9FF00BF03B05DF87A
:108D8C0004FB00BF4C32002084B001900091074BD3
:108D9C000393039B019AC3F8C420039B009AC3F866
:108DAC00C8200023184604B0704700BF4C32002086
:108DBC0000B585B001900B4B0393039BA833102295
:108DCC00002118460FF00CFA039B019AC3F8A82057
:108DDC0005490398FFF7A0FB0346184605B05DF85C
:108DEC0004FB00BF4C320020AC86030000B585B0FC
:108DFC00034600918DF807300D4B0393039BA8336A
:108E0C001022002118460FF0EBF9039B9DF8072068
:108E1C0083F8AC20039B009AC3F8A820054903985B
:108E2C00FFF77AFB0346184605B05DF804FB00BF5C
:108E3C004C320020B886030000B585B0019000913B
:108E4C0000230393009B5A7A019B1A70009BD3E971
:108E5C0000230199C1E90223019B1B782A2B0BD01B
:108E6C00009BDA7A019B5A70009B1B7B03F0030377
:108E7C00DAB2019B9A7005E0019B00225A70019BAB
:108E8C0000229A70019B1B78013B2A2B00F23E8139
:108E9C0001A252F823F000BF5D8F02008D8F0200FB
:108EAC00B18F0200698F0200C98F0200758F02001A
:108EBC00998F0200D58F0200E18F0200ED8F020026
:108ECC00F98F020005900200119002001D90020023
:108EDC00BD8F0200359002004D90020059900200A7
:108EEC0065900200518F0200818F0200A58F020055
:108EFC002990020041900200719002007D900200C6
:108F0C00899002009590020019910200A190020034
:108F1C00AD900200B9900200C5900200D190020001
:108F2C00DD900200199102001991020019910200C2
:108F3C0019910200E9900200F590020001910200E3
:108F4C000D9102000099019800F0EAF80390E1E01D
:108F5C000099019800F012F90390DBE00099019858
:108F6C0000F04AF90390D5E00099019800F082F9DD
:108F7C000390CFE00099019800F0BAF90390C9E092
:108F8C000099019800F0EAF90390C3E00099019868
:108F9C0000F022FA0390BDE00099019800F08EFADF
:108FAC000390B7E00099019800F0B6FA0390B1E095
:108FBC000099019800F0EEFA0390ABE0009901984B
:108FCC0000F05AFB0390A5E00099019800F0B6FB65
:108FDC0003909FE00099019800F000FC039099E049
:108FEC000099019800F05CFC039093E000990198C3
:108FFC0000F072FC03908DE00099019800F088FC61
:10900C00039087E00099019800F09EFC039081E0AA
:10901C000099019800F0B4FC03907BE00099019852
:10902C0000F0CAFC039075E00099019800F0E0FC98
:10903C0003906FE00099019800F0E5FC039069E063
:10904C000099019800F0F0FC039063E000990198FE
:10905C0000F004FD03905DE00099019800F010FD14
:10906C00039057E00099019800F015FD039051E032
:10907C000099019800F021FD03904BE000990198B4
:10908C0000F02DFD039045E00099019800F039FDAA
:10909C0003903FE00099019800F045FD039039E002
:1090AC000099019800F06DFD039033E00099019850
:1090BC0000F072FD03902DE00099019800F07EFD08
:1090CC00039027E00099019800F08AFD039021E0BD
:1090DC000099019800F096FD03901BE0009901980F
:1090EC0000F0A2FD039015E00099019800F0FEFD40
:1090FC0003900FE00099019800F048FE039009E0FE
:10910C000099019800F0C6FE039003E04FF0FF3386
:10911C00039300BF039B184605B05DF804FB00BF2A
:10912C0000B583B001900091009B0E33184600F0FF
:10913C00F7FE03461A46019B9A82009B1033184691
:10914C0000F0EEFE03461A46019BDA82009B1233B6
:10915C00184600F0E5FE03461A46019B1A83009B55
:10916C001633184600F0EEFE03461A46019BDA61F0
:10917C000023184603B05DF804FB000000B583B073
:10918C0001900091009B0E33184600F0C9FE034677
:10919C0007EE903AF8EEE77A9FED167A67EE877A4B
:1091AC00019BC3ED057A009B1033184600F0B8FE06
:1091BC00034607EE903AF8EEE77A9FED0E7A67EEEB
:1091CC00877A019BC3ED067A009B1233184600F098
:1091DC00A7FE034607EE903AF8EEE77A9FED057A84
:1091EC0067EE877A019BC3ED077A0023184603B01C
:1091FC005DF804FB0000803B00B583B0019000914A
:10920C00009B0E33184600F08BFE034607EE903A97
:10921C00F8EEE77A9FED167A67EE877A019BC3ED3D
:10922C00057A009B1033184600F07AFE034607EED1
:10923C00903AF8EEE77A9FED0E7A67EE877A019B0B
:10924C00C3ED067A009B1233184600F069FE034604
:10925C0007EE903AF8EEE77A9FED057A67EE877A9B
:10926C00019BC3ED077A0023184603B05DF804FB9D
:10927C000000803B00B583B001900091009B0E3341
:10928C00184600F04DFE034607EE903AF8EEE77AEA
:10929C009FED167A67EE877A019BC3ED057A009BEA
:1092AC001033184600F03CFE034607EE903AF8EEF9
:1092BC00E77A9FED0E7A67EE877A019BC3ED067A0B
:1092CC00009B1233184600F02BFE034607EE903A33
:1092DC00F8EEE77A9FED057A67EE877A019BC3ED8E
:1092EC00077A0023184603B05DF804FB0000803BAE
:1092FC0000B583B001900091009B0E33184600F02E
:10930C000FFE03461A46019B9A82009B10331846A7
:10931C0000F006FE03461A46019BDA82009B1233CC
:10932C00184600F0FDFD03461A46019B1A83009B6C
:10933C001433184600F0F4FD03461A46019B5A8379
:10934C00009B1633184600F0FDFD03461A46019BA0
:10935C00DA610023184603B05DF804FB00B583B056
:10936C0001900091009B0E33184600F0D9FD034686
:10937C0007EE903AF8EEE77A9FED167A67EE877A69
:10938C00019BC3ED057A009B1033184600F0C8FD15
:10939C00034607EE903AF8EEE77A9FED0E7A67EE09
:1093AC00877A019BC3ED067A009B1233184600F0B6
:1093BC00B7FD034607EE903AF8EEE77A9FED057A93
:1093CC0067EE877A019BC3ED077A0023184603B03A
:1093DC005DF804FB0000003B00B583B001900091E8
:1093EC00009B0E33184600F09BFD034607EE903AA7
:1093FC00F8EEE77A9FED307A67EE877A019BC3ED42
:10940C00057A009B1033184600F08AFD034607EEE0
:10941C00903AF8EEE77A9FED287A67EE877A019B0F
:10942C00C3ED067A009B1233184600F079FD034613
:10943C0007EE903AF8EEE77A9FED1F7A67EE877A9F
:10944C00019BC3ED077A009B1433184600F068FDAE
:10945C00034607EE903AF8EEE77A9FED177A67EE3F
:10946C00877A019BC3ED087A009B1633184600F0EF
:10947C0057FD034607EE903AF8EEE77A9FED0E7A29
:10948C0067EE877A019BC3ED097A009B1833184667
:10949C0000F046FD034607EE903AF8EEE77A9FEDB2
:1094AC00067A67EE877A019BC3ED0A7A0023184689
:1094BC0003B05DF804FB00BF0000003B00B583B0B7
:1094CC0001900091009B0E33184600F029FD0346D5
:1094DC001A46019B9A82009B1033184600F020FD1F
:1094EC0003461A46019BDA82009B1233184600F0A1
:1094FC0017FD03461A46019B1A83009B1633184628
:10950C0000F020FD03461A46019BDA610023184641
:10951C0003B05DF804FB000000B583B0019000912E
:10952C00009B0E33184600F0FBFC034607EE903A06
:10953C00F8EEE77A9FED167A67EE877A019BC3ED1A
:10954C00057A009B1033184600F0EAFC034607EE40
:10955C00903AF8EEE77A9FED0E7A67EE877A019BE8
:10956C00C3ED067A009B1233184600F0D9FC034673
:10957C0007EE903AF8EEE77A9FED057A67EE877A78
:10958C00019BC3ED077A0023184603B05DF804FB7A
:10959C000000803D00B583B001900091009B0E331C
:1095AC00184600F0BDFC034607EE903AF8EEE77A59
:1095BC009FED307A67EE877A019BC3ED057A009BAD
:1095CC001033184600F0ACFC034607EE903AF8EE68
:1095DC00E77A9FED287A67EE877A019BC3ED067ACE
:1095EC00009B1233184600F09BFC034607EE903AA2
:1095FC00F8EEE77A9FED1F7A67EE877A019BC3ED51
:10960C00077A009B1433184600F08AFC034607EED9
:10961C00903AF8EEE77A9FED177A67EE877A019B1E
:10962C00C3ED087A009B1633184600F079FC03460C
:10963C0007EE903AF8EEE77A9FED0E7A67EE877AAE
:10964C00019BC3ED097A009B1833184600F068FCA7
:10965C00034607EE903AF8EEE77A9FED067A67EE4E
:10966C00877A019BC3ED0A7A0023184603B05DF894
:10967C0004FB00BF0000803D00B583B00190009159
:10968C00009B0E33184600F04BFC034607EE903A55
:10969C00F8EEE77A9FED277A67EE877A019BC3EDA8
:1096AC00057A009B1033184600F03AFC034607EE8F
:1096BC00903AF8EEE77A9FED1F7A67EE877A019B76
:1096CC00C3ED067A009B1233184600F029FC0346C2
:1096DC0007EE903AF8EEE77A9FED167A67EE877A06
:1096EC00019BC3ED077A009B1433184600F018FC5D
:1096FC00034607EE903AF8EEE77A9FED0E7A67EEA6
:10970C00877A019BC3ED087A009B1633184600F04C
:10971C0007FC034607EE903AF8EEE77A9FED067ADF
:10972C0067EE877A019BC3ED097A0023184603B0D4
:10973C005DF804FB000080380000803900B583B070
:10974C0001900091009B0E33184600F0E9FB034694
:10975C0007EE903AF8EEE77A9FED1F7A67EE877A7C
:10976C00019BC3ED057A009B1033184600F0D8FB23
:10977C00034607EE903AF8EEE77A9FED177A67EE1C
:10978C00877A019BC3ED067A009B1233184600F0D2
:10979C00C7FB034607EE903AF8EEE77A9FED0E7A98
:1097AC0067EE877A019BC3ED077A009B143318464A
:1097BC0000F0B6FB034607EE903AF8EEE77A9FED21
:1097CC00067A67EE877A019BC3ED087A0023184668
:1097DC0003B05DF804FB00BF0000803800B583B017
:1097EC0001900091009B0E33184600F099FB034644
:1097FC0007EE903AF8EEE77A9FED277A67EE877AD4
:10980C00019BC3ED057A009B1033184600F088FBD2
:10981C00034607EE903AF8EEE77A9FED1F7A67EE73
:10982C00877A019BC3ED067A009B1233184600F031
:10983C0077FB034607EE903AF8EEE77A9FED167A3F
:10984C0067EE877A019BC3ED077A009B14331846A9
:10985C0000F066FB034607EE903AF8EEE77A9FEDD0
:10986C000E7A67EE877A019BC3ED087A009B16335C
:10987C00184600F055FB034607EE903AF8EEE77AEF
:10988C009FED067A67EE877A019BC3ED097A002378
:10989C00184603B05DF804FB0000803800008039E6
:1098AC0000B583B001900091009B0E33184600F078
:1098BC0049FB07EE900AF8EEE77A9FED067A67EE21
:1098CC00877A019BC3ED057A0023184603B05DF837
:1098DC0004FB00BF0000803500B583B001900091FF
:1098EC00009B0E33184600F02DFB07EE900AF8EEA5
:1098FC00E77A9FED067A67EE877A019BC3ED057ACE
:10990C000023184603B05DF804FB00BF0000803B49
:10991C0000B583B001900091009B0E33184600F007
:10992C00FFFA034607EE903AF8EEE77A9FED057AD8
:10993C0067EE877A019BC3ED057A0023184603B0C6
:10994C005DF804FB0000803B00B583B001900091F2
:10995C00009B0E33184600F0E3FA034607EE903AEC
:10996C00F8EEE77A9FED057A67EE877A019BC3EDF7
:10997C00057A0023184603B05DF804FB0000803D17
:10998C0000B583B001900091009B0E33184600F097
:10999C00C7FA034607EE903AF8EEE77A9FED057AA0
:1099AC0067EE877A019BC3ED057A0023184603B056
:1099BC005DF804FB0000003C00B583B00190009101
:1099CC00009B0E33184600F0ABFA034607EE903AB4
:1099DC00F8EEE77A9FED057A67EE877A019BC3ED87
:1099EC00057A0023184603B05DF804FB0000003C28
:1099FC0082B001900091009B9A7B019B1A75002309
:109A0C00184602B0704700B583B001900091009BDE
:109A1C000E33184600F06BFA0246019B5A61002384
:109A2C00184603B05DF804FB00B583B001900091BB
:109A3C00009B0E33184600F05AFA0246019B5A61FD
:109A4C00009B1233184600F052FA03469AB2019B5F
:109A5C001A830023184603B05DF804FB00B583B0ED
:109A6C0001900091009B0E33184600F02DFA03462E
:109A7C001A46019B9A820023184603B05DF804FB3A
:109A8C0082B001900091009B9A7B019B1A75002378
:109A9C00184602B0704700B583B001900091009B4E
:109AAC000E33184600F010FA03461A46019B9A82B0
:109ABC000023184603B05DF804FB00B583B0019099
:109ACC000091009B0E33184600F0FEF903461A462F
:109ADC00019B9A820023184603B05DF804FB00B585
:109AEC0083B001900091009B0E33184600F0ECF906
:109AFC0003461A46019B9A820023184603B05DF870
:109B0C0004FB00B583B001900091009B0E33184606
:109B1C0000F0DAF903461A46019B9A820023184694
:109B2C0003B05DF804FB84B001900091009B9B7B1B
:109B3C0003F07F03DAB2019B1A75009B9B7B5BB22F
:109B4C00DBB2DB09DAB2019B5A75009BDA7B019B15
:109B5C009A75002303930DE0039B0633009A13447C
:109B6C00997A019A039B134417330A461A70039B84
:109B7C0001330393039B092BEEDD0023184604B03D
:109B8C00704782B001900091009B9A7B019B1A75E3
:109B9C000023184602B0704700B583B001900091C5
:109BAC00009B0E33184600F08FF903461A46019BB2
:109BBC009A820023184603B05DF804FB00B583B00D
:109BCC0001900091009B0E33184600F07DF903467E
:109BDC001A46019B9A820023184603B05DF804FBD9
:109BEC0000B583B001900091009B0E33184600F035
:109BFC006BF903461A46019B9A820023184603B060
:109C0C005DF804FB00B583B001900091009B0E330E
:109C1C00184600F059F903461A46019B9A82002314
:109C2C00184603B05DF804FB00B583B001900091B9
:109C3C00009B0E33184600F073F9034607EE903A7A
:109C4C00F8EEE77A9FED277A67EE877A019BC3EDF2
:109C5C00057A009B1033184600F062F9034607EEB4
:109C6C00903AF8EEE77A9FED1F7A67EE877A019BC0
:109C7C00C3ED067A009B1233184600F051F90346E7
:109C8C0007EE903AF8EEE77A9FED167A67EE877A50
:109C9C00019BC3ED077A009B1433184600F040F982
:109CAC00034607EE903AF8EEE77A9FED0E7A67EEF0
:109CBC00877A019BC3ED087A009B1633184600F097
:109CCC002FF9034607EE903AF8EEE77A9FED067A05
:109CDC0067EE877A019BC3ED097A0023184603B01F
:109CEC005DF804FB000080380000803900B583B0BB
:109CFC0001900091009B0E33184600F011F90346B9
:109D0C0007EE903AF8EEE77A9FED1F7A67EE877AC6
:109D1C00019BC3ED057A009B1033184600F000F947
:109D2C00034607EE903AF8EEE77A9FED177A67EE66
:109D3C00877A019BC3ED067A009B1233184600F01C
:109D4C00EFF8034607EE903AF8EEE77A9FED0E7ABD
:109D5C0067EE877A019BC3ED077A009B1433184694
:109D6C0000F0DEF8034607EE903AF8EEE77A9FED46
:109D7C00067A67EE877A019BC3ED087A00231846B2
:109D8C0003B05DF804FB00BF0000803800B583B061
:109D9C0001900091009B0A33184600F0C1F803466D
:109DAC0007EE903AF8EEE77A9FED387A67EE877A0D
:109DBC00019BC3ED057A009B0C33184600F0B0F8FC
:109DCC00034607EE903AF8EEE77A9FED307A67EEAD
:109DDC00877A019BC3ED067A009B0E33184600F080
:109DEC009FF8034607EE903AF8EEE77A9FED277A54
:109DFC0067EE877A019BC3ED077A009B10331846F8
:109E0C0000F08EF8034607EE903AF8EEE77A9FEDF5
:109E1C001F7A67EE877A019BC3ED087A009B123399
:109E2C00184600F07DF8034607EE903AF8EEE77A14
:109E3C009FED177A67EE877A019BC3ED097A009B39
:109E4C001433184600F06CF8034607EE903AF8EE1F
:109E5C00E77A9FED0F7A67EE877A019BC3ED0A7A5A
:109E6C00009B1633184600F05BF8034607EE903A59
:109E7C00F8EEE77A9FED067A67EE877A019BC3EDE1
:109E8C000B7A0023184603B05DF804FB0000803801
:109E9C000000803A82B001900091009B9A7B019B5C
:109EAC001A75009BDA7B019B5A750023184602B089
:109EBC00704784B00190019B1B788DF80F309DF892
:109ECC000F30184604B0704784B00190019B1B788A
:109EDC001AB2019B01331B781B021BB213431BB23A
:109EEC00ADF80E30BDF80E30184604B0704784B093
:109EFC000190019B1B781A46019B01331B781B02B6
:109F0C001A43019B02331B781B041A43019B033336
:109F1C001B781B0613430393039B184604B070472E
:109F2C0084B00190019B1B781AB2019B01331B7802
:109F3C001B021BB21343ADF80E30BDF90E301846A0
:109F4C0004B0704784B00190019B1B781A46019BAA
:109F5C0001331B781B021A43019B02331B781B0431
:109F6C001A43019B03331B781B0613430393039B78
:109F7C00184604B07047000008B540F634020021C2
:109F8C0003480EF02DF9034B01221A7000BF08BDD7
:109F9C006C340020A03C002082B00023019314E01C
:109FAC000D4A019B40F6340101FB03F313441B687B
:109FBC00002B07D1019B40F6340202FB03F3064A47
:109FCC00134406E0019B01330193019B002BE7DD59
:109FDC000023184602B070476C34002086B0039002
:109FEC00019200930B46ADF80A3000230593039BB6
:109FFC0093F8DD34042B1FD8039B93F8DD341A46F9
:10A00C0013465B0013449B0003F59C63039A1344B3
:10A01C000593039B93F8DD340133DAB2039B83F889
:10A02C00DD24059BBDF80A201A80059B019A5A6015
:10A03C00059B009A9A6000E000BF06B0704700B51F
:10A04C0087B00190002303930023059384E0019AC9
:10A05C00059B342101FB03F3134403F5A963002290
:10A06C001A60019A059B342101FB03F3134403F599
:10A07C00A4631B68B3F1FF3F6AD0019A059B34219E
:10A08C0001FB03F3134403F5A4631B680293059BC4
:10A09C00342202FB03F303F5A463019A1344043343
:10A0AC000393002304934FE0019A049B2C2101FBA2
:10A0BC0003F3134403F5DC631B68002B41D0019AB6
:10A0CC00049B2C2101FB03F3134403F2BC631B8898
:10A0DC001A46029B934234D1049B2C2202FB03F3BD
:10A0EC0003F5D763019A13440633194603980DF010
:10A0FC00C5FF0346002B24D1019A049B2C2101FBA4
:10A10C0003F3134403F5DC631A680199059B3420AF
:10A11C0000FB03F30B4403F5A9631A60019A049B3B
:10A12C002C2101FB03F3134403F2E4631A68019935
:10A13C00059B342000FB03F30B4403F24C531A60D1
:10A14C0007E0049B01330493049B072BACDD00E078
:10A15C0000BF059B01330593059B072B7FF777AF5A
:10A16C0000BF00BF07B05DF804FB00B587B00390DB
:10A17C00019200930B46ADF80A3000230593039B24
:10A18C0093F81C38072B02D94FF0FF3328E0039BC0
:10A19C0093F81C381A462C2302FB03F303F5D76300
:10A1AC00039A134404330593039B93F81C3801332F
:10A1BC00DAB2039B83F81C28059BBDF80A201A8091
:10A1CC00059B0233019918460DF08CFF059B009AF4
:10A1DC005A62059B089A9A620398FFF730FF002396
:10A1EC00184607B05DF804FB82B003460A46ADF88A
:10A1FC0006301346ADF80430BDF80620BDF8043027
:10A20C009A4202D2BDF8063001E0BDF8043018467F
:10A21C0002B0704710B588B00390019200930B46C2
:10A22C008DF80B300023059300238DF81F3000238D
:10A23C00ADF81C300023ADF81C30009BADF81A3083
:10A24C0087E0039BDB8A043B9AB2BDF81A301146B7
:10A25C001846FFF7C9FF0346ADF81230BDF81230AF
:10A26C000433ADF81030BDF81030DAB2039B1A7617
:10A27C00BDF810301B0A9BB2DAB2039B5A769DF8DC
:10A28C001F30002B06D0039B5B7E63F07F03DAB29A
:10A29C00039B5A76039B9DF80B209A769DF80B3006
:10A2AC000399342203FB02F20A4402F21C52127884
:10A2BC00511CCCB20399342000FB03F30B4403F282
:10A2CC001C5321461970039BDA76039B1833181D17
:10A2DC00BDF81C30019A1344BDF8122019460DF03C
:10A2EC0049FFBDF81A20BDF81230D31AADF81A3058
:10A2FC00BDF81C20BDF812301344ADF81C30039B84
:10A30C001B68DB68039A1068039A02F11801BDF808
:10A31C00102098470590039800F028FD039B1B68BC
:10A32C00DB68039A1068039A02F11801BDF810203B
:10A33C0098470590059B002B08DA039BD3F820382F
:10A34C005A1C039BC3F82028059B08E001238DF8B9
:10A35C001F30BDF81A30002B7FF473AF0023184662
:10A36C0008B010BD00B587B0039001930B468DF873
:10A37C000B3013468DF80A30039B05939DF80B3078
:10A38C00802B0CD101980DF0C5FE0346072B08D885
:10A39C00059B0C33019918460DF0A4FE01E000BF9B
:10A3AC0000E000BF00BF07B05DF804FB00B585B04E
:10A3BC000190009100230293002303930FE0019975
:10A3CC00039A1346DB0013449B000B4403F585638F
:10A3DC001B68009A9A422ED0039B01330393019B76
:10A3EC0093F8DC341A46039B9342E8DB019B93F809
:10A3FC00DC34042B21D8019B93F8DC341A46134629
:10A40C00DB0013449B0003F58563019A134402930C
:10A41C00019B93F8DC340133DAB2019B83F8DC2422
:10A42C00029B009A1A60029B043300221A70019856
:10A43C00FFF705FE02E000BF00E000BF05B05DF8CD
:10A44C0004FB00B587B003900291019200230493A2
:10A45C000023059320E00399059A1346DB0013446F
:10A46C009B000B4403F585631B68029A9A4210D13A
:10A47C00059A1346DB0013449B0003F58563039A8E
:10A48C0013440493049B0433019918460DF02AFEDF
:10A49C0009E0059B01330593039B93F8DC341A46C2
:10A4AC00059B9342D7D307B05DF804FB00B587B08A
:10A4BC000390019200930B468DF80B309DF80B30F6
:10A4CC00072B28D89DF80B30342202FB03F303F53D
:10A4DC00A363039A134404330593059B019A5A60B2
:10A4EC00059B0833009918460DF0FCFD059B9DF863
:10A4FC00202083F82820059B00221A70059B00223F
:10A50C005A70059B0022DA62059B00221A6303989D
:10A51C00FFF795FD00E000BF07B05DF804FB10B538
:10A52C0086B00390029111461A460B468DF80730FF
:10A53C0013468DF806300023059337E00399059AEE
:10A54C0013465B0013449B000B4403F59C631B8870
:10A55C001A46029B934226D10399059A13465B0037
:10A56C0013449B000B4403F2E4431B68002B1AD0EA
:10A57C000399059A13465B0013449B000B4403F2AA
:10A58C00E4431C680399059A13465B0013449B0033
:10A59C000B4403F59D6318689DF806209DF8071081
:10A5AC00089BA04705E0059B01330593059B042BF5
:10A5BC00C4DD06B010BD000000B59DB0059004913F
:10A5CC001346ADF80E300123ADF86E3000231A930C
:10A5DC0000238DF8673000238DF8663000238DF84A
:10A5EC003C3000238DF81C30059B022283F8242478
:10A5FC0003E1BDF86E305A1CADF86E201A46049B70
:10A60C0013441B788DF86530BDF86E305A1CADF8CC
:10A61C006E201A46049B13441B788DF86430BDF8E9
:10A62C006E30049A134418939DF864309AB2BDF8B6
:10A63C006E301344ADF86E309DF865300A2B00F285
:10A64C00CA8001A252F823F0E3A7020081A60200FF
:10A65C00AFA60200D1A60200E1A602000BA70200E1
:10A66C002FA7020043A7020057A702006FA7020002
:10A67C00E3A7020000230093002300221A990598F7
:10A68C00FFF74DFF1898FFF732FC1A901A990598AE
:10A69C00FFF78CFE00238DF83C3000238DF81C3026
:10A6AC00A0E01898FFF710FC0346043BADF85E30B1
:10A6BC00BDF85E30FF2B00F29080059BBDF85E204C
:10A6CC009A828AE01898FFF7FFFB0346043BADF82B
:10A6DC005E3087E01898FFF7F7FB0346043BADF8B4
:10A6EC005E30BDF85E30FF2B04D8059BBDF85E20B4
:10A6FC00DA8277E0059B4FF48072DA8272E0189868
:10A70C00FFF7E2FB0346043BADF85E30BDF85E306C
:10A71C00B3F5C07F63D2059BBDF85E20A3F818216A
:10A72C005DE01898FFF7C5FB03468DF867300023F2
:10A73C008DF8663056E01898FFF7BBFB03468DF892
:10A74C00673001238DF866304CE00FAB1899184632
:10A75C000DF0C8FC0FAB1A461A990598FFF771FE5D
:10A76C0040E007AB189918460DF0BCFC9DF867103B
:10A77C009DF866300093189B1A9A0598FFF796FE81
:10A78C009DF86730072B2CD89DF86730059A34213B
:10A79C0001FB03F3134403F5A4631A9A1A609DF8A2
:10A7AC006730342202FB03F303F5A463059A1344C8
:10A7BC00043307AA114618460DF094FC9DF8673037
:10A7CC00059A342101FB03F3134403F244539DF81F
:10A7DC0066201A7005E000BF04E000BF02E000BF75
:10A7EC0000E000BF9DF864109DF86520189B009355
:10A7FC000B461A990598FFF792FEBDF86E20BDF82E
:10A80C000E309A42FFF4F5AE002300930023002291
:10A81C001A990598FFF783FE00BF1DB05DF804FB85
:10A82C0000B587B00390029100931346ADF8063043
:10A83C00039B0593029B002B13D0BDF80630002B15
:10A84C000FD0029B1B788DF813309DF81330002B22
:10A85C0009D1BDF806301A4602990598FFF7ACFEEF
:10A86C0002E000BF00E000BF07B05DF804FB10B5CC
:10A87C0086B00390029100931346ADF80630002386
:10A88C008DF8173000238DF81630BDF80630032BE9
:10A89C0007D8039BD3F824385A1C039BC3F82428ED
:10A8AC0017E1029B1B789AB2029B01331B789BB277
:10A8BC001B029BB213449BB2C3F30E03ADF81430CE
:10A8CC00029B01331B785BB2DBB2DB098DF81330D2
:10A8DC00029B9B788DF81730029BDB788DF8163035
:10A8EC00BDF81430032B13D8039BD3F824385A1C0F
:10A8FC00039BC3F82428039B5B68002B00F0E480C7
:10A90C00039B5B68039A9268012110469847DBE031
:10A91C009DF81730072B06D8039B93F81C389DF82D
:10A92C0017209A4213D3039BD3F82C385A1C039B41
:10A93C00C3F82C28039B5B68002B00F0C780039B9B
:10A94C005B68039A9268032110469847BEE0039B0C
:10A95C00B3F81A31002B1FD09DF8133083F001038C
:10A96C00DBB2002B14D1039B93F81C319DF81720FC
:10A97C009A420DD19DF81730039A342101FB03F351
:10A98C00134403F21D531B789DF816209A4203D0F2
:10A99C00039B0022A3F81A21039BB3F81A31002B56
:10A9AC0025D1BDF81430B3F5C07F13D9039BD3F870
:10A9BC0028385A1C039BC3F82828039B5B68002B80
:10A9CC0000F08680039B5B68039A92680221104614
:10A9DC0098477DE0039B009AC3F8A022039B0022BA
:10A9EC00A3F89E22039B9DF8172083F81C21BDF829
:10A9FC000620BDF814309A4203D9BDF81430ADF8D6
:10AA0C000630039B03F21D13039AB2F89E2298188A
:10AA1C00029B191DBDF80630043B1A460DF0AAFB2B
:10AA2C00039BB3F89E22BDF8063013449BB2043B43
:10AA3C009AB2039BA3F89E22BDF81420BDF80630F1
:10AA4C00D31A9AB2039BA3F81A21039BB3F81A31B9
:10AA5C00002B29D19DF81730039A342101FB03F305
:10AA6C00134403F5A9631B68002B1DD09DF8173008
:10AA7C00039A342101FB03F3134403F5A9631C6807
:10AA8C009DF81730039A342101FB03F3134403F2AE
:10AA9C004C531868039B03F21D11039BB3F89E22C1
:10AAAC00039BD3F8A032A0479DF817309DF81620D1
:10AABC000132D0B2039A342101FB03F3134403F2A5
:10AACC001D5302461A7004E000BF02E000BF00E014
:10AADC0000BF06B010BD000000B587B003902A4B34
:10AAEC001B7883F00103DBB2002B01D0FFF744FA93
:10AAFC00039B002B01D1002341E0FFF74DFA059099
:10AB0C00059B002B01D1002339E040F634020021D3
:10AB1C0005980DF065FB059B039A1A60059B0022B6
:10AB2C005A60059B00229A60059B4FF480729A82B2
:10AB3C00059B4FF48072DA8200210598FFF736FCF2
:10AB4C0000230093114B002200210598FFF7AEFC67
:10AB5C00059B0F4A0021059800F04FF8059B0093C8
:10AB6C000C4B0A4A0021059800F025F8059B0122A0
:10AB7C0083F82424039B1B6803989847059B18466D
:10AB8C0007B05DF804FB00BFA03C0020C8860300A2
:10AB9C0071A302002DA8020086B0039002910192CD
:10ABAC00039B0593059B029A5A60059B019A9A6038
:10ABBC0000BF06B0704700B589B0059003920293B0
:10ABCC000B46ADF81230059B0793039B002B03D06B
:10ABDC00039B1B78002B02D16FF0010309E0BDF839
:10ABEC0012100A9B0093029B039A0798FFF7BDFA79
:10ABFC000346184609B05DF804FB00B587B0039016
:10AC0C00019200930B46ADF80A30039B0593BDF8F7
:10AC1C000A10009B019A0598FFF7E0F9059B93F841
:10AC2C002434022B03D1059B002283F82424002317
:10AC3C00184607B05DF804FB00B589B0039002918B
:10AC4C000192039B0493002307934FF0FF33069369
:10AC5C00002305931FE0059A1346DB0013449B0069
:10AC6C0003F58563049A13440433029918460DF0D6
:10AC7C0005FA0346002B0BD10499059A1346DB0009
:10AC8C0013449B000B4403F585631B68069305E096
:10AC9C00059B01330593059B042BDCDD069BB3F16F
:10ACAC00FF3F01D1FF2328E00023079321E0079BFE
:10ACBC00342202FB03F303F5A463049A1344043314
:10ACCC00019918460DF0DAF90346002B0ED1049ABF
:10ACDC00079B342101FB03F3134403F5A4631B68A6
:10ACEC00069A9A4202D1079BDBB206E0079B01331E
:10ACFC000793079B072BDADDFF23184609B05DF895
:10AD0C0004FB00B587B0039001921A460B468DF8F0
:10AD1C000B301346ADF80830039B059300230493C6
:10AD2C00059B9B8ABDF808209A4202D96FF001035B
:10AD3C0017E09DF80B30072B09D9059BD3F8303859
:10AD4C005A1C059BC3F830286FF0010309E0BDF8CD
:10AD5C0008309DF80B10019A0598FFF75BFA0490E8
:10AD6C00049B184607B05DF804FB000010B586B0D4
:10AD7C000190019B059300230293059B93F82434C7
:10AD8C00002B11D1059B012283F824240223144AA1
:10AD9C0000210598FFF7B5FF0490049B002B03D00E
:10ADAC00059B002283F82424059B1B689C68059B4B
:10ADBC001868059B03F5297102AB4FF4C072A047CC
:10ADCC000390039B002B08D0059B03F52971039B73
:10ADDC009AB2029B0598FFF74AFD00BF06B010BD62
:10ADEC00C486030000B587B00190019B002B4DD0A9
:10ADFC00284B1B8840F24B42934203D9019B64229F
:10AE0C001A7023E0234B1B88B3F5257F03D8019BD5
:10AE1C0000221A701AE01F4B1B8807EE903AF8EECE
:10AE2C00677A9FED1D7A37EEC77ADFED1C6AC7EEA5
:10AE3C00267A9FED1B7A67EE877AFCEEE77ACDEDEA
:10AE4C00007A9DF80030DAB2019B1A7006F00AF90C
:10AE5C00034683F00103DBB2002B17D0012111480C
:10AE6C0006F058F80590059B0493049B002B02D028
:10AE7C00049808F0FDFD06F0D5F80590059B0393AA
:10AE8C00039B002B02D0039808F0F2FD07B05DF88D
:10AE9C0004FB00BFA43C0020000025440000DC4360
:10AEAC000000C842A23C002008B5144A144BD31A27
:10AEBC00DB081B0443F00203124918460BF010FC8C
:10AECC00114BDB78002B03D10F4B9B78002B0BD055
:10AEDC000A4A0B4BD31ADB081B0443F002030B4941
:10AEEC0018460BF0FDFB07E040F2D4720021084835
:10AEFC000DF076F900F040F808BD00BF3C8303006C
:10AF0C00FC82030044890300D02C002058890300E4
:10AF1C00A83C0020054B01229A70044B0022DA70E9
:10AF2C00024B01221A7100BF704700BFD02C0020C9
:10AF3C0082B003468DF80730074A9DF807305370EE
:10AF4C00054B0122DA70044B00229A70024B01224D
:10AF5C001A7100BF02B07047D02C0020054B0022A4
:10AF6C00DA70044B00229A70024B00221A7100BF57
:10AF7C00704700BFD02C002008B540F2FF30FCF722
:10AF8C000BFA40F2D472034940F2FF30FCF714FA8A
:10AF9C0000BF08BDA83C002000B585B00190009111
:10AFAC00009B1B0A8DF80F30009B8DF80E30D823B8
:10AFBC008DF8083000238DF809309DF80F308DF88E
:10AFCC000A309DF80E308DF80B300121019800F0FD
:10AFDC004CF903468DF80D309DF80D30002B0ED03A
:10AFEC00174A184BD31ADB081B0443F00103164A0B
:10AFFC00164918460BF082FB9DF80D301CE002A997
:10B00C0004230022019800F00FF903468DF80C3050
:10B01C009DF80C30002B0ED0094A0A4BD31ADB08D2
:10B02C001B0443F001030A4A084918460BF066FB5F
:10B03C009DF80C3000E00023184605B05DF804FBC9
:10B04C003C830300FC820300188A0300D4890300AC
:10B05C00388A030000B587B00390019200930B4629
:10B06C00ADF80A30BDF80A301B0A9BB28DF81730C8
:10B07C00BDF80A308DF8163002238DF810309DF88B
:10B08C0017308DF811309DF816308DF812300121E3
:10B09C00039800F0EAF803468DF815309DF815304A
:10B0AC00002B0ED02B4A2C4BD31ADB081B0443F07D
:10B0BC0001032A4A2A4918460BF020FB9DF815304B
:10B0CC0043E0039B1B68002104209847039B5B68AB
:10B0DC0004A803220021984703468DF814309DF8EC
:10B0EC001430002B0ED01B4A1B4BD31ADB081B044D
:10B0FC0043F001031B4A1A4918460BF0FFFA9DF85E
:10B10C00143022E0039B5B68009A92B200210198F4
:10B11C00984703468DF813309DF81330002B0ED052
:10B12C000C4A0D4BD31ADB081B0443F001030E4AE7
:10B13C000B4918460BF0E2FA9DF8133005E0039B1F
:10B14C001B680121042098470023184607B05DF8BE
:10B15C0004FB00BF3C830300FC820300188A03003D
:10B16C00D4890300708A0300A48A030000B585B05B
:10B17C0001900091009B1B0A8DF80F30009B8DF8FD
:10B18C000E3010238DF8083000238DF809309DF80F
:10B19C000F308DF80A309DF80E308DF80B300121F0
:10B1AC00019800F062F803468DF80D309DF80D30D3
:10B1BC00002B0ED0174A184BD31ADB081B0443F094
:10B1CC000103164A164918460BF098FA9DF80D30F3
:10B1DC001CE002A904230022019800F025F8034684
:10B1EC008DF80C309DF80C30002B0ED0094A0A4B10
:10B1FC00D31ADB081B0443F001030A4A084918461A
:10B20C000BF07CFA9DF80C3000E00023184605B0DA
:10B21C005DF804FB3C830300FC820300188A0300E6
:10B22C00D4890300388A030000B587B003900291DB
:10B23C000192ADF80230039B1B6800210420984753
:10B24C00039B5B68BDF8022001990298984703465E
:10B25C008DF81730039B1B680121042098479DF83B
:10B26C001730184607B05DF804FB00B585B00190A7
:10B27C000B468DF803309DF80330002B03D00623CA
:10B28C008DF80F3002E004238DF80F300DF10F0113
:10B29C00012300220198FFF7C7FF0346184605B0AB
:10B2AC005DF804FB82B001904FF0A043184602B049
:10B2BC00704700B585B0019001AB1846FFF7F2FF5F
:10B2CC000390019B012202FA03F31946039800F044
:10B2DC0069F800BF05B05DF804FB00B585B00190BE
:10B2EC0001AB1846FFF7DEFF0390019B012202FA27
:10B2FC0003F31946039800F05FF800BF05B05DF842
:10B30C0004FB00B585B0019001AB1846FFF7CAFFEE
:10B31C000390039BD3F804350293029BDA43019B01
:10B32C00012101FA03F31A40039BC3F80825019B82
:10B33C0001229A40029B1A40039BC3F80C2500BFC4
:10B34C0005B05DF804FB00B583B001900091009B43
:10B35C00002B03D10198FFF7C0FF02E00198FFF723
:10B36C00A8FF00BF03B05DF804FB00B585B00190E9
:10B37C0001AB1846FFF796FF0390039800F00AF80C
:10B38C000246019B22FA03F303F00103184605B0B1
:10B39C005DF804FB82B00190019BD3F8043518468C
:10B3AC0002B0704782B001900091019B009AC3F8E3
:10B3BC00082500BF02B0704782B001900091019B3C
:10B3CC00009AC3F80C2500BF02B0704700B585B0D9
:10B3DC0001900F4A019B13441B781846FFF7C5FFD9
:10B3EC000346002B14BF012300238DF80F309DF86A
:10B3FC000F30002B14BF01230023DBB283F00103B9
:10B40C00DBB203F00103DBB2184605B05DF804FBB8
:10B41C002C8B030000B583B00190064A019B1344AA
:10B42C001B7800211846FFF78EFF00BF03B05DF8B4
:10B43C0004FB00BF2C8B030000B583B00190064ABF
:10B44C00019B13441B7801211846FFF77CFF00BFBA
:10B45C0003B05DF804FB00BF2C8B030000B583B078
:10B46C000023019305E00198FFF7E6FF019B0133F0
:10B47C000193019B032BF6D900BF00BF03B05DF80D
:10B48C0004FB00B583B00023019305E00198FFF79E
:10B49C00C1FF019B01330193019B032BF6D900BF24
:10B4AC0000BF03B05DF804FB00B583B00190054A02
:10B4BC00019B13441B781846FFF723FF00BF03B012
:10B4CC005DF804FB2C8B030082B00190034A019BB6
:10B4DC0013441B78184602B0704700BF308B030032
:10B4EC0082B001904FF0A043184602B0704700B5EF
:10B4FC0085B001900B468DF8033001AB1846FFF771
:10B50C00EFFF0390019A039B02F5E07253F822308F
:10B51C00019A23F44031039B02F5E07243F82210A8
:10B52C00019A039B02F5E07253F822309DF8032038
:10B53C0012041146019A1943039B02F5E07243F879
:10B54C00221000BF05B05DF804FB000000B583B00D
:10B55C000C4B1B78002B0FD00023019308E0019BB0
:10B56C00022B02D00198FFF767FF019B0133019377
:10B57C00019B032BF3D901E0FFF770FF00BF03B071
:10B58C005DF804FB844400202DE9D04F92B00346B3
:10B59C008DF83F300023119300231093CC4B1B7874
:10B5AC00002B04D0CA4A00231370FFF7CFFF9DF87D
:10B5BC003F30172B00F23F8201A252F823F000BF5C
:10B5CC002DB6020045B6020045B60200E1B60200F7
:10B5DC007DB70200F9B702008DB80200ADB80200C9
:10B5EC00BDB80200E9B8020007B9020025B9020093
:10B5FC0043B9020051B9020051B9020051B902001D
:10B60C0051B9020051B90200E5B90200F3B90200C8
:10B61C0007BA02001BBA020035BA020035BA0200A2
:10B62C00FFF794FFAB4B184608F0FDFD1190AA4AAA
:10B63C009DF83F301370FFE10020FFF7C7FE034673
:10B64C00002B0DD00020FFF7F7FE9DF83F30022BAA
:10B65C0002D14FF4E16301E04FF47A6310930BE0F5
:10B66C000020FFF7D7FE9DF83F30022B01D1C823F5
:10B67C0001E04FF4C8731093974A9DF83F30137054
:10B68C00944C109B0022009301924FF000024FF05B
:10B69C000003DDE900673946CB03314643EA5143E9
:10B6AC003146CA0312F57A71029143F100030393F8
:10B6BC004FF4FA624FF00003DDE902010CF0DCFB01
:10B6CC0002460B46134600221946204608F05EFD42
:10B6DC001190B1E10020FFF779FE0346002B0DD04D
:10B6EC000020FFF7A9FE9DF83F30032B02D14FF449
:10B6FC00487301E04FF47A6310930BE00020FFF7DE
:10B70C0089FE9DF83F30032B01D1C82301E04FF493
:10B71C00C8731093704A9DF83F3013706D4C109B9A
:10B72C000022049305924FF000024FF00003DDE974
:10B73C0004673946CB03314643EA51433146CA03C9
:10B74C0012F57A71069143F1000307934FF4FA62F4
:10B75C004FF00003DDE906010CF08EFB02460B46B0
:10B76C00134600221946204608F010FD119063E1A3
:10B77C000020FFF72BFE0346002B06D00020FFF71E
:10B78C005BFE4FF47A63109305E00020FFF742FE56
:10B79C004FF4C8731093504A9DF83F3013704D4CC2
:10B7AC00109B00229A4693464FF000024FF0000384
:10B7BC004FEACB3343EA5A434FEACA3212F57A7155
:10B7CC00089143F1000309934FF4FA624FF0000320
:10B7DC00DDE908010CF050FB02460B461346002233
:10B7EC001946204608F0D2FC119025E10020FFF705
:10B7FC00EDFD0346002B0CD00020FFF71DFE9DF83D
:10B80C003F30052B01D1C82301E04FF47A6310932C
:10B81C000BE00020FFF7FEFD9DF83F30052B01D11A
:10B82C00C82301E04FF4C87310932B4A9DF83F30A6
:10B83C001370284C109B0022984691464FF0000242
:10B84C004FF000034FEAC93343EA58434FEAC8327A
:10B85C0012F57A710A9143F100030B934FF4FA62DB
:10B86C004FF00003DDE90A010CF006FB02460B4623
:10B87C00134600221946204608F088FC1190DBE0A4
:10B88C000020FFF711FE144A9DF83F301370114B46
:10B89C00002240F26661184608F078FC1190CBE06B
:10B8AC000020FFF7B7FD0C4A9DF83F301370C3E042
:10B8BC00074B01221A700120FFF7F6FD054B002201
:10B8CC0040F26661184608F061FC1190B4E000BFCC
:10B8DC007D440020782B00207C440020594B012211
:10B8EC001A700120FFF7E0FD574B00224FF4005176
:10B8FC00184608F04BFC11909EE0524B01221A7036
:10B90C000120FFF7D1FD504B002240F26661184632
:10B91C0008F03CFC11908FE04A4B01221A70012078
:10B92C00FFF7C2FD484B00224FF40051184608F0B7
:10B93C002DFC119080E0FFF7A4FD444A9DF83F30A8
:10B94C00137079E0424B184608F06DFC11909DF88D
:10B95C003F30C3F111031093109B002B35D0119B7A
:10B96C00002B32D1109B012B28D9394C109B9BB248
:10B97C001A46C82302FB03F3DA171E4617464FF08C
:10B98C0000024FF00003FB0343EA5643F20312F5A7
:10B99C007A710C9143F100030D934FF4FA624FF05E
:10B9AC000003DDE90C010CF067FA02460B46134666
:10B9BC0000221946204608F0E9FB11900220FFF7FF
:10B9CC0029FD244B01221A7036E00220FFF734FDCA
:10B9DC00204B00221A702FE0FFF7B8FD1B4A9DF890
:10B9EC003F30137028E0FFF7B1FD0020FFF712FD88
:10B9FC00164A9DF83F3013701EE0FFF7A7FD01209B
:10BA0C00FFF708FD114A9DF83F30137014E0FFF763
:10BA1C009DFD0020FFF7FEFC0120FFF7FBFC0B4A0D
:10BA2C009DF83F30137007E0FFF72BFD074A9DF898
:10BA3C003F30137000E000BF119B184612B0BDE8F8
:10BA4C00D08F00BF7D440020782B00207C44002048
:10BA5C00982B00208444002000B585B003468DF857
:10BA6C00073000230393084B1B6803F00103002BE2
:10BA7C0005D09DF807301846FFF786FD0390039B11
:10BA8C00184605B05DF804FB8044002084B001909A
:10BA9C000B468DF8033013468DF8023000230393C8
:10BAAC00019B032B3CD89DF80230012B0BD19DF848
:10BABC000330012B04D1019BDBB20E33DBB200E06F
:10BACC0000238DF802309DF80330022B0FD0022B8F
