:020000022000DC
:106000000000012071630200596302005B6302001B
:106010005D6302005F630200616302000000000034
:1060200000000000000000000000000063630200A8
:1060300065630200000000006763020069630200FC
:106040009DAB02006B63020021B3020069D702001E
:1060500049E702006B6302001DB20200E9DA0200A8
:106060006B6302006B6302006B6302006B630200F0
:106070006B6302006B6302006B6302006B630200E0
:106080006B630200658802006B6302006B630200B1
:106090006B6302006B630200C97403006B63020050
:1060A0006B6302006B6302006B6302006B630200B0
:1060B0006B6302006B630200000000000000000040
:1060C0006B6302006B6302006B6302005DE702001A
:1060D0006B6302006B6302006B6302000000000050
:1060E00000000000000000000000000000000000B0
:1060F00000000000000000000000000000000000A0
:10610000000000000000000000000000000000008F
:10611000000000000000000000000000000000007F
:10612000000000000000000000000000000000006F
:10613000000000000000000000000000000000005F
:10614000000000000000000000000000000000004F
:10615000000000000000000000000000000000003F
:10616000000000000000000000000000000000002F
:10617000000000000000000000000000000000001F
:10618000000000000000000000000000000000000F
:1061900000000000000000000000000000000000FF
:1061A00000000000000000000000000000000000EF
:1061B00000000000000000000000000000000000DF
:1061C00000000000000000000000000000000000CF
:1061D00000000000000000000000000000000000BF
:1061E00000000000000000000000000000000000AF
:1061F000000000000000000000000000000000009F
:10620000344935480A1A02D0072291438D46334952
:1062100033480A1A06D00722914381F309880222E3
:1062200082F314882F483049304A00F041F8304852
:106230003049314A00F03CF830483149314A00F0E9
:1062400037F831483149324A00F032F831483249A2
:10625000324A00F02DF832483249334A00F028F82B
:1062600032483349334A00F023F833483349002297
:1062700000F029F832483349002200F024F832486F
:106280003249091A12F0A0FB314A90471F482049B1
:10629000884205D00268043003B4904703BCF7E796
:1062A00000208646EC46002000212A4A9047FEE75F
:1062B000884207D0521A05D0037801300B700131A3
:1062C000013AF9D17047884202D002700130FAE7F2
:1062D000704700000000012000E0002000000120C5
:1062E0000000012000AF0300D82A0020CC2D0020A0
:1062F000CC630200CC630200DC89030000AF030022
:10630000D82A0020D82A0020408B0300408B0300AD
:10631000408B0300408B0300408B0300408B030045
:10632000408B0300408B0300FDAE0300F4B103007B
:10633000CC2D0020CC2D0020CC2D0020445C002052
:10634000445C0020445C0020445C0020447C00202D
:106350009963020071080300FEE7FEE7FEE7FEE72F
:10636000FEE7FEE7FEE7FEE7FEE7FEE700F002B825
:10637000FFF7FCBF0F484FF00701884385460E48E2
:1063800080470E48016841F470010160BFF34F8FF0
:10639000BFF36F8FFFF734BF09480A490A4A8842A2
:1063A00007D0521A05D0037801300B700131013A41
:1063B000F9D170470000012001A0020088ED00E043
:0C63C000408B0300D82A0020D82A0020BF
:1063CC0000B585B00190019B002B0AD0074B43F020
:1063DC0001030393019B9B010293039B0298984733
:1063EC0000E000BF05B05DF804FB00BF508B03005C
:1063FC0000B583B00190019B002B0AD04FF47A704A
:10640C00FFF7DEFF019B013B0193019B002BF5D1B4
:10641C0000E000BF03B05DF804FB08B50EF0FEF819
:10642C0000BF08BD00B589B0039002910192019B99
:10643C00002B33D00023079303230693029A079B68
:10644C001344019A194600200EF098F80590079A0B
:10645C00059B13440793019A059BD31A0193059B43
:10646C00002B13D10F4B1B7883F00103DBB2002BF5
:10647C0013D10120FFF7BCFF069B013B0693069B43
:10648C00002B03D1074B00221A7007E0054B0122A9
:10649C001A70019B002BD1D100E000BF00BF09B0E6
:1064AC005DF804FBCC2D002000B585B00390029163
:1064BC00054B00934023054A0299039800F012F80B
:1064CC0000BF05B05DF804FB31640200D02D002044
:1064DC0082B0019000BF02B0704782B0019000BF43
:1064EC0002B0704700B5A1B00590049103920293DD
:1064FC00049803F073F8039B1593029B16930023E7
:10650C00179300238DF8603000231993229B1A9364
:10651C0000231F930FA91F9B0C22049803F01CF956
:10652C000C231F93119B1293BDF84030ADF84C30E7
:10653C00BDF84230ADF84E3001238DF851309DF846
:10654C003C3003F00303DBB2012B26D10F9BC3F3CA
:10655C0095231C939DF83C30C3F3C203DBB28DF83A
:10656C005030BDF83C30C3F38313DBB21B931B9B41
:10657C009A0009A91F9B049803F0EEF81B9B9B0043
:10658C001F9A13441F9312AA09A915AB0093134623
:10659C001B9A1C9801F02EF82FE09DF83C3003F06C
:1065AC000303DBB2022B28D1BDF83E30C3F38913B1
:1065BC009BB21E939DF83C30C3F3C203DBB28DF843
:1065CC0050301E9B082B28BF08231D9307A91F9B27
:1065DC001D9A049803F0C0F81F9A1D9B13441F9337
:1065EC001E9A1D9BD31A1E9315AB12AA07A81D99B0
:1065FC0001F0A2F81E9B002BE3D1049802F0FDFFE2
:10660C0000BF21B05DF804FB00B583B00190019B85
:10661C001B781A460C4B9B5C002B05D0019B04335A
:10662C00184606F067F80BE0019B1B781A46064BE0
:10663C009B5C002B04D1019B0C33184605F058FAD7
:10664C0000BF03B05DF804FBB034002000B587B088
:10665C000390029113468DF8073000230593039B9A
:10666C001B781A46114B9B5C002B09D0039B0433FF
:10667C009DF807200299184606F09EF805900FE049
:10668C00039B1B781A46094B9B5C002B08D1039B80
:10669C000C339DF807200299184605F0A1FA0590D5
:1066AC00059B184607B05DF804FB00BFB034002012
:1066BC0082B001900091034B01221A7000BF02B00E
:1066CC00704700BF502E002030B58DB003468DF8BA
:1066DC000730194B02AC1D460FCD0FC495E80F00C7
:1066EC0084E80F00062302934FF0FF3303934FF01F
:1066FC00FF3304934FF0FF3305934FF0EB73089384
:10670C009DF80730002B01D00C4A00E0002202ABB0
:10671C0019460B4804F092F80B900B9B0A930A9BBA
:10672C00002B02D00A9801F09DF8064A9DF807301C
:10673C00137000BF0DB030BD588B0300BD66020056
:10674C00D82A0020512E002000B583B001238DF8EB
:10675C0007309DF807301846FFF7B6FF00BF03B0AF
:10676C005DF804FB00B589B0039002910192019B86
:10677C008DF81F30114B00221A709DF81F301A46ED
:10678C0002990F48FFF762FF0690069B0593059B45
:10679C00002B02D0059801F065F800BF094B1B785F
:1067AC00002B07D0054B1B78DBB283F00103DBB267
:1067BC00002BF3D100BF09B05DF804FB502E002074
:1067CC00D82A0020512E002000B585B003900291EC
:1067DC00054B00934023054A02990398FFF782FE6C
:1067EC0000BF05B05DF804FB71670200102E00209D
:1067FC0082B0019000BF02B07047000000B583B0BA
:10680C0001900548FFF700FF0020FFF75DFF00BF78
:10681C0003B05DF804FB00BFD82A002082B00190C1
:10682C00019BDB6801225A7100BF02B07047000067
:10683C0000B583B04FF0FF330193FFF7EEFD042159
:10684C000A4800F08BFD01900848FFF7E7FFFFF7BF
:10685C007BFF0421064800F081FD01900448FFF7FE
:10686C00DDFF00BF03B05DF804FB00BF208B03000D
:10687C00308B030000B583B001900091019B1B6825
:10688C001B6800990198984700BF03B05DF804FBA2
:10689C0000B583B00190019B1B685B680198984719
:1068AC0000BF03B05DF804FB00B583B00190019B01
:1068BC001B689B680198984700BF03B05DF804FB08
:1068CC0082B001900B468DF80330019BDB689DF87C
:1068DC0003201A7100BF02B0704782B00190019B77
:1068EC00DB681B79184602B0704782B00190019B9F
:1068FC00DB6801225A7100BF02B0704782B0019070
:10690C00019BDB685B79184602B0704700B585B017
:10691C0001900091019B002B01D107231BE0104B30
:10692C0000221A70009800F07FFF0D4A019BC2F8FC
:10693C000C340C4802F0B6FD0390039B002B01D0E5
:10694C00039B08E0084802F03DFF084A084BD31AA5
:10695C00DB0802930023184605B05DF804FB00BF6A
:10696C00BC2F0020648A0300A88B0300208B03003B
:10697C00788A0300024A034BD31ADB081846704787
:10698C00208B0300788A030000B587B001900B467A
:10699C008DF803309DF80330002B1FD0FFF7EAFF72
:1069AC0004900023059313E0059B9B000E4A1344AF
:1069BC000393039B1B881A46019B1B689A4204D1C4
:1069CC00019B059A1A60002309E0059B013305938E
:1069DC00059A049B9A42E7D3052300E0002318464E
:1069EC0007B05DF804FB00BFD82A002000B585B0C5
:1069FC0001900B468DF803309DF8032001AB114636
:106A0C001846FFF7C1FF0346002B07D1019BDB00A3
:106A1C00054A13440393039B1B6800E000231846AC
:106A2C0005B05DF804FB00BF788A030084B00190C8
:106A3C000B468DF80330019BDB00174A134402937D
:106A4C009DF80330013B032B1CD801A252F823F014
:106A5C006D6A0200756A02007D6A0200876A020094
:106A6C0002238DF80F3011E004238DF80F300DE068
:106A7C00029B1B798DF80F3008E0029B5B798DF837
:106A8C000F3003E000238DF80F3000BF9DF80F305E
:106A9C00184604B0704700BF788A030084B0019098
:106AAC00009100238DF80F30019B1B7803F0040339
:106ABC00DBB2002B24D0019B1B78C3F30103DBB2A8
:106ACC00012B02D0022B0CD017E0009B1B68019A03
:106ADC001288C2F38312D2B21344DA1C009B1A60E0
:106AEC000BE0009B1B68019A5288C2F3891292B288
:106AFC001344DA1C009B1A6000BF01238DF80F3081
:106B0C009DF80F30184604B07047000000B58BB0EC
:106B1C000023ADF826303B4802F086F83A4802F0E4
:106B2C0083F83A4B9B680493394B1B680693049A81
:106B3C00069B134002339B00344A134404330893DE
:106B4C0004AB19460898FFF7A9FF0346002B09D0A0
:106B5C00049A069B134002339B002C4A13440433C3
:106B6C000893EDE700BF0023079311E0049B5A1C28
:106B7C000492069A1340079A920001A90A442349E9
:106B8C0002339B000B445B681360079B0133079334
:106B9C00079B022BEAD99DF80430C3F30103DBB247
:106BAC00012B10D0022B1CD1BDF80A30ADF82630C9
:106BBC00BDF80630C3F389139BB203339A08049BC8
:106BCC00134404930EE0BDF80A30ADF82630BDF83E
:106BDC000430C3F38313DBB21A46049B13440493AF
:106BEC0000E000BF084802F02BF80590059B002B35
:106BFC0002D0049B054A9360BDF8263018460BB0B2
:106C0C005DF804FBD4330020D0330020BC2F0020CF
:106C1C00FC2A002000B585B00021074801F075FF63
:106C2C000390039B0293029B83F310030193019B3C
:106C3C00184605B05DF804FBD833002010B588B0B9
:106C4C000390029101920093039B1B0C0793FFF797
:106C5C00E1FF0690069B1904009B5A1C0A9B1340EB
:106C6C00079A0A43224902339B000B445A60204B7B
:106C7C00D3F80C34009A911C0A9A01EA0204984742
:106C8C0002461B49A31C9B000B445A60009A0A9BAA
:106C9C00134002339B00164A134404330593039BA1
:106CAC0003F00703D9B2059A137861F3C503137087
:106CBC00019B03F00F03D9B2059A138861F3891372
:106CCC001380029BC3F31501059A136861F39F238C
:106CDC001360059A1378012161F301031370059A6F
:106CEC0013786FF38203137000BF08B010BD00BFA0
:106CFC00BC2F002000BF704700B58DB003900291EF
:106D0C0013468DF80730039B03330A9301238DF848
:106D1C00273000238DF81B300DF11B03184601F0B2
:106D2C0035FA404B5A68029B1A603F4B1A683D4B30
:106D3C0099683C4B5B68CB1A134401330B9314E0FA
:106D4C0001213A4801F040FFFFF7E0FE0790079958
:106D5C00364801F039FF344B1A68324B9968314B85
:106D6C005B68CB1A134401330B930A9A0B9B9A4220
:106D7C00E6D89DF82730002B48D0002305939DF8CA
:106D8C000730002B17D09DF81430012262F3010359
:106D9C008DF814309DF8143043F004038DF8143042
:106DAC00039B03F00F03DAB2BDF8143062F38913BE
:106DBC00ADF8143016E09DF81430022262F3010392
:106DCC008DF814309DF8143043F004038DF8143012
:106DDC00039BC3F309039AB2BDF8163062F38F1309
:106DEC00ADF816300F4B5A680F4B1B68134002332B
:106DFC009B000C4A134404330893059A089B1A60B1
:106E0C00084B5A680A9B1344064A53609DF81B3082
:106E1C00184601F0C5F99DF8273018460DB05DF8FD
:106E2C0004FB00BFBC2F0020FC2A0020D83300201C
:106E3C0000B58BB005900491039202931F4B1B6815
:106E4C00079306AB012219460298FFF755FF03463C
:106E5C00002B24D0069B033309930023089311E0E5
:106E6C00089B9B00039A1A44099B591C099107998A
:106E7C000B401268124902339B000B445A60089B6A
:106E8C0001330893089A029B9A42E9D3069A079B0E
:106E9C0000931346029A04990598FFF7CFFE084B0E
:106EAC001B78002B04D000F04FF80346002BFAD1CE
:106EBC00FFF720FF00BF0BB05DF804FBFC2A00209D
:106ECC00BC2F002000B583B001900091002300225C
:106EDC0000990198FFF7ACFF00BF03B05DF804FB0D
:106EEC0000B587B0039002910192019B059305AA0E
:106EFC00012302990398FFF79BFF00BF07B05DF8D1
:106F0C0004FB00B587B00390029101920093019BA2
:106F1C000493009B059304AA022302990398FFF79C
:106F2C0087FF00BF07B05DF804FB0000054B9A68B3
:106F3C00044B5B689A420CBF01230023DBB218465A
:106F4C00704700BFBC2F002000B599B0FFF7EEFFD3
:106F5C000346002B01D00023C0E19B4B0022C3F859
:106F6C001824BFF34F8F00BF974B9B680493974B2C
:106F7C001B681093049A109B134002339B00924A97
:106F8C001344043311930023179300231693002307
:106F9C000F9304AB19461198FFF780FD0346002BA5
:106FAC0019D0894BD3F81834002B14D1864B5A685E
:106FBC00049B9A4205D8844B5B68834A93600023F8
:106FCC008CE1049A109B134002339B007E4A1344BD
:106FDC0004331193DDE70023159311E0049B5A1C35
:106FEC000492109A1340159A920001A90A4476490A
:106FFC0002339B000B445B681360159B01331593A4
:10700C00159B022BEAD99DF8043003F00303DBB285
:10701C00022B40F09C80BDF80630C3F389139BB261
:10702C000D93BDF80630C3F389139BB2502B28BFC8
:10703C0050239BB20C930C9BC3F309039AB2BDF87B
:10704C00063062F38F13ADF806300C9B0C330B93A8
:10705C009DF80430C3F3C203DBB20F930B995C4869
:10706C0002F02BFA1790179B002B00F0D380179887
:10707C0002F0B4FA01A9169B0C22179802F058FBE7
:10708C00169B0C331693049BDA43109B134001336D
:10709C009B000A930C9A0A9B9A4242D90A9B002B9A
:1070AC0008D0049A109B134002339B00464A1344A9
:1070BC00043300E0474B08930A9B002B02D00A9B39
:1070CC00DBB201E00C9BDBB28DF81F300A9B002B6E
:1070DC0001D0404B00E0002306930A9B002B06D006
:1070EC000C9BDAB20A9BDBB2D31ADBB200E00023B2
:1070FC008DF817309DF81F20169B0899179802F0F1
:10710C0017FB9DF81F30169A13441693069B002B01
:10711C0016D09DF81720169B0699179802F008FBBD
:10712C000EE0049A109B134002339B00264A134432
:10713C0004330993169B0C9A0999179802F0F8FAE4
:10714C000D9B03339A08049B1344049362E09DF84F
:10715C00043003F00303DBB2012B5BD1BDF8043028
:10716C00C3F38313DBB2062B28BF0623DAB2BDF8B8
:10717C00043062F38913ADF80430BDF80430C3F366
:10718C008313DBB203330E939DF80430C3F3C203B5
:10719C00DBB20F930E9B9B0019460D4802F08DF944
:1071AC001790179B002B35D0179802F017FA01A9EE
:1071BC00169B0C22179802F0BBFA169B0C331693F5
:1071CC00002315931DE000BFBC2F0020FC2A0020DB
:1071DC00648A0300C82F0020049B5A1C0492109A46
:1071EC00134002339B003F4A1344191D169B042283
:1071FC00179802F09DFA169B04331693159B0133D6
:10720C001593BDF80430C3F38313DBB21A46159BF8
:10721C009342E1D3179B002B40D0324BD3F8103460
:10722C001493304BD3F81834002B1BD0179802F062
:10723C00E4F94DE000238DF84F301498FFF75EFB16
:10724C000346002B02D001238DF84F309DF84F30B0
:10725C00002B03D017991498FFF70CFB149BDB68D9
:10726C001B681493149B002BE4D1179802F0C5F9FA
:10727C0000238DF803300DF10303184600F086FF50
:10728C00184BD3F81834002B02D1049B154A936089
:10729C009DF80330184600F083FF19E0114BD3F82A
:1072AC001034129306E01298FFF7FEFA129BDB687B
:1072BC001B681293129B002BF5D10B4A0B4BD31A64
:1072CC00DB081B0443F0020309491846FFF7FAFDDB
:1072DC00FFF72CFE034683F00103DBB2184619B00E
:1072EC005DF804FBBC2F0020B88A0300788A0300E9
:1072FC00B88B030000B585B00023039323E0164B35
:10730C00D3F81034029301238DF807300FE0029864
:10731C00FFF7E3FA03461A46039B934203D100237B
:10732C008DF8073006E0029BDB681B680293029B1A
:10733C00002BECD19DF80730002B01D0039B07E00C
:10734C00039B01330393039B092BD8DD4FF0FF33D1
:10735C00184605B05DF804FBBC2F002000B585B0C5
:10736C0001900B468DF80330FFF7C4FF0390039B8D
:10737C00B3F1FF3F01D1039B22E0039BDBB2194623
:10738C000198FFF79DFA104BD3F81034002B08D15D
:10739C000D4A019BC2F81034019BDB6800221A6075
:1073AC000DE0094BD3F81034DA68019BDB681268E6
:1073BC001A60054BD3F81034DB68019A1A60039BF2
:1073CC00184605B05DF804FBBC2F002000B583B057
:1073DC000C4BD3F8103401930A4B01221A7009E0BC
:1073EC000198FFF782FA0198FFF752FA019BDB68CC
:1073FC001B680193019B002BF2D100BF00BF03B0AF
:10740C005DF804FBBC2F002000B58DB005900491F5
:10741C002F4B1B68049AB2FBF3F304932D4B1B68A0
:10742C00049AB2FBF3F30B930B9B2B4AA2FB0323A3
:10743C00DB0A0A930A9B4FF4616202FB03F30B9A7B
:10744C00D31A0B930B9B254AA2FB03235B090993CD
:10745C00099A13461B019B1A9B001A460B9B9B1AFD
:10746C000B931C4B1A68049BB3FBF2F101FB02F269
:10747C009B1A0893089B4FF47A7203FB02F2154B8C
:10748C001B68B2FBF3F30793089B4FF47A7203FB70
:10749C0002F2104B1B68079901FB03F3D31A4FF44C
:1074AC007A7203FB02F20B4B1B68B2FBF3F30693ED
:1074BC00069B0293079B01930B9B0093099B0A9AD3
:1074CC000749059801F08AFC00BF0DB05DF804FB7C
:1074DC00E0330020DC330020C5B3A2918988888872
:1074EC00348C030010B584B003900291039BDB88AD
:1074FC00002B0AD0039BDB881A461F4B00931346C4
:10750C001E4A1F49029801F069FC039B1B7A052B4C
:10751C002ED0039B5B7A002B12D0039B9B881A46C0
:10752C00039B1B7A19461046FFF780FA03461A464E
:10753C00144B53F822301A461349029801F04EFCB2
:10754C00039B1B6819460298FFF75EFF039B1B7A8F
:10755C001A460E4B53F82240039B9B880021184679
:10756C00FFF744FA034622460949029801F036FC1B
:10757C0000BF04B010BD00BFEC8B0300FC8B0300FC
:10758C00508C0300142B0020688C0300002B00206F
:10759C006C8C030000B585B00390029113468DF8F6
:1075AC000730039B1B7A052B0FD0039B5B7A002BB8
:1075BC0006D00D4B1B681A460C49029801F00EFCC4
:1075CC000B49029801F00AFC07E09DF80730002BEC
:1075DC0003D00749029801F001FC029801F0E6FB88
:1075EC0000BF05B05DF804FB142B0020688C030071
:1075FC00788C030030B58BB00790069105920493FC
:10760C000E9B1B7B8DF827300E9B00221A730E9954
:10761C000498FFF767FF059B062B7FD801A252F851
:10762C0023F000BF4D760200577602006776020009
:10763C007B76020099760200C1760200F176020098
:10764C0007990E9801F0CAFB69E0069B1B681A4665
:10765C0007990E9801F0C2FB61E0069B1A68069B25
:10766C0004331B6807990E9801F0B8FB57E0069B92
:10767C001A68069B04331968069B08331B68009331
:10768C000B4607990E9801F0A9FB48E0069B196878
:10769C00069B04331868069B08331B68069A0C3249
:1076AC0012680192009303460A4607990E9801F05E
:1076BC0095FB34E0069B1868069B04331C68069BFC
:1076CC0008331B68069A0C32126806991031096847
:1076DC000291019200932346024607990E9801F0FD
:1076EC007DFB1CE0069B1C68069B04331D68069BF7
:1076FC0008331B68069A0C32126806991031096817
:10770C0006981430006803900291019200932B4666
:10771C00224607990E9801F061FB00E000BF0022A1
:10772C000E990498FFF736FF0E9B9DF827201A73CD
:10773C0000BF0BB030BD00BF00B587B00390029105
:10774C0001920093029B082B60D8009B1B7B8DF849
:10775C001330009B00221A7300990198FFF7C2FEA8
:10776C000023059314E0059A029B9A4209D2039ACE
:10777C00059B13441B781A462649009801F02EFBF2
:10778C0003E02549009801F029FB059B0133059383
:10779C00059B072BE7D92149009801F01FFB00231B
:1077AC00059326E0059A029B9A421BD2039A059BED
:1077BC0013441B788DF812309DF812307E2B0AD8AA
:1077CC009DF81230184611F028F80346002B02D011
:1077DC009DF8123000E02E231A461149009801F052
:1077EC00FDFA03E00F49009801F0F8FA059B01330C
:1077FC000593059B072BD5D9012200990198FFF71A
:10780C00C9FE009B9DF813201A7300E000BF07B05F
:10781C005DF804FB7C8C0300848C0300888C0300D3
:10782C008C8C0300908C030082B001900A4B0122D7
:10783C001A6007E0019B5B080193074B1B685B0018
:10784C00054A1360019B054A9342F3D8044A019BF5
:10785C00136000BF02B07047E033002040420F00BD
:10786C00DC33002000B587B0019000230393002384
:10787C000493019B059303AB1A46002144F20100CB
:10788C0000F018F800BF07B05DF804FBBFF34F8F92
:10789C0000BF064BDB6803F4E0620449044B13435E
:1078AC00CB60BFF34F8F00BF00BFFDE700ED00E0E2
:1078BC000400FA0500B585B003900291019272B6EE
:1078CC0000BFFFF783FDFFF73FFB0346002BFAD108
:1078DC000F4A104BD31ADB081B0443F001030E496B
:1078EC001846FFF7EFFA0D4B1B6803F00103002B52
:1078FC0000D000BE064A074BD31ADB081B0443F02A
:10790C00020307491846FFF7DDFAFFF7BFFF00BF78
:10791C00B88A0300788A0300A08C0300F0ED00E025
:10792C00AC8C03002DE9F04383B0144800F07AFFCF
:10793C00034600221C461546114BD3E9002314EBD9
:10794C00020845EB0309CDE900890E4BD3E900236E
:10795C00DDE90001904271EB030307D2DDE900235E
:10796C0012F1807643F10007CDE90067DDE90023D1
:10797C001046194603B0BDE8F08300BF382B002039
:10798C00F0330020F833002088B001900091019B67
:10799C000793009B0693079BD3E90223CDE90423AD
:1079AC00069BD3E90223CDE90223DDE90423DDE9BB
:1079BC000201904271EB03032CBF01230023DBB2C5
:1079CC00184608B070470000F0B585B00190002350
:1079DC008DF80F303F4B1B78002B75D0019B002B83
:1079EC0072D0FFF79FFF019BD3E90223904271EB0A
:1079FC00030358D300238DF80D300DF10D031846F9
:107A0C0000F0C4FB019B1B69002B06D101994FF0C0
:107A1C00FF324FF0FF33C1E902239DF80D301846B9
:107A2C0000F0BEFB019B5B69019A92691046984776
:107A3C0000238DF80C3003AB184600F0A7FB019B1C
:107A4C001B69002B1AD0019BD3E90223B3F1FF3F32
:107A5C0008BFB2F1FF3F11D0019BD3E9022301997A
:107A6C00096900200C460546161943EB0507019BD6
:107A7C00C3E9026701238DF80E3002E000238DF874
:107A8C000E309DF80C30184600F08AFB9DF80E3035
:107A9C00002B19D0019B19460F4801F0E6FE01237B
:107AAC008DF80F3010E0019BD3E90223B3F1FF3FB7
:107ABC0008BFB2F1FF3F07D0019B1946064801F001
:107ACC00D4FE01238DF80F309DF80F30184605B009
:107ADC00F0BD00BFE8330020CC8C030030B58BB078
:107AEC00019000910D230993009B00221A70019BB9
:107AFC00D3E90223CDE90623FFF714FFDDE90623C2
:107B0C00141A63EB0105CDE90445DDE90423012AD0
:107B1C0073F1000318DB049BB3F5350F05D300F0AC
:107B2C00B7FA0246114B134400E0069B03934FF443
:107B3C009603039A00210E4800F080FD0990099BE2
:107B4C00002B05D101230EE00021094800F044FE72
:107B5C00099B0D2B06D10198FFF736FF03461A46F9
:107B6C00009B1A70002318460BB030BDFFFFB40009
:107B7C00382B002000B583B0044801F09FFE019023
:107B8C00019B184603B05DF804FB00BFCC8C0300CE
:107B9C0000B583B0044801F0A7FE0190019B184684
:107BAC0003B05DF804FB00BFCC8C030000B583B0C0
:107BBC00FFF7E0FF0190019B002B06D001994FF0DD
:107BCC00FF324FF0FF33C1E90223019B002BEFD1B1
:107BDC0000BF00BF03B05DF804FB0000054BD3E908
:107BEC00002312F1807043F10001024BC3E9000144
:107BFC0000BF7047F033002000B583B00190084BF4
:107C0C001B68002B07D0064B1B681846FFF7DCFEE1
:107C1C00034B00221A6000BF03B05DF804FB00BFE9
:107C2C00E433002000B583B00190FFF77BFE0246E1
:107C3C000B460349C1E9002300BF03B05DF804FB08
:107C4C00F833002000B587B00190FFF7A1FF049036
:107C5C0000238DF81730049B002B58D0049BD3E9DC
:107C6C000223B3F1FF3F08BFB2F1FF3F02D1FFF790
:107C7C0081FF54E02E4B1B68002B03D101238DF8A0
:107C8C0017301DE0049BD3E90201294B1B68D3E993
:107C9C000223904271EB030312D201238DF81730AB
:107CAC00234B1B68D3E90223B3F1FF3F08BFB2F1AA
:107CBC00FF3F05D01E4B1B6819461E4801F0D5FD31
:107CCC009DF81730002B2BD0FFF754FF04900DF1CB
:107CDC000F0319460498FFF701FF0346002B12D03F
:107CEC00134B1B68002B02D1019800F0EDFB104ADE
:107CFC00049B13609DF80F3083F00103DBB2002B63
:107D0C00A3D000BF0FE00A4B00221A609DE7084B7E
:107D1C001B68002B06D1019800F0E3FB02E094E70E
:107D2C0000BF00E000BF00BF07B05DF804FB00BF60
:107D3C00E4330020CC8C030000B587B001902B4AB3
:107D4C0003AB1946104600F06AFE049045E0049B14
:107D5C001B78022B2BD0022B2FDC002B02D0012BFB
:107D6C0011D02AE0049B5B68D3E90223B3F1FF3FF7
:107D7C0008BFB2F1FF3F22D0049B5B6819461C4838
:107D8C0001F073FD1BE0049B5A681A4B1B689A4266
:107D9C0003D1184B00221A6012E0049B5B68194651
:107DAC00134801F0A9FD03468DF8173008E0FFF7E2
:107DBC00FDFE114B01221A7002E000BF00E000BF73
:107DCC000A4A03AB1946104600F042FE074A03ABC1
:107DDC001946104600F023FE0490049B002BB6D1EC
:107DEC0000BF00BF07B05DF804FB00BF5834002093
:107DFC00CC8C0300E4330020E833002000B583B0C2
:107E0C000190019800F0DBFC0346002B01D0FFF73A
:107E1C00E5FE0021019800F0F0FC0346002B02D097
:107E2C000198FFF7E9FE0121019800F0E6FC0346FA
:107E3C00002B02D00198FFF7F5FE0198FFF77CFFAD
:107E4C000198FFF7FFFE00BF03B05DF804FB0000D4
:107E5C0008B5024800F0F3FC00BF08BD382B002029
:107E6C0000B585B0034600918DF80730114A02AB7E
:107E7C001946104600F0A6FD0390039B002B13D06F
:107E8C00039B9DF807201A70039B009A5A60094ABD
:107E9C0002AB1946104600F0AEFD0346002B01D094
:107EAC00FFF7D6FF002300E00423184605B05DF869
:107EBC0004FB00BF5834002000B583B0164B1B6880
:107ECC000093164808235822154900F048FD0190EC
:107EDC00019B002B01D0019B19E06B46114A1946FE
:107EEC00114800F08BFA0190019B002B01D0019BF3
:107EFC000DE001210C4800F051FC01230B4A01213B
:107F0C00094800F0FBFA0A4B01221A70019B184633
:107F1C0003B05DF804FB00BFC88C0300583400208C
:107F2C0000340020097E0200382B0020FFFF7F0068
:107F3C00E833002086B003900B4601928DF80B308D
:107F4C00019B002B01D1072317E0039B1B680593B2
:107F5C0005994FF0FF324FF0FF33C1E90223059B27
:107F6C00019A5A619DF80B30012B0CBF01230023A1
:107F7C00DBB21A46059B1A610023184606B07047FF
:107F8C00F0B589B0039002910192039B06930023F4
:107F9C008DF817300DF11703184600F0F7F8069B13
:107FAC00D3E90223B3F1FF3F08BFB2F1FF3F11D178
:107FBC00FFF7B8FC02460B46029900200C4605461A
:107FCC00161943EB0507069BC3E9026701238DF8DD
:107FDC001F3002E000238DF81F309DF81730184633
:107FEC0000F0DEF89DF81F3083F00103DBB2002BAC
:107FFC0001D000230EE0069B019A9A61069B1B6937
:10800C00002B02D0069B029A1A6106990020FFF7FA
:10801C0027FF0346184609B0F0BD00B587B00190A4
:10802C00019B049300238DF80F300DF10F031846BC
:10803C0000F0ACF8049BD3E90223B3F1FF3F08BF77
:10804C00B2F1FF3F03D100238DF8173009E00499FA
:10805C004FF0FF324FF0FF33C1E9022301238DF8BB
:10806C0017309DF80F30184600F09AF89DF817302D
:10807C0083F00103DBB2002B01D0002304E0049950
:10808C000120FFF7EDFE0346184607B05DF804FB30
:10809C0008B5034800F0C6FB0346184608BD00BFF0
:1080AC00382B002082B0EFF310830093009B0193D8
:1080BC0072B600BF019B184602B0704762B600BF93
:1080CC0000BF704700B585B00190FFF7EBFF039040
:1080DC00164B9B68002B1BD1144B01229A60144B3E
:1080EC00D3F88020134B1340104A1360104B114AE5
:1080FC00C3F880200E4BD3F884300C4A53600C4BE1
:10810C004FF0FF32C3F88420019B00221A7002E06A
:10811C00019B01221A70039B002B01D1FFF7CEFFAC
:10812C000023184605B05DF804FB00BF6C3400203A
:10813C0000E100E0FC06FFBD00B585B003468DF8FC
:10814C000730104B9B68002B16D09DF80730002B86
:10815C0012D1FFF7A7FF03900B4A0A4B1B68136061
:10816C00094A084B5B685360064B00229A60039BDC
:10817C00002B01D1FFF7A2FF0023184605B05DF8D4
:10818C0004FB00BF6C34002000E100E000B583B0BC
:10819C0001900198FFF796FF00BF03B05DF804FB58
:1081AC0000B583B003468DF807309DF807301846AC
:1081BC00FFF7C2FF00BF03B05DF804FB82B00346BB
:1081CC008DF807309DF90730002B0CDB9DF807303C
:1081DC0003F01F0205499DF907305B09012000FAE5
:1081EC0002F241F8232000BF02B0704700E100E02A
:1081FC0082B003468DF807309DF90730002B0DDB5C
:10820C009DF8073003F01F0206499DF907305B0902
:10821C00012000FA02F2403341F8232000BF02B0E3
:10822C00704700BF00E100E082B0034600918DF87A
:10823C0007309DF90730002B0ADB009BDAB20C49A2
:10824C009DF907305201D2B20B4483F800230BE0A6
:10825C00009BDAB207499DF8073003F00F03043B8B
:10826C005201D2B20B441A7600BF02B0704700BF65
:10827C0000E100E000ED00E000B583B003460A46E3
:10828C008DF8073013468DF806309DF806209DF9C1
:10829C00073011461846FFF7C7FF00BF03B05DF863
:1082AC0004FB00B583B003468DF807309DF9073009
:1082BC001846FFF783FF00BF03B05DF804FB000016
:1082CC0000B585B00190019B002B0AD0074B43F001
:1082DC0001030393019B9B010293039B0298984714
:1082EC0000E000BF05B05DF804FB00BF308D03005B
:1082FC0084B0039002910192039B029A02F5A8723A
:10830C00019943F8221000BF04B0704782B001906D
:10831C000091019B009A02F5A87253F8223018467E
:10832C0002B0704782B001900091019B009AC3F893
:10833C00042300BF02B0704782B001900091019BF2
:10834C00009AC3F8082300BF02B0704782B00190B6
:10835C000B46ADF80230BDF80230019A13441B688D
:10836C00184602B0704784B001900B46ADF802304D
:10837C00BDF80230019A134400221A60BDF8023095
:10838C00019A13441B680393039B00BF04B070470E
:10839C0082B00190019BD3F80435184602B07047A7
:1083AC0082B001900091019B009AC3F8082500BF90
:1083BC0002B0704782B001900B468DF803309DF8E7
:1083CC000320019B13441A460123136000BF02B023
:1083DC00704782B001900091019B009AC3F844232E
:1083EC0000BF02B0704782B001900091019B009ACF
:1083FC00C3F8482300BF02B07047000000B587B037
:10840C00039002910192039B5B791946284A019BC8
:10841C0042F82130039B5B79264ADB0013441B791D
:10842C00002B0ED008230593234A244BD31ADB08C8
:10843C001B0443F0020322491846FEF743FD059B3B
:10844C0032E0039B1A68029B1B8819461046FFF703
:10845C00A7FF039B93F90420029B9B7819461046B7
:10846C00FFF70AFF039B93F904301846FFF719FF37
:10847C00039B5B790F4ADB00134401221A71039BA7
:10848C005B7919460B4A039B42F831300023059364
:10849C00094A0A4BD31ADB081B0443F003030949AE
:1084AC001846FEF70FFD059B184607B05DF804FB58
:1084BC00783400207C340020C88A0300788A0300BA
:1084CC00D88C0300FC8C030000B583B00190019B99
:1084DC001B6800211846FFF76DFF00BF03B05DF865
:1084EC0004FB00B583B00190019B1B680421184666
:1084FC00FFF760FF00BF03B05DF804FB00B587B069
:10850C000390029101928DF803304FF48032029B5C
:10851C0002FA03F30593029B50339BB29B00ADF818
:10852C001230019B23F07F430193039B1B68059939
:10853C001846FFF701FF039B1B6805991846FFF7C8
:10854C0052FF039B1B68BDF8122011461846FFF71B
:10855C000AFF039B1B68019A02991846FFF7C8FE95
:10856C00039B1B6805991846FFF733FF9DF80330F2
:10857C00002B05D0039B1B6805991846FFF7D2FE0C
:10858C0000BF07B05DF804FB00B585B00390029105
:10859C0013468DF80730039B1B6802991846FFF7AA
:1085AC0018FF9DF80730002B05D0039B1B68029920
:1085BC001846FFF7B7FE00BF05B05DF804FB00B529
:1085CC0083B001900091019B1B6800991846FFF73E
:1085DC000AFF019B1B6800991846FFF7ADFE00BF10
:1085EC0003B05DF804FB00B583B001900B46ADF809
:1085FC000230019B1B68BDF8022011461846FFF79C
:10860C00A5FE0346002B09D0019B1B68BDF8022078
:10861C0011461846FFF7A7FE012300E00023184679
:10862C0003B05DF804FB82B001900091019A009BAD
:10863C00D31A23F07F43184602B0704700B58BB0B5
:10864C0003900291019200934FF48032029B02FA44
:10865C0003F30993029B50339BB29B00ADF822307D
:10866C00019B23F07F43019309990398FFF7A7FF20
:10867C00039B1B681846FFF78BFE0790039B1B6838
:10868C0002991846FFF742FE0690039B1B68079A57
:10869C0002991846FFF72CFE039B1B68BDF822209D
:1086AC0011461846FFF75FFE07990698FFF7BBFFC8
:1086BC000346012B0AD11020FFF702FE039B1B6817
:1086CC00BDF8222011461846FFF74DFE039B1B6890
:1086DC001846FFF75DFE079007990198FFF7A3FF77
:1086EC000590039B1B6809991846FFF772FE059BC2
:1086FC00012B15D1039B1868019B01331A46029973
:10870C00FFF7F6FD1020FFF7DBFD039B1B681846F7
:10871C00FFF73EFE0246079B934235D00D2339E00E
:10872C00039B1B68019A02991846FFF7E1FD039B16
:10873C001B681846FFF72CFE0790019B013B07991D
:10874C001846FFF770FF0590009BC3F1FF1303F56C
:10875C007F43059A9A4201D90D231BE0059B002B00
:10876C0012D1039B1868019B01331A460299FFF73B
:10877C00BFFD039B1B681846FFF70AFE0246079BCA
:10878C00934201D00D2305E0012209990398FFF7CC
:10879C00FBFE002318460BB05DF804FB00B583B05C
:1087AC0001900B468DF803309DF803301A460221D8
:1087BC000198FFF7E9FE00BF03B05DF804FB00B5BC
:1087CC0083B001904FF482710198FFF70CFF0346C0
:1087DC00184603B05DF804FB00B583B0019000911E
:1087EC004FF48032009B02FA03F319460198FFF70D
:1087FC00E6FE00BF03B05DF804FB00B585B0019048
:10880C000091009B50339BB29B00ADF80E30BDF82D
:10881C000E3019460198FFF7E6FE0346184605B0E0
:10882C005DF804FB00B583B00190019B1B681846F2
:10883C00FFF7AEFD0346184603B05DF804FB00B528
:10884C0083B00190019B93F904301846FFF7D0FCDC
:10885C0000BF03B05DF804FB08B5044B1B68044A69
:10886C0012681046984700BF08BD00BF783400203E
:10887C007C34002086B001900091019B53E8011FCD
:10888C008AB2D88902449889824228BF121A188960
:10889C00824202BFBFF32F8F002307E0C2EA01021E
:1088AC0043E801200028E9D14FF001038DF80F3087
:1088BC00059002910492029A009B1A609DF80F3069
:1088CC00DBB2184606B0704784B00190019951E8AC
:1088DC00013FC3EA034341E80132002AF7D1039276
:1088EC00029300BF04B0704786B001900091019BC9
:1088FC0053E8021F1FFAA1F2D888824202BFBFF3CD
:10890C002F8F00230DE0D88902449889824228BF1A
:10891C00121AC1EA024243E802200028E8D14FF0C3
:10892C0001038DF80F30059002910492029A009B7E
:10893C001A609DF80F30DBB2184606B0704784B051
:10894C000190019951E8023FC3EA234341E8023206
:10895C00002AF7D10392029300BF04B0704784B091
:10896C000390029111461A460B46ADF80630134699
:10897C00ADF80430029B002B01D10E231FE0BDF893
:10898C000630BDF80420B3FBF2F101FB02F29B1A96
:10899C009BB2002B01D0092311E0039B029A1A60B1
:1089AC00039B00225A60039B00229A60039BBDF834
:1089BC0006209A81039BBDF80420DA810023184617
:1089CC0004B0704700B585B001900091009B19462A
:1089DC000198FFF74FFF0346002B07D0019B1B6844
:1089EC00009A128813440393039B00E0002318465B
:1089FC0005B05DF804FB00B583B001900091009BBD
:108A0C001A88009B5B889A4204D10198FFF75CFF9F
:108A1C00012300E00023184603B05DF804FB00B509
:108A2C0085B001900091009B19460198FFF75CFFFF
:108A3C000346002B07D0019B1B68009A52881344F5
:108A4C000393039B00E00023184605B05DF804FB7C
:108A5C0000B583B001900091009B1A88009B5B8845
:108A6C009A4204D10198FFF76AFF012300E000232A
:108A7C00184603B05DF804FB00B585B00190009179
:108A8C00009B5B099B00019A1A44009B03F01F0397
:108A9C00012101FA03F31946104600F04DF803903A
:108AAC0000BF05B05DF804FB00B585B001900091E6
:108ABC00009B5B099B00019A1A44009B03F01F0367
:108ACC00012101FA03F3DB431946104600F064F868
:108ADC00039000BF05B05DF804FB82B001900091DB
:108AEC00009B5B099B00019A13441A68009B03F0DE
:108AFC001F0322FA03F303F00103002B14BF01231D
:108B0C000023DBB2184602B0704710B487B0019056
:108B1C000091019B009A53E8004F104643E8000176
:108B2C0091F0000FF7D1059404900391059B184622
:108B3C0007B05DF8044B704710B487B001900091FA
:108B4C00019B009A53E8004F44EA020043E80001FD
:108B5C0091F0000FF6D1059404900391049B1846F4
:108B6C0007B05DF8044B704710B487B001900091CA
:108B7C00019B009A53E8004F04EA020043E800010D
:108B8C0091F0000FF6D1059404900391059B1846C3
:108B9C0007B05DF8044B704710B487B0019000919A
:108BAC00019B009A53E8004F04EA020043E80001DD
:108BBC0091F0000FF6D1059404900391049B184694
:108BCC0007B05DF8044B704710B487B0019000916A
:108BDC00019B009A53E8004F04EB020043E80001AC
:108BEC0091F0000FF6D1059404900391049B184664
:108BFC0007B05DF8044B704710B487B0019000913A
:108C0C00019B009A53E8004FA4EB020043E80001DB
:108C1C0091F0000FF6D1059404900391049B184633
:108C2C0007B05DF8044B704700B583B0019001218B
:108C3C000198FFF781FF0346184603B05DF804FB6B
:108C4C0000B583B0019000210198FFF78DFF03461A
:108C5C00184603B05DF804FB82B001900B468DF80A
:108C6C000330019BDA689DF803300199098A01FBF6
:108C7C0003F31344184602B0704782B00190009180
:108C8C00009B019AD2689B1A019A128AB3FBF2F3E9
:108C9C00DBB2184602B0704784B00190019B002BE8
:108CAC0001D10E2320E0019B9A68019B5B68D31ACB
:108CBC008DF80F30019B1B68019A52681A6007E00F
:108CCC00019B1A681368591C11609DF80F201A70CB
:108CDC009DF80F305A1E8DF80F20002BF0D1019B00
:108CEC001B6800221A710023184604B0704700B5A7
:108CFC0085B001900023039300238DF80A300DF109
:108D0C000A031846FFF742FA019B1B681A68019B7D
:108D1C005B689A421FD9019B1B681A68013A1A605A
:108D2C001B681B7819460198FFF796FF0390019B6F
:108D3C009A68019B1B681B68D31A8DF80B30019B3A
:108D4C001B681B799DF80B209A4204D9019B1B6868
:108D5C009DF80B201A719DF80A301846FFF720FA7F
:108D6C00039B184605B05DF804FB10B584B0019068
:108D7C000091009B039300238DF80B300DF10B0336
:108D8C001846FFF703FA019B1B681C68621C1A60EB
:108D9C0003990198FFF771FF034623709DF80B3080
:108DAC001846FFF7FDF900BF04B010BD00B583B045
:108DBC000190019B9B68002B0CD0019B5B69019A75
:108DCC001069019A1168019A92689847019B0022D8
:108DDC009A6000E000BF03B05DF804FB0EB400B570
:108DEC0084B00190059B002B0AD00023039306ABA3
:108DFC00039303AB1A460599019800F0B5F900E00E
:108E0C0000BF04B05DF804EB03B0704700B583B04D
:108E1C0001900B468DF803309DF803300A2B03D1DB
:108E2C000D210198FFF7F2FF019B1A68019B9B68CB
:108E3C00581C0199886013449DF803201A70019BFB
:108E4C009A68019B5B689A4202D30198FFF7AEFFC8
:108E5C0000BF03B05DF804FB00B587B0039002912E
:108E6C000192009300230593009B03F00103002B58
:108E7C0024D00BE0029B01330293059B0133059335
:108E8C009DF8133019460398FFF7C0FF029B1B781F
:108E9C008DF813309DF81330002BEBD106E0019BBD
:108EAC00013B019320210398FFF7B0FF019A059B2A
:108EBC009A422ED9019B002BF1D12AE0029B002B68
:108ECC000BD002980FF0E4FC059006E0019B013BEF
:108EDC00019320210398FFF799FF019A059B9A4271
:108EEC000FD9019B002BF1D10BE0029B01330293B4
:108EFC00059B013305939DF8133019460398FFF732
:108F0C0085FF029B1B788DF813309DF81330002BD6
:108F1C00EBD100BF07B05DF804FB000000B589B0D1
:108F2C000390029101920093029B079301230693F5
:108F3C0007E0079A019BB2FBF3F30793069B0133FF
:108F4C000693079A019B9A42F3D2009A069B9A4287
:108F5C0001D9009B06930B9B03F00103002B22D13C
:108F6C000A9B002B1FD00B9B03F00203002B06D097
:108F7C00009B002B03D130238DF8173002E0202307
:108F8C008DF8173008E00A9B013B0A939DF81730C7
:108F9C0019460398FFF73AFF0A9B002B03D0069A59
:108FAC000A9B9A42EFD301230793009B012B03D911
:108FBC00009B013B009309E0029A079BB2FBF3F381
:108FCC000493049A019B9A4200D205E0079B019AF4
:108FDC0002FB03F30793E8E7029A079BB2FBF3F358
:108FEC000493049B079A02FB03F3029AD31A02938D
:108FFC00154A049B13441B7819460398FFF706FF88
:10900C00079A019BB2FBF3F30793079B002BE3D169
:10901C000B9B03F00103002B11D00A9B002B0ED0ED
:10902C0006E00A9B013B0A9320210398FFF7EEFE12
:10903C000A9B002B03D0069A0A9B9A42F1D300BFDD
:10904C0009B05DF804FB00BF388D030000B589B092
:10905C000590049103920293049B002BB8BF5B42D2
:10906C0006930123079307E0039B069A92FBF3F305
:10907C000693079B01330793039B069A9A42F3DAF4
:10908C00029A079B9A4201D9029B07930A9B002BD9
:10909C000AD0049B002B04DB0B9B03F00403002B76
:1090AC0002D00A9B013B0A930B9B03F00203002B9B
:1090BC0002D0029B002B16D00B9B03F00103002B5C
:1090CC0011D10A9B002B0ED006E00A9B013B0A93A0
:1090DC0020210598FFF79AFE0A9B002B03D0079AD4
:1090EC000A9B9A42F1D3049B002B07DA049B5B4248
:1090FC0004932D210598FFF789FE08E00B9B03F0E4
:10910C000403002B03D02B210598FFF77FFE0B9B4C
:10911C0003F00203002B19D00B9B03F00103002B6F
:10912C0014D1029B002B11D10A9B002B0ED006E010
:10913C000A9B013B0A9330210598FFF767FE0A9BB7
:10914C00002B03D0079A0A9B9A42F1D304990B9BEC
:10915C0001930A9B0093029B039A0598FFF7DEFE8E
:10916C0000BF09B05DF804FB00B58FB00590049109
:10917C000392049B002B00F09181049B1B788DF8CB
:10918C003730049B013304939DF83730002B00F0EB
:10919C007C819DF83730252B40F06B8100230A939E
:1091AC0001230C93049B1B788DF837309DF83730D6
:1091BC00302B0DD0302B1BDC2B2B11D02D2B17D1A2
:1091CC000A9B43F001030A93049B0133049312E0BE
:1091DC000A9B43F002030A93049B013304930AE0B5
:1091EC000A9B43F004030A93049B0133049302E0AB
:1091FC0000230C9300BF0C9B002BD3D100230993AD
:10920C009DF837302A2B0CD1039B1B68191D039A30
:10921C0011601B68099A13440993049B013304934E
:10922C001AE0049B1B788DF837309DF837302F2BC4
:10923C0012D99DF83730392B0ED8049B0133049387
:10924C00099A13469B0013445B001A469DF837306D
:10925C001344303B0993D3E700230B93049B1B78F7
:10926C008DF837309DF837302E2B1DD1049B0133F0
:10927C000493049B1B788DF837309DF837302F2BD7
:10928C0012D99DF83730392B0ED8049B0133049337
:10929C000B9A13469B0013445B001A469DF837301B
:1092AC001344303B0B93E4E7049B1B788DF8373069
:1092BC009DF837306C2B03D09DF83730682B07D1D5
:1092CC00049B01330493049B1B788DF83730EFE734
:1092DC009DF83730252B00F0C280252BC0F2C480BE
:1092EC00782B00F3C180582BC0F2BE80583B202B4A
:1092FC0000F2BA8001A252F823F000BFF7930200EB
:10930C007594020075940200759402007594020025
:10931C007594020075940200759402007594020015
:10932C0075940200759402008D930200AF930200B5
:10933C0075940200759402007594020075940200F5
:10934C00AF930200759402007594020075940200AC
:10935C007594020075940200759402003794020013
:10936C0075940200759402001B940200759402001F
:10937C00D39302007594020075940200F7930200D7
:10938C00039B1B68191D039A11601B680C930C9BA3
:10939C008DF81F309DF81F3019460598FFF736FDE4
:1093AC0063E0039B1B68191D039A11601B680C93E7
:1093BC000A9B0193099B00930B9B0A220C9905981D
:1093CC00FFF744FE51E0039B1B68191D039A1160C3
:1093DC001B680C930C990A9B0193099B00930B9BA4
:1093EC000A220598FFF79AFD3FE0039B1B68191DA5
:1093FC00039A11601B680C930C990A9B0193099BAF
:10940C0000930B9B10220598FFF788FD2DE0039B22
:10941C001B68191D039A11601B6808930A9B099A13
:10942C0008990598FFF718FD1FE0039B1B68191D91
:10943C00039A11601B680C9330210598FFF7E6FC2A
:10944C0078210598FFF7E2FC0C990023019308237F
:10945C000093082310220598FFF760FD05E02521F5
:10946C000598FFF7D3FC00E000BF049B0133049385
:10947C0005E09DF8373019460598FFF7C7FC049BAB
:10948C001B78002B7FF479AE00E000BF059B1B7BA3
:10949C00002B04D00598FFF789FC00E000BF0FB04B
:1094AC005DF804FB00B583B001900198FFF7F4FB65
:1094BC000346184603B05DF804FB00B58BB0019071
:1094CC000091019B1B8A043B0793009A079B134452
:1094DC00DA1C079BB2FBF3F38DF81B300198FFF7F6
:1094EC0006FC0590059B002B01D1002338E0059B61
:1094FC0000221A71059B01225A71079B9AB2059B97
:10950C00DA80059B09939DF81B30013B0493099B62
:10951C00019A1A60002308931DE00198FFF7E7FBFE
:10952C000390039B002B0ED0059B5B790133DAB2C1
:10953C00059B5A71099B039A1A60039B019A1A6046
:10954C00039B099304E0059800F00EF8002307E054
:10955C00089B01330893089A049B9A42DDD3059B20
:10956C0018460BB05DF804FB00B58BB00190019B65
:10957C000793079B5B798DF81B30019B08939DF833
:10958C001B30013B05930023099305E0089B1B68E6
:10959C000893099B01330993099A059B9A42F5D3C9
:1095AC00089B1B680493019B0893002309930BE011
:1095BC00089B1B68039308990498FFF7D6FB039B41
:1095CC000893099B013309939DF81B30099A9A4221
:1095DC00EED300BF00BF0BB05DF804FB00B585B047
:1095EC000190019B0393039B043301211846FFF761
:1095FC00EBFA00BF05B05DF804FB00B587B0019035
:10960C00019B0593059B043301211846FFF7F4FADF
:10961C000346039303AB0493049B1B78002B02D1EA
:10962C000198FFF7A1FF00BF07B05DF804FB00B580
:10963C0091B00390029101920093039B0993039BB9
:10964C000F93099BDB881A46099B5B7902FB03F39A
:10965C00043B0893099BDB880793009B1A1D079B0F
:10966C00B2FBF3F30E93009B0433079AB3FBF2F2B5
:10967C00079901FB02F29B1A0D93019B1A68009B40
:10968C001344089A9A4203D2089A009BD31A01E019
:10969C00019B1B680C93019B0C9A1A6005E00F9BB5
:1096AC001B680F930E9B013B0E930E9B002BF6D168
:1096BC0000230B93079A0D9BD31A0A930A9A0C9BBF
:1096CC00934228BF13460A932AE0029A0B9B134439
:1096DC0006930F9A0D9B1344043305939DF8483061
:1096EC00002B05D00A9A059906980FF001F904E0B1
:1096FC000A9A069905980FF0FBF800230D930F9B1F
:10970C001B680F930C9A0A9BD31A0C930B9A0A9B07
:10971C0013440B93079A0C9B934228BF13460A934E
:10972C000C9B002BD1D100BF00BF11B05DF804FB26
:10973C0000B589B00590049103920293039B0793A3
:10974C0007AA00230093029B04990598FFF76FFF6B
:10975C0000BF09B05DF804FB00B589B00590049119
:10976C0003920293039B079307AA01230093029B86
:10977C0004990598FFF75BFF00BF09B05DF804FB87
:10978C0082B00190019B00221A60BFF35F8F00BF73
:10979C0000BF02B07047000008B5064B00221A70DB
:1097AC000548FFF7EDFF0549054800F028F80023B0
:1097BC00184608BD8834002084340020548D0300E2
:1097CC008C34002082B00190019B9B6800229A602F
:1097DC00019B9B6800221A61019B9B6800225A61C5
:1097EC00019B9B680022DA60019B9B6800225A60F7
:1097FC00019B9B6800221A6000BF02B0704782B0C8
:10980C0001900091019B009A1A60019B1B681A68D9
:10981C00019B5A60019B5A68019B1B685B689A42CA
:10982C0002D1019B00225A6000BF02B0704782B087
:10983C000190019B5B68002B14D0019B5B681A465E
:10984C00019B1B689B6813441A46019B5A60019B41
:10985C005A68019B1B685B689A4204D1019B0022E9
:10986C005A6000E000BF02B0704700B585B00190AF
:10987C000091019B5B6803930FE0019B9B68039A2B
:10988C001268009910469847034683F00103DBB237
:10989C00002B07D1039B1B680393039B1B68002BB6
:1098AC00EBD100E000BF039B1A68009B1A60039B7E
:1098BC00009A1A6000BF05B05DF804FB84B00190FB
:1098CC00019B5B681B680393019B5B681B68002B07
:1098DC0006D0019B5B681A68019B5B6812681A6072
:1098EC00039B184604B0704782B00190019B5B68E3
:1098FC001B68184602B0704784B001900091002399
:10990C008DF80B30019B5B6803930FE0039B1B6886
:10991C00009A9A4207D1009B1A68039B1A60012394
:10992C008DF80B3006E0039B1B680393039B1B68AD
:10993C00002BEBD19DF80B30184604B0704700009B
:10994C0000B585B00190019800F00EF80390039BD0
:10995C00002B01D0039B00E0024B184605B05DF8CC
:10996C0004FB00BF6C8D030086B00190164B059371
:10997C00164B04931FE0049A059BD31ADB10DA0FE5
:10998C0013445B10DB00059A13440393039B1B6881
:10999C000293029A019B9A4202D9039B04930AE018
:1099AC00029A019B9A4203D2039B0833059302E06F
:1099BC00039B5B6804E0059A049B9A42DBD300236B
:1099CC00184606B0704700BF6C91030094920300D8
:1099DC00BFF34F8F00BF064BDB6803F4E062044912
:1099EC00044B1343CB60BFF34F8F00BF00BFFDE7A9
:1099FC0000ED00E00400FA0582B01D4B1B68B3F1CA
:109A0C00FF3F0AD11B4B1B68DBB201931A4B1B683F
:109A1C001B0903F00F03009305E0154B1B68019322
:109A2C00164B1B680093019B062B1DD1009B033B1F
:109A3C00042B17D801A252F823F000BF5D9A020044
:109A4C00619A0200659A0200699A02006D9A0200FE
:109A5C0001230AE0012308E0012306E0012304E0CE
:109A6C00012302E0012300E00023184602B07047F6
:109A7C0030010010E00F00F0E80F00F0340100108E
:109A8C0082B0174B1B68DBB20193164B1B681B098A
:109A9C0003F00F030093019B062B1DD1009B033B8E
:109AAC00042B17D801A252F823F000BFCD9A020064
:109ABC00D19A0200D59A0200D99A0200DD9A0200CE
:109ACC0001230AE0002308E0002306E0002304E061
:109ADC00002302E0002300E00023184602B0704788
:109AEC00E00F00F0E80F00F082B01D4B1B68B3F1E3
:109AFC00FF3F0AD11B4B1B68DBB201931A4B1B684F
:109B0C001B0903F00F03009305E0154B1B68019331
:109B1C00164B1B680093019B062B1DD1009B033B2E
:109B2C00042B17D801A252F823F000BF4D9B020062
:109B3C00519B0200559B0200599B02005D9B020049
:109B4C0001230AE0012308E0012306E0012304E0DD
:109B5C00012302E0012300E00023184602B0704705
:109B6C0030010010E00F00F0E80F00F0340100109D
:109B7C0082B0174B1B68DBB20193164B1B681B0999
:109B8C0003F00F030093019B062B1DD1009B033B9D
:109B9C00042B17D801A252F823F000BFBD9B020082
:109BAC00C19B0200C59B0200C99B0200CD9B020019
:109BBC0001230AE0002308E0002306E0002304E070
:109BCC00002302E0002300E00023184602B0704797
:109BDC00E00F00F0E80F00F082B01D4B1B68B3F1F2
:109BEC00FF3F0AD11B4B1B68DBB201931A4B1B685E
:109BFC001B0903F00F03009305E0154B1B68019341
:109C0C00164B1B680093019B062B1DD1009B033B3D
:109C1C00042B17D801A252F823F000BF3D9C020080
:109C2C00419C0200459C0200499C02004D9C020094
:109C3C0001230AE0012308E0012306E0012304E0EC
:109C4C00012302E0012300E00023184602B0704714
:109C5C0030010010E00F00F0E80F00F034010010AC
:109C6C0082B0174B1B68DBB20193164B1B681B09A8
:109C7C0003F00F030093019B062B1DD1009B033BAC
:109C8C00042B17D801A252F823F000BFAD9C0200A0
:109C9C00B19C0200B59C0200B99C0200BD9C020064
:109CAC0001230AE0002308E0002306E0002304E07F
:109CBC00002302E0002300E00023184602B07047A6
:109CCC00E00F00F0E80F00F082B0174B1B68DBB21E
:109CDC000193164B1B681B0903F00F030093019BA8
:109CEC00062B1DD1009B033B042B17D801A252F865
:109CFC0023F000BF159D0200199D02001D9D02005E
:109D0C00219D0200259D020001230AE0002308E0AA
:109D1C00002306E0002304E0002302E0002300E01F
:109D2C000023184602B07047E00F00F0E80F00F077
:109D3C0082B01D4B1B68B3F1FF3F0AD11B4B1B6854
:109D4C00DBB201931A4B1B681B0903F00F03009342
:109D5C0005E0154B1B680193164B1B680093019B88
:109D6C00062B1DD1009B033B042B17D801A252F8E4
:109D7C0023F000BF959D0200999D02009D9D02005D
:109D8C00A19D0200A59D020000230AE0002308E02B
:109D9C00012306E0012304E0012302E0012300E09B
:109DAC000023184602B0704730010010E00F00F09D
:109DBC00E80F00F03401001082B01D4B1B68B3F1AA
:109DCC00FF3F0AD11B4B1B68DBB201931A4B1B687C
:109DDC001B0903F00F03009305E0154B1B6801935F
:109DEC00164B1B680093019B062B1DD1009B033B5C
:109DFC00042B17D801A252F823F000BF1D9E0200BD
:109E0C00219E0200259E0200299E02002D9E02002A
:109E1C0001230AE0012308E0012306E0012304E00A
:109E2C00012302E0012300E00023184602B0704732
:109E3C0030010010E00F00F0E80F00F034010010CA
:109E4C0082B01D4B1B68B3F1FF3F0AD11B4B1B6843
:109E5C00DBB201931A4B1B681B0903F00F03009331
:109E6C0005E0154B1B680193164B1B680093019B77
:109E7C00062B1DD1009B033B042B17D801A252F8D3
:109E8C0023F000BFA59E0200A99E0200AD9E020019
:109E9C00B19E0200B59E020001230AE0012308E0F6
:109EAC00012306E0012304E0012302E0012300E08A
:109EBC000023184602B0704730010010E00F00F08C
:109ECC00E80F00F03401001082B0154B1B680193B1
:109EDC00144B1B680093019B062B1DD1009B033B6D
:109EEC00042B17D801A252F823F000BF0D9F0200DB
:109EFC00119F0200159F0200199F02001D9F020076
:109F0C0000230AE0002308E0002306E0012304E01C
:109F1C00012302E0012300E00023184602B0704741
:109F2C00300100103401001082B0154B1B680193F6
:109F3C00144B1B680093019B062B1DD1009B033B0C
:109F4C00042B17D801A252F823F000BF6D9F02001A
:109F5C00719F0200759F0200799F02007D9F020095
:109F6C0000230AE0002308E0002306E0002304E0BD
:109F7C00012302E0012300E00023184602B07047E1
:109F8C00300100103401001008B5FFF7CDFF034677
:109F9C00002B07D04FF010234FF08042D3F808323B
:109FAC00C2F8583500BF08BD00BF044BD3F80034CD
:109FBC00002BFAD000BF00BF704700BF00E001408B
:109FCC0000B583B00190054A019BC2F80435FFF738
:109FDC00EBFF00BF03B05DF804FB00BF00E00140E5
:109FEC00024B034A1A6000BF704700BF402B002091
:109FFC000090D00308B5FFF7FFFC0346002B06D0FA
:10A00C00A44B1B681B0AA44A03F01F031360FFF741
:10A01C0037FD0346002B02D0A04BA14A1A60FFF774
:10A02C0063FD0346002B06D09E4B1B685B0B9E4AC0
:10A03C0003F007031360FFF79BFD0346002B05D0CD
:10A04C009A4BDB68994A23F08073D360FFF7C4FD09
:10A05C000346002B0ED04FF080430022C3F80C2196
:10A06C004FF080430022C3F810214FF080430022B0
:10A07C00C3F83825FFF7F4FD0346002B02D08C4BB8
:10A08C0003221A60FFF720FE0346002B0BD0894BEE
:10A09C0005221A60884B01221A60884B00221A6034
:10A0AC00874B3F221A60FFF743FE0346002B76D006
:10A0BC004FF08053834AD3F80434C2F820354FF064
:10A0CC008053804AD3F80834C2F824354FF08053BB
:10A0DC007C4AD3F80C34C2F828354FF08053794AB7
:10A0EC00D3F81034C2F82C354FF08053754AD3F89E
:10A0FC001434C2F830354FF08053724AD3F8183408
:10A10C00C2F834354FF080536E4AD3F81C34C2F881
:10A11C0040354FF080536B4AD3F82034C2F84435A5
:10A12C004FF08053674AD3F82434C2F848354FF0C7
:10A13C008053644AD3F82834C2F84C354FF080531E
:10A14C00604AD3F82C34C2F850354FF080535D4A36
:10A15C00D3F83034C2F854354FF08053594AD3F801
:10A16C003434C2F860354FF08053564AD3F8383443
:10A17C00C2F864354FF08053524AD3F83C34C2F8DD
:10A18C0068354FF080534F4AD3F84034C2F86C35E1
:10A19C004FF080534B4AD3F84434C2F87035FFF774
:10A1AC000BFE0346002B05D0474B1B68474A03F0B8
:10A1BC004F031360FFF744FE0346002B0DD04FF006
:10A1CC008043D3F8003403F00103002B05D04FF08B
:10A1DC0080436FF00102C3F80024FFF775FE0346BD
:10A1EC00002B05D03A4B1B68394A43F4806313604B
:10A1FC00384BD3F88830374A43F47003C2F88830B0
:10A20C00BFF34F8F00BFBFF36F8F00BFFFF7BCFED4
:10A21C004FF01023D3F80C3203F00103012B13D1B0
:10A22C000120FFF7CDFE4FF01023D3F80C324FF086
:10A23C00102223F00103C2F80C32FFF7B5FE002008
:10A24C00FFF7BEFEFFF7C4FB4FF01023D3F800322C
:10A25C00002B05DB4FF01023D3F80432002B15DA5A
:10A26C000120FFF7ADFE4FF010231522C3F800229A
:10A27C00FFF79AFE4FF010231522C3F80422FFF7C4
:10A28C0093FE0020FFF79CFEFFF7A2FBFFF7A8FE52
:10A29C0000BF08BD240300104035014074C00740C6
:10A2AC000DF0ADBA440200103C050040F0ED00E0AA
:10A2BC00A00500401056004088560040185600403B
:10A2CC001456004000C0004058020010E40E00403C
:10A2DC003C17004000ED00E082B001904FF0A0432D
:10A2EC00184602B0704700B585B0019001AB184616
:10A2FC00FFF7F2FF0390019B012202FA03F31946C8
:10A30C00039800F069F800BF05B05DF804FB00B5D8
:10A31C0085B0019001AB1846FFF7DEFF0390019B5F
:10A32C00012202FA03F31946039800F05FF800BF0C
:10A33C0005B05DF804FB00B585B0019001AB184683
:10A34C00FFF7CAFF0390039BD3F804350293029BDB
:10A35C00DA43019B012101FA03F31A40039BC3F872
:10A36C000825019B01229A40029B1A40039BC3F8CB
:10A37C000C2500BF05B05DF804FB00B583B001905F
:10A38C000091009B002B03D10198FFF7C0FF02E066
:10A39C000198FFF7A8FF00BF03B05DF804FB00B500
:10A3AC0085B0019001AB1846FFF796FF0390039818
:10A3BC0000F00AF80246019B22FA03F303F00103B2
:10A3CC00184605B05DF804FB82B00190019BD3F8F0
:10A3DC000435184602B0704782B001900091019B81
:10A3EC00009AC3F8082500BF02B0704782B00190F4
:10A3FC000091019B009AC3F80C2500BF02B0704776
:10A40C0000B585B001900F4A019B13441B78184688
:10A41C00FFF7C5FF0346002B14BF012300238DF863
:10A42C000F309DF80F30002B14BF01230023DBB23B
:10A43C0083F00103DBB203F00103DBB2184605B075
:10A44C005DF804FB9492030000B583B00190064ABA
:10A45C00019B13441B7800211846FFF78EFF00BFA9
:10A46C0003B05DF804FB00BF9492030000B583B009
:10A47C000190064A019B13441B7801211846FFF7F3
:10A48C007CFF00BF03B05DF804FB00BF9492030097
:10A49C0000B583B00023019305E00198FFF7E6FFB8
:10A4AC00019B01330193019B032BF6D900BF00BF25
:10A4BC0003B05DF804FB00B583B00023019305E005
:10A4CC000198FFF7C1FF019B01330193019B032B03
:10A4DC00F6D900BF00BF03B05DF804FB00B583B034
:10A4EC000190054A019B13441B781846FFF723FF84
:10A4FC0000BF03B05DF804FB9492030082B001909E
:10A50C00034A019B13441B78184602B0704700BFE6
:10A51C009892030082B003468DF807309DF90730FE
:10A52C00002B13DB9DF8073003F01F0209499DF93E
:10A53C0007305B09012000FA02F2203341F8232096
:10A54C00BFF34F8F00BFBFF36F8F00BF00BF02B0D0
:10A55C00704700BF00E100E0044BD3F80034002B3F
:10A56C0014BF01230023DBB21846704700000140E2
:10A57C0008B5FFF7F1FF034683F00103DBB2002BB4
:10A58C0004D000F0F1FA024B00229A7000BF08BD13
:10A59C009434002000B583B000230193184B1B7832
:10A5AC00002B02D0852301931CE0154B00229A60EE
:10A5BC00134B00225A60124B00221A61104B0022DE
:10A5CC00DA60104800F0AEFA01900CF049FF034637
:10A5DC0083F00103DBB2002B01D000F0BDFA084B75
:10A5EC0001221A70FFF7B8FF0346002B02D0044B70
:10A5FC0001229A70019B184603B05DF804FB00BF62
:10A60C0094340020C1A6020084B00190019B1B6809
:10A61C000393039B002B03D0039B1A68019B1A60C6
:10A62C00039B184604B0704700B583B000238DF827
:10A63C0007300DF107031846FDF7A8FD094BDB6841
:10A64C00013B084AD360074BDB68002B01D1FFF7B5
:10A65C008FFF9DF807301846FDF7A2FD00BF03B031
:10A66C005DF804FB9434002000B585B003468DF8EA
:10A67C0007309DF80730002B02D10C4B039301E0FF
:10A68C000B4B03930398FFF7BFFF0290029B002B29
:10A69C0006D0029B5B689DF8072010469847F1E7AF
:10A6AC0000BF00BF05B05DF804FB00BF9C34002068
:10A6BC00A434002000B583B003468DF807309DF814
:10A6CC000730002B05D10A4B01225A700020FFF7EE
:10A6DC00CBFF9DF80730012B05D1054B01229A7059
:10A6EC000120FFF7C1FF00BF03B05DF804FB00BF02
:10A6FC009434002000B583B001900091019B002B95
:10A70C0005D1054B01225A700020FFF7ADFF00BFA9
:10A71C0003B05DF804FB00BF9434002000B585B095
:10A72C00034600918DF807309DF80730032B29D094
:10A73C00032B2CDC002B02D0012B04D027E00020B3
:10A74C00FFF7E8FE24E000238DF80F300DF10F0326
:10A75C001846FDF71BFD104B1B7883F00103DBB291
:10A76C00002B01D0FFF716FF0B4BDB6801330A4AB5
:10A77C00D360094B01229A709DF80F301846FDF7F3
:10A78C000FFD05E000F0E8F9FFF74EFF00E000BF19
:10A79C0000BF05B05DF804FB9434002000B589B00F
:10A7AC0001900091009B0793019B1B788DF80C3056
:10A7BC00019B5B680493019B9B68DBB28DF81430A2
:10A7CC00019BDB680693074A079B52F82330064926
:10A7DC00079A51F8221003AA1046984700BF09B0F7
:10A7EC005DF804FBA8340020AC34002000B589B01F
:10A7FC0001900091009B0793019B1B788DF80C3006
:10A80C00019B5B680493019B9B68DBB28DF8143051
:10A81C00019BDB680693074A079B52F823300649D5
:10A82C00079A51F8221003AA1046984700BF09B0A6
:10A83C005DF804FBA8340020AC34002030B58FB098
:10A84C00039002910192039B1B780C9326490C9B5D
:10A85C00019A41F82320029B1A6924490C9B41F868
:10A86C002320029B5B7F1946214A0C9B13440A460A
:10A87C001A70029B04AC1D460FCD0FC495E80F0057
:10A88C0084E80F000C9B089300230D93039B1B780B
:10A89C001A46174B9B5C002B0DD0039B181D019B7C
:10A8AC00002B01D0134A00E0002204AB194601F042
:10A8BC00C3FE0D9014E0039B1B781A460C4B9B5C5B
:10A8CC00002B0DD1039B03F10C00019B002B01D03D
:10A8DC00094A00E0002204AB194601F0A9F80D90DA
:10A8EC000D9B18460FB030BDA8340020AC340020AE
:10A8FC00B0340020A9A70200F9A7020082B00346D9
:10A90C008DF807309DF90730002B0CDB9DF80730D4
:10A91C0003F01F0205499DF907305B09012000FA7D
:10A92C0002F241F8232000BF02B0704700E100E0C2
:10A93C0082B0034600918DF807309DF90730002B4B
:10A94C000ADB009BDAB20C499DF907305201D2B2F6
:10A95C000B4483F800230BE0009BDAB207499DF807
:10A96C00073003F00F03043B5201D2B20B441A76AA
:10A97C0000BF02B0704700BF00E100E000ED00E056
:10A98C0082B00190019B1B0B5BB2184602B0704762
:10A99C0000B583B003460A468DF8073013468DF890
:10A9AC0006309DF806209DF9073011461846FFF732
:10A9BC00BFFF00BF03B05DF804FB00B583B00346D6
:10A9CC008DF807309DF907301846FFF797FF00BF49
:10A9DC0003B05DF804FB000082B003468DF807302D
:10A9EC000F4A9DF90730002B00DA1F335B115BB265
:10A9FC0052F823209DF90730594203F01F0301F050
:10AA0C001F0158BF4B425BB222FA03F303F0010360
:10AA1C00002B14BF01230023DBB2184602B0704791
:10AA2C0000E100E082B001904FF08042019BC2F83F
:10AA3C00083300BF02B0704782B003468DF8073070
:10AA4C009DF8073003F1804301221A6000BF02B069
:10AA5C00704784B00346ADF80630BDF8063003F1FC
:10AA6C00804300221A60BDF8063003F180431B6856
:10AA7C000393039B00BF04B0704782B00346ADF84C
:10AA8C000630BDF8063003F180431B68002B14BF61
:10AA9C0001230023DBB2184602B0704782B001904C
:10AAAC004FF08042019BC2F8183500BF02B07047CE
:10AABC004FF08043D3F818341B0C03F00103002B28
:10AACC0014BF01230023DBB21846704700B583B0D6
:10AADC0006238DF807304FF08040FFF751FF0346F7
:10AAEC001846FFF779FF034683F00103DBB2002B16
:10AAFC0013D04FF08040FFF743FF03461A469DF8F2
:10AB0C00073019461046FFF743FF4FF08040FFF720
:10AB1C0037FF03461846FFF750FF00BF03B05DF840
:10AB2C0004FB000084B0019000230393094B1B79B4
:10AB3C00002B02D08523039308E0064A019B136087
:10AB4C00044B01221A71034B00225A71039B1846C5
:10AB5C0004B07047B434002008B5FFF7B7FF0120EC
:10AB6C00FFF79CFF00BF08BD08B50220FFF75AFF96
:10AB7C004FF48270FFF76DFF0C20FFF75DFF00BFF5
:10AB8C00FFF796FF0346002BFAD100BF00BF08BDAC
:10AB9C0008B54FF48070FFF770FF0346002B14D0FC
:10ABAC004FF48070FFF755FF0120FFF73BFF114B6F
:10ABBC005B7983F00103DBB2002B06D00D4B012235
:10ABCC005A710C4B1B68002098474FF48270FFF7AA
:10ABDC0054FF0346002B0AD04FF48270FFF739FF65
:10ABEC000220FFF71FFF034B1B680120984700BF93
:10ABFC0008BD00BFB434002082B003468DF8073086
:10AC0C009DF90730002B0CDB9DF8073003F01F0279
:10AC1C0005499DF907305B09012000FA02F241F861
:10AC2C00232000BF02B0704700E100E082B0034671
:10AC3C0000918DF807309DF90730002B0ADB009B43
:10AC4C00DAB20C499DF907305201D2B20B4483F8A9
:10AC5C0000230BE0009BDAB207499DF8073003F0A4
:10AC6C000F03043B5201D2B20B441A7600BF02B060
:10AC7C00704700BF00E100E000ED00E082B0019001
:10AC8C00019B1B0B5BB2184602B0704700B583B03A
:10AC9C0003460A468DF8073013468DF806309DF8AA
:10ACAC0006209DF9073011461846FFF7BFFF00BF7D
:10ACBC0003B05DF804FB00B583B003468DF8073094
:10ACCC009DF907301846FFF797FF00BF03B05DF8FA
:10ACDC0004FB00B583B00346ADF80630BDF8063072
:10ACEC00184600F026F803461B68012B0CBF012305
:10ACFC000023DBB2184603B05DF804FB00B585B049
:10AD0C000346ADF80630BDF80630184600F011F8D1
:10AD1C0003461A4600231360BDF80630184600F0AF
:10AD2C0008F803461B680393039B00BF05B05DF84E
:10AD3C0004FB82B00346ADF80630BDF8063003F1D3
:10AD4C00804303F5C043184602B0704782B00190AF
:10AD5C00034A019BC2F8043300BF02B0704700BF26
:10AD6C000060004082B00190034BD3F80423019B98
:10AD7C001340184602B070470060004082B001904A
:10AD8C00054A019B03F5A27352F823301B0A03F00A
:10AD9C001F03184602B070470060004082B001905B
:10ADAC00064A019B03F5A27352F823301B0C03F0E7
:10ADBC000303DBB2184602B0704700BF00600040CE
:10ADCC0082B001904FF0A043184602B0704700B516
:10ADDC0085B001900B468DF8033001AB1846FFF798
:10ADEC00EFFF0390019A039B02F5E07253F82230B7
:10ADFC00019A23F44031039B02F5E07243F82210D0
:10AE0C00019A039B02F5E07253F822309DF803205F
:10AE1C0012041146019A1943039B02F5E07243F8A0
:10AE2C00221000BF05B05DF804FB00B585B00190A1
:10AE3C0001AB1846FFF7C4FF0390019A039B02F580
:10AE4C00E07253F822301B0C03F00303DBB21846FC
:10AE5C0005B05DF804FB86B00390029101924FF0AF
:10AE6C00A0430493039B059319E0059B9B001833A7
:10AE7C006B4453F8083CD3F82025019B1A60059BC2
:10AE8C009B0018336B4453F8083C019A1268C3F8C2
:10AE9C002025019B04330193059B01330593039AF1
:10AEAC00029B1344059A9A42DFD300BF00BF06B041
:10AEBC00704700B585B0019001AB1846FFF780FFD5
:10AECC000390019B012202FA03F31A46039BC3F879
:10AEDC00202500BF05B05DF804FB84B00190019BF8
:10AEEC005B09029300230393029B002B03D14FF0C9
:10AEFC00FF33039300BF019B03F01F030193039ADD
:10AF0C00019B22FA03F303F00103002B14BF01236E
:10AF1C000023DBB2184604B0704784B00190009156
:10AF2C00009B0393019BDB080293019B03F0070337
:10AF3C0001930122019B02FA03F30399029A0A443A
:10AF4C0012781340184604B07047000082B001908C
:10AF5C00044A019B13443033FF221A7000BF02B025
:10AF6C00704700BFBC34002082B00190044A019BA2
:10AF7C001344303393F90030184602B0704700BFC9
:10AF8C00BC34002082B00190034A019B52F823305C
:10AF9C00184602B0704700BFBC34002084B001904A
:10AFAC00074A019B1344503393F900308DF80F304E
:10AFBC009DF80F3023F0C003184604B0704700BF53
:10AFCC00BC34002084B00190074A019B13445033D9
:10AFDC0093F900308DF80F309DF80F309B09DBB2E0
:10AFEC00184604B0704700BFBC34002082B0034642
:10AFFC008DF807309DF80730094A4FF0FF3142F8C1
:10B00C0023109DF80730072B07D99DF80730083B14
:10B01C00034A1344FF2283F8502000BF02B070474C
:10B02C00BC34002000B583B02D4B93F85830002B66
:10B03C0003D008230093009B4EE000238DF80730CB
:10B04C0011E09DF807301846FFF747FF0346002B29
:10B05C0004D09DF807301846FFF778FF9DF80730AD
:10B06C0001338DF807309DF807301F2BE9D90023E9
:10B07C008DF8073009E09DF807301846FFF7B6FF4A
:10B08C009DF8073001338DF807309DF807300B2BF6
:10B09C00F1D90422002113480DF060FC1248FFF78F
:10B0AC00EDFD034606211846FFF7F0FD0E48FFF7AD
:10B0BC00E5FD03461846FFF7FEFD4FF4BE70FFF7A3
:10B0CC001DFE4FF00040FFF741FE054B012283F8B7
:10B0DC00582000230093009B184603B05DF804FB36
:10B0EC00BC340020103500200060004000B585B055
:10B0FC000190019A01210020FFF7ADFE002303937C
:10B10C000BE0039B9B00019A13441B68002B01D09E
:10B11C00012306E0039B01330393039B002BF0D028
:10B12C000023184605B05DF804FB000000B587B09D
:10B13C000190002305935BE0344A059B1344503384
:10B14C0093F90030B3F1FF3F4ED00598FFF726FF7F
:10B15C00049001990498FFF7E0FE0346002B44D0BD
:10B16C000598FFF72FFF03468DF80F300498FFF773
:10B17C005CFE03468DF80E309DF80E30022B01D18B
:10B18C00032300E002238DF80D309DF80D30194695
:10B19C000498FFF71CFE0498FFF78BFE0498FFF74A
:10B1AC00E3FE03461846FFF7EDFE0290029B002BD0
:10B1BC001BD09DF80F30032B0FD09DF80E30022BB7
:10B1CC0003D19DF80F30012B07D09DF80E30032BC7
:10B1DC000BD19DF80F30022B07D19DF80F20029B4D
:10B1EC0011460498984700E000BF059B0133059376
:10B1FC00059B032BA0D90198FFF778FF0346002B82
:10B20C0097D100BF00BF07B05DF804FBBC34002031
:10B21C0000B589B000230693002300934FF480738C
:10B22C00ADF81230012307930023059321E0BDF8FC
:10B23C0012301846FFF74DFD0346002B0ED0079831
:10B24C00FFF790FD0346002B08D0BDF812301846CE
:10B25C00FFF754FD069A079B13430693079B5B006D
:10B26C000793BDF812300433ADF81230059B01334F
:10B27C000593059B072BDAD94FF4BE70FFF729FD18
:10B28C000346002B0DD04FF4BE70FFF737FD069B25
:10B29C0043F0004306936B461A4601210020FFF74A
:10B2AC00DAFD069BDBB2002B29D001230793002388
:10B2BC00059321E0079A069B1340002B16D00598A6
:10B2CC00FFF75CFD03900598FFF768FD03468DF8CA
:10B2DC000B300598FFF756FE0190019B002B05D013
:10B2EC009DF80B20019B114603989847079B5B0028
:10B2FC000793059B01330593059B072BDAD9069B16
:10B30C00002B03DA6B461846FFF710FF00BF09B09D
:10B31C005DF804FB08B5024B1B68984708BD00BFDD
:10B32C001835002082B00190019B044A934201D150
:10B33C00034B00E00023184602B070470020004089
:10B34C001835002000B587B0019000910198FFF7E7
:10B35C00E9FF0490049B002B25D000238DF81730B7
:10B36C0000238DF80B300DF10B031846FCF70EFF84
:10B37C00049B1B79002B03D001238DF8173005E0BB
:10B38C00049B009A1A60049B01221A719DF80B30E1
:10B39C001846FCF705FF9DF81730002B03D011233E
:10B3AC000393039B02E000230393039B184607B00F
:10B3BC005DF804FB00B585B001900198FFF7B2FF72
:10B3CC000390039B002B05D0039B00221A60039B68
:10B3DC0000221A7100BF05B05DF804FB82B0034671
:10B3EC008DF807309DF90730002B0CDB9DF80730EA
:10B3FC0003F01F0205499DF907305B09012000FA93
:10B40C0002F241F8232000BF02B0704700E100E0D7
:10B41C0082B003468DF807309DF90730002B13DB03
:10B42C009DF8073003F01F0209499DF907305B09AD
:10B43C00012000FA02F2203341F82320BFF34F8F92
:10B44C0000BFBFF36F8F00BF00BF02B0704700BFDB
:10B45C0000E100E082B0034600918DF807309DF9C1
:10B46C000730002B0ADB009BDAB20C499DF9073040
:10B47C005201D2B20B4483F800230BE0009BDAB2EA
:10B48C0007499DF8073003F00F03043B5201D2B279
:10B49C000B441A7600BF02B0704700BF00E100E019
:10B4AC0000ED00E082B00190019B1B0B5BB21846D3
:10B4BC0002B0704700B583B003460A468DF80730DA
:10B4CC0013468DF806309DF806209DF9073011467D
:10B4DC001846FFF7BFFF00BF03B05DF804FB00B5D3
:10B4EC0083B003468DF807309DF907301846FFF7F7
:10B4FC0075FF00BF03B05DF804FB00B583B00346D5
:10B50C008DF807309DF907301846FFF781FF00BF13
:10B51C0003B05DF804FB84B001900B46ADF802302B
:10B52C00BDF80230019A134400221A60BDF80230B3
:10B53C00019A13441B680393039B00BF04B070472C
:10B54C0082B001900B46ADF80230BDF80230019A82
:10B55C0013441B68002B14BF01230023DBB21846D5
:10B56C0002B0704782B001900091019B009AC3F821
:10B57C00042300BF02B0704782B001900091019B80
:10B58C00D3F80423009B1340002B14BF012300238A
:10B59C00DBB2184602B0704782B001900091019B5B
:10B5AC00009AC3F8082300BF02B0704784B0019022
:10B5BC00019BD3F880340393019B039AC3F8802436
:10B5CC00039B184604B0704782B00190019B042283
:10B5DC00C3F8002500BF02B0704782B00190019BF8
:10B5EC000022C3F8002500BF02B0704784B003905E
:10B5FC0002910192039B019AC3F81425039B029AB2
:10B60C00C3F80C2500BF04B0704700B583B001909F
:10B61C004FF0FF324FF0FF310198FFF7E7FF00BF0B
:10B62C0003B05DF804FB82B00190019BD3F80C359C
:10B63C00184602B0704782B00190019BD3F81435C4
:10B64C00184602B0704782B00190019BD3F80835C0
:10B65C00184602B0704782B00190019BD3F81035A8
:10B66C00184602B0704784B0039002910192039B7C
:10B67C00029AC3F80825039B019AC3F8102500BF52
:10B68C0004B0704700B583B001904FF0FF324FF01B
:10B69C00FF310198FFF7E7FF00BF03B05DF804FB33
:10B6AC0082B00190019BD3F81835DBB2184602B07A
:10B6BC00704782B001900B468DF803309DF8032043
:10B6CC00019BC3F81C2500BF02B0704782B00190EB
:10B6DC000B468DF803309DF80330019A1344012278
:10B6EC001A6000BF02B0704782B001900B468DF813
:10B6FC00033013468DF802309DF803209DF802307C
:10B70C001343DBB21A46019BC3F86C2500BF02B091
:10B71C00704782B001900091019B009AC3F82425D8
:10B72C0000BF02B0704782B001904FF0A0431846A2
:10B73C0002B0704700B585B00190084611461A4614
:10B74C0003468DF803300B468DF8023013468DF806
:10B75C00013001AB1846FFF7E6FF03909DF803207C
:10B76C009DF802305B001A439DF801309B001A4390
:10B77C009DF818301B0242EA03019DF81C301B0493
:10B78C00019A1943039B02F5E07243F8221000BFA3
:10B79C0005B05DF804FB00B585B003900023019360
:10B7AC00002300930023012201210398FFF7C2FF1D
:10B7BC0000BF05B05DF804FB00B585B003900B46E7
:10B7CC008DF80B309DF80B30002201920022009274
:10B7DC00002200210398FFF7ADFF00BF05B05DF814
:10B7EC0004FB00B585B00390002301930023009364
:10B7FC000023012200210398FFF79CFF00BF05B036
:10B80C005DF804FB00B585B0019001AB1846FFF75D
:10B81C008AFF0390019B012202FA03F31946039855
:10B82C0000F004F800BF05B05DF804FB82B0019095
:10B83C000091019B009AC3F8082500BF02B0704725
:10B84C0000B583B001900091009B1B68B3F1FF3FE2
:10B85C0009D0009B1B681846FFF7D4FF009B1B68A0
:10B86C001846FFF798FF009B5B68B3F1FF3F05D0CC
:10B87C00009B5B6800211846FFF79EFF019B1A682E
:10B88C00009B9B6919461046FFF743FF019B186804
:10B89C00009B597D009B1B7D1A46FFF725FF019BE2
:10B8AC001868009B1968009B5B681A46FFF79EFEA0
:10B8BC00009B1B7D012B22D1009B9B68B3F1FF3FAA
:10B8CC0005D0009B9B6800211846FFF775FF009B75
:10B8DC00DB68B3F1FF3F09D0009BDB681846FFF72C
:10B8EC0091FF009BDB681846FFF755FF019B18681A
:10B8FC00009BD968009B9B681A46FFF7B4FE00BFFB
:10B90C0003B05DF804FB000000B583B001900B465A
:10B91C008DF80330019B1B684FF48E711846FFF7AE
:10B92C00FAFD019B1B684FF4A2711846FFF7F3FD5B
:10B93C00019B1B680E491846FFF714FE019B1B6800
:10B94C001846FFF7AFFD03461A469DF8033019461B
:10B95C001046FFF7AFFD019B1B681846FFF7A2FDD1
:10B96C0003461846FFF7BBFD00BF03B05DF804FBB0
:10B97C008000020000B583B00190019B1B68084950
:10B98C001846FFF709FE019B1B681846FFF78AFD56
:10B99C0003461846FFF7B1FD00BF03B05DF804FB8A
:10B9AC008402020000B587B00190019B1B68184609
:10B9BC00FFF739FE0590019B1B681846FFF73BFE0D
:10B9CC000490019B1B681846FFF73DFE0390019BFA
:10B9DC001B681846FFF73FFE0290019B1B68184638
:10B9EC00FFF713FE019B1B681846FFF74BFE059BE8
:10B9FC00B3F1FF3F02D00598FFF7F3FE049BB3F1C0
:10BA0C00FF3F02D00498FFF7ECFE029BB3F1FF3F1F
:10BA1C0002D00298FFF7E5FE039BB3F1FF3F02D083
:10BA2C000398FFF7DEFE00BF07B05DF804FB0000D3
:10BA3C0000B587B0039002910192039B1B791A46C3
:10BA4C002C2302FB03F3284A13440493002305938D
:10BA5C00049B93F82A30002B03D008230593059BF5
:10BA6C003EE0039B1A68039B1B7919461F4B53F846
:10BA7C00213019461046FFF765FC0346002B03D016
:10BA8C0011230593059B2BE002990398FFF7D8FE31
:10BA9C00049B019A5A60029B1A69049B1A60049BCE
:10BAAC005B68002B05D0029B1B7F19460398FFF7A0
:10BABC002BFF039B1B681846FFF786FD049B002297
:10BACC009A61049B0022DA61049B002283F82920EE
