:020000022000DC
:106000000000012019620200016202000362020026
:10601000056202000762020009620200000000003F
:106020000000000000000000000000000B62020001
:106030000D620200000000000F6202001162020007
:10604000FDD702001362020081DF020061F5020049
:1060500005EB0200136202007DDE02000DE102008A
:106060001362020013620200136202001362020054
:106070001362020013620200136202001362020044
:1060800013620200AD1C03001362020013620200DF
:10609000136202001362020001490300136202004E
:1060A0001362020013620200136202001362020014
:1060B00013620200136202000000000000000000F2
:1060C00013620200136202001362020019EB020065
:1060D000136202001362020013620200000000005B
:1060E00000000000000000000000000000000000B0
:1060F00000000000000000000000000000000000A0
:10610000000000000000000000000000000000008F
:10611000000000000000000000000000000000007F
:10612000000000000000000000000000000000006F
:10613000000000000000000000000000000000005F
:10614000000000000000000000000000000000004F
:10615000000000000000000000000000000000003F
:10616000000000000000000000000000000000002F
:10617000000000000000000000000000000000001F
:10618000000000000000000000000000000000000F
:1061900000000000000000000000000000000000FF
:1061A00000000000000000000000000000000000EF
:1061B00000000000000000000000000000000000DF
:1061C00000000000000000000000000000000000CF
:1061D00000000000000000000000000000000000BF
:1061E00000000000000000000000000000000000AF
:1061F000000000000000000000000000000000009F
:10620000FEE7FEE7FEE7FEE7FEE7FEE7FEE7FEE766
:10621000FEE7FEE700F002B8FFF7FCBF0F484FF0C3
:106220000701884385460E4880470E48016841F4BF
:1062300070010160BFF34F8FBFF36F8F00F01AB88A
:1062400009480A490A4A884207D0521A05D00378F9
:1062500001300B700131013AF9D170470000012083
:106260009597020088ED00E03C550300D82A0020F5
:10627000D82A0020344935480A1A02D0072291430F
:106280008D46334933480A1A06D00722914381F3D9
:106290000988022282F314882F483049304A00F0DE
:1062A00041F830483049314A00F03CF83048314933
:1062B000314A00F037F831483149324A00F032F8BB
:1062C00031483249324A00F02DF832483249334AD7
:1062D00000F028F832483349334A00F023F83348B5
:1062E0003349002200F029F832483349002200F0F7
:1062F00024F832483249091A0FF064F8314A9047BD
:106300001F482049884205D00268043003B49047F2
:1063100003BCF7E700208646EC46002000212A4A0D
:106320009047FEE7884207D0521A05D00378013023
:106330000B700131013AF9D17047884202D00270E6
:106340000130FAE7704700000000012000E0002063
:10635000000001200000012098780300D82A0020C6
:10636000382C0020CC630200CC630200D853030019
:1063700098780300D82A0020D82A00203C55030032
:106380003C5503003C5503003C5503003C550300BD
:106390003C5503003C5503003C5503009578030031
:1063A000F8790300382C0020382C0020382C0020ED
:1063B0005046002050460020504600205046002005
:0C63C000506600204162020011730200D0
:1063CC00A8DF704700BF1846AEDF704700BF184605
:1063DC0062DF704700BF184610B58CB00190009179
:1063EC00304B02AC0FCB84E80F00019B002B01D18A
:1063FC000E2353E0009B002B01D10E234EE0009B9B
:10640C001A68019B5A60009B1A79019B83F824201F
:10641C00019A02AB11461846FFF7DAFF0B900B9B63
:10642C000A930A9B002B01D00A9B37E0019B1B7837
:10643C008DF81A3041F23423ADF81830019B03F17A
:10644C00080206AB19460120FFF7BAFF0B900B9B15
:10645C000993099B002B01D0099B1FE00022009996
:10646C00019800F0B3F80B900B9B0893089B002B42
:10647C0001D0089B12E001220099019800F0A6F8C7
:10648C000B900B9B0793079B002B01D0079B05E000
:10649C0002220099019800F099F8034618460CB0B6
:1064AC0010BD00BF4455030000B597B003900846DB
:1064BC0011461A460346ADF80A300B46ADF80830C3
:1064CC0013468DF80730BDF808304FF6FF72934233
:1064DC0053D00223ADF83E3010AB102200211846E9
:1064EC000EF03AFF9DF80730039A0133DB0013449A
:1064FC005B88ADF8403001238DF842300023ADF8B5
:10650C0044300DF13E0312930DF10A031393BDF8C1
:10651C0008304FF6FE72934226D104AB184605F0B4
:10652C00B1F9002314931AE0149B5B0058336B44AD
:10653C0033F8443C184605F07BF90346022B0BD18B
:10654C00149B5B0058336B4433F8442C10AB11464E
:10655C00184600F081F81590149B01331493049B9A
:10656C00149A9A42E0D30AE0BDF8082010AB114609
:10657C00184600F071F8159001E008231593159B4F
:10658C00184617B05DF804FB00B585B0019000917A
:10659C00009B002B15D0019B002B12D0009B03936A
:1065AC00019B1B88102B02D0502B05D00AE00199BF
:1065BC00039800F079F805E00199039800F07AF857
:1065CC0000E000BF05B05DF804FB000000B58DB025
:1065DC000390029113468DF8073004AB2022002162
:1065EC0018460EF0B9FE9DF807301A4A32F81330EF
:1065FC00ADF810300223ADF814300223ADF816308C
:10660C00039B93F824209DF81D3062F304138DF83E
:10661C001D309DF81D3043F002038DF81D30029B98
:10662C005B7B8DF82330029B1B7B8DF82130039B09
:10663C0018899DF807300133DB00039A13449A1C28
:10664C0004AB194605F012FA034618460DB05DF876
:10665C0004FB00BF3C55030000B585B001900B4610
:10666C00ADF80230BDF8023001991846FFF7ACFEC8
:10667C000390039B002B0CD1084A094BD31ADB085F
:10668C001B0443F00303BDF80220064918460DF025
:10669C0053F9039B184605B05DF804FBB454030092
:1066AC00745403005455030082B00190009100BF54
:1066BC0002B0704782B00190009100BF02B07047E9
:1066CC00A8DF704700BF184662DF704700BF18464E
:1066DC0010B58CB001900091304B02AC0FCB84E81C
:1066EC000F00019B002B01D10E2353E0009B002BCC
:1066FC0001D10E234EE0009B1A68019B5A60009B4F
:10670C001A79019B83F82420019A02AB1146184692
:10671C00FFF7DAFF0B900B9B0A930A9B002B01D01F
:10672C000A9B37E0019B1B788DF81A3044F2342316
:10673C00ADF81830019B03F1080206AB1946012095
:10674C00FFF7BEFF0B900B9B0993099B002B01D00D
:10675C00099B1FE000220099019800F043F80B9070
:10676C000B9B0893089B002B01D0089B12E0012285
:10677C000099019800F036F80B900B9B0793079B40
:10678C00002B01D0079B05E002220099019800F034
:10679C0029F8034618460CB010BD00BFA0550300E5
:1067AC0000B585B001900091009B002B15D0019B8A
:1067BC00002B12D0009B0393019B1B88102B02D043
:1067CC00502B05D00AE00199039800F051F805E030
:1067DC000199039800F052F800E000BF05B05DF895
:1067EC0004FB000000B58DB00390029113468DF8A8
:1067FC00073004AB2022002118460EF0ADFD9DF8A9
:10680C0007301A4A32F81330ADF810300223ADF8C5
:10681C0014300223ADF81630039B93F824209DF816
:10682C001D3062F304138DF81D309DF81D3043F0BC
:10683C0002038DF81D30029B5B7B8DF82330029B8D
:10684C001B7B8DF82130039B18899DF80730013391
:10685C00DB00039A13449A1C04AB194605F006F9A5
:10686C00034618460DB05DF804FB00BF98550300B5
:10687C0082B00190009100BF02B0704782B00190CD
:10688C00009100BF02B07047A8DF704700BF1846E8
:10689C00AEDF704700BF184662DF704700BF184676
:1068AC0010B58CB001900091304B02AC0FCB84E84A
:1068BC000F00019B002B01D10E2353E0009B002BFA
:1068CC0001D10E234EE0009B1A68019B5A60009B7D
:1068DC001A79019B83F82420019A02AB11461846C1
:1068EC00FFF7DAFF0B900B9B0A930A9B002B01D04E
:1068FC000A9B37E0019B1B788DF81A3043F2342346
:10690C00ADF81830019B03F1080206AB19460120C3
:10691C00FFF7BAFF0B900B9B0993099B002B01D03F
:10692C00099B1FE000220099019800F0B3F80B902E
:10693C000B9B0893089B002B01D0089B12E00122B3
:10694C000099019800F0A6F80B900B9B0793079BFE
:10695C00002B01D0079B05E002220099019800F062
:10696C0099F8034618460CB010BD00BFB85503008B
:10697C0000B597B00390084611461A460346ADF889
:10698C000A300B46ADF8083013468DF80730BDF8C9
:10699C0008304FF6FF72934253D00223ADF83E30CD
:1069AC0010AB1022002118460EF0D6FC9DF80730D3
:1069BC00039A0133DB0013445B88ADF840300123AC
:1069CC008DF842300023ADF844300DF13E031293A4
:1069DC000DF10A031393BDF808304FF6FE72934283
:1069EC0026D104AB184604F04DFF002314931AE093
:1069FC00149B5B0058336B4433F8443C184604F04A
:106A0C0017FF0346022B0BD1149B5B0058336B44CE
:106A1C0033F8442C10AB1146184600F081F8159051
:106A2C00149B01331493049B149A9A42E0D30AE00A
:106A3C00BDF8082010AB1146184600F071F81590FF
:106A4C0001E008231593159B184617B05DF804FB5D
:106A5C0000B585B001900091009B002B15D0019BD7
:106A6C00002B12D0009B0393019B1B88102B02D090
:106A7C00502B05D00AE00199039800F079F805E055
:106A8C000199039800F07AF800E000BF05B05DF8BA
:106A9C0004FB000000B58DB00390029113468DF8F5
:106AAC00073004AB2022002118460EF055FC9DF84F
:106ABC0007301A4A32F81330ADF810300223ADF813
:106ACC0014300223ADF81630039B93F824209DF864
:106ADC001D3062F304138DF81D309DF81D3043F00A
:106AEC0002038DF81D30029B5B7B8DF82330029BDB
:106AFC001B7B8DF82130039B18899DF807300133DF
:106B0C00DB00039A13449A1C04AB194604F0AEFF45
:106B1C00034618460DB05DF804FB00BFB0550300EA
:106B2C0000B585B001900B46ADF80230BDF80230CF
:106B3C0001991846FFF7ACFE0390039B002B0CD178
:106B4C00084A094BD31ADB081B0443F00303BDF8B6
:106B5C000220064918460CF0EFFE039B184605B0C0
:106B6C005DF804FBB454030074540300C8550300CF
:106B7C0082B00190009100BF02B0704782B00190CA
:106B8C00009100BF02B07047A8DF704700BF1846E5
:106B9C00AEDF704700BF184662DF704700BF184673
:106BAC0010B58CB001900091304B02AC0FCB84E847
:106BBC000F00019B002B01D10E2353E0009B002BF7
:106BCC0001D10E234EE0009B1A68019B5A60009B7A
:106BDC001A79019B83F82420019A02AB11461846BE
:106BEC00FFF7DAFF0B900B9B0A930A9B002B01D04B
:106BFC000A9B37E0019B1B788DF81A3042F2342344
:106C0C00ADF81830019B03F1080206AB19460120C0
:106C1C00FFF7BAFF0B900B9B0993099B002B01D03C
:106C2C00099B1FE000220099019800F0B3F80B902B
:106C3C000B9B0893089B002B01D0089B12E00122B0
:106C4C000099019800F0A6F80B900B9B0793079BFB
:106C5C00002B01D0079B05E002220099019800F05F
:106C6C0099F8034618460CB010BD00BF105603002F
:106C7C0000B597B00390084611461A460346ADF886
:106C8C000A300B46ADF8083013468DF80730BDF8C6
:106C9C0008304FF6FF72934253D00223ADF83E30CA
:106CAC0010AB1022002118460EF056FB9DF8073051
:106CBC00039A0133DB0013445B88ADF840300123A9
:106CCC008DF842300023ADF844300DF13E031293A1
:106CDC000DF10A031393BDF808304FF6FE72934280
:106CEC0026D104AB184604F0CDFD002314931AE012
:106CFC00149B5B0058336B4433F8443C184604F047
:106D0C0097FD0346022B0BD1149B5B0058336B444D
:106D1C0033F8442C10AB1146184600F081F815904E
:106D2C00149B01331493049B149A9A42E0D30AE007
:106D3C00BDF8082010AB1146184600F071F81590FC
:106D4C0001E008231593159B184617B05DF804FB5A
:106D5C0000B585B001900091009B002B15D0019BD4
:106D6C00002B12D0009B0393019B1B88102B02D08D
:106D7C00502B05D00AE00199039800F079F805E052
:106D8C000199039800F07AF800E000BF05B05DF8B7
:106D9C0004FB000000B58DB00390029113468DF8F2
:106DAC00073004AB2022002118460EF0D5FA9DF8CE
:106DBC0007301A4A32F81330ADF810300223ADF810
:106DCC0014300223ADF81630039B93F824209DF861
:106DDC001D3062F304138DF81D309DF81D3043F007
:106DEC0002038DF81D30029B5B7B8DF82330029BD8
:106DFC001B7B8DF82130039B18899DF807300133DC
:106E0C00DB00039A13449A1C04AB194604F02EFEC3
:106E1C00034618460DB05DF804FB00BF085603008E
:106E2C0000B585B001900B46ADF80230BDF80230CC
:106E3C0001991846FFF7ACFE0390039B002B0CD175
:106E4C00084A094BD31ADB081B0443F00303BDF8B3
:106E5C000220064918460CF06FFD039B184605B03E
:106E6C005DF804FBB4540300745403002056030073
:106E7C0082B00190009100BF02B0704782B00190C7
:106E8C00009100BF02B0704700B583B00190019B28
:106E9C000433184608F050F800BF03B05DF804FB4B
:106EAC0082B001904FF0A043184602B0704700B575
:106EBC0085B00190084611461A4603468DF80330FA
:106ECC000B468DF8023013468DF8013001AB184695
:106EDC00FFF7E6FF03909DF803209DF802305B005E
:106EEC001A439DF801309B001A439DF818301B0281
:106EFC0042EA03019DF81C301B04019A1943039BC1
:106F0C0002F5E07243F8221000BF05B05DF804FBF7
:106F1C0000B585B003900023019300230093002358
:106F2C00012201210398FFF7C2FF00BF05B05DF8F5
:106F3C0004FB00B585B003900B468DF80B309DF823
:106F4C000B300022019200220092002200210398B3
:106F5C00FFF7ADFF00BF05B05DF804FB00B585B0D1
:106F6C00019001AB1846FFF79BFF0390019B012298
:106F7C0002FA03F31946039800F02AF800BF05B093
:106F8C005DF804FB00B585B0019001AB1846FFF726
:106F9C0087FF0390019B012202FA03F31946039821
:106FAC0000F020F800BF05B05DF804FB00B583B01D
:106FBC0001900091009B002B03D10198FFF7E2FF99
:106FCC0002E00198FFF7CAFF00BF03B05DF804FBB5
:106FDC0082B001900091019B009AC3F8082500BF74
:106FEC0002B0704782B001900091019B009AC3F8E7
:106FFC000C2500BF02B0704708B500F01DF800F07A
:10700C009DF800F043F800F06DF800BF08BD00B526
:10701C0083B003460A468DF8073013468DF80630C8
:10702C009DF807309DF8062011461846FFF7BEFF65
:10703C0000BF03B05DF804FB00B587B06B460022BF
:10704C001A605A609A60DA60052300930423019356
:10705C004FF0CD63029302238DF80C306946002368
:10706C000022094806F096F90590059B0493049BB1
:10707C00002B02D0049809F019FE0348FFF704FF17
:10708C0000BF07B05DF804FBD82A002010B586B00D
:10709C00124B6C460FCB84E80F0019238DF801308E
:1070AC001C238DF802301D238DF8003001238DF840
:1070BC000C304FF08053029369460023002208489D
:1070CC0006F01CF80590059B0493049B002B02D042
:1070DC00049809F0EBFD00BF06B010BD8856030004
:1070EC00E82A002010B586B0124B6C460FCB84E812
:1070FC000F0005238DF801300C238DF8023002238C
:10710C008DF8003000238DF80C304FF000430293C3
:10711C00694600230022084805F0F0FF0590059B06
:10712C000493049B002B02D0049809F0BFFD00BF10
:10713C0006B010BD88560300F82A002000B583B0B5
:10714C0006F0A0FD0190019B0093009B002B02D048
:10715C00009809F0ABFD03211420FFF7EAFE002193
:10716C000D20FFF7E6FE0420FFF7D2FE1F20FFF7ED
:10717C00CFFE1320FFF7CCFE1E20FFF7C9FE172011
:10718C00FFF7C6FE1220FFF7C3FE1820FFF7C0FE64
:10719C0001210420FFF73BFF01211F20FFF737FFE0
:1071AC0001211320FFF733FF00211E20FFF72FFFD3
:1071BC0001211220FFF72BFF00211720FFF727FFDB
:1071CC0000211820FFF723FF00BF03B05DF804FB7C
:1071DC0000B583B0019000910A4800F0CBFE09483D
:1071EC0000F0A2FF0C22084901980EF07FF80C2247
:1071FC00064900980EF07AF80023184603B05DF8A3
:10720C0004FB00BF382C0020602C00209C2C00209C
:10721C0000B585B00190019B002B0AD0074B43F0C1
:10722C0001030393019B9B010293039B02989847D4
:10723C0000E000BF05B05DF804FB00BFA0560300E2
:10724C0000B583B00190019B002B0AD04FF47A70EB
:10725C00FFF7DEFF019B013B0193019B002BF5D156
:10726C0000E000BF03B05DF804FB000000B583B084
:10727C0001900199044801F0B5F80120FFF7E0FFF7
:10728C0000BF03B05DF804FBC02C002000B585B036
:10729C00039002911346ADF80630039B99B2BDF8EA
:1072AC000630029A084801F0FBF80120FFF7C8FFEE
:1072BC000399054801F080F90120FFF7C1FF00BFD9
:1072CC0005B05DF804FB00BFC02C002076DF7047D2
:1072DC0000BF18467ADF704700BF18467CDF704746
:1072EC0000BF18467FDF704700BF18468FDF70471E
:1072FC0000BF1846B1DF704700BF184633DF704738
:10730C0000BF184608B5104B00221A7400F05AFC46
:10731C0000F01CF800F06EFC00F0A2FB00F05EF830
:10732C0000F0F0FB00F0DAF900F010FC00F026FAA7
:10733C0000F068FDFFF760FE00F06EFC024B0122CE
:10734C001A700CF02DFBFCE7C82C002000B587B0A0
:10735C0009F0D6FF0590059B0493049B002B02D0EB
:10736C00049809F0A3FC174A012117480AF006F803
:10737C000590059B0393039B002B02D0039809F007
:10738C0095FC124A0121124809F0F8FF0590059B63
:10739C000293029B002B02D0029809F087FC0D4A45
:1073AC0001210D4809F0EAFF0590059B0193019B13
:1073BC00002B02D0019809F079FC00BF07B05DF8F2
:1073CC0004FB00BF6D7C0200A8560300517C020038
:1073DC00AC560300637C0200B056030000B587B0C6
:1073EC009DF80030012262F303038DF800309DF804
:1073FC000030012262F307138DF800306B460A222D
:10740C0018491846FFF76AFF0590059B0493049BE7
:10741C00002B02D0049809F049FC01AB0822002192
:10742C0018460DF099FF1023ADF804303C23ADF84D
:10743C0006300023ADF808304FF4C873ADF80A30AD
:10744C0001AB1846FFF746FF0590059B0393039B82
:10745C00002B02D0039809F029FC00BF07B05DF89F
:10746C0004FB00BFB456030000B583B00190019833
:10747C0009F01CFC00BF03B05DF804FB00B587B03D
:10748C006B461022002118460DF066FF0023009376
:10749C0001238DF804300023029301238DF80C3066
:1074AC0001238DF80D3001238DF80E306B461946F3
:1074BC000748FEF791FF0590059B0493049B002B56
:1074CC0002D0049809F0F2FB00BF07B05DF804FB92
:1074DC00E02C002000B587B06B4610220021184626
:1074EC000DF03AFF0023009301238DF804300023A4
:1074FC00029301238DF80C3001238DF80D300123FC
:10750C008DF80E306B4619460748FFF7E1F80590E9
:10751C00059B0493049B002B02D0049809F0C6FB36
:10752C0000BF07B05DF804FB582D002000B587B0F4
:10753C006B461022002118460DF00EFF002300931D
:10754C0001238DF804300023029301238DF80C30B5
:10755C0001238DF80D3001238DF80E306B46194642
:10756C0007480DF00DFC0590059B0493049B002B24
:10757C0002D0049809F09AFB00BF07B05DF804FB39
:10758C00802D002000B587B06B46102200211846D4
:10759C000DF0E2FE0023009301238DF8043000234C
:1075AC00029301238DF80C3001238DF80D3001234B
:1075BC008DF80E306B4619460748FFF771F90590A8
:1075CC00059B0493049B002B02D0049809F06EFBDE
:1075DC0000BF07B05DF804FB302D002000B587B06C
:1075EC006B461022002118460DF0B6FE00230093C6
:1075FC0001238DF804300023029301238DF80C3005
:10760C0001238DF80D3001238DF80E306B46194691
:10761C000748FFF7C5FA0590059B0493049B002BC4
:10762C0002D0049809F042FB00BF07B05DF804FBE0
:10763C00082D002000B587B06B461022002118469B
:10764C000DF08AFE0023009301238DF804300023F3
:10765C00029364238DF80C3001238DF80D30012337
:10766C008DF80E3001238DF80F306B461946084803
:10767C0005F060F80590059B0493049B002B02D049
:10768C00049809F013FB00BF07B05DF804FB00BFC2
:10769C00A82D002000B593B06B464022002118465F
:1076AC000DF05AFE6B460C49184604F05AF90123AA
:1076BC008DF83C306B46184605F0A2FA1190119BE0
:1076CC001093109B002B02D0109809F0EFFA00BF1A
:1076DC0013B05DF804FB00BFC056030000B585B0C5
:1076EC0000230193104B019301AB19460F4804F092
:1076FC0031FE0390039B0293029B002B02D0029855
:10770C0009F0D4FAFFF7BAFEFFF768FFFFF73AFF6C
:10771C00FFF7E0FEFFF70AFFFFF78CFFFFF7BAFF5A
:10772C0000BF05B05DF804FB75740200D02D00207D
:10773C0000B585B00190019B1B78002B0ED1094B35
:10774C001B883B211846FFF7C1FD0390039B029356
:10775C00029B002B02D0029809F0A8FA00BF05B0DA
:10776C005DF804FB682B002000B583B001900198F4
:10777C0009F09CFA00BF03B05DF804FB00B58BB0B8
:10778C0001AB1C22002118460DF0E6FD00230193ED
:10779C004FF4A03302934FF4F023039303238DF89B
:1077AC0010300023ADF8123000238DF814300A4B42
:1077BC0006930A4B079301AB184603F00BFD099097
:1077CC00099B0893089B002B02D0089809F06EFACD
:1077DC0000BF0BB05DF804FB3D770200757702002B
:1077EC0000B585B0002001F05DFB0390039B029374
:1077FC00029B002B02D0029809F058FA01F04FFCC2
:10780C000390039B0193019B002B02D0019809F07C
:10781C004DFAFFF773FD0390039B0093009B002B25
:10782C0002D0009809F042FA00BF05B05DF804FBE5
:10783C0000B585B003468DF807309DF80730002B56
:10784C000ED0032B0FD1022001F02CFB0390039BD5
:10785C000293029B002B08D0029809F027FA04E04F
:10786C00FFF7BEFF02E000BF00E000BF00BF05B0A5
:10787C005DF804FB00B58DB001900091019B1B8855
:10788C00562B00F0C080562B00F3CD80522B00F00D
:10789C009980522B00F3C780212B2DDC102BC0F2CA
:1078AC00C280103B112B00F2BE8001A252F823F0D3
:1078BC000B79020061790200337A0200AF79020081
:1078CC00337A0200337A0200337A0200337A0200F0
:1078DC00337A0200337A0200337A0200337A0200E0
:1078EC00337A0200337A0200337A0200337A0200D0
:1078FC00337A0200817902003B2B74D093E0524A18
:10790C00524BD31ADB081B0443F0030350491846AF
:10791C000CF004F8072001F0C5FA0B900B9B0593B3
:10792C00059B002B02D0059809F0C0F9019B9A88A1
:10793C00484B1A80474B1B881946474804F02CFDCE
:10794C000B900B9B0493049B002B6ED0049809F0B6
:10795C00ADF96AE03C4A3D4BD31ADB081B0443F0FB
:10796C0003033E4918460BF0D9FF3A4B4FF6FF7212
:10797C001A8065E000238DF80C3000238DF80D3053
:10798C00019B9B8803AA11461846FFF7AFFC0B908E
:10799C000B9B0793079B002B49D0079809F086F99E
:1079AC0045E02C4B1888002300228521FFF79AFC18
:1079BC000B900B9B0693069B002B3AD0069809F074
:1079CC0075F936E0234B1888002300220021FFF7BD
:1079DC0091FC0B900B9B0993099B002B2BD00998C6
:1079EC0009F064F927E0019B9B8813211846FFF7E7
:1079FC006DFC0B900B9B0893089B002B1DD00898DB
:107A0C0009F054F919E0019B9B8813211846FFF7E4
:107A1C005DFC0B900B9B0A930A9B002B0FD00A98D2
:107A2C0009F044F90BE000BF0AE000BF08E000BF1A
:107A3C0006E000BF04E000BF02E000BF00E000BFB2
:107A4C0000BF0DB05DF804FBB45403007454030084
:107A5C00CC560300682B0020D02D0020D8560300F4
:107A6C0000B587B00CF0C4FE0590059B0493049BF5
:107A7C00002B02D0049809F019F90023019301ABF3
:107A8C00194601200CF060FF0590059B0393039BA6
:107A9C00002B02D0039809F009F901AB18460DF040
:107AAC0071F80590059B0293029B002B02D0029863
:107ABC0009F0FCF800BF07B05DF804FB00B583B01B
:107ACC0001900091009B1B8840F6772293420ED1C7
:107ADC00094A0A4BD31ADB081B0443F00300009B32
:107AEC005B881A46009B9B8805490BF036FF00BF4C
:107AFC0003B05DF804FB00BFB454030074540300DE
:107B0C00E856030000B585B00E490F4804F022FB7F
:107B1C000390039B0293029B002B02D0029809F066
:107B2C00C5F8F721084804F040FB0390039B019330
:107B3C00019B002B02D0019809F0B8F800BF05B0EA
:107B4C005DF804FBC97A0200BC2D002000B5AFB073
:107B5C0001ABAC22002118460DF0FEFB02238DF880
:107B6C00043000238DF8063005238DF807300223EE
:107B7C00ADF85030104B159301238DF88030402315
:107B8C00239344F2506324930C4B2A9301AB194674
:107B9C000B4802F0BDFF2D902D9B2C932C9B002BA2
:107BAC0002D02C9809F082F80121054802F0A3FFBD
:107BBC0000BF2FB05DF804FB6C2B00203D78020059
:107BCC00DC2D002000B583B04FF4804108480BF049
:107BDC00C9FB0190019B0093009B002B02D00098E5
:107BEC0009F064F80BF050FB00BF03B05DF804FB28
:107BFC00E514030000B583B00AF0F2FF0190019B7D
:107C0C000093009B002B02D0009809F04FF800BFA6
:107C1C0003B05DF804FB000000B583B003210848F5
:107C2C0003F04EF80190019B0093009B002B02D0B7
:107C3C00009809F03BF800BF03B05DF804FB00BFEF
:107C4C00DC2D002000B583B0019000F013F800BFCC
:107C5C0003B05DF804FB82B0019000BF02B0704726
:107C6C0000B583B0019000F045F800BF03B05DF89B
:107C7C0004FB000000B583B000238DF807300DF134
:107C8C000703184600F0D4FA9DF807309AB2164B49
:107C9C001B8813449AB2144B1A80144B1B78013373
:107CAC00DAB2124B1A70114B1B78092B17D90E4BE9
:107CBC001B881A460D4B1B7892FBF3F3DBB28DF845
:107CCC0007300A4B00221A70074B00221A809DF8CD
:107CDC0007304FF6FE721946054804F08BFD00BFC5
:107CEC0003B05DF804FB00BF1032002012320020FC
:107CFC00A82D002000B587B06A4603AB1146184684
:107D0C00FFF766FADDED037AFCEEE77A17EE903AB0
:107D1C0099B200234FF6FE723748FEF7C5FBDDED36
:107D2C00047AFCEEE77A17EE903A99B201234FF6FB
:107D3C00FE723148FEF7B8FBDDED057AFCEEE77A12
:107D4C0017EE903A99B202234FF6FE722A48FEF7CC
:107D5C00ABFBDDED007AFCEEE77A17EE903A99B2C8
:107D6C0000234FF6FE722548FEF782FFDDED017A07
:107D7C00FCEEE77A17EE903A99B201234FF6FE72B9
:107D8C001E48FEF775FFDDED027AFCEEE77A17EE82
:107D9C00903A99B202234FF6FE721848FEF768FF2C
:107DAC00DDED007AFCEEE77A17EE903A99B20023FB
:107DBC004FF6FE721248FEF7DBFDDDED017AFCEEAC
:107DCC00E77A17EE903A99B201234FF6FE720C48FF
:107DDC00FEF7CEFDDDED027AFCEEE77A17EE903A77
:107DEC0099B202234FF6FE720548FEF7C1FD00BFA3
:107DFC0007B05DF804FB00BFE02C0020082D00202C
:107E0C00302D002000B585B0194B00224FF40041F5
:107E1C00184609F0D9FA0390039B0293029B002B9E
:107E2C0002D0029808F042FF124B00224FF4A0211E
:107E3C00184609F0C9FA0390039B0193019B002B90
:107E4C0002D0019808F032FF0B4B00224FF4004196
:107E5C00184609F0B9FA0390039B0093009B002B82
:107E6C0002D0009808F022FF00BF05B05DF804FBBB
:107E7C00082B0020282B0020482B002000B587B0B1
:107E8C0001900DF1150201233A21019800F0A2F99D
:107E9C0003468DF817309DF81730002B0ED0304A62
:107EAC00304BD31ADB081B0443F001032E4A2F4935
:107EBC0018460BF041FD9DF817304CE09DF815303D
:107ECC00002B47D003AA06233B21019800F082F92E
:107EDC0003468DF816309DF81630002B0ED0204A34
:107EEC00204BD31ADB081B0443F00103204A1F4923
:107EFC0018460BF021FD9DF816302CE09DF80C3047
:107F0C009BB21B029AB29DF80D309BB213449BB2EC
:107F1C001AB2019BA3F840209DF80E309BB21B02B5
:107F2C009AB29DF80F309BB213449BB21AB2019BCC
:107F3C00A3F842209DF810309BB21B029AB29DF818
:107F4C0011309BB213449BB21AB2019BA3F844208C
:107F5C00002300E00223184607B05DF804FB00BFC5
:107F6C00B4540300745403009C5903005857030085
:107F7C00D859030000B585B001900198FFF77EFF3A
:107F8C0003468DF80F309DF80F30002B0ED0264A8B
:107F9C00264BD31ADB081B0443F00103244A254962
:107FAC0018460BF0C9FC9DF80F3039E0019BB3F972
:107FBC00403007EE903AF8EEE77A9FED1F7A37EEF5
:107FCC00877A019BD3ED127A67EE277A019BC3ED7A
:107FDC000A7A019BB3F9423007EE903AF8EEE77A51
:107FEC009FED157A37EE877A019BD3ED127A67EE07
:107FFC00277A019BC3ED0B7A019BB3F9443007EE52
:10800C00903AF8EEE77A9FED0C7A37EE877A019B7F
:10801C00D3ED127A67EE277A019BC3ED0C7A00231D
:10802C00184605B05DF804FBB45403007454030007
:10803C00145A0300585703000000000000B587B025
:10804C0001900DF1150201233A21019800F0C2F8BC
:10805C0003468DF817309DF81730002B0ED02D4AA3
:10806C002D4BD31ADB081B0443F001032B4A2C497C
:10807C0018460BF061FC9DF8173046E003AA062366
:10808C004321019800F0A6F803468DF816309DF8B0
:10809C001630002B0ED01F4A1F4BD31ADB081B04C3
:1080AC0043F001031F4A1E4918460BF045FC9DF88E
:1080BC0016302AE09DF80C309BB21B029AB29DF848
:1080CC000D309BB213449BB21AB2019BA3F87020E3
:1080DC009DF80E309BB21B029AB29DF80F309BB2EA
:1080EC0013449BB21AB2019BA3F872209DF8103076
:1080FC009BB21B029AB29DF811309BB213449BB2F7
:10810C001AB2019BA3F874200023184607B05DF83F
:10811C0004FB00BFB4540300745403009C590300C7
:10812C0058570300585A030000B585B001900198C8
:10813C00FFF784FF03468DF80F309DF80F30002BAE
:10814C000ED0204A204BD31ADB081B0443F001034A
:10815C001E4A1F4918460BF0EFFB9DF80F302DE01F
:10816C00019BB3F9703007EE903AB8EEE77A019BB9
:10817C00D3ED1E7A67EE277A019BC3ED197A019B2A
:10818C00B3F9723007EE903AB8EEE77A019BD3ED73
:10819C001E7A67EE277A019BC3ED1A7A019BB3F91D
:1081AC00743007EE903AB8EEE77A019BD3ED1E7A65
:1081BC0067EE277A019BC3ED1B7A0023184605B0A6
:1081CC005DF804FBB454030074540300945A030088
:1081DC005857030010B584B00390019200930B46DE
:1081EC008DF80B30039BDC6F039B18789DF80B10FC
:1081FC00009B019AA0470346002B0DD0084A094B5F
:10820C00D31ADB081B0443F00103074A074918463D
:10821C000BF092FB022300E00023184604B010BDC3
:10822C00B454030074540300B45A030058570300A9
:10823C0000B587B00190019B002B4DD0284B1B88BB
:10824C0040F24B42934203D9019B64221A7023E003
:10825C00234B1B88B3F5257F03D8019B00221A7092
:10826C001AE01F4B1B8807EE903AF8EE677A9FEDE9
:10827C001D7A37EEC77ADFED1C6AC7EE267A9FEDC2
:10828C001B7A67EE877AFCEEE77ACDED007A9DF8E3
:10829C000030DAB2019B1A7006F00AF9034683F03B
:1082AC000103DBB2002B17D00121114806F058F85E
:1082BC000590059B0493049B002B02D0049808F0B6
:1082CC00F5FC06F0D5F80590059B0393039B002B5A
:1082DC0002D0039808F0EAFC07B05DF804FB00BF7D
:1082EC0016320020000025440000DC430000C84288
:1082FC001432002008B5144A144BD31ADB081B04A3
:10830C0043F00203124918460BF008FB114BDB78C3
:10831C00002B03D10F4B9B78002B0BD00A4A0B4B35
:10832C00D31ADB081B0443F002030B4918460BF06D
:10833C00F5FA07E040F2D472002108480DF00CF871
:10834C0000F040F808BD00BFB4540300745403009F
:10835C009C5D0300C82C0020B05D03001832002087
:10836C00054B01229A70044B0022DA70024B012259
:10837C001A7100BF704700BFC82C002082B00346A2
:10838C008DF80730074A9DF807305370054B0122D2
:10839C00DA70044B00229A70024B01221A7100BF52
:1083AC0002B07047C82C0020054B0022DA70044B39
:1083BC0000229A70024B00221A7100BF704700BF56
:1083CC00C82C002008B540F2FF30FEF74FFF40F2FA
:1083DC00D472034940F2FF30FEF758FF00BF08BDCE
:1083EC001832002000B585B001900091009B1B0A4B
:1083FC008DF80F30009B8DF80E30D8238DF8083097
:10840C0000238DF809309DF80F308DF80A309DF857
:10841C000E308DF80B300121019800F04CF9034619
:10842C008DF80D309DF80D30002B0ED0174A184BDF
:10843C00D31ADB081B0443F00103164A16491846ED
:10844C000BF07AFA9DF80D301CE002A904230022EF
:10845C00019800F00FF903468DF80C309DF80C30A4
:10846C00002B0ED0094A0A4BD31ADB081B0443F02D
:10847C0001030A4A084918460BF05EFA9DF80C30C5
:10848C0000E00023184605B05DF804FBB45403006B
:10849C0074540300705E03002C5E0300905E0300B6
:1084AC0000B587B00390019200930B46ADF80A30EB
:1084BC00BDF80A301B0A9BB28DF81730BDF80A3094
:1084CC008DF8163002238DF810309DF817308DF88A
:1084DC0011309DF816308DF812300121039800F000
:1084EC00EAF803468DF815309DF81530002B0ED0A8
:1084FC002B4A2C4BD31ADB081B0443F001032A4AEA
:10850C002A4918460BF018FA9DF8153043E0039BE6
:10851C001B68002104209847039B5B6804A8032276
:10852C000021984703468DF814309DF81430002B29
:10853C000ED01B4A1B4BD31ADB081B0443F0010360
:10854C001B4A1A4918460BF0F7F99DF8143022E033
:10855C00039B5B68009A92B20021019898470346EE
:10856C008DF813309DF81330002B0ED00C4A0D4BA8
:10857C00D31ADB081B0443F001030E4A0B491846BF
:10858C000BF0DAF99DF8133005E0039B1B68012111
:10859C00042098470023184607B05DF804FB00BF81
:1085AC00B454030074540300705E03002C5E03008B
:1085BC00C85E0300FC5E030000B585B0019000911D
:1085CC00009B1B0A8DF80F30009B8DF80E3010238A
:1085DC008DF8083000238DF809309DF80F308DF898
:1085EC000A309DF80E308DF80B300121019800F007
:1085FC0062F803468DF80D309DF80D30002B0ED02F
:10860C00174A184BD31ADB081B0443F00103164A14
:10861C00164918460BF090F99DF80D301CE002A994
:10862C0004230022019800F025F803468DF80C3045
:10863C009DF80C30002B0ED0094A0A4BD31ADB08DC
:10864C001B0443F001030A4A084918460BF074F95D
:10865C009DF80C3000E00023184605B05DF804FBD3
:10866C00B454030074540300705E03002C5E0300CA
:10867C00905E030000B587B0039002910192ADF8B3
:10868C000230039B1B68002104209847039B5B6806
:10869C00BDF8022001990298984703468DF81730CF
:1086AC00039B1B680121042098479DF8173018463E
:1086BC0007B05DF804FB00B585B001900B468DF852
:1086CC0003309DF80330002B03D006238DF80F30B8
:1086DC0002E004238DF80F300DF10F01012300226D
:1086EC000198FFF7C7FF0346184605B05DF804FB79
:1086FC0082B001904FF0A043184602B0704700B50D
:10870C0085B0019001AB1846FFF7F2FF0390019B77
:10871C00012202FA03F31946039800F069F800BF2E
:10872C0005B05DF804FB00B585B0019001AB1846AF
:10873C00FFF7DEFF0390019B012202FA03F31946B7
:10874C00039800F05FF800BF05B05DF804FB00B5BE
:10875C0085B0019001AB1846FFF7CAFF0390039B4D
:10876C00D3F804350293029BDA43019B012101FAF1
:10877C0003F31A40039BC3F80825019B01229A407E
:10878C00029B1A40039BC3F80C2500BF05B05DF893
:10879C0004FB00B583B001900091009B002B03D12A
:1087AC000198FFF7C0FF02E00198FFF7A8FF00BF98
:1087BC0003B05DF804FB00B585B0019001AB184621
:1087CC00FFF796FF0390039800F00AF80246019B0E
:1087DC0022FA03F303F00103184605B05DF804FB1D
:1087EC0082B00190019BD3F80435184602B0704753
:1087FC0082B001900091019B009AC3F8082500BF3C
:10880C0002B0704782B001900091019B009AC3F8AE
:10881C000C2500BF02B0704700B585B001900F4A1F
:10882C00019B13441B781846FFF7C5FF0346002B2A
:10883C0014BF012300238DF80F309DF80F30002B4F
:10884C0014BF01230023DBB283F00103DBB203F07E
:10885C000103DBB2184605B05DF804FB845F03002E
:10886C0000B583B00190064A019B13441B7800218C
:10887C001846FFF78EFF00BF03B05DF804FB00BF86
:10888C00845F030000B583B00190064A019B13443A
:10889C001B7801211846FFF77CFF00BF03B05DF881
:1088AC0004FB00BF845F030000B583B00023019379
:1088BC0005E00198FFF7E6FF019B01330193019B53
:1088CC00032BF6D900BF00BF03B05DF804FB00B565
:1088DC0083B00023019305E00198FFF7C1FF019BD2
:1088EC0001330193019B032BF6D900BF00BF03B0EA
:1088FC005DF804FB00B583B00190054A019B13445D
:10890C001B781846FFF723FF00BF03B05DF804FB8C
:10891C00845F030082B00190034A019B13441B78CF
:10892C00184602B0704700BF885F030082B0019008
:10893C004FF0A043184602B0704700B585B00190C7
:10894C000B468DF8033001AB1846FFF7EFFF039091
:10895C00019A039B02F5E07253F82230019A23F43A
:10896C004031039B02F5E07243F82210019A039BFD
:10897C0002F5E07253F822309DF8032012041146E0
:10898C00019A1943039B02F5E07243F8221000BFD1
:10899C0005B05DF804FB000000B583B00C4B1B78F0
:1089AC00002B0FD00023019308E0019B022B02D077
:1089BC000198FFF767FF019B01330193019B032B88
:1089CC00F3D901E0FFF770FF00BF03B05DF804FBC3
:1089DC00F43900202DE9D04F92B003468DF83F308A
:1089EC000023119300231093CC4B1B78002B04D045
:1089FC00CA4A00231370FFF7CFFF9DF83F30172BA7
:108A0C0000F23F8201A252F823F000BF798A0200E3
:108A1C00918A0200918A02002D8B0200C98B020000
:108A2C00458C0200D98C0200F98C0200098D0200E1
:108A3C00358D0200538D0200718D02008F8D020066
:108A4C009D8D02009D8D02009D8D02009D8D02006A
:108A5C009D8D0200318E02003F8E0200538E02006B
:108A6C00678E0200818E0200818E0200FFF794FF58
:108A7C00AB4B184608F0F5FC1190AA4A9DF83F3014
:108A8C001370FFE10020FFF7C7FE0346002B0DD04B
:108A9C000020FFF7F7FE9DF83F30022B02D14FF478
:108AAC00E16301E04FF47A6310930BE00020FFF7D1
:108ABC00D7FE9DF83F30022B01D1C82301E04FF4C3
:108ACC00C8731093974A9DF83F301370944C109BC9
:108ADC000022009301924FF000024FF00003DDE9F9
:108AEC0000673946CB03314643EA51433146CA034A
:108AFC0012F57A71029143F1000303934FF4FA6279
:108B0C004FF00003DDE902010CF0BEFA02460B4601
:108B1C00134600221946204608F056FC1190B1E18C
:108B2C000020FFF779FE0346002B0DD00020FFF745
:108B3C00A9FE9DF83F30032B02D14FF4487301E09E
:108B4C004FF47A6310930BE00020FFF789FE9DF839
:108B5C003F30032B01D1C82301E04FF4C8731093AD
:108B6C00704A9DF83F3013706D4C109B002204939B
:108B7C0005924FF000024FF00003DDE9046739461F
:108B8C00CB03314643EA51433146CA0312F57A719D
:108B9C00069143F1000307934FF4FA624FF0000380
:108BAC00DDE906010CF070FA02460B461346002272
:108BBC001946204608F008FC119063E10020FFF7ED
:108BCC002BFE0346002B06D00020FFF75BFE4FF474
:108BDC007A63109305E00020FFF742FE4FF4C87350
:108BEC001093504A9DF83F3013704D4C109B00224F
:108BFC009A4693464FF000024FF000034FEACB33F6
:108C0C0043EA5A434FEACA3212F57A71089143F19A
:108C1C00000309934FF4FA624FF00003DDE90801F9
:108C2C000CF032FA02460B46134600221946204637
:108C3C0008F0CAFB119025E10020FFF7EDFD03467B
:108C4C00002B0CD00020FFF71DFE9DF83F30052BAC
:108C5C0001D1C82301E04FF47A6310930BE000209C
:108C6C00FFF7FEFD9DF83F30052B01D1C82301E035
:108C7C004FF4C87310932B4A9DF83F301370284C57
:108C8C00109B0022984691464FF000024FF00003D3
:108C9C004FEAC93343EA58434FEAC83212F57A71A6
:108CAC000A9143F100030B934FF4FA624FF0000367
:108CBC00DDE90A010CF0E8F902460B4613460022E6
:108CCC001946204608F080FB1190DBE00020FFF7EE
:108CDC0011FE144A9DF83F301370114B002240F2E4
:108CEC006661184608F070FB1190CBE00020FFF78E
:108CFC00B7FD0C4A9DF83F301370C3E0074B0122BF
:108D0C001A700120FFF7F6FD054B002240F2666158
:108D1C00184608F059FB1190B4E000BFED39002063
:108D2C00782B0020EC390020594B01221A700120BD
:108D3C00FFF7E0FD574B00224FF40051184608F0A6
:108D4C0043FB11909EE0524B01221A700120FFF759
:108D5C00D1FD504B002240F26661184608F034FBFE
:108D6C0011908FE04A4B01221A700120FFF7C2FDCF
:108D7C00484B00224FF40051184608F025FB119087
:108D8C0080E0FFF7A4FD444A9DF83F30137079E072
:108D9C00424B184608F065FB11909DF83F30C3F12B
:108DAC0011031093109B002B35D0119B002B32D14B
:108DBC00109B012B28D9394C109B9BB21A46C82307
:108DCC0002FB03F3DA171E4617464FF000024FF072
:108DDC000003FB0343EA5643F20312F57A710C913C
:108DEC0043F100030D934FF4FA624FF00003DDE9F9
:108DFC000C010CF049F902460B46134600221946A9
:108E0C00204608F0E1FA11900220FFF729FD244BCF
:108E1C0001221A7036E00220FFF734FD204B0022AD
:108E2C001A702FE0FFF7B8FD1B4A9DF83F30137006
:108E3C0028E0FFF7B1FD0020FFF712FD164A9DF860
:108E4C003F3013701EE0FFF7A7FD0120FFF708FD70
:108E5C00114A9DF83F30137014E0FFF79DFD002080
:108E6C00FFF7FEFC0120FFF7FBFC0B4A9DF83F309F
:108E7C00137007E0FFF72BFD074A9DF83F30137086
:108E8C0000E000BF119B184612B0BDE8D08F00BFA8
:108E9C00ED390020782B0020EC390020982B002095
:108EAC00F439002000B585B003468DF80730002357
:108EBC000393084B1B6803F00103002B05D09DF8AE
:108ECC0007301846FFF786FD0390039B184605B044
:108EDC005DF804FBF039002084B001900B468DF84E
:108EEC00033013468DF8023000230393019B032BB0
:108EFC003CD89DF80230012B0BD19DF80330012B8F
:108F0C0004D1019BDBB20E33DBB200E000238DF801
:108F1C0002309DF80330022B0FD0022B23DC002BE8
:108F2C0016D0012B1FD11449019A13465B00134430
:108F3C000B449DF802201A701AE00F49019A13464F
:108F4C005B0013440B4401339DF802201A700FE0B0
:108F5C000949019A13465B0013440B4402339DF8F4
:108F6C0002201A7004E00723039301E00723039304
:108F7C00039B184604B07047F839002000B585B043
:108F8C0001900B468DF80330019B032B14D89DF8F0
:108F9C000330002B01D0032300E000238DF80F30A9
:108FAC000198FFF7B7FC02469DF80F3019461046A2
:108FBC00FFF7C3FC002300E00623184605B05DF85C
:108FCC0004FB00B583B0019001210198FFF7D6FF97
:108FDC000346184603B05DF804FB00B583B00122CC
:108FEC0000210020FFF778FF0190019B002B04D09B
:108FFC00019B072B01D0019B1CE0072202210120C1
:10900C00FFF76AFF0190019B002B04D0019B072BFB
:10901C0001D0019B0EE0042202210020FFF75CFF2F
:10902C000190019B002B04D0019B072B01D0019BCD
:10903C0000E00023184603B05DF804FB00B583B0D4
:10904C00012202210020FFF747FF0190019B002B1A
:10905C0004D0019B072B01D0019B1CE007220221AD
:10906C000120FFF739FF0190019B002B04D0019BDD
:10907C00072B01D0019B0EE00A2200210020FFF7F4
:10908C002BFF0190019B002B04D0019B072B01D0DF
:10909C00019B00E00023184603B05DF804FB00B50B
:1090AC0083B00020FFF78DFF0190019B002B04D0B3
:1090BC00019B062B01D0019B0CE00120FFF781FFE7
:1090CC000190019B002B04D0019B062B01D0019B2E
:1090DC0000E00023184603B05DF804FB00B585B032
:1090EC0001900091019B1B88102B02D0112B18D0E2
:1090FC002FE01A4B1B68002B0DD1FFF76EFF03906E
:10910C00039B002B07D0164B1B68002B03D0144B72
:10911C001B6803989847114B1B6801330F4A136067
:10912C0017E00E4B1B68013B0C4A13600B4B1B6882
:10913C00002B0DD1FFF782FF0390039B002B07D070
:10914C00074B1B68002B03D0054B1B6803989847F3
:10915C0000BF00BF05B05DF804FB00BF083A00205B
:10916C00043A0020BFF34F8F00BF064BDB6803F4BB
:10917C00E0620449044B1343CB60BFF34F8F00BF35
:10918C0000BFFDE700ED00E00400FA0582B01D4BC6
:10919C001B68B3F1FF3F0AD11B4B1B68DBB2019379
:1091AC001A4B1B681B0903F00F03009305E0154BCA
:1091BC001B680193164B1B680093019B062B1DD15A
:1091CC00009B033B042B17D801A252F823F000BFDD
:1091DC00F1910200F5910200F9910200FD9102005B
:1091EC000192020001230AE0012308E0012306E0BA
:1091FC00012304E0012302E0012300E000231846D0
:10920C0002B0704730010010E00F00F0E80F00F0E2
:10921C003401001082B0174B1B68DBB20193164B64
:10922C001B681B0903F00F030093019B062B1DD138
:10923C00009B033B042B17D801A252F823F000BF6C
:10924C006192020065920200699202006D92020026
:10925C007192020001230AE0002308E0002306E0DB
:10926C00002304E0002302E0002300E00023184662
:10927C0002B07047E00F00F0E80F00F082B01D4B19
:10928C001B68B3F1FF3F0AD11B4B1B68DBB2019388
:10929C001A4B1B681B0903F00F03009305E0154BD9
:1092AC001B680193164B1B680093019B062B1DD169
:1092BC00009B033B042B17D801A252F823F000BFEC
:1092CC00E1920200E5920200E9920200ED920200A6
:1092DC00F192020001230AE0012308E0012306E0D9
:1092EC00012304E0012302E0012300E000231846DF
:1092FC0002B0704730010010E00F00F0E80F00F0F2
:10930C003401001082B0174B1B68DBB20193164B73
:10931C001B681B0903F00F030093019B062B1DD147
:10932C00009B033B042B17D801A252F823F000BF7B
:10933C005193020055930200599302005D93020071
:10934C006193020001230AE0002308E0002306E0F9
:10935C00002304E0002302E0002300E00023184671
:10936C0002B07047E00F00F0E80F00F082B01D4B28
:10937C001B68B3F1FF3F0AD11B4B1B68DBB2019397
:10938C001A4B1B681B0903F00F03009305E0154BE8
:10939C001B680193164B1B680093019B062B1DD178
:1093AC00009B033B042B17D801A252F823F000BFFB
:1093BC00D1930200D5930200D9930200DD930200F1
:1093CC00E193020001230AE0012308E0012306E0F7
:1093DC00012304E0012302E0012300E000231846EE
:1093EC0002B0704730010010E00F00F0E80F00F001
:1093FC003401001082B0174B1B68DBB20193164B83
:10940C001B681B0903F00F030093019B062B1DD156
:10941C00009B033B042B17D801A252F823F000BF8A
:10942C004194020045940200499402004D940200BC
:10943C005194020001230AE0002308E0002306E017
:10944C00002304E0002302E0002300E00023184680
:10945C0002B07047E00F00F0E80F00F082B0174B3D
:10946C001B68DBB20193164B1B681B0903F00F033F
:10947C000093019B062B1DD1009B033B042B17D89B
:10948C0001A252F823F000BFA9940200AD9402008F
:10949C00B1940200B5940200B994020001230AE0D1
:1094AC00002308E0002306E0002304E0002302E090
:1094BC00002300E00023184602B07047E00F00F0D4
:1094CC00E80F00F082B01D4B1B68B3F1FF3F0AD1CF
:1094DC001B4B1B68DBB201931A4B1B681B0903F077
:1094EC000F03009305E0154B1B680193164B1B688B
:1094FC000093019B062B1DD1009B033B042B17D81B
:10950C0001A252F823F000BF299502002D9502000C
:10951C0031950200359502003995020000230AE0CE
:10952C00002308E0012306E0012304E0012302E00C
:10953C00012300E00023184602B0704730010010F0
:10954C00E00F00F0E80F00F03401001082B01D4B6A
:10955C001B68B3F1FF3F0AD11B4B1B68DBB20193B5
:10956C001A4B1B681B0903F00F03009305E0154B06
:10957C001B680193164B1B680093019B062B1DD196
:10958C00009B033B042B17D801A252F823F000BF19
:10959C00B1950200B5950200B9950200BD95020087
:1095AC00C195020001230AE0012308E0012306E033
:1095BC00012304E0012302E0012300E0002318460C
:1095CC0002B0704730010010E00F00F0E80F00F01F
:1095DC003401001082B01D4B1B68B3F1FF3F0AD160
:1095EC001B4B1B68DBB201931A4B1B681B0903F066
:1095FC000F03009305E0154B1B680193164B1B687A
:10960C000093019B062B1DD1009B033B042B17D809
:10961C0001A252F823F000BF399602003D960200D9
:10962C0041960200459602004996020001230AE089
:10963C00012308E0012306E0012304E0012302E0FA
:10964C00012300E00023184602B0704730010010DF
:10965C00E00F00F0E80F00F03401001082B0154B61
:10966C001B680193144B1B680093019B062B1DD1A7
:10967C00009B033B042B17D801A252F823F000BF28
:10968C00A1960200A5960200A9960200AD960200D2
:10969C00B196020000230AE0002308E0002306E054
:1096AC00012304E0012302E0012300E0002318461B
:1096BC0002B07047300100103401001082B0154B1D
:1096CC001B680193144B1B680093019B062B1DD147
:1096DC00009B033B042B17D801A252F823F000BFC8
:1096EC000197020005970200099702000D970200EE
:1096FC001197020000230AE0002308E0002306E093
:10970C00002304E0012302E0012300E000231846BB
:10971C0002B07047300100103401001008B5FFF79B
:10972C00CDFF0346002B07D04FF010234FF08042A3
:10973C00D3F80832C2F8583500BF08BD00BF044B3F
:10974C00D3F80034002BFAD000BF00BF704700BF25
:10975C0000E0014000B583B00190054A019BC2F8BE
:10976C000435FFF7EBFF00BF03B05DF804FB00BF4F
:10977C0000E00140024B034A1A6000BF704700BF73
:10978C00B82B00200090D00308B5FFF7FFFC034670
:10979C00002B06D0A44B1B681B0AA44A03F01F0322
:1097AC001360FFF737FD0346002B02D0A04BA14AF4
:1097BC001A60FFF763FD0346002B06D09E4B1B6817
:1097CC005B0B9E4A03F007031360FFF79BFD0346F8
:1097DC00002B05D09A4BDB68994A23F08073D36039
:1097EC00FFF7C4FD0346002B0ED04FF08043002240
:1097FC00C3F80C214FF080430022C3F810214FF026
:10980C0080430022C3F83825FFF7F4FD0346002BF4
:10981C0002D08C4B03221A60FFF720FE0346002B6C
:10982C000BD0894B05221A60884B01221A60884B99
:10983C0000221A60874B3F221A60FFF743FE034653
:10984C00002B76D04FF08053834AD3F80434C2F8FF
:10985C0020354FF08053804AD3F80834C2F82435B1
:10986C004FF080537C4AD3F80C34C2F828354FF0B3
:10987C008053794AD3F81034C2F82C354FF080530A
:10988C00754AD3F81434C2F830354FF08053724A0D
:10989C00D3F81834C2F834354FF080536E4AD3F8ED
:1098AC001C34C2F840354FF080536B4AD3F8203447
:1098BC00C2F844354FF08053674AD3F82434C2F8C9
:1098CC0048354FF08053644AD3F82834C2F84C35ED
:1098DC004FF08053604AD3F82C34C2F850354FF017
:1098EC0080535D4AD3F83034C2F854354FF080536E
:1098FC00594AD3F83434C2F860354FF08053564A85
:10990C00D3F83834C2F864354FF08053524AD3F848
:10991C003C34C2F868354FF080534F4AD3F840348A
:10992C00C2F86C354FF080534B4AD3F84434C2F82C
:10993C007035FFF70BFE0346002B05D0474B1B6819
:10994C00474A03F04F031360FFF744FE0346002B16
:10995C000DD04FF08043D3F8003403F00103002BFB
:10996C0005D04FF080436FF00102C3F80024FFF7DD
:10997C0075FE0346002B05D03A4B1B68394A43F45D
:10998C0080631360384BD3F88830374A43F4700344
:10999C00C2F88830BFF34F8F00BFBFF36F8F00BF8B
:1099AC00FFF7BCFE4FF01023D3F80C3203F0010389
:1099BC00012B13D10120FFF7CDFE4FF01023D3F86C
:1099CC000C324FF0102223F00103C2F80C32FFF7D7
:1099DC00B5FE0020FFF7BEFEFFF7C4FB4FF01023CF
:1099EC00D3F80032002B05DB4FF01023D3F80432F0
:1099FC00002B15DA0120FFF7ADFE4FF010231522D6
:109A0C00C3F80022FFF79AFE4FF010231522C3F87B
:109A1C000422FFF793FE0020FFF79CFEFFF7A2FB4A
:109A2C00FFF7A8FE00BF08BD24030010403501401D
:109A3C0074C007400DF0ADBA440200103C05004064
:109A4C00F0ED00E0A00500401056004088560040A4
:109A5C00185600401456004000C000405802001038
:109A6C00E40E00403C17004000ED00E06DDF704755
:109A7C0000BF184679DF704700BF18467DDF70477E
:109A8C0000BF184664DF704700BF184682B003461B
:109A9C000091ADF80630BDF80630DAB2009B1A70B2
:109AAC00BDF806301B0A9AB2009B0133D2B21A7071
:109ABC000223184602B0704700B589B0039002919A
:109ACC001346ADF80630029B1B8803F10902BDF862
:109ADC0006309A4201D90C2353E004AB1846FFF729
:109AEC00C5FF0790079B0693069B002B01D0069B96
:109AFC0047E0029B1B881A46039B134408221A70EA
:109B0C00029B1B8801339AB2029B1A80029B1B8812
:109B1C001A46039B13441B221A70029B1B880133A9
:109B2C009AB2029B1A80029B1B881A46039B9818B8
:109B3C0004AB0133062219460BF0D8FB029B1B88A1
:109B4C0006339AB2029B1A809DF8103023F0010361
:109B5C00DBB2002B07D1029B1B881A46039B1344D4
:109B6C0000221A7006E0029B1B881A46039B1344C2
:109B7C0001221A70029B1B8801339AB2029B1A8035
:109B8C000023184609B05DF804FB00B589B00390BA
:109B9C0002910192ADF80230039B1B78012B05D189
:109BAC00039B5B78002B01D1072392E0019B1B8860
:109BBC009A1CBDF802309A420ED8039B1B78012BDD
:109BCC000CD1019B1B881A46039B5B7813449A1C8F
:109BDC00BDF802309A4201D90C237AE0019B1B8814
:109BEC00BDF80220D31A9BB2023BADF81C30BDF875
:109BFC001C30ADF81230019B1B880233029A1344BF
:109C0C000DF1120211461846FFF738FF0690069B1D
:109C1C000593059B002B01D0059B5AE0039B1B78F9
:109C2C00022B06D0039B5B789AB2BDF812309A4295
:109C3C0009D3BDF81230BDF81C209A4203D3092376
:109C4C008DF81F3017E008238DF81F30039B1B780D
:109C5C00012B0CD1039B5B789BB2BDF81C209A4264
:109C6C0005D3039B5B789BB2ADF8123003E0BDF8D3
:109C7C001C30ADF81230BDF81230FE2B01D90C237C
:109C8C0027E0BDF81230DAB2019B1B881946029B03
:109C9C000B440132D2B21A70019B1B8801339AB269
:109CAC00019B1A80019B1B881A46029B13449DF84A
:109CBC001F201A70019B1B8801339AB2019B1A80DA
:109CCC00019B1A88BDF8123013449AB2019B1A807A
:109CDC000023184609B05DF804FB00B589B0039069
:109CEC0002911346ADF80630029B1B881A1DBDF875
:109CFC0006309A4201D90C233BE00DF116031846AD
:109D0C00FFF7B8FE0790079B0693069B002B01D02C
:109D1C00069B2EE0029B1B881A46039B13440322CE
:109D2C001A70029B1B8801339AB2029B1A80029B09
:109D3C001B881A46039B134419221A70029B1B881A
:109D4C0001339AB2029B1A80BDF81620029B1B8825
:109D5C001946039B0B4419461046FFF797FE034622
:109D6C001946029B1A888BB213449AB2029B1A8032
:109D7C000023184609B05DF804FB84B002910192EF
:109D8C001A4603468DF80F301346ADF80C30019B84
:109D9C001B88DA1CBDF80C309A4201D90C2328E040
:109DAC00019B1B881A46029B134402221A70019BCA
:109DBC001B8801339AB2019B1A80019B1B881A469F
:109DCC00029B134401221A70019B1B8801339AB227
:109DDC00019B1A80019B1B881A46029B13449DF819
:109DEC000F201A70019B1B8801339AB2019B1A80B9
:109DFC000023184604B0704784B0029101921A46B1
:109E0C0003468DF80F301346ADF80C30019B1B88C0
:109E1C00DA1CBDF80C309A4201D90C2328E0019BC6
:109E2C001B881A46029B134402221A70019B1B8842
:109E3C0001339AB2019B1A80019B1B881A46029B24
:109E4C0013440A221A70019B1B8801339AB2019B9E
:109E5C001A80019B1B881A46029B13449DF80F2005
:109E6C001A70019B1B8801339AB2019B1A80002344
:109E7C00184604B0704700B58FB0039001930B46A1
:109E8C008DF80B3013468DF80A3000238DF83330E3
:109E9C00109B1B88ADF8303000230D9371E0039BB1
:109EAC005A680D9B9B001A4405AB106818600DF1A5
:109EBC001B0105AB00221846FFF7E4FD0A900A9B34
:109ECC000993099B002B01D0099B7CE09DF81B306A
:109EDC009DF80A209A4251D19DF83330002B01D0C5
:109EEC00002300E002238DF82330109B1B881A46B8
:109EFC009DF81B301A449DF823301A44BDF84430A9
:109F0C009A4201DD0C235EE09DF8333083F00103AF
:109F1C00DBB2002B16D0109B1B8801339AB2109B1E
:109F2C001A80109B1B881A46019B13449DF80B202A
:109F3C001A70109B1B8801339AB2109B1A80012354
:109F4C008DF83330109B1B881A46019B1A440DF177
:109F5C001B0105AB1846FFF795FD0A900A9B07936A
:109F6C00079B002B01D0079B2DE0109B1A889DF8B6
:109F7C001B309BB213449AB2109B1A800D9B013379
:109F8C000D93039B1B881A460D9B934287DB9DF810
:109F9C003330002B16D0109B1A88BDF83030D31AF2
:109FAC009BB2013BADF82E30BDF82E30FF2B01D902
:109FBC000C2308E0BDF83030019A1344BDF82E2074
:109FCC00D2B21A70002318460FB05DF804FB00B52E
:109FDC008BB0059003930B468DF8133013468DF818
:109FEC0012309DF81310BDF8343001930C9B009384
:109FFC00039B02220598FFF73EFF0990099B0893EB
:10A00C00089B002B01D0089B14E09DF81210BDF8A2
:10A01C00343001930C9B0093039B10220598FFF79F
:10A02C002AFF0990099B0793079B002B01D0079BE4
:10A03C0000E0002318460BB05DF804FB82B00190E1
:10A04C00019B1B88052B0AD9019B1B88B3F5486F14
:10A05C0007D9019B1B884FF6FF72934201D007234F
:10A06C0025E0019B5B88052B0AD9019B5B88B3F526
:10A07C00486F07D9019B5B884FF6FF72934201D062
:10A08C00072314E0019B1B884FF6FF7293420DD0FF
:10A09C00019B5B884FF6FF72934207D0019B1A8895
:10A0AC00019B5B889A4201D9072300E000231846E4
:10A0BC0002B0704700B587B0039002910192ADF8E1
:10A0CC000230019B1B889A1DBDF802309A4201D9BF
:10A0DC000C234DE00398FFF7B1FF0590059B04930B
:10A0EC00049B002B01D0049B42E0019B1B881A4669
:10A0FC00029B134405221A70019B1B8801339AB2F0
:10A10C00019B1A80019B1B881A46029B1344122246
:10A11C001A70019B1B8801339AB2019B1A80039B16
:10A12C001A88019B1B881946029B0B441946104642
:10A13C00FFF7ACFC03461946019B1A888BB21344FB
:10A14C009AB2019B1A80039B5A88019B1B88194663
:10A15C00029B0B4419461046FFF798FC0346194620
:10A16C00019B1A888BB213449AB2019B1A8000236C
:10A17C00184607B05DF804FB00B587B00390029158
:10A18C000192ADF80230039B9B8802330593019B2F
:10A19C001B881A46059B13449A1CBDF802309A4240
:10A1AC0001D90C2354E0059BFE2B01D90C234FE065
:10A1BC00059BDAB2019B1B881946029B0B440132AA
:10A1CC00D2B21A70019B1B8801339AB2019B1A8080
:10A1DC00019B1B881A46029B1344FF221A70019B99
:10A1EC001B8801339AB2019B1A80039B1A88019B2E
:10A1FC001B881946029B0B4419461046FFF746FC78
:10A20C0003461946019B1A888BB213449AB2019BE0
:10A21C001A80039B9B88002B19D0039B9B68002BF7
:10A22C0001D1072314E0019B1B881A46029B981846
:10A23C00039B9968039B9B881A460BF057F8019B6C
:10A24C001A88039B9B8813449AB2019B1A800023A3
:10A25C00184607B05DF804FB00B589B00390029175
:10A26C000192ADF80230039B9B6A002B01D10723AE
:10A27C0072E000238DF81F3066E0039B996A9DF80D
:10A28C001F2013465B0013449B000B440693069B54
:10A29C009B8802330593059BFE2B01D90C235BE0B5
:10A2AC00059BDAB2019B1B881946029B0B440132B9
:10A2BC00D2B21A70019B1B8801339AB2019B1A808F
:10A2CC00019B1B881A46029B134416221A70019B91
:10A2DC001B8801339AB2019B1A80069B1A88019B3A
:10A2EC001B881946029B0B4419461046FFF7CEFB00
:10A2FC0003461946019B1A888BB213449AB2019BF0
:10A30C001A80069B9B88002B19D0069B9B68002B00
:10A31C0001D1072320E0019B1B881A46029B981849
:10A32C00069B9968069B9B881A460AF0DFFF019BE7
:10A33C001A88069B9B8813449AB2019B1A809DF83D
:10A34C001F3001338DF81F30039B93F82C309DF890
:10A35C001F209A4291D30023184609B05DF804FBE4
:10A36C0000B595B005900491039200231393039BC1
:10A37C001B88ADF84A30039B00221A80059B93F88A
:10A38C002D30002B0ED0BDF84A301A460399049894
:10A39C00FFF792FB1390139B1193119B002B01D091
:10A3AC00119BD8E0059B9B78002B0ED0BDF84A3052
:10A3BC001A4603990498FFF790FC1390139B109383
:10A3CC00109B002B01D0109BC5E0059BDB78002B6C
:10A3DC0010D0059BDB7858B2BDF84A30039A04992B
:10A3EC00FFF7CBFC1390139B0F930F9B002B01D00B
:10A3FC000F9BB0E0059B5B68002B11D0059B5B6845
:10A40C0093F90000BDF84A30039A0499FFF7F4FC65
:10A41C001390139B0E930E9B002B01D00E9B9AE076
:10A42C00059B1B89002B14D0059B03F10800BDF87C
:10A43C004A300193039B0093049B06220221FFF7F1
:10A44C00C6FD1390139B0D930D9B002B01D00D9B00
:10A45C0081E0059B1B8A002B14D0059B03F1100097
:10A46C00BDF84A300193039B0093049B0722032100
:10A47C00FFF7ADFD1390139B0C930C9B002B01D09D
:10A48C000C9B68E0059B1B8B002B14D0059B03F1E8
:10A49C001800BDF84A300193039B0093049B1522CE
:10A4AC001421FFF794FD1390139B0B930B9B002B24
:10A4BC0001D00B9B4FE0059B1B6A002B0FD0059B1B
:10A4CC00186ABDF84A30039A0499FFF7F3FD13900C
:10A4DC00139B0A930A9B002B01D00A9B3BE0059B24
:10A4EC005B6A002B0FD0059B586ABDF84A30039A63
:10A4FC000499FFF741FE1390139B0993099B002BC2
:10A50C0001D0099B27E0059B93F82C30002B0ED033
:10A51C00BDF84A30039A04990598FFF79DFE1390F5
:10A52C00139B0893089B002B01D0089B13E0059B01
:10A53C001B78002B0ED0BDF84A30039A049905986D
:10A54C00FFF723FB1390139B0793079B002B01D062
:10A55C00079B00E0139B184615B05DF804FB86B012
:10A56C00039001921A460B46ADF80A3013468DF84B
:10A57C000930039B002B02D0019B002B01D100233F
:10A58C005CE00023ADF816300CE0BDF81630039AF1
:10A59C0013441B789AB2BDF8163013449BB20133A6
:10A5AC00ADF81630BDF816305A1CBDF80A309A4278
:10A5BC000FDA019B1B88BDF816209A42E5D3BDF833
:10A5CC0016300133039A13441B789DF809209A42E4
:10A5DC00DBD1BDF81620BDF80A309A4201D3002316
:10A5EC002CE0BDF816300233ADF81430BDF816303F
:10A5FC00039A13441B78002B08D0BDF81630039A2D
:10A60C0013441B789BB2013B9BB200E00023ADF8D6
:10A61C001230BDF81230002B08D0BDF81420BDF854
:10A62C0012301A44BDF80A309A4201DD002305E0CD
:10A63C00019BBDF814201A80BDF81230184606B0E4
:10A64C00704700B585B001900B46ADF8023013464B
:10A65C008DF801300023ADF80C309DF8013003AAC1
:10A66C00BDF802100198FFF77AFF0346ADF80E30E3
:10A67C00BDF80E30002B01D1002304E0BDF80C30E6
:10A68C001A46019B1344184605B05DF804FB72DFB3
:10A69C00704700BF184673DF704700BF184682B082
:10A6AC000190019B93F83034184602B0704784B087
:10A6BC000190002303930AE0019A039B13441B7837
:10A6CC00002B01D0012306E0039B01330393039B72
:10A6DC00052BF1D90023184604B0704782B003460D
:10A6EC008DF807309DF807305A1C074B83FB02137B
:10A6FC005910D317C91A0B469B000B44D11ACBB275
:10A70C00184602B0704700BF6766666682B001905B
:10A71C000091009BDB7B012B04D1009B9A88019B51
:10A72C00A3F8242400BF02B0704700B585B0019097
:10A73C000091019B002283F82E24009B9A88019B98
:10A74C00B3F824349A4216D1019B1B7983F0010390
:10A75C00DBB2002B0FD00121019800F0B1FA03906D
:10A76C00039B002B07D0019B9B6B002B03D0019B01
:10A77C009B6B0398984700BF05B05DF804FB00B5D0
:10A78C0085B001900091009B1B88262B1ED1009B4D
:10A79C001B7A012B03D0009B1B7A022B17D1019B38
:10A7AC009B781846FFF79AFF03461946019800F06C
:10A7BC0087FA0390039B002B09D0019B9B6B002B0A
:10A7CC0005D0019B9B6B0398984700E000BF05B038
:10A7DC005DF804FB00B585B001900B468DF8033095
:10A7EC00019B03F227431846FFF761FF03468DF8E0
:10A7FC000F309DF80330013B032B33D801A252F8E4
:10A80C0023F000BF21A8020045A8020059A80200AD
:10A81C0065A80200019B9B79002B0DD0019B93F83E
:10A82C00243083F00103DBB2002B05D09DF80F30F0
:10A83C00002B01D0012316E0019BDB79002B05D006
:10A84C009DF80F30002B01D002230CE0019B1B7AEA
:10A85C00002B01D0032306E0019B5B7A002B01D077
:10A86C00042300E00023184605B05DF804FB00BF8C
:10A87C0082B001900091019B012283F83120019B51
:10A88C000022C3F82024019B03F22642009B5A604D
:10A89C00009B00229A60009B02221A70009B80226F
:10A8AC009A810023184602B0704782B00190009143
:10A8BC00019B022283F83120019B93F82430002B5A
:10A8CC0003D0009B07221A7002E0009B03221A702F
:10A8DC00019B1B699AB2009B9A81019B0022C3F8D1
:10A8EC002024019B03F22642009B5A60019BDA68EC
:10A8FC00009B9A600023184602B0704700B583B0E5
:10A90C000190019B5B79002B0FD0019B93F82E34A7
:10A91C0083F00103DBB2002B07D00198FFF7BFFED9
:10A92C000346002B01D0012300E0002303F00103B8
:10A93C00DBB2184603B05DF804FB00B585B001909E
:10A94C000B468DF80330019BD3F81004019BB3F830
:10A95C00143401221946FFF774FE0390039B002B5D
:10A96C0003D0039B9DF803201A70019B03F1540044
:10A97C00019B03F58261019B3C331A46FFF787FE6E
:10A98C000346184605B05DF804FB00B585B0019090
:10A99C000091019B5A69009B9A60019B9B699AB23A
:10A9AC00009B9A81019B93F82430002B04D0019BCF
:10A9BC00062283F83C2003E0019B012283F83C2013
:10A9CC000198FFF79BFF0346002B13D0009B02223C
:10A9DC001A7504210198FFF7B0FF0390039B0293B3
:10A9EC00029B002B01D0029B0FE0019B052283F8F8
:10A9FC00312003E0019B032283F83120019B03F5F6
:10AA0C008262019BC3F820240023184605B05DF830
:10AA1C0004FB00B585B001900091019BDA69009BA5
:10AA2C009A60019B1B6A9AB2009B9A81019B93F8D6
:10AA3C002430002B04D0019B062283F83C2003E039
:10AA4C00019B012283F83C200198FFF757FF034636
:10AA5C00002B13D0009B02221A7504210198FFF7DA
:10AA6C006CFF0390039B0293029B002B01D0029B73
:10AA7C000FE0019B062283F8312003E0019B0422A6
:10AA8C0083F83120019B03F58262019BC3F82024DB
:10AA9C000023184605B05DF804FB82B00190019BC1
:10AAAC009B78002B06D0019B93F82030002B01D013
:10AABC0000230AE0019B9B6A042B03D0019B5B6A79
:10AACC00042B01D1002300E00123184602B070478B
:10AADC0084B00190019B93F82430002B03D0EE231B
:10AAEC00ADF80E3002E01F23ADF80E30BDF80E307D
:10AAFC00184604B0704782B001900B468DF80330B5
:10AB0C00019B9DF8032083F8302000BF02B07047F2
:10AB1C0030B587B001900091009B002B02D0019BB7
:10AB2C00002B01D10E23B8E0009B78331846FFF7B9
:10AB3C00B4FF034683F00103DBB2002B01D00723E3
:10AB4C00ABE0019B00229A70019A009B141D03F14B
:10AB5C0078050FCD0FC40FCD0FC495E8070084E81E
:10AB6C000700019B002283F83020009BD3F8A4201F
:10AB7C00019B5A63009BD3F8A820019B9A63019B0D
:10AB8C004FF6FF72A3F82424019B03F58262019B0C
:10AB9C00C3F82024019B03F2264307220021184608
:10ABAC000AF0DAFB019B1B7883F00103DBB2002B6C
:10ABBC0003D0019BFF2283F85420019B03F1550223
:10ABCC00019BC3F810240198FFF782FF03461A4635
:10ABDC00019BA3F814240098019B03F15501019BE0
:10ABEC0003F214431A46FFF7BBFB0590059B049335
:10ABFC00049B002B01D0049B4FE0019B03F23122FC
:10AC0C00019BC3F818240198FFF762FF03461A460C
:10AC1C00019BA3F81C24009B03F13C00019BD3F87F
:10AC2C001814019B03F21C431A46FFF799FB05907D
:10AC3C00059B0393039B002B01D0039B2DE0019BF1
:10AC4C00012283F85120019B9B699AB2019BA3F8C6
:10AC5C004820019B012283F83C20019B00221A64AE
:10AC6C00019B002283F85020019B5A69019B5A6476
:10AC7C00019B03F15400019B3C331A460021FFF762
:10AC8C0006FD0590059B0293029B002B01D0029BB5
:10AC9C0003E0019B01221A70059B184607B030BDDA
:10ACAC0082B00190019B1B68012B03D0019B1B6898
:10ACBC00022B01D1012300E00023184602B070479B
:10ACCC0000B585B001900B468DF80330019B1B78C5
:10ACDC0083F00103DBB2002B01D0082309E1019BB7
:10ACEC009DF803209A70019B03F226430722002152
:10ACFC0018460AF031FB019B9B79002B03D0019B7A
:10AD0C009B78012B0FD0019BDB79002B03D0019B8F
:10AD1C009B78012B07D0019BDB79002B14D0019B76
:10AD2C009B78022B10D1019B5B6B002B08D0019BF5
:10AD3C00012283F82D24019B5B6B0820984703E0CC
:10AD4C00019B002283F82D249DF8033019460198AD
:10AD5C00FFF740FD03461A46019B9A70019B5B6B03
:10AD6C00002B20D0019B9B78032B03D0019B9B785D
:10AD7C00042B18D1019B5B79002B14D0019B93F809
:10AD8C002E3483F00103DBB2002B0CD0019B00228C
:10AD9C0083F83024019B012283F82F24019B5B6BE9
:10ADAC000720984703E0019B002283F82F24019B86
:10ADBC003C331822002118460AF0CEFA019B0122DE
:10ADCC0083F83C20019B2C331846FFF769FF0346A0
:10ADDC00002B06D0019BDB6ADAB2019B83F8512071
:10ADEC0003E0019B012283F85120019B93F824304E
:10ADFC00002B12D0019B28331846FFF751FF034656
:10AE0C00002B06D0019B9B6ADAB2019B83F852207F
:10AE1C0003E0019B012283F85220019B002283F85E
:10AE2C005020019B9B78042B31D801A252F823F0BF
:10AE3C0091AE020051AE020061AE020071AE020092
:10AE4C0081AE0200019B3C3319460198FFF710FDBF
:10AE5C0003901DE0019B3C3319460198FFF725FD3B
:10AE6C00039015E0019B3C3319460198FFF78DFDCB
:10AE7C0003900DE0019B3C3319460198FFF7C9FD87
:10AE8C00039005E0019B002283F8312000E000BF15
:10AE9C00019B9B78002B20D0019B03F15400019B5C
:10AEAC00D3F82014019B3C331A46FFF7F0FB0390B8
:10AEBC00039B002B01D0039B1BE0019B93F85420B8
:10AECC00019B93F8303019461046FFF7E4FB0390D2
:10AEDC00039B002B01D0039B0BE0019B5B6B002BB6
:10AEEC0006D0019B5B6B019A92F831201046984773
:10AEFC000023184605B05DF804FB00BF00B585B013
:10AF0C0001900091009B0393019B1B88262B10D072
:10AF1C00262B13DC102B02D0112B05D00EE001993F
:10AF2C000398FFF7F3FB0AE001990398FFF7FDFB89
:10AF3C0005E001990398FFF722FC00E000BF00BF79
:10AF4C0005B05DF804FB75DF704700BF184676DF6F
:10AF5C00704700BF18467ADF704700BF18467BDF8A
:10AF6C00704700BF1846000084B00346ADF80630A9
:10AF7C000023039316E00F49039A13469B001344D6
:10AF8C009B000B441B88BDF806209A4207D1039AFC
:10AF9C0013469B0013449B00064A134406E0039B94
:10AFAC0001330393039B002BE5D00023184604B018
:10AFBC00704700BF303A002082B001900B46ADF8CC
:10AFCC000230019BBDF802201A80019B00221A72EC
:10AFDC00019B054903F10A020B4603CB106051603B
:10AFEC0000BF02B0704700BF603A002082B00190F1
:10AFFC00019B4FF6FF721A8000BF02B0704788B0F9
:10B00C000390029111461A460B46ADF806301346D2
:10B01C00ADF80430039B9B881A46BDF806301344E8
:10B02C000793039B9B881946039B9B88BDF80620BE
:10B03C00934228BF13469BB2CB1A0693039BDB8823
:10B04C001A46BDF8043013440593039BDB8819465C
:10B05C00039BDB88BDF80420934228BF13469BB2A8
:10B06C00CB1A0493029B5A88039B1B889A4205D3E4
:10B07C00029B5A88039B5B889A4201D900231CE0EF
:10B08C00029B9B881A46069B934205D8029B9B8881
:10B09C001A46079B934201D200230EE0029BDB88E9
:10B0AC001A46049B934205D8029BDB881A46059BE3
:10B0BC00934201D2002300E00123184608B07047E8
:10B0CC0000B583B00190064B9B69002B03D0044B59
:10B0DC009B690198984700BF03B05DF804FB00BF63
:10B0EC00443A002000B585B003460091ADF8063017
:10B0FC00BDF8063000991846FFF725FF0390039B17
:10B10C00002B05D0039B112B02D00398FFF7D8FF1F
:10B11C00039B002B0CBF01230023DBB2184605B0A8
:10B12C005DF804FB00B589B00190019B0793079B68
:10B13C009BB21846FFF718FF0690069B002B42D0D7
:10B14C00069B1A7A224B1B7B9A4215D2079B9AB20A
:10B15C00069B0A3319461046FFF7C4FF03468DF8C9
:10B16C0013309DF81330002B2DD0069B1B7A013326
:10B17C00DAB2069B1A7226E0069B00221A72144B56
:10B18C001B7C002B0FD0079B9BB23B211846FFF773
:10B19C00DEFE0590059B002B05D0059B082B02D0ED
:10B1AC000598FFF78DFF0A4B5B69002B0BD0002332
:10B1BC008DF80C30079B9BB2ADF80E30044B5B69DD
:10B1CC0003AA1046984700BF09B05DF804FB00BF06
:10B1DC00443A002030B587B00190019B002B01D17F
:10B1EC000E2353E02B4A019B14461D460FCD0FC472
:10B1FC0095E8070084E80700264B274A1A60019B54
:10B20C001B68002B11D0019B1B681846FFF7A3FE8F
:10B21C000490049B002B01D0049B37E0019B1A681F
:10B22C001D4B1068516803C308E01B48FFF797FEDD
:10B23C000490049B002B01D0049B27E00023059372
:10B24C0020E0059A13469B0013449B00134A1344B9
:10B25C0003930398FFF7CAFE059B5B01104A1A443F
:10B26C00039B5A60039B04330E4A0021184606F0D8
:10B27C0085F80490049B002B01D0032306E0059B6A
:10B28C0001330593059B002BDBD00023184607B038
:10B29C0030BD00BF443A0020603A0020303A002014
:10B2AC00103A002031B1020000B587B0034600917E
:10B2BC00ADF80630009B5B7A002B1AD1009B1B7AF1
:10B2CC00002B03D1164B5B68059302E0144B9B6873
:10B2DC000593009B5B68BDF806200599184606F09F
:10B2EC0073F80490049B002B16D00498FFF7E8FE2B
:10B2FC0012E0009B00221A72094B5B69002B0BD0E9
:10B30C0001238DF80C30BDF80630ADF80E30044B2F
:10B31C005B6903AA1046984700BF07B05DF804FBB1
:10B32C00443A002000B585B00190019BDB7B8DF881
:10B33C000F30019B9B88ADF80C309DF80F30012B22
:10B34C002CD14FF6FF70FFF70FFE0290029B002BE3
:10B35C0003D10420FFF7B4FE21E0BDF80C301946F0
:10B36C000298FFF729FE029B03F10A00019B03F1EF
:10B37C0010014FF6FF7340F2F312FFF740FE034645
:10B38C001A46029B5A72074BDB89002B07D1BDF87A
:10B39C000C3002991846FFF787FF00E000BF05B09C
:10B3AC005DF804FB443A002000B587B00190019B86
:10B3BC009B88ADF81630BDF816301846FFF7D4FD53
:10B3CC000490049B002B0ED0049B5B68184606F07F
:10B3DC0048F80390039B002B02D00398FFF770FEF4
:10B3EC000498FFF703FE00BF07B05DF804FB0000F4
:10B3FC0000B587B00190019B06330593059B1A8815
:10B40C00194BDB899A422BD1059B5B89022B27D1E7
:10B41C00019B9B88ADF81230BDF812301846FFF72F
:10B42C00A3FD0390039B002B1AD0059B0C331846ED
:10B43C0000F050FA0346002B06D0BDF812300399E9
:10B44C001846FFF731FF0BE0039B5B68184606F0CC
:10B45C0008F80290029B002B02D00298FFF730FEF6
:10B46C0000BF07B05DF804FB443A002000B585B07E
:10B47C000190019B9B88ADF80E30BDF80E3018463C
:10B48C00FFF772FD0290029B002B15D0029B03F17B
:10B49C000A00019B03F108014FF6FF7340F2F3120F
:10B4AC00FFF7ADFD03461A46029B5A72BDF80E30EB
:10B4BC0002991846FFF7F8FE00BF05B05DF804FBD3
:10B4CC0000B583B001900091019B1B88502B12D0CA
:10B4DC00502B18DC122B12D0122B14DC102B02D098
:10B4EC00112B04D00FE00198FFF71CFF0CE0019822
:10B4FC00FFF75AFF08E00198FFF77AFF04E0019884
:10B50C00FFF7B4FF00E000BF00BF03B05DF804FB21
:10B51C0030B58FB00190009100230293009B002B5B
:10B52C001AD000230D9314E06B460D99184606F0C3
:10B53C00F8FC0346002B09D0029B5A1C02920D9A70
:10B54C0092B25B0038336B4423F82C2C0D9B0133E7
:10B55C000D930D9B132BE7D9019B1D4602AC0FCC11
:10B56C000FC50FCC0FC594E8070085E807000198BC
:10B57C000FB030BD00B583B00346ADF80630BDF852
:10B58C000630132B01D900230CE0BDF80630194608
:10B59C00064806F095FCBDF806301946044806F03E
:10B5AC008FFC0123184603B05DF804FB703A0020B1
:10B5BC006C3A002000B585B00346ADF80630002388
:10B5CC0003930DE0039B9B00094A13440433BDF81D
:10B5DC0006201146184606F08BFC039B013303939F
:10B5EC00039B1D2BEED900BF00BF05B05DF804FB1B
:10B5FC00683A002000B583B00346ADF80630BDF8BC
:10B60C0006301946034806F073FC00BF03B05DF822
:10B61C0004FB00BF703A002030B59BB0184B9B6800
:10B62C00DB431893164B5A6818AB1146184606F0B4
:10B63C00D7FC189A6B4611461846FFF769FF0DACFC
:10B64C006D460FCD0FC40FCD0FC495E8070084E8ED
:10B65C000700002319930BE0199B5B0068336B44C4
:10B66C0033F8303C1846FFF7A5FF199B01331993AB
:10B67C000D9B199A9A42EFD300BF00BF1BB030BD8F
:10B68C00683A002000B583B001900B46ADF802304B
:10B69C0013468DF801309DF80130002B06D0BDF813
:10B6AC0002301946019806F00BFC05E0BDF802309B
:10B6BC001946019806F01CFC00BF03B05DF804FBB2
:10B6CC0000B585B001900091019B9B88ADF80E30C0
:10B6DC00019B1B88103B0A2B00F2868001A252F8BA
:10B6EC0023F000BF1DB7020055B70200F5B70200EA
:10B6FC00F5B70200F5B70200F5B70200F5B7020086
:10B70C00F5B70200F5B70200BFB7020061B702003F
:10B71C00FFF782FFBDF80E301846FFF72BFF0346EC
:10B72C0083F00103DBB2002B03D0042005F0BEFA3A
:10B73C0057E0019BDB7B022B53D1BDF80E30194631
:10B74C002B4806F0BDFB4CE0BDF80E301846FFF759
:10B75C0051FF49E0019B1B7AC3F30313DBB28DF855
:10B76C000D309DF80D30032B8CBF01230023DAB272
:10B77C00BDF80E3019461F48FFF784FF9DF80D30B9
:10B78C00022B8CBF01230023DAB2BDF80E30194610
:10B79C001948FFF777FF9DF80D30012B8CBF012363
:10B7AC000023DAB2BDF80E3019461448FFF76AFFD1
:10B7BC001AE0019B1B7A002B15D1019B5B7AC3F31A
:10B7CC00C003DBB2002B14BF012300238DF80C3017
:10B7DC009DF80C20BDF80E3019460648FFF752FFB5
:10B7EC0001E000BF00E000BF00BF05B05DF804FB46
:10B7FC00743A0020803A00207C3A0020783A0020ED
:10B80C0000B583B00346ADF80630BDF80630132BF7
:10B81C0001D9002306E0BDF806301946034806F0AE
:10B82C0080FB0346184603B05DF804FB6C3A00201D
:10B83C0000B585B00346ADF8063000238DF80F3007
:10B84C00BDF806301846FFF7DBFF0346002B11D07E
:10B85C00BDF8063019460A4806F063FB03468DF81E
:10B86C000E309DF80E30002B01D0022300E0012396
:10B87C008DF80F309DF80F30184605B05DF804FBBD
:10B88C00703A002000B583B00190054B5A68019BBB
:10B89C0011461846FFF73CFE019803B05DF804FB17
:10B8AC00683A002082B00190019B1B781AB2019B70
:10B8BC0001331B781B021BB213431BB29BB21846FD
:10B8CC0002B07047AADF704700BF1846ABDF704765
:10B8DC0000BF184600B585B001900198FFF7E2FF54
:10B8EC000346ADF80E30BDF80E3003F00103002B0B
:10B8FC0014BF01230023DBB2184605B05DF804FB2E
:10B90C0000B585B00190009100238DF80F309DF8A3
:10B91C000F305A1C8DF80F201A46019B1344009AC5
:10B92C0012781A709DF80F305A1C8DF80F201A4699
:10B93C00019B1344009A52781A709DF80F30022B19
:10B94C000CBF01230023DBB20293029B002B02D11C
:10B95C00002005F0ABF99DF80F30184605B05DF8E6
:10B96C0004FB00B583B001900091009809F08EFCA7
:10B97C0003469AB2019B1A80019B009A5A6000BF41
:10B98C0003B05DF804FB000082B0034600918DF813
:10B99C000730009A13786FF303031370009A13782F
:10B9AC006FF3071313709DF80730052B5BD801A2BA
:10B9BC0052F823F0D9B90200EFB9020009BA02001B
:10B9CC0023BA02003DBA020057BA0200009A13785B
:10B9DC006FF303031370009A13786FF3071313704C
:10B9EC0040E0009A1378012161F303031370009A6D
:10B9FC001378012161F30713137033E0009A137865
:10BA0C00012161F303031370009A1378022161F38F
:10BA1C000713137026E0009A1378012161F30303D6
:10BA2C001370009A1378032161F30713137019E054
:10BA3C00009A1378022161F303031370009A1378B0
:10BA4C00012161F3071313700CE0009A13780221A3
:10BA5C0061F303031370009A1378022161F3071347
:10BA6C00137000BF00BF00BF02B0704700B595B0A7
:10BA7C00034602910192ADF80E30029B9B78002B8D
:10BA8C0003D101238DF81E3003E0029B9B788DF8C7
:10BA9C001E30029B1B88ADF81C3006AB0322002124
:10BAAC00184609F059FC029B5B7C06AA1146184605
:10BABC00FFF76AFF029B9A7C06AB013319461046CE
:10BACC00FFF762FF029BDA7B9DF81A3062F3C30327
